:020000040800F2
:1000000000000220D9240008312100083321000813
:1000100035210008372100083921000800000000C0
:100020000000000000000000000000004175000812
:100030003B21000800000000E1750008457600083B
:100040002925000829250008292500082925000858
:100050002925000829250008292500082925000848
:100060003D2100084721000829250008292500080E
:10007000292500085121000861210008712100088C
:100080002925000829250008292500082925000818
:100090002925000829250008292500082925000808
:1000A00029250008812100082925000829250008A4
:1000B00029250008292500082925000829250008E8
:1000C00029250008292500082925000829250008D8
:1000D00029250008292500082925000829250008C8
:1000E00029250008292500082925000829250008B8
:1000F00029250008292500082925000829250008A8
:100100002925000829250008292500082925000897
:100110009121000829250008292500082925000823
:100120002925000829250008292500082925000877
:100130002925000800000000000000002925000813
:10014000292500082925000829250008A1210008E3
:100150002925000829250008292500082925000847
:100160002925000829250008292500082925000837
:10017000292500082925000829250008000000007D
:100180000000000029250008000000000000000019
:1001900029250008000000000000000029250008B3
:1001A00000000000000000000000000029250008F9
:1001B00029250008292500082925000829250008E7
:0401C00029250008E5
:1001D00010B5054C237833B9044B13B10448AFF381
:1001E00000800123237010BD58090020000000008A
:1001F0005C9F000808B5034B1BB103490348AFF3EC
:10020000008008BD000000005C0900205C9F000821
:1002100053B94AB9002908BF00281CBF4FF0FF316D
:100220004FF0FF3000F074B9ADF1080C6DE904CE69
:1002300000F006F8DDF804E0DDE9022304B07047C1
:100240002DE9F047089D04468E46002B4DD18A4289
:10025000944669D9B2FA82F252B101FA02F3C2F1BC
:10026000200120FA01F10CFA02FC41EA030E94404D
:100270004FEA1C48210CBEFBF8F61FFA8CF708FB6E
:1002800016E341EA034306FB07F199420AD91CEB46
:10029000030306F1FF3080F01F81994240F21C8178
:1002A000023E63445B1AA4B2B3FBF8F008FB1033C0
:1002B00044EA034400FB07F7A7420AD91CEB0404F5
:1002C00000F1FF3380F00A81A74240F207816444C5
:1002D000023840EA0640E41B00261DB1D44000234A
:1002E000C5E900433146BDE8F0878B4209D9002DAE
:1002F00000F0EF800026C5E9000130463146BDE838
:10030000F087B3FA83F6002E4AD18B4202D38242A1
:1003100000F2F980841A61EB030301209E46002D50
:10032000E0D0C5E9004EDDE702B9FFDEB2FA82F2A5
:10033000002A40F09280A1EB0C014FEA1C471FFA03
:100340008CFE0126200CB1FBF7F307FB131140EAEA
:1003500001410EFB03F0884208D91CEB010103F1B7
:10036000FF3802D2884200F2CB804346091AA4B279
:10037000B1FBF7F007FB101144EA01440EFB00FE4D
:10038000A64508D91CEB040400F1FF3102D2A645B2
:1003900000F2BB800846A4EB0E0440EA03409CE751
:1003A000C6F12007B34022FA07FC4CEA030C20FAFE
:1003B00007F401FA06F31C43F9404FEA1C4900FA1E
:1003C00006F3B1FBF9F8200C1FFA8CFE09FB18119B
:1003D00040EA014108FB0EF0884202FA06F20BD90E
:1003E0001CEB010108F1FF3A80F08880884240F25E
:1003F0008580A8F102086144091AA4B2B1FBF9F0A2
:1004000009FB101144EA014100FB0EFE8E4508D99C
:100410001CEB010100F1FF346CD28E456AD9023821
:10042000614440EA0840A0FB0294A1EB0E01A14206
:10043000C846A64656D353D05DB1B3EB080261EB74
:100440000E0101FA07F722FA06F3F1401F43C5E94E
:10045000007100263146BDE8F087C2F12003D84084
:100460000CFA02FC21FA03F3914001434FEA1C47C6
:100470001FFA8CFEB3FBF7F007FB10360B0C43EAB8
:10048000064300FB0EF69E4204FA02F408D91CEB68
:10049000030300F1FF382FD29E422DD90238634466
:1004A0009B1B89B2B3FBF7F607FB163341EA034106
:1004B00006FB0EF38B4208D91CEB010106F1FF3855
:1004C00016D28B4214D9023E6144C91A46EA00464C
:1004D00038E72E46284605E70646E3E61846F8E6DE
:1004E0004B45A9D2B9EB020864EB0C0E0138A3E727
:1004F0004646EAE7204694E74046D1E7D0467BE708
:10050000023B614432E7304609E76444023842E77F
:10051000704700BF844641EA000313F003036DD126
:10052000403A41D351F8043B40F8043B51F8043BB6
:1005300040F8043B51F8043B40F8043B51F8043BBD
:1005400040F8043B51F8043B40F8043B51F8043BAD
:1005500040F8043B51F8043B40F8043B51F8043B9D
:1005600040F8043B51F8043B40F8043B51F8043B8D
:1005700040F8043B51F8043B40F8043B51F8043B7D
:1005800040F8043B51F8043B40F8043B51F8043B6D
:1005900040F8043B51F8043B40F8043B51F8043B5D
:1005A00040F8043B403ABDD2303211D351F8043BFD
:1005B00040F8043B51F8043B40F8043B51F8043B3D
:1005C00040F8043B51F8043B40F8043B103AEDD2AC
:1005D0000C3205D351F8043B40F8043B043AF9D2FD
:1005E000043208D0D2071CBF11F8013B00F8013BD0
:1005F00001D30B8803806046704700BF082A13D3DD
:100600008B078DD010F003038AD0C3F10403D21AF4
:10061000DB071CBF11F8013B00F8013B80D331F828
:10062000023B20F8023B7BE7043AD9D3013A11F8A8
:10063000013B00F8013BF9D20B7803704B78437013
:100640008B78837060467047002380F840300368E1
:100650001A6812F0080F09D06FF008021A600368D8
:100660001A685A68DA6842F01002DA60704780ED62
:10067000000A002343608360C360C0ED040A80ED7C
:10068000051A7047D0ED007A90ED047A77EE877AFC
:10069000C0ED017A90ED057A37EE877AC7EE876A6A
:1006A000C0ED036A90ED027A30EE470A26EE800A2A
:1006B00037EE000A80ED020AB7EE007A37EE667A6E
:1006C00067EE877AC0ED007A7047000070B50E467D
:1006D000154648B1114B93FBF0F3114A12689BB2D7
:1006E000013B9362002409E00D4B1B6800229A62D3
:1006F000F8E75A2001F046FF0134E4B2B442F8D3DF
:10070000074B1B6800249C6204E05A2001F03AFF6A
:100710000134E4B2AC42F8D370BD00BF80B92A0006
:100720001C13002010B52F4C0C21204604F044FC73
:10073000236814221A640122042140F21640FFF7B4
:10074000C5FF012204214FF46970FFF7BFFF0022AB
:10075000012140F21640FFF7B9FF0022022140F2CA
:10076000DD40FFF7B3FF0022032140F27550FFF791
:10077000ADFF012211464FF4B960FFF7A7FF012238
:1007800011460020FFF7A2FF012211464FF4C4607A
:10079000FFF79CFF012211464FF4C460FFF796FF5C
:1007A000012211464FF4C460FFF790FF0122114669
:1007B0004FF4F760FFF78AFF012211464FF4F7600C
:1007C000FFF784FF012211464FF4F760FFF77EFF29
:1007D000012211464FF4F760FFF778FF23680022EB
:1007E0001A6410BD1C130020B0B1AAB101701168C9
:1007F0004160516881609268C26080ED040AC0ED7A
:10080000050A00228263426302630262C26282625C
:10081000426242640264C2637047000003460028DB
:1008200000F0A380D0ED107AC0ED117AD0ED0F6A00
:10083000C0ED106AC0ED060A80ED070A70EEC00A2E
:10084000C0ED0F0A0278002A4CD190ED017A20EE1B
:10085000877A80ED097AD0ED027A60EEA77A90ED82
:100860000A6A77EE867AC0ED0A7A426B8263026B7F
:10087000426370EEE60AC0ED0C0AD0ED036A60EE4A
:10088000A60AC0ED0B0AD0ED056AF4EEE67AF1EEA9
:1008900010FA13DDC0ED0A6AD3ED0A7A37EE277A33
:1008A00070EE870AC3ED080AD3ED047AF4EEE70A86
:1008B000F1EE10FA0CDDC3ED087A15E0F1EE666A90
:1008C000F4EEE67AF1EE10FAE6D5C0ED0A6AE3E757
:1008D000F1EE677AF4EEE70AF1EE10FA04D5C3ED13
:1008E000087A01E0012A02D093ED080A704790EDE2
:1008F000017A30EEE66A27EE067A80ED097A90ED0D
:10090000026A20EE866A80ED0A6A426B8263026B9D
:10091000426376EEA66A70EEE60A77EEA00AC0EDB4
:100920000C0AD0ED037A60EEA77AC0ED0B7A37EEB1
:10093000067A77EE877A90ED087A77EE877AC0EDBF
:10094000087A90ED047AF4EEC77AF1EE10FA02DD3F
:1009500080ED087AC8E7B1EE477AF4EEC77AF1EE97
:1009600010FAC1D580ED087ABEE79FED010A704705
:100970000000000010B596B04C1CA400224610499F
:1009800001A8FFF7C7FD04F154036B44002203F8EC
:10099000542C04F155036B4403F8542C04F1560312
:1009A0006B44802203F8542C04F157036B447F22DC
:1009B00003F8542C214601A807F06CFC16B010BDBA
:1009C0007409002008B5194A116C194B1960516C53
:1009D0005960916C9960116BD96016491961116861
:1009E0005961516899619168D961D2F8A81019626A
:1009F000D2F8C0105962D2F8D8109962D168D96281
:100A00001169196351695963D2F8F0109963D2F8EA
:100A10000811D963D2F820211A6414210648FFF77F
:100A2000A9FF022006F0ECFCCDE700BFC4090020BE
:100A300074090020000020420C14002010B52DED98
:100A4000028B044600F0A8FB9FED0C8AF0EE482ACA
:100A5000B0EE482AF0EE481A94ED021AD4ED010ADD
:100A600094ED000A00F0EAFB054B83ED138A83ED59
:100A7000148A83ED158ABDEC028B10BD00000000C6
:100A8000C409002010B59FED283AB0EE434AF0EEBD
:100A9000433AD1ED022A91ED012AD1ED001A90EDF1
:100AA000021AD0ED010A90ED000A00F0E7FD00F017
:100AB000C7FF01F047F81D4C84ED0D0A01F02CF83A
:100AC00084ED0E0A01F054F884ED0F0AD4ED157A86
:100AD0009FED177A77EE877AC4ED157A636B2364FE
:100AE000A36B636430EE670A84ED120ADFED117ABE
:100AF000B4EEE70AF1EE10FA06D5DFED0F7A30EE2C
:100B0000270A84ED120A10BDDFED0C7AB4EEE70A75
:100B1000F1EE10FAF7DDDFED087A30EE670A034BED
:100B200083ED120AEFE700BF00000000C4090020B7
:100B300049926938000034C30000B44300003443D4
:100B400000B585B004210A4804F036FA094A01AB21
:100B500007CA83E80700DFED080A9FED080A1A4676
:100B600001210748FFF740FE05B05DF804FB00BF18
:100B700064130020749F00080000484400389C451E
:100B80001C0A002010B5F0EE400A0D4C94ED0C0A42
:100B900004F15800FFF742FED4ED1E7AF5EEC07A5C
:100BA000F1EE10FA09D4064BD3ED1E7A054B1B6803
:100BB000FCEEE77AC3ED0E7A10BD0022A267F2E7E1
:100BC000C409002064130020F8B52DED048B00F05B
:100BD00017FA0028FBD107463B4800F1300200F12C
:100BE0000C0100F01BFA3C4622E09FED389ADFED45
:100BF000388A9FED388A344E650004EB4400C0000B
:100C0000A030B0EE491AF0EE680AB0EE480A30445F
:100C1000FFF72DFD2819C000E830B0EE491AF0EEBC
:100C2000680AB0EE480A3044FFF721FD0134E4B20F
:100C3000022CDAD928489FED290AFFF7FFFEFFF7BB
:100C40007FFF37E0204D05EB8403660004EB440092
:100C5000C000A03093ED000A2844FFF713FDA31D48
:100C600005EB830383ED000AA31C05EB8303301916
:100C7000C000E83093ED010A2844FFF703FD04F1BA
:100C8000080305EB830585ED010A0134E4B2022C6B
:100C9000D8D90D4800F124011830FFF7F3FE9FED7D
:100CA000100AFFF76FFF4FF47A7000F091FF0120F8
:100CB00006F0A6FB044800F1300200F10C0100F040
:100CC000ADF93C46E3E700BFC4090020CDCCCC3DE4
:100CD0006F12833A0AD7233CDC0900200000FA4354
:100CE000000020427047704710B44FF0E0235C6969
:100CF0004FF0A80C0CFB00FC9B69002104E0E01AFB
:100D000002441144614509D21A464FF0E0239B6921
:100D10009A42FAD0F3D9D21A1144F3E75DF8044BA2
:100D2000704710B504E04FF47A70FFF7DDFF2046FE
:100D3000431E9CB20028F6D110BD000008B5002269
:100D40000221024801F092FF08BD00BF00040240EA
:100D500008B501220221024801F088FF08BD00BF4A
:100D60000004024008B500220121024801F07EFF84
:100D700008BD00BF0004024008B501221146024828
:100D800001F074FF08BD00BF0004024000B587B049
:100D90008DF80F004FF47A73009301230DF11702C1
:100DA0000DF10F01034803F0DCFC9DF8170007B0BC
:100DB0005DF804FB7812002010B50C46FFF7E6FF43
:100DC0002046FFF7E3FF10BD10B50C4640F0800051
:100DD000FFF7DCFF5520FFF7D9FF207010BD38B5B5
:100DE0000D46144640F08000FFF7D0FF06E0552086
:100DF000FFF7CCFF05F8010B013CE4B2002CF6D163
:100E000038BD0000F8B5FFF799FF8020FFF7BEFF5F
:100E10005520FFF7BBFF5520FFF7B8FFFFF798FFFE
:100E20009620FFF761FFFFF789FF8020FFF7AEFFF5
:100E30005520FFF7ABFF5520FFF7A8FFFFF788FF0E
:100E40009620FFF751FFFFF779FFB6217E20FFF7CD
:100E5000B3FFFFF77DFF5020FFF763FFFFF76EFF43
:100E60008020FFF793FF5520FFF790FF5520FFF7F5
:100E70008DFFFFF76DFF9620FFF736FFFFF75EFF50
:100E80008020FFF783FF5520FFF780FF5520FFF7F5
:100E90007DFF0446FFF75CFF9620FFF725FF1E2C21
:100EA00032D10024052C2DD8FFF748FF174A04EB58
:100EB0004403D1184E78D55C31462846FFF77CFFB5
:100EC000FFF746FF9620FFF70FFFFFF737FF45F0CC
:100ED0008000FFF75BFF5520FFF758FF5520FFF715
:100EE00055FF0546FFF734FF9620FFF7FDFEAE42A3
:100EF00002D10134E4B2D5E704EB4407034B1F44AD
:100F0000B87800E00020F8BDFF20FCE7F89F00085B
:100F1000F0B583B000248DF80740FFF723FF0DF1F3
:100F200007012046FFF750FFFFF726FF9620FFF747
:100F3000DBFEFFF717FF0DF107012046FFF744FF27
:100F4000FFF71AFF9620FFF7CFFEFFF70BFFB62142
:100F50001420FFF731FFFFF70FFF5020FFF7E1FEEE
:100F6000FFF700FF0DF107012046FFF72DFFFFF708
:100F700003FF9620FFF7B8FEFFF7F4FE0DF107011F
:100F80002046FFF721FFFFF7F7FE9620FFF7ACFEA4
:100F90009DF807300F2B2ED1052C29D8FFF7E2FE44
:100FA000164A04EB4403D1184D78D65C29463046E6
:100FB000FFF702FFFFF7E0FE9620FFF795FEFFF731
:100FC000D1FE0DF107013046FFF7FEFEFFF7D4FE1C
:100FD0009620FFF789FE9DF807309D4202D101342B
:100FE000E4B2D9E704EB4407044B1F44B87800E0AF
:100FF000002003B0F0BDFF20FBE700BF0CA00008FD
:1010000010B5FFF76FFEFFF76EFEFFF7FBFE04461D
:10101000FFF77EFF2043C0B210BD0000F0B583B0E3
:1010200006460D461446594B93E803000090ADF870
:101030000410090C8DF8061000278DF80770FFF7D3
:101040007DFE9220FFF7A2FE062269461220FFF7DE
:10105000C6FEFFF77DFE9DF801301B021BB29DF816
:101060000020134307EE903AF8EEE77A484A92EDF3
:10107000007A67EE877AC5ED007A9DF803301B028F
:101080001BB29DF802100B4307EE103AD2ED006A36
:10109000B8EEC77A27EE267A85ED017A9DF80530FD
:1010A0001B021BB29DF80420134307EE903AF8EEA2
:1010B000E77A67EEA67AC5ED027AFFF753FE0822BB
:1010C00069463846FFF78BFEFFF756FE9DF8003065
:1010D0000F2B27D0FFF732FEA220FFF757FE022288
:1010E00069462220FFF77BFEFFF732FE9DF80020C5
:1010F0009DF801305B0943EAC203B3F5806F01DB61
:10110000A3F5006307EE903AF8EEE77AB4EE007AC2
:1011100067EE877AB3EE077A77EE877AC4ED007AC6
:1011200003B0F0BD9DF803301B021BB29DF80220F6
:10113000134307EE903AF8EEE77A164A92ED007AFA
:1011400067EE877AC6ED007A9DF805301B021BB268
:101150009DF804100B4307EE103AD2ED006AB8EE8A
:10116000C77A27EE267A86ED017A9DF807301B02B2
:101170001BB29DF80620134307EE903AF8EEE77A8B
:1011800067EEA67AC6ED027AA4E700BF809F00084A
:10119000000000200400002000230E4A1360F7EE38
:1011A000007A0D4AC2ED007A0C4A13600C4A1360B3
:1011B0000C4A13600C4A13600C4A13600C4A13600B
:1011C0000C4B00221A7087EE807A0B4B83ED007A6D
:1011D000704700BF200B00200C0B0020100B0020DC
:1011E000140B0020180B0020F80A0020FC0A002035
:1011F000000B0020F40A0020040B0020B6EE007A59
:1012000020EE077A10EE102A0B4BA3EB620307EED9
:10121000903A27EE870A27EE800AF7EE086A36EE44
:10122000C00A67EE807A27EE877A27EE877A36EE55
:10123000C70A27EE800A7047DF59375FF8B52DEDF2
:101240000A8BB0EE409AF0EE608AB0EE418AB0EEC2
:1012500061BAB0EE42AAB0EE62CA60EE007A20EE49
:10126000A00A77EE807A21EE010A37EE800AFFF7B6
:10127000C5FF29EE009A68EE808A28EE008A6BEEA0
:101280000B7A2AEE0A0A77EE807A2CEE0C0A37EEF9
:10129000800AFFF7B3FF2BEE00BA6AEE00AA2CEE2D
:1012A00000CAF0EE480AB1EE490A07F0ABFDF0EED5
:1012B00040BAF0EE480AB0EE680A07F0A3FDB0EEBF
:1012C00040AA07F039FDF0EE409AB0EE4A0A07F066
:1012D000FBFCB0EE408AB0EE6B0A07F0F5FCF0EED6
:1012E000408AB0EE6B0A07F027FDF0EE407A6BEE15
:1012F000280A2AEE800A20EE290A70EE800A6CEE97
:10130000277A67EE887A2AEE887A6CEE299A37EE89
:10131000697A70EEA70AB1EE470A07F073FDB0EEE6
:10132000409AF6EE008A2AEE28AAB0EE4A0A07F0A2
:10133000CBFCB0EE40CA6BEEA8BAB0EE6B0A07F079
:10134000C3FCF0EE40AA29EE289AB0EE490A07F055
:10135000BBFCB0EE40BAB0EE4A0A07F0EDFCB0EECE
:1013600040AAB0EE6B0A07F0E7FCB0EE408AB0EEA0
:10137000490A07F0E1FC6CEE2A7A67EE8B9A6AEE76
:10138000086A26EE807A79EE879A224FC7ED009A96
:101390002AEE8A7A27EE0B9A2CEE088A28EE006A4B
:1013A00039EE469A1C4E86ED009A28EE0B8A27EEFF
:1013B000007A38EE078A194D85ED008A67EE807A4B
:1013C00066EE8B8A77EEE88A154CC4ED008A69EEEA
:1013D000A97A29EE090A77EE807A28EE080A77EED4
:1013E000807A28EEA80A37EE800AFFF707FF69EE39
:1013F000807AC7ED007A69EE007AC6ED007A28EEB1
:10140000008A85ED008A68EE808AC4ED008ABDEC12
:101410000A8BF8BD0C0B0020100B0020140B0020D1
:10142000180B0020F8B52DED068BB0EE408AF0EEDB
:10143000608AB0EE41AAB0EE619AF0EE42AAF0EEF8
:10144000629AF5EE401AF1EE10FA09D1B5EE402A93
:10145000F1EE10FA04D1F5EE402AF1EE10FA7ED04A
:1014600069EE097A2AEEAA0A77EE807A29EEA90AAD
:1014700037EE800AFFF7C2FE29EE009A6AEE80AAD4
:1014800069EE809A744BD3ED001A744B93ED007A99
:1014900021EE872A724BD3ED007A724BD3ED006AAE
:1014A00027EEA66A32EE462A61EEA71A67EE266A92
:1014B00071EEA61A67EEA77AF6EE006A77EEE67A84
:1014C00027EE077A77EE877A6AEEA76A29EEA17A85
:1014D00076EEC76A69EE829A69EE277A79EEE79A24
:1014E00029EE219A6AEE82AA39EE6A9A5E4B93ED52
:1014F000007AB5EEC07AF1EE10FA40F3A48067EE00
:10150000265A5A4BD3ED007A65EEA75A584B93ED05
:10151000006A75EE865AC3ED005A27EE296A27EE57
:10152000866A544B93ED005A36EE056A83ED006AE5
:1015300027EE097A67EE877A4F4B93ED007A77EEC4
:10154000877AC3ED007A38EE258A78EE868A3AEEFD
:1015500027AA38EE268A78EEA98A3AEE09AA434BE2
:10156000D3ED007AB6EE001A67EE817A27EE888A0C
:1015700067EEA88A27EE8A1A394F97ED007A364E21
:10158000D6ED000A374D95ED000A20EEC8AA68EEA8
:10159000807A3AEE67AA314CD4ED007A67EE816A20
:1015A0003AEE66AA3AEE07AA87ED00AA68EE079A15
:1015B00061EE006A79EEA69A67EEA86A79EEE69A7D
:1015C00079EEA09AC6ED009A28EE879A61EE206A1D
:1015D00039EE669A67EE886A39EE269A39EE009AF5
:1015E00085ED009A21EE071A68EEA08A31EE281ADE
:1015F00028EE008A31EE481A37EE818A84ED008A9F
:101600006AEE0A7A29EEA90A77EE807A29EE090AAB
:1016100077EE807A28EE080A37EE800AFFF7EEFDB3
:101620002AEE00AA87ED00AA69EE809AC6ED009A1C
:1016300029EE009A85ED009A28EE001A84ED001A32
:10164000BDEC068BF8BD0023094A1360094A1360FC
:10165000094A13607DE700BF100B0020180B002023
:101660000C0B0020140B0020200B0020040B00208A
:10167000F80A0020FC0A0020000B0020F0B52DED38
:10168000108B87B0F0EE409AB0EE60AAB0EE41DA6F
:10169000B0EE618AF0EE42AAF0EE62BAF0EE438A52
:1016A000B0EE63BAB0EE449AB5EE403AF1EE10FAFD
:1016B0000AD1F5EE403AF1EE10FA05D1B5EE404A06
:1016C000F1EE10FA00F09D81B5EE408AF1EE10FACD
:1016D0000AD1F5EE40AAF1EE10FA05D1F5EE40BAC6
:1016E000F1EE10FA00F0158168EE087A2AEEAA0AE7
:1016F00077EE807A2BEEAB0A37EE800AFFF77EFD9D
:1017000068EE006ACDED026A6AEE805ACDED035AAA
:101710002BEE805A8DED045A68EEA87A2BEE0B0A58
:1017200077EE807A29EE090A37EE800AFFF766FD28
:1017300068EE808A2BEE00BA29EE009AB64BD3ED04
:10174000007A27EEA77A8DED057AB44BD3ED00AA87
:1017500027EEAAFAB24B93ED008A67EE88FAB14BF6
:10176000D3ED00CA67EEAC7A2AEEAACA2AEE887ACE
:101770006AEEACAA68EE08EA28EE2C8A6CEEACCAD7
:10178000B6EE00EA7EEE6EBA7BEEECBA2BEEA80A5D
:1017900077EE67DA6DEE8B6A30EE260A3FEEAA6AC4
:1017A0008DED016A66EE096A30EE260A30EE000A17
:1017B00077EE877A67EEA87A3EEE4CCA3CEE6C7AFA
:1017C00027EE0B7A77EE877A38EE4F7A27EE097A92
:1017D00077EE877A77EEA77A20EE000A67EEA77A8F
:1017E00030EE270A07F010FB7AEEEFAA6AEEA87A2D
:1017F0003FEE088A28EE0B7A77EE877A3CEE6ECAC7
:101800006CEE09EA77EEAE7A77EEA77A9DED057A6F
:1018100037EE4EEA7EEE2CCA6BEE80BA2AEEA77A3D
:101820007BEE87BA6DEE80DA28EE277A7DEE87DAD6
:101830009DED016A26EE000A6CEE277A70EE277A9B
:10184000DDED035A25EEAC7A9DED045A68EE056A8B
:1018500077EE666A2BEE277A29EE2D6A37EE467A06
:1018600036EE877A6AEE852ADDED026A66EEACCA4C
:1018700072EEECCA29EE2B9A68EEA77A39EE679AD7
:101880003CEE899A28EE268A6AEEA5AA38EE6A8A84
:1018900068EEAD8A2BEE2BBA78EECB8A38EE288A2A
:1018A000614BD3ED006AF5EEC06AF1EE10FA40F339
:1018B000AB8066EE875A5D4BD3ED007A65EEA75A92
:1018C0005B4B93ED006A75EE865AC3ED005A26EE27
:1018D000896A27EE866A574B93ED005A36EE056A01
:1018E00083ED006A66EE886A67EEA67A524BD3ED06
:1018F000006A77EEA67AC3ED007A79EEA59A3AEE01
:1019000006AA3DEE27DA79EE879A3AEE09AA3DEE6D
:1019100008DA464B93ED001AF6EE007A21EE271A0C
:1019200061EE299A21EE0AAA21EE0DDA3A4F97EDDF
:10193000001A3A4ED6ED000A394D95ED000A20EE18
:10194000E99A6AEE007A39EE679A364CD4ED007A5D
:1019500027EE8D7A39EE479A39EE019A87ED009A93
:1019600069EE818A2DEE007A78EE878A27EE8A7AF0
:1019700078EEC78A78EEA08AC6ED008A2AEE018A40
:101980002DEE207A38EE478A27EEA97A38EE078ABC
:1019900038EE008A85ED008A2DEE01DA2AEE20AAC3
:1019A0003DEE0ADA69EE809A3DEE69DA37EE8DDABD
:1019B00084ED00DA69EE097A28EEA80A77EE807ADB
:1019C00028EE080A77EE807A2DEE0D0A37EE800AAF
:1019D000FFF714FC29EE009A87ED009A68EE808AE2
:1019E000C6ED008A28EE008A85ED008A2DEE00DA29
:1019F00084ED00DA114B00221A7007B0BDEC108B99
:101A0000F0BDFFF70FFDF8E70023094A1360094A0C
:101A10001360094A136076E70C0B0020100B0020BE
:101A2000140B0020180B0020200B0020040B0020BA
:101A3000F80A0020FC0A0020000B0020F40A002015
:101A4000F8B52DED028B2C4ED6ED000A2B4C94ED03
:101A5000000A20EE800A2A4FD7ED007A294D95ED35
:101A6000007A27EE877A60EEA00AB6EE008A78EE5A
:101A7000600A67EEA77A70EEE70A30EE070A07F011
:101A8000C1F9214B83ED000AD6ED007A95ED000AED
:101A900067EE807A94ED000A97ED007A20EE070A4F
:101AA00077EEC07AB8EE000A27EE800A07F07EF9DA
:101AB000164B83ED000AD7ED000A96ED000A20EEE2
:101AC000800AD5ED007A94ED007A27EE877A60EEF1
:101AD000A00A78EE600A67EEA77A70EEE70A30EEA9
:101AE000070A07F08FF90A4B83ED000A094B012220
:101AF0001A70BDEC028BF8BD100B00200C0B0020FF
:101B0000140B0020180B00201C0B0020080B0020D9
:101B1000240B0020F40A002008B5074B1B783BB1CA
:101B2000064B93ED000ADFED067A20EE270A08BD8A
:101B3000FFF786FFF4E700BFF40A00201C0B00202B
:101B4000E12E654208B5074B1B783BB1064B93ED80
:101B5000000ADFED067A20EE270A08BDFFF770FFC6
:101B6000F4E700BFF40A0020080B0020E12E6542D4
:101B700008B5074B1B783BB1064B93ED000ADFED30
:101B8000067A20EE270A08BDFFF75AFFF4E700BFE8
:101B9000F40A0020240B0020E12E6542074B1B684D
:101BA000074AA2FB0312920C06490A70064AA2FBDE
:101BB00003239B09054A1360704700BF08000020FB
:101BC00083DE1B432C0B0020D34D6210280B00201A
:101BD00010B44FF0E0235C690C4A92F800C000FB9F
:101BE0000CFC9B69002104E0E01A024411446145A9
:101BF00009D21A464FF0E0239B699A42FAD0F3D9F2
:101C0000D21A1144F3E75DF8044B70472C0B002007
:101C100010B582B000240194114B1A6B42F40012EB
:101C20001A631B6B03F400130193019B22460521E9
:101C30000D2000F0CDFC0D2000F002FD2246052114
:101C40000E2000F0C5FC0E2000F0FAFC2246052113
:101C50000F2000F0BDFC0F2000F0F2FC02B010BD20
:101C60000038024008B506F0C3FA012005F0C8FBB1
:101C7000FBE7000008B5FFF791FFFEF753FD0121D8
:101C8000034800F0F9FF4FF47A7005F0B9FBF6E76E
:101C900000080240034B0360034B0B60802313607A
:101CA000704700BF380D0020380B002030B59DB0C4
:101CB000234C0DF1540CA646BEE80F00ACE80F0013
:101CC0009EE807008CE80700002115A805F063FBDB
:101CD0001C4B18600DF1380C04F11C0EBEE80F000F
:101CE000ACE80F009EE807008CE8070000210EA872
:101CF00005F051FB144D28600DF11C0C04F1380E59
:101D0000BEE80F00ACE80F009EE807008CE8070073
:101D1000002107A805F03FFB2860EE4604F1540CB3
:101D2000BCE80F00AEE80F009CE807008EE8070053
:101D30000021684605F02FFB28601DB030BD00BFB4
:101D4000889F0008300B0020340B0020F0B58BB0CA
:101D50000024059406940794089409940194314B47
:101D60001A6B42F080021A631A6B02F08002019231
:101D7000019A02941A6B42F004021A631A6B02F081
:101D800004020292029A03941A6B42F002021A634E
:101D90001A6B02F002020392039A04941A6B42F047
:101DA00001021A631B6B03F001030493049B1E4E94
:101DB00022460121304600F059FF1C4F22460321E4
:101DC000384600F053FF01250595069507940894C1
:101DD00005A9304600F05EFE0C2305934FF4041372
:101DE0000693079505A9304600F054FE032305939A
:101DF00006950794089405A9384600F04BFE224644
:101E00000521082000F0E4FB082000F019FC224620
:101E10000521092000F0DCFB092000F011FC0BB0CB
:101E2000F0BD00BF0038024000080240000402403C
:101E300008B50268034B9A4200D008BD00F090FB41
:101E4000FBE700BF0000014072B6FEE700B595B0A9
:101E50003422002107A806F095FC00230293039387
:101E60000493059306930093214A116C41F080512D
:101E70001164126C02F080520092009A01931D4B83
:101E80001A6842F440421A601B6803F4404301930D
:101E9000019B012307934FF48033089302230D9392
:101EA0004FF480020E9206220F92A82210921193F4
:101EB00007221292139307A802F028F998B90F236A
:101EC000029302230393002304934FF4A05305933A
:101ED0004FF480530693052102A801F059FD20B963
:101EE00015B05DF804FBFFF7AFFFFFF7ADFF00BFD4
:101EF000003802400070004008B500F017FBFFF703
:101F0000A5FFFFF723FFFFF783FE00F0EDF900F0D8
:101F10006BFA00F007F800F025FAFFF7C7FE05F0AE
:101F200035FAFEE708B50F480F4B03604FF4827394
:101F3000436000238360C360022202610122426188
:101F40004FF4007282613022C26103624362836295
:101F50000A23C36202F0A6FB00B908BDFFF774FFB5
:101F6000FBE700BF781200200038004030B589B090
:101F700000230393049305930693079302682F4B62
:101F80009A4201D009B030BD04460025019503F501
:101F900000331A6C42F480421A641A6C02F48042D4
:101FA0000192019A02951A6B42F002021A631B6BAE
:101FB00003F002030293029B4FF444430393022372
:101FC0000493032306930523079303A91C4800F0F9
:101FD00061FD1C481C4B036045608560C5604FF483
:101FE0008063036145618561C5614FF440330362DD
:101FF000456200F09DFBD8B9124BE3649C63134823
:10200000134B03600023436040228260C3604FF49F
:102010008062026143618361C3614FF400320262F6
:10202000436200F085FB30B9084BA3649C63A9E7C9
:10203000FFF70AFFE0E7FFF707FFF5E7003800408A
:1020400000040240B811002058600240181200201D
:102050007060024000B583B0002200920D4B596CB5
:1020600041F480415964596C01F480410091009918
:102070000192196C41F0805119641B6C03F080537C
:102080000193019B0F216FF0010000F0A1FA03B052
:102090005DF804FB0038024030B589B005460024E5
:1020A00001941E4B5A6C42F001025A645B6C03F0BF
:1020B00001030193019B02A903A801F03FFD01F078
:1020C0002DFD43001648A0FB03239B0C013B154844
:1020D000154A026040F2E732C260436004618460E6
:1020E000846102F05BFE044610B1204609B030BDA9
:1020F0000C4802F0EFFC04460028F6D1192000F04D
:102100009FFA0F2D01D90124EFE70022294619205B
:1021100000F05EFA054B1D60E7E700BF00380240A3
:1021200083DE1B43D012002000000140100000207D
:10213000FEE7FEE7FEE7FEE7FEE7704708B504208E
:1021400000F0A4FD08BD08B5082000F09FFD08BD03
:1021500008B5024800F0B0FB08BD00BFAC1300207A
:1021600008B5024800F0A8FB08BD00BFB811002068
:1021700008B5024800F0A0FB08BD00BF18120020FF
:1021800008B5024802F0EEFC08BD00BFD0120020E6
:1021900008B5024803F07CF908BD00BF0C1400200C
:1021A00008B5024801F0B7F808BD00BF88660020F6
:1021B00010B503460C4A0D490D48006840B10C4863
:1021C00000680344521A934206D8094A136010BDAE
:1021D0000748084C0460F2E706F0AAFA0C230360F3
:1021E0004FF0FF30F3E700BF0000022000040000C2
:1021F00018130020C86D0020034AD2F8883043F439
:102200007003C2F88830704700ED00E082B00368C8
:10221000B3F1804F04D00F4A93420ED002B0704702
:10222000002300930C4B1A6C42F001021A641B6CE1
:1022300003F001030093009BF0E700230193064B9A
:102240001A6C42F002021A641B6C03F00203019341
:10225000019BE3E7000400400038024000B589B06C
:102260000023039304930593069307930368B3F144
:10227000804F05D0194A934219D009B05DF804FB8C
:1022800000230193164B1A6B42F002021A631B6B78
:1022900003F002030193019B04230393022304939D
:1022A0000123079303A90F4800F0F4FBE5E700239F
:1022B00002930B4B1A6B42F002021A631B6B03F082
:1022C00002030293029B20230393022304930793A8
:1022D00003A9044800F0DEFBCFE700BF0004004084
:1022E000003802400004024000B58BB00023089380
:1022F0000993019302930393049305930693079321
:1023000017484FF080420260436083601D22C26024
:102310000361836102F06EFDC8B90023089309933D
:1023200008A90F4802F0CAFEA0B960230193002358
:102330000293039305930C2201A9094802F0BEFD04
:1023400058B90748FFF78AFF0BB05DF804FBFFF7A9
:102350007BFDE2E7FFF778FDE7E7FFF775FDF0E7C4
:102360001C13002000B58BB0002308930993019340
:102370000293039304930593069307931848194A0D
:1023800002604360836041F28732C260036183610F
:1023900002F030FDD0B900230893099308A9104832
:1023A00002F08CFEA8B960230193002302930393EB
:1023B000059304220DEB0201094802F07FFD58B994
:1023C0000748FFF74BFF0BB05DF804FBFFF73CFD40
:1023D000E1E7FFF739FDE6E7FFF736FDF0E700BF7D
:1023E000641300200004004008B50A480A4B03604B
:1023F0004FF4E133436000238360C36003610C2228
:1024000042618361C36102F087FF00B908BDFFF735
:102410001BFDFBE70C140020004C004030B589B0D8
:102420000023039304930593069307930268264BB6
:102430009A4201D009B030BD04460025019503F54C
:10244000F6331A6C42F400221A641A6C02F4002269
:102450000192019A02951A6B42F004021A631B6BF7
:1024600003F004030293029B4FF44063039302239F
:102470000493032306930823079303A9134800F04A
:1024800009FB1348134B03604FF000634360856002
:10249000C5604FF48063036145618561C561056274
:1024A000456200F045F958B9094BE3639C6300228B
:1024B0000521342000F08CF8342000F0C1F8B9E791
:1024C000FFF7C2FCF0E700BF004C004000080240EC
:1024D000AC13002040600240DFF834D0FFF78CFEE0
:1024E0000C480D490D4A002302E0D458C45004336F
:1024F000C4188C42F9D30A4A0A4C002301E0136045
:102500000432A242FBD306F019F9FFF7F5FC70473D
:10251000000002200000002054090020DCA4000874
:1025200058090020C46D0020FEE7000008B50B4BE1
:102530001A6842F400721A601A6842F480621A60E3
:102540001A6842F480721A60032000F02FF80F20FE
:10255000FFF7A2FDFFF77EFD002008BD003C024012
:10256000034A1168034B1B780B441360704700BF8C
:10257000541400200C000020014B1868704700BF65
:102580005414002038B50446FFF7F6FF0546B4F1B1
:10259000FF3F02D0044B1B781C44FFF7EDFF401BAC
:1025A000A042FAD338BD00BF0C000020074AD36810
:1025B00023F4E0631B041B0C000200F4E0600343FF
:1025C00043F0BF6343F40033D360704700ED00E095
:1025D00000B5194BDB68C3F30223C3F1070CBCF150
:1025E000040F28BF4FF0040C03F1040EBEF1060FD8
:1025F00018D9033B4FF0FF3E0EFA0CFC21EA0C0108
:1026000099400EFA03F322EA0303194300280BDB77
:102610000901C9B200F1604000F5614080F8001383
:102620005DF804FB0023E5E700F00F000901C9B2E3
:10263000024B1954F4E700BF00ED00E014ED00E098
:10264000002807DB00F01F02400901239340024AE3
:1026500042F82030704700BF00E100E010B403688A
:10266000D9B210390C4AA2FB014212090B4CA25CF0
:10267000C2655F2909D923F47F7323F00303043370
:102680008365806D5DF8044B704723F47F7323F0FE
:1026900003038365F5E700BFABAAAAAA64A00008FC
:1026A000836A826992B9012B0AD0022B02D00BB146
:1026B00000207047C36A13F0807F28D10020704744
:1026C000C36AB3F1C07F24D000207047B2F5005F29
:1026D00009D0022B25D9032B25D1C36A13F0807FA3
:1026E00023D100207047032B03D8DFE803F0140444
:1026F000140A00207047C36A13F0807F0DD10020B8
:102700007047C36AB3F1C07F09D000207047012031
:102710007047012070470120704701207047012059
:10272000704701207047002070470120704700006B
:1027300070B50446FFF720FF002C5BD0054602234E
:1027400084F83530002384F834302268136823F08D
:102750000103136023681A6812F0010F0AD0FFF713
:102760000BFF431B052BF5D920236365032084F859
:10277000350070BD1A68204810406168A2680A439D
:10278000E1680A4321690A4361690A43A1690A436E
:10279000E1690A43216A0A430243616A04291ED09F
:1027A0001A602668756925F00705636A1D43042BC6
:1027B00007D1A36A1D43E36A1BB12046FFF770FFF0
:1027C00090B975612046FFF749FFE26D3F239340C2
:1027D000836000206065012384F83530C9E7E16A31
:1027E000206B01430A43DBE740236365012084F843
:1027F0003500BEE70120BCE73F8010F070B504460D
:10280000866DFFF7B9FE94F83530DBB2022B06D0A7
:1028100080236365002384F83430012070BD0546B1
:102820002268136823F0160313602268536923F0AB
:1028300080035361236CE3B12268136823F008031B
:1028400013602268136823F00103136023681B6878
:1028500013F0010F11D0FFF78FFE431B052BF5D9A5
:1028600020236365032084F83500002384F8343086
:10287000D4E7A36C002BDFD1E3E7E26D3F23934065
:10288000B360012384F83530002084F83400C5E7B4
:1028900090F83530DBB2022B03D080234365012052
:1028A0007047052380F835300268136823F0010370
:1028B0001360002070470000F0B583B00446002389
:1028C0000193724B1D68724BA3FB0535AD0A876DF2
:1028D0003E68C26D08239340334210D003681A68E3
:1028E00012F0040F0BD01A6822F004021A60C26DB5
:1028F00008239340BB60436D43F001034365E26DE1
:1029000001239340334209D02268526912F0800FAC
:1029100004D0BB60636D43F002036365E26D042382
:102920009340334209D02268126812F0020F04D09B
:10293000BB60636D43F004036365E26D1023934055
:10294000334224D02268126812F0080F1FD0BB60F7
:1029500023681A6812F4802F0DD01B6813F4002F1F
:1029600004D1236C9BB12046984710E0A36C73B14F
:10297000204698470BE01A6812F4807F03D11A684A
:1029800022F008021A60236C0BB120469847E26DD2
:1029900020239340334255D02268126812F0100F62
:1029A00050D0BB6094F83530DBB2052B0ED02368D5
:1029B0001A6812F4802F33D01B6813F4002F2AD129
:1029C000636C002B3ED0204698473BE0226813689A
:1029D00023F0160313602268536923F080035361C8
:1029E000236CA3B12268136823F008031360E26D1F
:1029F0003F239340BB60012384F83530002384F8E3
:102A00003430236D002B3FD0204698473CE0A36C28
:102A1000002BE7D1EBE7E36BA3B12046984711E029
:102A20001A6812F4807F09D11A6822F010021A6025
:102A3000012384F83530002384F83430E36B0BB184
:102A400020469847636DFBB1636D13F0010F17D0FB
:102A5000052384F835302268136823F001031360DE
:102A6000019B01330193AB4204D823681B6813F028
:102A7000010FF5D1012384F83530002384F8343078
:102A8000E36C0BB12046984703B0F0BD080000206E
:102A9000B5814E1B00230F2B00F2DE8070B582B093
:102AA00060E085685E000324B44025EA0405CC6834
:102AB000B4402C438460456825EA02054C68C4F3A1
:102AC00000129A402A4342605AE0DC08083450F869
:102AD000246003F0070295000F22AA4026EA020EA6
:102AE0000A69AA4042EA0E0240F824205CE006226D
:102AF00000E0002202FA0EF22A430234574D45F854
:102B00002420574A94686FEA0C0224EA0C054E68A8
:102B100016F4801F01D04CEA0405514CA560E4680E
:102B200002EA04054E6816F4001F01D04CEA0405C1
:102B30004B4CE560646802EA04054E6816F4003FF9
:102B400001D04CEA0405464C6560246822404D687B
:102B500015F4803F01D04CEA0402414C226001335D
:102B60000F2B77D801229A400C6804EA020C32EA53
:102B70000404F4D14C6804F00304013C012C90D906
:102B80004A6802F00302032A09D0C4685D000322E8
:102B9000AA4024EA02048A68AA402243C2604A6822
:102BA00002F00302022A90D004684FEA430E032287
:102BB00002FA0EF224EA02044A6802F0030202FA60
:102BC0000EF2224302604A6812F4403FC7D000224E
:102BD0000192244A546C44F480445464526C02F4CC
:102BE00080420192019A9C08A51C1C4A52F825506B
:102BF00003F003024FEA820E0F2202FA0EF225EAD8
:102C00000205194A90423FF474AF02F58062904287
:102C100016D002F58062904214D002F58062904294
:102C200012D002F58062904210D002F5806290428C
:102C30000ED002F5806290423FF459AF072259E767
:102C4000012257E7022255E7032253E7042251E706
:102C500005224FE702B070BD704700BF0038014049
:102C6000003C014000380240000002400AB181618E
:102C70007047090481617047436901EA030221EA50
:102C8000030141EA024181617047704708B5054B75
:102C90005B69034200D108BD024B5861FFF7F5FFA5
:102CA000F9E700BF003C01402DE9F04383B0D0F8C4
:102CB000008001EBC10300EB83039A6A5B6A9A42CE
:102CC00054D807460C469B1A01EBC10200EB820266
:102CD000D2699A4200D31A4602F103094FEA9909D0
:102CE00015E006F103094FEA9909BB7904EBC40525
:102CF00007EB8505296A0093B3B2E2B2404603F0C0
:102D00003CF82B6A33442B62AB6A3344AB6208EB6A
:102D1000441303F510639B699BB24B4512D304EB3C
:102D2000C40207EB8202916A536A99420AD24BB1FC
:102D30005B1A04EBC40207EB8202D6699E42D0D331
:102D40001E46CEE704EBC40007EB80077A6ABB6A35
:102D50009A420FD804F00F040123A340D8F8344856
:102D600024EA0304C8F83448002000E0012003B03E
:102D7000BDE8F0830020FAE730B583B0002800F00A
:102D800082800446056890F89534C3B1032384F823
:102D90009534B5F1A04F17D0206802F0A3FD237C35
:102DA0008DF80030231D0ECB206802F0DAFC70B1E4
:102DB000022384F895340125284603B030BD80F8FD
:102DC000943405F01DFBE1E70023A371E4E7002143
:102DD000206803F0F1F9024608B9034617E0022320
:102DE00084F895340125E7E703EBC30104EB810187
:102DF000012048750B75CB8500200876C8610862F4
:102E000003EBC30104EB810148620133DBB220799B
:102E10009842E9D816E002EBC20304EB83030021D9
:102E200083F8551283F8542283F85812C3F85C12C1
:102E3000C3F8601202EBC20304EB8303C3F864120D
:102E40000132D2B29042E6D8237C8DF80030231DA7
:102E50000ECB206802F09CFD054658B90023637430
:102E6000012384F89534237B012B08D0206803F0DC
:102E700060F9A1E7022384F8953401259CE72046F8
:102E800000F073FDF2E7012596E7036890F89424BB
:102E9000012A1AD010B50446012280F89424DA6879
:102EA00012F0400F02D0427B012A09D0206802F0C4
:102EB00013FD206803F02FF9002084F8940410BD5E
:102EC0009A6B42F480329A63F0E702207047000068
:102ED00070B504460D460068066C00EB411303F51F
:102EE00030639A68A179012911D038498E4256D0B1
:102EF0003DB905EBC50304EB8303D3F86432002B23
:102F00005ED0E9B2204605F0D7FA002070BD12F07D
:102F1000080F09D02E498E42F7D912F4004FF4D091
:102F20004FF400429A60F0E712F0200F02D0202206
:102F30009A60EAE712F0280FE7D125498E4206D9B8
:102F400012F4004F03D04FF400429A60DDE705EB26
:102F5000C50204EB8202D2F874121B69C3F3120398
:102F6000CB1AC2F868327DB905EBC50204EB8202C8
:102F7000D2F864226AB105EBC50204EB8202D2F8F2
:102F800060120B44C2F86032E9B2204605F094FAB0
:102F9000BBE704F29C42012103F050F9F4E712F47C
:102FA000004F03D04FF400429A60AEE712F0200FBA
:102FB00001D020229A60E9B2204605F07DFAA4E70C
:102FC00004F29C42002103F039F99AE70A31544F88
:102FD0000A30544F38B5044603681D6C03EB4113A7
:102FE000D3F8081B0E4A954207D903F5306311F454
:102FF000004F02D04FF400429A60204605F054FA88
:10300000074B9D4202D9A379012B01D0002038BD86
:1030100004F29C420121206803F010F9F6E700BF9A
:103020000A30544F90F89434012B0CD010B504465C
:10303000012380F894344174006803F05CF80020A8
:1030400084F8940410BD0220704738B505468C46BC
:1030500011F0800F29D101F00F0E0EEBCE04A40069
:1030600004F514740444211D0EEBCE0E00EB8E0EFD
:1030700000208EF855020CF00F0C81F800C08A6019
:103080000B714A780AB1A1F81AC0022B1CD095F82E
:103090009434012B1BD0012385F89434286802F066
:1030A0004EFD002085F8940438BD01F00F0000EBC0
:1030B000C001890010312944043100EBC00005EB48
:1030C000800001244475D6E700234B71DFE702201E
:1030D000EAE710B504460A4611F0800F20D101F04E
:1030E0000F0000EBC0039B0003F514732344191D6C
:1030F00000EBC00004EB8000002380F8553202F0A2
:103100000F020A7094F89434012B18D0012384F82C
:103110009434206802F062FD002084F8940410BD0D
:1031200001F00F0000EBC0039B0010332344191D76
:1031300000EBC00004EB800001234375DFE70220B1
:10314000EDE710B5144601F00F0C0CEBCC01890033
:1031500001F51471014404310CEBCC0E00EB8E0E22
:10316000CEF86022CEF864320023CEF868328EF8B2
:1031700055328EF854C28279012A04D0006802F0D8
:1031800013FE002010BDCEF87042F7E701F00F01EA
:1031900001EBC10100EB8101D1F86802704710B565
:1031A000144601F00F0C0CEBCC01890010310144E6
:1031B00004310CEBCC0E00EB8E0ECEF82020CEF8B6
:1031C00024300023CEF8283001238EF815308EF8F5
:1031D00014C082799A4204D0006802F0E5FD002014
:1031E00010BDCEF83040F7E738B501F00F05027991
:1031F000AA4238D304460B4611F0800F1FD101EBD1
:10320000C101890001F514710144043103EBC303CA
:1032100000EB8303002283F8552201238B700D708D
:1032200094F89434012B20D0012384F8943420683E
:1032300002F006FF85B1002084F8940438BD05EB48
:10324000C501890010310144043105EBC50300EBD1
:10325000830301225A75E0E704F29C42A1792068B9
:1032600002F0ECFFE7E70120E8E70220E6E701F0E3
:103270000F0302799A4230D310B5044611F0800F43
:103280001ED103EBC301890001F51471014404311F
:1032900003EBC30200EB8202002082F855020022F9
:1032A0008A700B7094F89434012B18D0012384F8A1
:1032B0009434206802F0F1FE002084F8940410BDDC
:1032C00003EBC301890010310144043103EBC30255
:1032D00000EB820201205075E1E7012070470220D7
:1032E000EDE708B511F0800F0CD101F00F0101EBF3
:1032F000C101890001F5147101440431006802F034
:10330000DDFC08BD01F00F0101EBC10189001031A6
:1033100001440431F2E72DE9F04F83B0044605681B
:10332000284602F045FF10B103B0BDE8F08F064615
:10333000206802F00CFF0028F6D005F50067BB6896
:10334000C3F30D23C4F8D434206802F000FF10F05A
:10335000020F04D02268536903F00203536120680E
:1033600002F0F5FE10F0100F14D02268936923F0DC
:1033700010039361D5F8208008F00F09C8F3434388
:10338000022B69D0062B00F08D802268936943F0F0
:1033900010039361206802F0DAFE10F4002F40F071
:1033A0009380206802F0D3FE10F4802F40F0FC8060
:1033B000206802F0CCFE0028C0F27D81206802F077
:1033C000C6FE10F4006F09D0BB6813F0010F40F087
:1033D0008A812268536903F400635361206802F014
:1033E000B6FE10F0006F15D02268536903F0006339
:1033F000536194F8CC34002B40F07981012184F89A
:10340000CC1423685B6DC3F38303C4F8D034204627
:1034100005F00AF9206802F09AFE10F4805F40F08F
:103420006A81206802F093FE10F4005F40F0B781DB
:10343000206802F08CFE10F0080F40F0C881206870
:1034400002F085FE10F0800F00F0DB81AB6923F005
:103450008003AB610126C4E147F6F07318EA030F5D
:1034600093D04FEA181B4FEAC903019309EBC90A2D
:1034700004EB8A0AC8F30A12DAF86012284602F04E
:10348000B5FDCBF30A0BDAF860325B44CAF8603260
:10349000019B4B4404EB8303D3F868325B44CAF8C6
:1034A000683272E7082204F29C41284602F09EFD31
:1034B000C8F30A1809EBC90204EB8202D2F8683299
:1034C0004344C2F8683260E7206802F044FE804658
:1034D000B14635E005EB49130122C3F8082B4946F4
:1034E0002046FFF7F5FC3CE005EB49130822C3F842
:1034F000082B49462046FFF76DFD35E009EBC9036F
:1035000004EB830393F85732012B41D005EB4913A9
:103510000222C3F8082B1AF0200F04D005EB491340
:103520002022C3F8082B1AF4005F05D005EB4913DD
:103530004FF40052C3F8082B09F101094FEA58086B
:10354000B8F1000F3FF42DAF18F0010FF4D05FFA7F
:1035500089FB5946206802F00EFE824610F0010FEA
:10356000B8D11AF0080FBFD11AF0100F04D005EB34
:1035700049131022C3F8082B1AF0020FCBD06B6945
:1035800013F0800FBAD07B6843F480637B60B5E7AB
:1035900009EBC90304EB8303002283F85722594641
:1035A000204604F0D9FFB1E7206802F0DCFD804638
:1035B000B14625E05946204604F08AFF1AF0080F6C
:1035C00004D005EB49130822C3F808291AF0100F9C
:1035D00004D005EB49131022C3F808291AF0400F54
:1035E00004D005EB49134022C3F808291AF0020F52
:1035F00040D11AF0800F59D109F101094FEA58085A
:10360000B8F1000F3FF4D4AE18F0010FF4D05FFA18
:1036100089FB5946206802F0B7FD824610F0010F81
:10362000CCD009F00F03012101FA03F27B6B23EAEE
:1036300002037B6305EB4913C3F80819A3798B4296
:10364000B8D109EBC90304EB8303D9691A6A0A44A8
:103650001A62B9F1000FADD109EBC90304EB830382
:103660005B6A002BA6D104F29C420121206802F083
:10367000E5FD9FE74946284602F03AF909EBC90300
:1036800004EB8303DB7D012B05D005EB49130222FC
:10369000C3F80829ADE709EBC90304EB8303002253
:1036A000DA755946204604F05DFFEEE749462046AC
:1036B000FFF7FAFAA0E77B6823F001037B6094F838
:1036C000CC34012B08D0204604F040FF2268536917
:1036D00003F00043536171E6002184F8CC142046C6
:1036E00004F0A2FFF2E7204604F018FF71E620463E
:1036F00004F014FF8EE67B6823F001037B60102149
:10370000206802F0F5F81AE005EB46134FF67F311A
:10371000C3F80819D3F8002922F40012C3F80029CD
:10372000C3F8081BD3F8002B22F40012C3F8002BB7
:10373000D3F8002B42F00062C3F8002B0136237946
:10374000B342E1D8FB6943F00113FB61E37BDBB1DA
:10375000D7F8843043F00B03C7F884307B6C43F018
:103760000B037B64D5F8003823F4FE63C5F80038FA
:1037700004F29C42A179206802F060FD226853693E
:1037800003F4805353614CE67B6943F4005343F0E8
:103790002B037B613B6943F00B033B61E2E720684D
:1037A00002F03BFD206802F0B9F9E071266800F0F4
:1037B0009FF90146E279304602F01CF8204604F0F9
:1037C00098FE2268536903F40053536130E62046A3
:1037D00004F089FE2268536903F0080353612EE662
:1037E00001362379B3420CD906EBC60304EB8303FD
:1037F00093F85732012BF3D1F1B22046FFF771FD58
:10380000EEE7206802F0A3FC10F4801F25D12068A9
:1038100002F09DFC10F4001F59D0012326E0013670
:103820002379B3421BD905EB4613D3F8002906EBE5
:10383000C60304EB83031B7E012BF0D1002AEEDAD2
:1038400006EBC60304EB83030122DA7566F07F0101
:10385000C9B22046FFF745FDE1E70126E0E722680F
:10386000536903F480135361D1E7013322799A42FB
:1038700028D905EB4312D2F8001B03EBC30204EB7B
:10388000820292F85822012AEFD10029EDDA01F4E0
:103890008031D4F8D42402F001029142E5D103EB47
:1038A000C30204EB8202012182F85712AA6942F096
:1038B0008002AA616A6912F0800FD6D17B6843F456
:1038C00000737B602268536903F40013536120681E
:1038D00002F03DFC10F0804F10D1206802F037FC60
:1038E00010F0040F3FF420AD23685D6815F0040F5D
:1038F0000DD1226853682B43536015E5204604F030
:1039000037FE2268536903F080435361E5E72046A0
:1039100004F034FEEDE710B40468606A31B940EA9F
:103920000240A06200205DF8044B70478C46A36AF9
:1039300000EB1340002308E003F1400104EB810198
:10394000496800EB11400133DBB20CF1FF318B42CF
:10395000F2D340EA02400CF13F0104EB81014860E0
:10396000E0E70368596200207047034602680121BE
:10397000C0F8D814002083F8CC04936943F00063A6
:103980009361536D43F0805343F0030353657047D5
:10399000002800F09B8070B50D4604464F4B1B6815
:1039A00003F00F038B4208D2CBB24C4A137013685A
:1039B00003F00F038B4240F08B80236813F0020F5B
:1039C00017D013F0040F04D0454A936843F4E05332
:1039D0009360236813F0080F04D0414A936843F4BE
:1039E000604393603E4A936823F0F003A1680B4361
:1039F0009360236813F0010F32D06368012B21D04C
:103A00009A1E012A25D9364A126812F0020F61D097
:103A100033498A6822F0030213438B60FEF7ACFD42
:103A200006462F4B9B6803F00C036268B3EB820FD2
:103A300016D0FEF7A1FD801B41F288339842F0D9E1
:103A4000032042E0264A126812F4003FE0D1012030
:103A50003BE0234A126812F0007FD9D1012034E004
:103A60001E4B1B6803F00F03AB4207D9EAB21B4B96
:103A70001A701B6803F00F03AB422DD1236813F0BB
:103A8000040F06D0164A936823F4E053E1680B4311
:103A90009360236813F0080F07D0114A936823F44A
:103AA0006043216943EAC103936000F09FFA0C4B25
:103AB0009B68C3F303130B4AD35CD8400A4B1860CE
:103AC0000A4B1868FEF7E8FA002070BD0120704725
:103AD0000120FAE70120F8E70120F6E7003C024068
:103AE000003802404CA00008080000201000002010
:103AF000014B1868704700BF0800002008B5FFF7A9
:103B0000F7FF044B9B68C3F38223034AD35CD8407E
:103B100008BD00BF003802405CA0000808B5FFF7F0
:103B2000E7FF044B9B68C3F34233034AD35CD8409E
:103B300008BD00BF003802405CA000080F230360EE
:103B40000B4B9A6802F0030242609A6802F0F0029E
:103B500082609A6802F4E052C2609B68DB0803F45A
:103B6000E0530361034B1B6803F00F030B607047C6
:103B700000380240003C0240F0B583B004460668BD
:103B800016F001060DD0964AD2F88C3023F0C063AF
:103B9000816B0B43C2F88C30836B002B00F09B8051
:103BA0000026236813F0020F0BD08D4AD2F88C3018
:103BB00023F0C053E16B0B43C2F88C30E36B03B9C5
:103BC0000126256815F004050FD0854AD2F88C30FF
:103BD00023F44013216B0B43C2F88C30236BB3F5F5
:103BE000801F7AD0002B7AD00025236813F0080FAD
:103BF0000ED07B4AD2F88C3023F44003616B0B4328
:103C0000C2F88C30636BB3F5800F6AD003B901251D
:103C1000236813F0200F66D1236813F0100F04D02F
:103C200094F858206F4BC3F8E021236813F0800FFD
:103C300008D06B4AD2F8943023F44003E16C0B4374
:103C4000C2F89430236813F0400F08D0644AD2F8C9
:103C5000943023F08063A16C0B43C2F89430236846
:103C600013F4807F0DD05E4AD2F8943023F00063C5
:103C7000616D0B43C2F89430636DB3F1006F00F0D7
:103C80009B80236813F4007F08D0554AD2F8943003
:103C900023F08053616C0B43C2F89430236813F413
:103CA000806F0CD04E4AD2F8943023F00053216D2F
:103CB0000B43C2F89430236DB3F1005F7ED0002E29
:103CC0007CD12368B3F5006F78D0012D00F02581F9
:103CD000002003B0F0BD012663E7012682E701253D
:103CE00083E7012692E7002301933D4B1A6C42F0D3
:103CF00080521A641B6C03F080530193019B3A4A73
:103D0000136843F480731360FEF736FC0746364BA6
:103D10001B6813F4807F06D1FEF72EFCC01B02281F
:103D2000F5D90320D5E72E4B1B6F13F4407314D045
:103D3000226C02F440729A420FD0294B1A6F22F47F
:103D400040722A490120C1F8400E0020C1F8400EFF
:103D50001A671B6F13F0010F12D1236C03F440722A
:103D6000B2F5407F1DD01E4A936823F4F813936088
:103D70001B490B6F226CC2F30B0213430B674BE71B
:103D8000FEF7FAFB0746164B1B6F13F0020FE4D148
:103D9000FEF7F2FBC01B41F288339842F3D90320AF
:103DA00097E70F498A6822F4F81223F0704323F44E
:103DB000407313438B60DBE7012562E70B4B002266
:103DC0009A66FEF7D9FB0646054B1B6813F0006F99
:103DD0000ED0FEF7D1FB801B0228F5D9032078E72F
:103DE0000038024000104742007000400000474287
:103DF000236813F0010F01D0A26B22B113F0020F60
:103E000015D0E36B9BB9774AD2F88400D2F88410BE
:103E10006368A66843EA861300F44030034301F068
:103E200070610B43616943EA0173C2F8843023680F
:103E300013F0040F03D0226BB2F5801F06D013F0ED
:103E4000080F20D0636BB3F5800F1CD1654AD2F800
:103E50008400D2F884106368A66843EA861300F4ED
:103E600040300343206943EA006301F0E0410B4323
:103E7000C2F88430D2F88C3023F01F03A16A0139D4
:103E80000B43C2F88C30236813F4806F03D0236D8A
:103E9000B3F1005F28D0236813F4006F11D063687A
:103EA000A26843EA8213E2685208013A43EA0243F5
:103EB000226943EA0263626943EA0273494AC2F82B
:103EC0008430494B01229A66FEF756FB0646454B65
:103ED0001B6813F0006F7FF4F8AEFEF74DFB801BFC
:103EE0000228F4D90320F4E63E48D0F88430C3F326
:103EF00001435A1CD0F884606368A16843EA8113C7
:103F0000E1684908013943EA014343EA426306F0A4
:103F1000E0421343C0F88430BDE7334B00221A67F8
:103F2000FEF72AFB05462F4B1B6813F0005F06D0F7
:103F3000FEF722FB401B0228F5D90320C9E62368BF
:103F400013F0040F01D0226B22B113F0080F1AD026
:103F5000636BC3B9234AD2F88810A369E06943EAC6
:103F6000801301F440310B43616A43EA0163C2F8F4
:103F70008830D2F88C3023F4F853E16A013943EAEF
:103F80000123C2F88C30236813F4807F03D0636D63
:103F9000B3F1006F11D0144B01221A67FEF7ECFA4F
:103FA0000446104B1B6813F0005F18D1FEF7E4FACB
:103FB000001B0228F5D903208BE60A48D0F88810A8
:103FC000A369E26943EA8213226A5208013A43EA8A
:103FD000024301F070621343C0F88830DBE7002031
:103FE00077E600BF003802400000474208B5444B66
:103FF0009B6803F00C03082B07D00C2B43D0042B39
:1040000001D0404808BD4048FCE73D4B5A6802F0EB
:104010003F025B6813F4800F12D0394B5968C1F32B
:10402000881139480023A1FB0001FCF7F1F8344B5B
:104030005B68C3F3014301335B00B0FBF3F0E1E7DE
:104040002F4B5968C1F3881C4FEA4C11B1EB0C009F
:104050006EEB0E0E4FEA8E1343EA90638101091A4C
:1040600063EB0E03DB0043EA5173C90011EB0C0C48
:1040700043F10003990200234FEA8C2041EA9C514E
:10408000FCF7C6F8D3E71E4B5A6802F03F025B68A4
:1040900013F4800F10D01A4B5968C1F388111A48D5
:1040A0000023A1FB0001FCF7B3F8154B5B68C3F3D9
:1040B0000273B0FBF3F0A5E7114B5968C1F3881CFC
:1040C0004FEA4C11B1EB0C006EEB0E0E4FEA8E1363
:1040D00043EA90638101091A63EB0E03DB0043EAB4
:1040E0005173C90011EB0C0C43F10003990200233A
:1040F0004FEA8C2041EA9C51FCF78AF8D5E700BFD3
:10410000003802400024F400001BB700002800F033
:10411000018270B582B00446036813F0010F41D0EC
:10412000994B9B6803F00C03042B32D0964B9B6891
:1041300003F00C03082B27D0934B9B6803F00C0370
:104140000C2B59D06368B3F5803F5BD0B3F5A02F3B
:104150005ED08D4B1A6822F480321A601A6822F4FD
:1041600080221A606368002B5CD0FEF705FA0546D2
:10417000854B1B6813F4003F14D1FEF7FDF9401B7B
:104180006428F5D90320CCE17F4B5B6813F4800FE2
:10419000D2D07D4B1B6813F4003F03D06368002B23
:1041A00000F0BA81236813F0020F60D0764B9B6851
:1041B00013F00C0F4AD0744B9B6803F00C03082BD0
:1041C0003FD0714B9B6803F00C030C2B69D0E36864
:1041D000002B75D06D4B01221A60FEF7CDF9054614
:1041E000694B1B6813F0020F61D1FEF7C5F9401B44
:1041F0000228F5D9032094E1634B5B6813F4800F28
:10420000A0D0C6E7604A136843F480331360A9E77F
:104210005D4B1A6842F480221A601A6842F48032B8
:104220001A609FE7FEF7A8F90546574B1B6813F481
:10423000003FB7D0FEF7A0F9401B6428F5D9032052
:104240006FE1514B5B6813F4800FBAD14E4B1B6882
:1042500013F0020F03D0E368012B40F05F814A4A5C
:10426000136823F0F803216943EAC103136023684C
:1042700013F0080F49D06369002B33D0434B012260
:10428000C3F8802EFEF778F905463F4B5B6F13F0BD
:10429000020F3AD1FEF770F9401B0228F5D903202E
:1042A0003FE1394B5B6813F4800F90D1CEE7364A7B
:1042B000136823F0F803216943EAC1031360D6E7CA
:1042C000324B00221A60FEF757F905462E4B1B6849
:1042D00013F0020FCBD0FEF74FF9401B0228F5D99F
:1042E00003201EE1294B0022C3F8802EFEF744F97B
:1042F0000546254B5B6F13F0020F06D0FEF73CF925
:10430000401B0228F5D903200BE1236813F0040FAA
:1043100076D01D4B1B6C13F0805F33D100230193CB
:10432000194B1A6C42F080521A641B6C03F08053D4
:104330000193019B0125164B1B6813F4807F29D044
:10434000A368012B3AD0052B3ED00F4B1A6F22F0F9
:1043500001021A671A6F22F004021A67A368002B81
:104360003CD0FEF709F90646074B1B6F13F0020F0E
:1043700045D1FEF701F9801B41F288339842F3D909
:104380000320CEE00025D6E7003802400000474277
:10439000007000406B4A136843F480731360FEF7AB
:1043A000EBF80646674B1B6813F4807FC8D1FEF715
:1043B000E3F8801B0228F5D90320B2E0624A136FAC
:1043C00043F001031367C9E75F4B1A6F42F0040221
:1043D0001A671A6F42F001021A67BFE7FEF7CCF8BE
:1043E0000646594B1B6F13F0020F08D0FEF7C4F8B6
:1043F000801B41F288339842F3D9032091E0EDB954
:10440000A369002B00F08C804F4A926802F00C02E6
:10441000082A54D0022B17D04C4B00221A66FEF704
:10442000ABF80446484B1B6813F0007F45D0FEF7FD
:10443000A3F8001B0228F5D9032072E0424A136C4E
:1044400023F080531364DBE7404B00221A66FEF72B
:1044500093F805463C4B1B6813F0007F06D0FEF72F
:104460008BF8401B0228F5D903205AE0E369226A41
:104470001343626A43EA8213A26A5208013A43EA8A
:104480000243E26A43EA0263226B43EA02732E4A62
:1044900053602E4B01221A66FEF76EF804462A4B33
:1044A0001B6813F0007F06D1FEF766F8001B022898
:1044B000F5D9032035E0002033E0002031E0012B66
:1044C00031D0214B5B6803F48001E26991422CD129
:1044D00003F03F02216A8A4229D1616A47F6C0721D
:1044E0001A40B2EB811F24D103F44031A26A520872
:1044F000013AB1EB024F1ED103F07062E16AB2EBF8
:10450000016F1AD103F0E043226BB3EB027F16D1A7
:10451000002006E001207047012002E0012000E0B9
:10452000002002B070BD0120FBE70120F9E7012067
:10453000F7E70120F5E70120F3E70120F1E701208B
:10454000EFE700BF00700040003802400000474223
:104550002DE9F04782B00546884617461E46FEF70D
:104560000BF80A9B1B1A03EB0609FEF705F88246B7
:104570002B4B1B68C3F3CB3309FB03F301932B686D
:104580009C6838EA04030CBF4FF0010C4FF0000C9C
:10459000BC4540D0B6F1FF3FF1D0FDF7EDFFA0EBF9
:1045A0000A0048450AD2B9F1000F07D0019A02B1BA
:1045B0004A46019B013B01939146E0E72A68536814
:1045C00023F0E00353606B68B3F5827F0BD0AB6AD6
:1045D000B3F5005F14D0012385F85130002385F82E
:1045E0005030032018E0AB68B3F5004F02D0B3F5AC
:1045F000806FECD12A68136823F040031360E6E76C
:104600002A68136823F4005313602A68136843F47C
:1046100000531360DFE7002002B0BDE8F08700BF61
:104620000800002070B584B004460D46164600927E
:104630000B4601220221FFF78BFFD0B9174B1B68F5
:10464000174AA2FB03235B0D4FF47A7202FB03F3BC
:1046500003936368B3F5827F11D0039B3BB1039B47
:10466000013B039323689B6813F0800FF5D104B0DE
:1046700070BD636D43F0200363650320F7E7009688
:104680002B46002280212046FFF762FF0028EED053
:10469000636D43F0200363650320E8E70800002012
:1046A000819F5E1600285AD010B50446436A33B97C
:1046B0004368B3F5827F05D00023C36102E0002385
:1046C000036143610023A36294F85130002B40D072
:1046D000022384F851302268136823F040031360EA
:1046E000636803F48273A26802F404421343E2682D
:1046F00002F400621343226902F00202134362696A
:1047000002F001021343A26902F400721343E2694A
:1047100002F038021343226A02F080021343A26AB5
:1047200002F40052216813430B60638B03F004030F
:10473000626A02F01002216813434B602268D36959
:1047400023F40063D36100206065012384F85130B5
:1047500010BD84F850302046FDF708FCB8E7012072
:1047600070472DE9F04383B01F460A9D90F8503002
:10477000012B00F01681044688469146012380F8FB
:104780005030FDF7F9FE064694F85130DBB262680E
:10479000012B0AD0B2F5827F40F0F080A268002A97
:1047A00040F0F380042B40F0F280B8F1000F00F0ED
:1047B000F080B9F1000F00F0EE80002F00F0ED80E6
:1047C00094F85130DBB2042B02D0052384F8513029
:1047D00000236365C4F83890E787A787C4F8308062
:1047E000E786A7862364636423681A6812F0400F83
:1047F00003D11A6842F040021A60E368B3F5006F13
:1048000011D063680BB1012F0BD1226B2368127892
:104810001A73236B01332363E38E9BB2013B9BB27C
:10482000E38601276EE063680BB1012F0BD1226B89
:1048300023681288DA60236B02332363E38E9BB212
:10484000013B9BB2E38601271BE023689A6812F0C4
:10485000010F0ED0E28F92B25AB1DA68A36B1A80C0
:10486000A36B0233A363E38F9BB2013B9BB2E3874D
:104870000127FDF781FE801BA84202D3B5F1FF3F5F
:104880001ED1E38E9BB21BB9E38F9BB2002B5CD091
:1048900023689A6812F0020FD7D0E28E92B2002AF3
:1048A000D3D0002FD1D0226B1288DA60236B023371
:1048B0002363E38E9BB2013B9BB2E3860027C4E7F0
:1048C000012384F85130032059E023689A6812F0DC
:1048D000010F0ED0E28F92B25AB1DA68A36B1A7050
:1048E000A36B0133A363E38F9BB2013B9BB2E387CE
:1048F0000127FDF741FE831BAB4202D3B5F1FF3F19
:104900001ED1EDB1E38E9BB213B9E38F9BB2E3B13D
:1049100023689A6812F0020FD7D0E28E92B2002A72
:10492000D3D0002FD1D0226B12781A73236B0133AE
:104930002363E38E9BB2013B9BB2E3860027C4E76F
:10494000012384F85130032019E0324629462046DD
:10495000FFF768FE70B9A36833B901932368DA687A
:1049600001929B680193019B636DC3B9012384F895
:10497000513004E020236365012000E00220002381
:1049800084F8503003B0BDE8F0830220F7E702203E
:10499000F5E70120F3E70120F1E70120EFE701202F
:1049A000EDE70220EEE7000030B4036A026A22F06D
:1049B000010202624268846924F073040D682C438A
:1049C00023F0020C8B6843EA0C03104DA84203D07D
:1049D00005F58065A84205D123F00803CD682B4377
:1049E00023F00403094DA84203D005F58065A842D1
:1049F00005D122F440724D692A438D692A434260F1
:104A000084614A684263036230BC70470000014021
:104A100030B4036A026A22F4807202624268C46996
:104A200024F0730C0C6844EA0C0523F400738C68C2
:104A300043EA0423114CA04203D004F58064A04251
:104A400006D123F40063CC6843EA042323F4806393
:104A50000A4CA04203D004F58064A04207D122F49E
:104A600040524C6942EA04128C6942EA04124260E4
:104A7000C5614A68C263036230BC704700000140F0
:104A800030B4036A026A22F4805202624468C26946
:104A900022F4E6420D6842EA052223F400538D68B1
:104AA00043EA0533094DA84203D005F58065A842C5
:104AB00004D124F480444D6944EA85144460C26101
:104AC0004A680264036230BC704700BF00000140C6
:104AD0007047000090F83D30DBB2012B37D1022344
:104AE00080F83D300268D36843F00103D360036867
:104AF000194A934220D0B3F1804F1DD0A2F57C42D9
:104B0000934219D002F58062934215D002F580627B
:104B1000934211D002F5784293420DD002F57052C3
:104B2000934209D0A2F59432934205D01A6842F01C
:104B300001021A60002070479A6802F00702062AF4
:104B400007D01A6842F001021A6000207047012065
:104B500070470020704700BF000001407047704759
:104B60007047704770B504460368DE681D6915F02C
:104B7000020F10D016F0020F0DD06FF002021A6172
:104B80000123037703689B6913F0030F5ED0FFF7DF
:104B9000E6FF0023237715F0040F12D016F0040F60
:104BA0000FD023686FF004021A6102232377236871
:104BB0009B6913F4407F4FD02046FFF7D0FF0023BE
:104BC000237715F0080F12D016F0080F0FD02368C6
:104BD0006FF008021A61042323772368DB6913F05E
:104BE000030F40D02046FFF7BAFF0023237715F0CC
:104BF000100F12D016F0100F0FD023686FF01002B4
:104C00001A61082323772368DB6913F4407F31D0CE
:104C10002046FFF7A4FF0023237715F0010F02D0F1
:104C200016F0010F2DD115F0800F02D016F0800F75
:104C30002FD115F0400F02D016F0400F31D115F0F2
:104C4000200F02D016F0200F33D170BDFFF786FF82
:104C50002046FFF785FF9CE72046FFF77FFF2046B1
:104C6000FFF77EFFABE72046FFF778FF2046FFF710
:104C700077FFBAE72046FFF771FF2046FFF770FF86
:104C8000C9E723686FF001021A612046FDF7D0F8EA
:104C9000C9E723686FF080021A61204600F055FAD8
:104CA000C7E723686FF040021A612046FFF759FFFB
:104CB000C5E723686FF020021A61204600F044FA2D
:104CC000C3E700000368344A904212D0B0F1804F2D
:104CD0000FD0A2F57C4290420BD002F58062904248
:104CE00007D002F58062904203D002F578429042EC
:104CF00003D123F070034A681343274A90422AD015
:104D0000B0F1804F27D0A2F57C42904223D002F52B
:104D1000806290421FD002F5806290421BD002F563
:104D20007842904217D002F57052904213D002F5AB
:104D3000806290420FD002F5806290420BD0A2F5C3
:104D40009832904207D002F58062904203D002F57B
:104D50008062904203D123F44073CA68134323F066
:104D600080034A69134303608B68C3620B688362E4
:104D7000094B984203D003F58063984201D10B6937
:104D8000036301234361036913F0010F03D0036937
:104D900023F00103036170470000014040B310B5E8
:104DA000044690F83D30F3B1022384F83D302146AB
:104DB00051F8040BFFF786FF012384F8463084F88E
:104DC0003E3084F83F3084F8403084F8413084F835
:104DD000423084F8433084F8443084F8453084F815
:104DE0003D30002010BD80F83C30FFF771FEDBE75E
:104DF0000120704740B310B5044690F83D30F3B140
:104E0000022384F83D30214651F8040BFFF75AFF86
:104E1000012384F8463084F83E3084F83F3084F82B
:104E2000403084F8413084F8423084F8433084F8CC
:104E3000443084F8453084F83D30002010BD80F8BF
:104E40003C30FDF7E3F9DBE70120704730B4036A3B
:104E5000026A22F0100202624468826922F4E64289
:104E60000D6842EA052223F020038D6843EA05130A
:104E7000114DA84203D005F58065A84206D123F064
:104E80008003CD6843EA051323F040030A4DA8428E
:104E900003D005F58065A84207D124F440644D692C
:104EA00044EA85048D6944EA8504446082614A6865
:104EB0008263036230BC70470000014038B590F84F
:104EC0003C30012B66D004460D46012380F83C306F
:104ED0000C2A5AD8DFE802F0075959591B59595979
:104EE0003059595944000068FFF75EFD2268936904
:104EF00043F0080393612268936923F004039361EC
:104F00002268936929690B43936100203EE00068A1
:104F1000FFF79CFF2268936943F400639361226862
:104F2000936923F48063936122689369296943EA52
:104F300001239361002029E00068FFF769FD2268E2
:104F4000D36943F00803D3612268D36923F00403D3
:104F5000D3612268D36929690B43D361002015E02E
:104F60000068FFF78DFD2268D36943F40063D361C5
:104F70002268D36923F48063D3612268D3692969E5
:104F800043EA0123D361002000E00120002384F8DC
:104F90003C3038BD0220FCE701F01F01012303FA79
:104FA00001FC036A23EA0C030362036A02FA01F1BB
:104FB0000B4303627047000010B504460846002901
:104FC00042D194F83E30DBB2013B18BF0123002BE5
:104FD0006ED1002851D1022384F83E3001220146CF
:104FE0002068FFF7D9FF2368334A934203D002F5C4
:104FF0008062934203D15A6C42F400425A6423689F
:105000002D4A934249D0B3F1804F46D0A2F57C425D
:10501000934242D002F5806293423ED002F5806214
:1050200093423AD002F57842934236D002F570525C
:10503000934232D0A2F5943293422ED01A6842F0B5
:1050400001021A60002032E0042908D008290DD09E
:1050500094F84130DBB2013B18BF0123B7E794F865
:105060003F30DBB2013B18BF0123B0E794F840307A
:10507000DBB2013B18BF0123A9E7042805D00828AB
:1050800007D0022384F84130A8E7022384F83F3098
:10509000A4E7022384F84030A0E79A6802F00702F0
:1050A000062A07D01A6842F001021A60002010BDDB
:1050B0000120FCE70020FAE70000014090F83C30B6
:1050C000012B3DD010B4012380F83C30022380F83E
:1050D0003D3003685A689C6822F0700C0A6842EA06
:1050E0000C025A600368174A93421AD0B3F1804FFA
:1050F00017D0A2F57C42934213D002F5806293420E
:105100000FD002F5806293420BD002F578429342B1
:1051100007D002F57052934203D0A2F59432934225
:1051200004D124F080044A6814439C60012380F871
:105130003D30002380F83C3018465DF8044B704742
:10514000022070470000014070477047026802F17A
:105150000C0353E8003F23F490730C3242E8003113
:105160000029F3D1026802F1140353E8003F23F051
:105170000103143242E800310029F3D1036B012B03
:1051800005D0202380F84230002303637047026873
:1051900002F10C0353E8003F23F010030C3242E805
:1051A00000310029F3D1ECE790F84130DBB2212B3C
:1051B00001D0022070478368B3F5805F17D0036A7F
:1051C0005A1C02621A7803685A60C38C9BB2013B76
:1051D0009BB2C3844BB90268D36823F08003D360C9
:1051E0000268D36843F04003D3600020704703692E
:1051F000002BE4D1036A1B880268C3F308035360E1
:10520000036A02330362E0E738B5044602681369B3
:1052100023F44053C1680B4313618368026913434D
:1052200042691343C2691A430168CB6823F41643E9
:1052300023F00C031343CB600268536923F44073DB
:1052400081690B4353610368314A934206D002F5EA
:105250008062934202D0FEF751FC01E0FEF75EFC53
:10526000E369B3F5004F29D00021031849411B1809
:1052700041F10001C90041EA5371DB00181863686D
:105280004FEA83024FEA937341F10001FAF7C0FF3E
:10529000204DA5FB00325109642303FB11031B01C0
:1052A0003233A5FB03235B0903F0F00202EB01128A
:1052B00003F00F03216813448B6038BD00230218EC
:1052C00043EB0301121841F10001C90041EA527198
:1052D000D200101841F10001626892185B41FAF7A0
:1052E00097FF0C4DA5FB00325109642303FB11030A
:1052F000DB003233A5FB03235B095A0002F4F8728A
:1053000002EB011203F00703216813448B60D4E71A
:10531000001001401F85EB5160B310B5044690F8B2
:10532000413013B3242384F841302268D36823F436
:105330000053D3602046FFF767FF2268136923F408
:10534000904313612268536923F02A035361226852
:10535000D36843F40053D36000206064202384F8B2
:10536000413084F84230606310BD80F84030FDF772
:1053700055F8D7E701207047704708B50168CA683B
:1053800022F04002CA60202280F84120FFF7F4FF9B
:10539000002008BD704708B5806B0023C385C38417
:1053A000FBF752F908BD704790F84230DBB2222B70
:1053B00069D18368B3F5805F4FD0826AB3F5805FAF
:1053C00004D0002B56D10369002B53D103685B68CE
:1053D0001370836A01338362C38D9BB2013B9BB21E
:1053E000C385002B51D100B583B00268D36823F088
:1053F0002003D3600268D36823F48073D36002680B
:10540000536923F001035361202380F842300023C5
:105410004363036B012B33D100230363026802F162
:105420000C0353E8003F23F010030C3242E8003134
:105430000029F3D103681A6812F0100F06D0002279
:1054400001921A6801925B680193019B818DFFF7BD
:10545000AAFF002003B05DF804FB0269002AACD16A
:10546000826A03685B68C3F308031380836A0233AC
:105470008362B1E703685B6803F07F031370A8E7FA
:10548000FFF788FFE5E70220704700207047000023
:1054900030B583B0044602681368D068516913F0D0
:1054A0000F0505D113F0200F02D010F0200F19D1F5
:1054B0002DB111F0010119D110F4907F16D1216B9B
:1054C00001297DD013F0800F03D010F0800F40F041
:1054D000198113F0400F03D010F0400F40F01681F7
:1054E00003B030BD2046FFF75FFFF9E713F0010F6F
:1054F00006D010F4807F03D0626C42F00102626437
:1055000013F0040F04D019B1626C42F0020262641D
:1055100013F0020F04D019B1626C42F0040262640D
:1055200013F0080F07D010F0200F00D119B1626CF2
:1055300042F008026264626C002AD1D013F0200F9E
:1055400002D010F0200F29D123685B6903F04003DB
:10555000626C12F0080F00D163B32046FFF7F6FD2E
:1055600023685B6913F0400F20D0226802F1140316
:1055700053E8003F23F04003143242E80031002991
:10558000F3D1E36B73B1634A1A65E06BFDF780F901
:105590000028A5D0E06B036D9847A1E72046FFF7F0
:1055A00003FFD1E72046FBF74FF899E72046FBF7CA
:1055B0004BF895E72046FBF747F8002363648FE735
:1055C00013F0100F3FF47EAF10F0100F3FF47AAFDE
:1055D000002301931368019353680193019B53695E
:1055E00013F0400F52D0E26B13685B689BB2002B44
:1055F0003FF476AFA18D99427FF672AFE385D36910
:10560000B3F5807F37D0226802F10C0353E8003FE6
:1056100023F480730C3242E800310029F3D1226870
:1056200002F1140353E8003F23F00103143242E86F
:1056300000310029F3D1226802F1140353E8003F3E
:1056400023F04003143242E800310029F3D1202333
:1056500084F8423000232363226802F10C0353E8EC
:10566000003F23F010030C3242E800310029F3D14F
:10567000E06BFDF7C3F802236363A18DE38D9BB25A
:10568000C91A89B22046FFF78EFE29E7A18DE38D66
:105690009BB2C91A89B2E38D9BB2002B3FF420AFB5
:1056A00000293FF41DAF226802F10C0353E8003FCC
:1056B00023F490730C3242E800300028F3D12268C2
:1056C00002F1140353E8003F23F00103143242E8CF
:1056D00000300028F3D1202384F8423000232363D4
:1056E000226802F10C0353E8003F23F010030C3250
:1056F00042E800300028F3D1022363632046FFF71D
:1057000052FEEDE62046FFF74FFDE9E62046FFF7A3
:1057100034FEE5E69753000882B000230193019B15
:1057200001330193019BB3F1706F15D80369002B0E
:10573000F5DA00230193036943F001030361019B40
:1057400001330193019BB3F1706F08D8036913F023
:10575000010FF4D1002000E0032002B070470320C5
:10576000FBE784B010B5044603A880E80E009DF85E
:105770001130012B21D1A36B23F48033A363E368A1
:1057800023F4840323F04003E360E36823F440132D
:10579000E3609DF81830012B0AD02046FFF7BCFFCC
:1057A0009DF80E30012B1CD0BDE8104004B07047AE
:1057B000E36843F48013E360EFE7E36843F04003FA
:1057C000E3602046FFF7A8FF9DF8153023B9A36BCF
:1057D00043F48033A363E3E7A36B23F48033A36331
:1057E000DEE7A36843F00603A360A36843F0200349
:1057F000A360D9E7022A0AD00921C26822F47052B4
:10580000C260C36843EA8123C36000207047234B12
:105810000B44234A93422FD9224B0B44224A9342F2
:105820002CD9A1F57403A3F51053204A934227D92C
:10583000A1F18373A3F5E7431D4A934222D31D4B85
:105840000B441D4A93421FD91C4B0B441C4A9342E4
:105850001CD31C4B0B441C4A934219D3A1F1B773C0
:10586000A3F55853194A934214D3194B0B44194AC0
:10587000934211D20721C0E70F21BEE70E21BCE7FA
:105880000D21BAE70C21B8E70B21B6E70A21B4E7EE
:105890000921B2E70821B0E70621AEE7405327FF10
:1058A000FF340C00401E1BFF3F420F007F4F1200D1
:1058B00020D6130060B6E5FE5FE3160000D3CEFEEF
:1058C00040771B00C05BB3FEC091210020753800FB
:1058D000E05459FEE09C4100836843F0010383607B
:1058E00000207047836823F0010383600020704725
:1058F00082B000230193019B01330193019BB3F11B
:10590000706F15D80369002BF5DA00230193890124
:1059100041F020010161019B01330193019BB3F12F
:10592000706F08D8036913F0200FF4D1002000E055
:10593000032002B070470320FBE782B000230193ED
:10594000019B01330193019BB3F1706F13D803697D
:10595000002BF5DA0023019310230361019B01332F
:105960000193019BB3F1706F08D8036913F0100F16
:10597000F4D1002000E0032002B070470320FBE7D1
:10598000D0F800381943C0F8001800207047000014
:1059900084B0F8B5044607A880E80E00002306E0AE
:1059A00003F1400204EB82020021516001330E2B0F
:1059B000F6D99DF8266006BBD4F8043843F00203FC
:1059C000C4F80438A36B23F40013A363236843F0E3
:1059D00040032360236843F0800323600023C4F85E
:1059E000003E9DF82130012B11D19DF81F304BB99D
:1059F00000212046FFF7C4FF0DE0A36B43F4001322
:105A0000A363EBE701212046FFF7BAFF03E0032180
:105A10002046FFF7B5FF10212046FFF769FF054636
:105A200000B101252046FFF788FF00B1012504F5EC
:105A3000006C0023CCF81030CCF81430CCF81C30BB
:105A40000AE0CBB94FF00060C2F8000900220A61F9
:105A50004FF67F328A6001339DF81C10994210D9AD
:105A600004EB431202F51061D2F800090028E8DBCC
:105A70000020C2F80009E9E74FF09040C2F80009A1
:105A8000E4E700230AE0BBB14FF09047C2F8007B87
:105A9000002202614FF67F3282600133994210D9B1
:105AA00004EB431202F53060D2F8007B002FEADBF2
:105AB0000027C2F8007BEBE74FF00067C2F8007BDD
:105AC000E6E7DCF8103023F48073CCF810300023C4
:105AD000A3616FF0804363619DF81E301BB9A36919
