:020000040800F2
:1000000000000220290F0008950C0008970C00083A
:10001000990C00089B0C00089D0C000800000000D3
:10002000000000000000000000000000E15B00088C
:100030009F0C000800000000815C0008E55C0008DF
:10004000790F0008790F0008790F0008790F000870
:10005000790F0008790F0008790F0008790F000860
:10006000790F0008790F0008790F0008790F000850
:10007000790F0008A10C0008790F0008790F00081B
:10008000790F0008790F0008790F0008790F000830
:10009000790F0008790F0008790F0008790F000820
:1000A000790F0008B10C0008790F0008790F0008DB
:1000B000790F0008790F0008790F0008790F000800
:1000C000790F0008790F0008790F0008790F0008F0
:1000D000790F0008790F0008790F0008790F0008E0
:1000E000790F0008790F0008790F0008790F0008D0
:1000F000790F0008790F0008790F0008790F0008C0
:10010000790F0008790F0008790F0008790F0008AF
:10011000C10C0008790F0008790F0008790F00085A
:10012000790F0008790F0008790F0008790F00088F
:10013000790F00080000000000000000790F00089F
:10014000790F0008790F0008790F0008D10C00081A
:10015000790F0008790F0008790F0008790F00085F
:10016000790F0008790F0008790F0008790F00084F
:10017000790F0008790F0008790F000800000000CF
:1001800000000000790F00080000000000000000DF
:10019000790F00080000000000000000790F00083F
:1001A000000000000000000000000000790F0008BF
:1001B000790F0008790F0008790F0008790F0008FF
:0401C000790F0008AB
:1001D00010B5054C237833B9044B13B10448AFF381
:1001E00000800123237010BD500900200000000092
:1001F0006873000808B5034B1BB103490348AFF30C
:10020000008008BD00000000540900206873000849
:1002100053B94AB9002908BF00281CBF4FF0FF316D
:100220004FF0FF3000F074B9ADF1080C6DE904CE69
:1002300000F006F8DDF804E0DDE9022304B07047C1
:100240002DE9F047089D04468E46002B4DD18A4289
:10025000944669D9B2FA82F252B101FA02F3C2F1BC
:10026000200120FA01F10CFA02FC41EA030E94404D
:100270004FEA1C48210CBEFBF8F61FFA8CF708FB6E
:1002800016E341EA034306FB07F199420AD91CEB46
:10029000030306F1FF3080F01F81994240F21C8178
:1002A000023E63445B1AA4B2B3FBF8F008FB1033C0
:1002B00044EA034400FB07F7A7420AD91CEB0404F5
:1002C00000F1FF3380F00A81A74240F207816444C5
:1002D000023840EA0640E41B00261DB1D44000234A
:1002E000C5E900433146BDE8F0878B4209D9002DAE
:1002F00000F0EF800026C5E9000130463146BDE838
:10030000F087B3FA83F6002E4AD18B4202D38242A1
:1003100000F2F980841A61EB030301209E46002D50
:10032000E0D0C5E9004EDDE702B9FFDEB2FA82F2A5
:10033000002A40F09280A1EB0C014FEA1C471FFA03
:100340008CFE0126200CB1FBF7F307FB131140EAEA
:1003500001410EFB03F0884208D91CEB010103F1B7
:10036000FF3802D2884200F2CB804346091AA4B279
:10037000B1FBF7F007FB101144EA01440EFB00FE4D
:10038000A64508D91CEB040400F1FF3102D2A645B2
:1003900000F2BB800846A4EB0E0440EA03409CE751
:1003A000C6F12007B34022FA07FC4CEA030C20FAFE
:1003B00007F401FA06F31C43F9404FEA1C4900FA1E
:1003C00006F3B1FBF9F8200C1FFA8CFE09FB18119B
:1003D00040EA014108FB0EF0884202FA06F20BD90E
:1003E0001CEB010108F1FF3A80F08880884240F25E
:1003F0008580A8F102086144091AA4B2B1FBF9F0A2
:1004000009FB101144EA014100FB0EFE8E4508D99C
:100410001CEB010100F1FF346CD28E456AD9023821
:10042000614440EA0840A0FB0294A1EB0E01A14206
:10043000C846A64656D353D05DB1B3EB080261EB74
:100440000E0101FA07F722FA06F3F1401F43C5E94E
:10045000007100263146BDE8F087C2F12003D84084
:100460000CFA02FC21FA03F3914001434FEA1C47C6
:100470001FFA8CFEB3FBF7F007FB10360B0C43EAB8
:10048000064300FB0EF69E4204FA02F408D91CEB68
:10049000030300F1FF382FD29E422DD90238634466
:1004A0009B1B89B2B3FBF7F607FB163341EA034106
:1004B00006FB0EF38B4208D91CEB010106F1FF3855
:1004C00016D28B4214D9023E6144C91A46EA00464C
:1004D00038E72E46284605E70646E3E61846F8E6DE
:1004E0004B45A9D2B9EB020864EB0C0E0138A3E727
:1004F0004646EAE7204694E74046D1E7D0467BE708
:10050000023B614432E7304609E76444023842E77F
:10051000704700BF844641EA000313F003036DD126
:10052000403A41D351F8043B40F8043B51F8043BB6
:1005300040F8043B51F8043B40F8043B51F8043BBD
:1005400040F8043B51F8043B40F8043B51F8043BAD
:1005500040F8043B51F8043B40F8043B51F8043B9D
:1005600040F8043B51F8043B40F8043B51F8043B8D
:1005700040F8043B51F8043B40F8043B51F8043B7D
:1005800040F8043B51F8043B40F8043B51F8043B6D
:1005900040F8043B51F8043B40F8043B51F8043B5D
:1005A00040F8043B403ABDD2303211D351F8043BFD
:1005B00040F8043B51F8043B40F8043B51F8043B3D
:1005C00040F8043B51F8043B40F8043B103AEDD2AC
:1005D0000C3205D351F8043B40F8043B043AF9D2FD
:1005E000043208D0D2071CBF11F8013B00F8013BD0
:1005F00001D30B8803806046704700BF082A13D3DD
:100600008B078DD010F003038AD0C3F10403D21AF4
:10061000DB071CBF11F8013B00F8013B80D331F828
:10062000023B20F8023B7BE7043AD9D3013A11F8A8
:10063000013B00F8013BF9D20B7803704B78437013
:100640008B78837060467047002380F840300368E1
:100650001A6812F0080F09D06FF008021A600368D8
:100660001A685A68DA6842F01002DA6070470000CF
:1006700070B50E46154648B1114B93FBF0F3114A85
:1006800012689BB2013B9362002409E00D4B1B688A
:1006900000229A62F8E75A2000F09CFC0134E4B290
:1006A000B442F8D3074B1B6800249C6204E05A2034
:1006B00000F090FC0134E4B2AC42F8D370BD00BF4E
:1006C00080B92A00EC10002010B52D4C23681422AC
:1006D0001A640122042140F21640FFF7C9FF0122EB
:1006E00004214FF46970FFF7C3FF0022012140F29B
:1006F0001640FFF7BDFF0022022140F2DD40FFF768
:10070000B7FF0022032140F27550FFF7B1FF01222D
:1007100011464FF4B960FFF7ABFF012211460020EC
:10072000FFF7A6FF012211464FF4C460FFF7A0FFB8
:10073000012211464FF4C460FFF79AFF01221146CF
:100740004FF4C460FFF794FF012211464FF4F760A5
:10075000FFF78EFF012211464FF4F760FFF788FF85
:10076000012211464FF4F760FFF782FF0122114684
:100770004FF4F760FFF77CFF236800221A6410BD76
:10078000EC10002010B596B04C1CA4002246104975
:1007900001A8FFF7BFFE04F154036B44002203F8E5
:1007A000542C04F155036B4403F8542C04F1560304
:1007B0006B44802203F8542C04F157036B447F22CE
:1007C00003F8542C214601A806F0B4F816B010BD69
:1007D0006C09002000B583B000220192094B196B0F
:1007E00041F4001119631B6B03F400130193019B87
:1007F00005210D2000F014FC0D2000F049FC03B091
:100800005DF804FB0038024008B506F041F801210C
:10081000034800F059FF4FF47A7005F03DF9F6E710
:100820000008024008B541F2883005F035F941F280
:10083000883005F031F941F2883005F02DF941F2A8
:10084000883005F029F941F2883005F025F941F2A8
:10085000883005F021F9E6E708B5084B084A1A6028
:100860000849596008499960DA600A210748FFF78A
:1008700089FF022005F010F9EFE700BF6C090020A6
:100880000000F6420000E44300404544941100207B
:10089000034B0360034B0B6080231360704700BF62
:1008A000C80B0020C809002010B596B01B4C0DF1F4
:1008B0003C0CA646BEE80F00ACE80F009EE807001F
:1008C0008CE8070000210FA805F0B1F8144B186060
:1008D0000DF1200C04F11C0EBEE80F00ACE80F0077
:1008E0009EE807008CE80700002108A805F09FF8A3
:1008F0000C4B18600DF1040E04F1380CBCE80F002D
:10090000AEE80F009CE807008EE80700002101A870
:1009100005F08DF8044B186016B010BD8073000808
:10092000BC090020C4090020C009002030B58BB0EC
:1009300000240594069407940894099401941C4B90
:100940001A6B42F080021A631A6B02F08002019265
:10095000019A02941A6B42F004021A631A6B02F0B5
:1009600004020292029A03941A6B42F002021A6382
:100970001A6B02F002020392039A04941A6B42F07B
:1009800001021A631B6B03F001030493049B094DDE
:1009900022460121284600F091FE0123059306938B
:1009A0000794089405A9284600F09CFD0BB030BDC3
:1009B000003802400008024008B50268034B9A4222
:1009C00000D008BD00F0F4FAFBE700BF00000140D2
:1009D00072B6FEE700B595B03422002107A806F0F4
:1009E00021FA002302930393049305930693009343
:1009F000214A116C41F080511164126C02F0805256
:100A00000092009A01931D4B1A6842F440421A600A
:100A10001B6803F440430193019B012307934FF4A8
:100A20008033089302230D934FF480020E92062226
:100A30000F92A8221092119307221292139307A8E3
:100A400002F07CF898B90F2302930223039300234A
:100A500004934FF4A05305934FF48053069305215C
:100A600002A801F0ADFC20B915B05DF804FBFFF75A
:100A7000AFFFFFF7ADFF00BF00380240007000403D
:100A800008B500F07BFAFFF7A5FFFFF74FFFFFF770
:100A9000A1FE00F093F900F0CFF900F00DF80C2161
:100AA000044802F0D5FDFFF70FFEFFF7FDFE04F04E
:100AB000B9FFFEE7EC10002008B50F480F4B0360AC
:100AC0004FF48273436000238360C360022202619B
:100AD000012242614FF4007282613022C2610362DE
:100AE000436283620A23C36202F04AFA00B908BD76
:100AF000FFF76EFFFBE700BF481000200038004002
:100B00002DE9F04188B000230393049305930693E5
:100B100007930268254B9A4202D008B0BDE8F081E5
:100B20000024009403F500331A6C42F480421A64E6
:100B30001A6C02F480420092009A01941A6B42F0FF
:100B400004021A631A6B02F004020192019A0294E1
:100B50001A6B42F002021A631B6B03F0020302934A
:100B6000029B022503950495032606960723079307
:100B7000DFF8408003A9404600F0B4FC042303934F
:100B80000495059406960527079703A9404600F0AB
:100B9000A9FC4FF480630393049505940696079788
:100BA00003A9034800F09EFCB7E700BF00380040EF
:100BB000000402400008024000B583B00022009209
:100BC0000D4B596C41F480415964596C01F48041DA
:100BD000009100990192196C41F0805119641B6CCD
:100BE00003F080530193019B0F216FF0010000F08F
:100BF00017FA03B05DF804FB0038024030B589B045
:100C00000546002401941E4B5A6C42F001025A64BE
:100C10005B6C03F001030193019B02A903A801F09F
:100C2000A5FC01F093FC43001648A0FB03239B0C9A
:100C3000013B1548154A026040F2E732C26043604A
:100C400004618460846102F0F5FB044610B1204623
:100C500009B030BD0C4802F089FA04460028F6D1EC
:100C6000192000F015FA0F2D01D90124EFE7002219
:100C70002946192000F0D4F9054B1D60E7E700BFB5
:100C80000038024083DE1B43A0100020000001401A
:100C900008000020FEE7FEE7FEE7FEE7FEE77047FC
:100CA00008B5024800F030FB08BD00BF3411002039
:100CB00008B5024802F0A2FA08BD00BFA01000204B
:100CC00008B5024802F030FF08BD00BF94110020B3
:100CD00008B5024801F037F808BD00BF10640020D5
:100CE00010B503460C4A0D490D48006840B10C4848
:100CF00000680344521A934206D8094A136010BD93
:100D00000748084C0460F2E706F062F80C23036021
:100D10004FF0FF30F3E700BF0000022000040000A6
:100D2000E8100020506B0020034AD2F8883043F4CA
:100D30007003C2F88830704700ED00E00368B3F13B
:100D4000804F00D0704782B000230193054B1A6C8E
:100D500042F001021A641B6C03F001030193019B32
:100D600002B070470038024000B587B000230193FD
:100D700002930393049305930368B3F1804F02D069
:100D800007B05DF804FB002300930A4B1A6B42F096
:100D900002021A631B6B03F002030093009B0423FF
:100DA0000193022302930123059301A9024800F055
:100DB00099FBE5E7003802400004024000B58BB023
:100DC00000230893099301930293039304930593DB
:100DD0000693079317484FF0804202604360836098
:100DE0001D22C2600361836102F050FBC8B9002379
:100DF0000893099308A90F4802F0ACFCA0B960233E
:100E0000019300230293039305930C2201A909483F
:100E100002F0A0FB58B90748FFF7A6FF0BB05DF83A
:100E200004FBFFF7D5FDE2E7FFF7D2FDE7E7FFF7A9
:100E3000CFFDF0E7EC10002008B50A480A4B03602C
:100E40004FF4E133436000238360C36003610C22ED
:100E500042618361C36102F0ABFD00B908BDFFF7D9
:100E6000B7FDFBE794110020004C004030B589B07D
:100E70000023039304930593069307930268264B7C
:100E80009A4201D009B030BD04460025019503F512
:100E9000F6331A6C42F400221A641A6C02F400222F
:100EA0000192019A02951A6B42F004021A631B6BBD
:100EB00003F004030293029B4FF440630393022365
:100EC0000493032306930823079303A9134800F010
:100ED00009FB1348134B03604FF0006343608560C8
:100EE000C5604FF48063036145618561C56105623A
:100EF000456200F045F958B9094BE3639C63002251
:100F00000521342000F08CF8342000F0C1F8B9E756
:100F1000FFF75EFDF0E700BF004C00400008024014
:100F20003411002040600240DFF834D0FFF7FCFEAF
:100F30000C480D490D4A002302E0D458C450043334
:100F4000C4188C42F9D30A4A0A4C002301E013600A
:100F50000432A242FBD305F041FFFFF791FD704739
:100F600000000220000000204C0900207C740008D2
:100F7000500900204C6B0020FEE7000008B50B4B29
:100F80001A6842F400721A601A6842F480621A60A9
:100F90001A6842F480721A60032000F02FF80F20C4
:100FA000FFF72CFEFFF708FE002008BD003C0240C2
:100FB000034A1168034B1B780B441360704700BF52
:100FC000DC11002004000020014B1868704700BFAE
:100FD000DC11002038B50446FFF7F6FF0546B4F1F2
:100FE000FF3F02D0044B1B781C44FFF7EDFF401B72
:100FF000A042FAD338BD00BF04000020074AD368DE
:1010000023F4E0631B041B0C000200F4E0600343C4
:1010100043F0BF6343F40033D360704700ED00E05A
:1010200000B5194BDB68C3F30223C3F1070CBCF115
:10103000040F28BF4FF0040C03F1040EBEF1060F9D
:1010400018D9033B4FF0FF3E0EFA0CFC21EA0C01CD
:1010500099400EFA03F322EA0303194300280BDB3D
:101060000901C9B200F1604000F5614080F8001349
:101070005DF804FB0023E5E700F00F000901C9B2A9
:10108000024B1954F4E700BF00ED00E014ED00E05E
:10109000002807DB00F01F02400901239340024AA9
:1010A00042F82030704700BF00E100E010B4036850
:1010B000D9B210390C4AA2FB014212090B4CA25CB6
:1010C000C2655F2909D923F47F7323F00303043336
:1010D0008365806D5DF8044B704723F47F7323F0C4
:1010E00003038365F5E700BFABAAAAAA0C74000846
:1010F000836A826992B9012B0AD0022B02D00BB10C
:1011000000207047C36A13F0807F28D10020704709
:10111000C36AB3F1C07F24D000207047B2F5005FEE
:1011200009D0022B25D9032B25D1C36A13F0807F68
:1011300023D100207047032B03D8DFE803F0140409
:10114000140A00207047C36A13F0807F0DD100207D
:101150007047C36AB3F1C07F09D0002070470120F7
:10116000704701207047012070470120704701201F
:101170007047012070470020704701207047000031
:1011800070B50446FFF720FF002C5BD00546022314
:1011900084F83530002384F834302268136823F053
:1011A0000103136023681A6812F0010F0AD0FFF7D9
:1011B0000BFF431B052BF5D920236365032084F81F
:1011C000350070BD1A68204810406168A2680A4363
:1011D000E1680A4321690A4361690A43A1690A4334
:1011E000E1690A43216A0A430243616A04291ED065
:1011F0001A602668756925F00705636A1D43042B8C
:1012000007D1A36A1D43E36A1BB12046FFF770FFB5
:1012100090B975612046FFF749FFE26D3F23934087
:10122000836000206065012384F83530C9E7E16AF6
:10123000206B01430A43DBE740236365012084F808
:101240003500BEE70120BCE73F8010F070B50446D2
:10125000866DFFF7B9FE94F83530DBB2022B06D06D
:1012600080236365002384F83430012070BD054677
:101270002268136823F0160313602268536923F071
:1012800080035361236CE3B12268136823F00803E1
:1012900013602268136823F00103136023681B683E
:1012A00013F0010F11D0FFF78FFE431B052BF5D96B
:1012B00020236365032084F83500002384F834304C
:1012C000D4E7A36C002BDFD1E3E7E26D3F2393402B
:1012D000B360012384F83530002084F83400C5E77A
:1012E00090F83530DBB2022B03D080234365012018
:1012F0007047052380F835300268136823F0010336
:101300001360002070470000F0B583B0044600234E
:101310000193724B1D68724BA3FB0535AD0A876DB7
:101320003E68C26D08239340334210D003681A68A8
:1013300012F0040F0BD01A6822F004021A60C26D7A
:1013400008239340BB60436D43F001034365E26DA6
:1013500001239340334209D02268526912F0800F72
:1013600004D0BB60636D43F002036365E26D042348
:101370009340334209D02268126812F0020F04D061
:10138000BB60636D43F004036365E26D102393401B
:10139000334224D02268126812F0080F1FD0BB60BD
:1013A00023681A6812F4802F0DD01B6813F4002FE5
:1013B00004D1236C9BB12046984710E0A36C73B115
:1013C000204698470BE01A6812F4807F03D11A6810
:1013D00022F008021A60236C0BB120469847E26D98
:1013E00020239340334255D02268126812F0100F28
:1013F00050D0BB6094F83530DBB2052B0ED023689B
:101400001A6812F4802F33D01B6813F4002F2AD1EE
:10141000636C002B3ED0204698473BE0226813685F
:1014200023F0160313602268536923F0800353618D
:10143000236CA3B12268136823F008031360E26DE4
:101440003F239340BB60012384F83530002384F8A8
:101450003430236D002B3FD0204698473CE0A36CEE
:10146000002BE7D1EBE7E36BA3B12046984711E0EF
:101470001A6812F4807F09D11A6822F010021A60EB
:10148000012384F83530002384F83430E36B0BB14A
:1014900020469847636DFBB1636D13F0010F17D0C1
:1014A000052384F835302268136823F001031360A4
:1014B000019B01330193AB4204D823681B6813F0EE
:1014C000010FF5D1012384F83530002384F834303E
:1014D000E36C0BB12046984703B0F0BD000000203C
:1014E000B5814E1B00230F2B00F2DE8070B582B059
:1014F00060E085685E000324B44025EA0405CC68FA
:10150000B4402C438460456825EA02054C68C4F366
:1015100000129A402A4342605AE0DC08083450F82E
:10152000246003F0070295000F22AA4026EA020E6B
:101530000A69AA4042EA0E0240F824205CE0062232
:1015400000E0002202FA0EF22A430234574D45F819
:101550002420574A94686FEA0C0224EA0C054E686E
:1015600016F4801F01D04CEA0405514CA560E468D4
:1015700002EA04054E6816F4001F01D04CEA040587
:101580004B4CE560646802EA04054E6816F4003FBF
:1015900001D04CEA0405464C6560246822404D6841
:1015A00015F4803F01D04CEA0402414C2260013323
:1015B0000F2B77D801229A400C6804EA020C32EA19
:1015C0000404F4D14C6804F00304013C012C90D9CC
:1015D0004A6802F00302032A09D0C4685D000322AE
:1015E000AA4024EA02048A68AA402243C2604A68E8
:1015F00002F00302022A90D004684FEA430E03224D
:1016000002FA0EF224EA02044A6802F0030202FA25
:101610000EF2224302604A6812F4403FC7D0002213
:101620000192244A546C44F480445464526C02F491
:1016300080420192019A9C08A51C1C4A52F8255030
:1016400003F003024FEA820E0F2202FA0EF225EA9D
:101650000205194A90423FF474AF02F5806290424D
:1016600016D002F58062904214D002F5806290425A
:1016700012D002F58062904210D002F58062904252
:101680000ED002F5806290423FF459AF072259E72D
:10169000012257E7022255E7032253E7042251E7CC
:1016A00005224FE702B070BD704700BF003801400F
:1016B000003C014000380240000002400AB1816154
:1016C0007047090481617047436901EA030221EA16
:1016D000030141EA0241816170472DE9F04383B083
:1016E000D0F8008001EBC10300EB83039A6A5B6AC8
:1016F0009A4254D807460C469B1A01EBC10200EBF4
:101700008202D2699A4200D31A4602F103094FEAD3
:10171000990915E006F103094FEA9909BB7904EB31
:10172000C40507EB8505296A0093B3B2E2B24046CF
:1017300002F06FFE2B6A33442B62AB6A3344AB6218
:1017400008EB441303F510639B699BB24B4512D31E
:1017500004EBC40207EB8202916A536A99420AD2EF
:101760004BB15B1A04EBC40207EB8202D6699E42BE
:10177000D0D31E46CEE704EBC40007EB80077A6A9D
:10178000BB6A9A420FD804F00F040123A340D8F893
:10179000344824EA0304C8F83448002000E001205B
:1017A00003B0BDE8F0830020FAE730B583B000282D
:1017B00000F082800446056890F89534C3B1032395
:1017C00084F89534B5F1A04F17D0206802F0D6FB0D
:1017D000237C8DF80030231D0ECB206802F00DFB1A
:1017E00070B1022384F895340125284603B030BD3A
:1017F00080F8943405F054F9E1E70023A371E4E79D
:101800000021206803F024F8024608B9034617E0D7
:10181000022384F895340125E7E703EBC30104EBC9
:101820008101012048750B75CB8500200876C861C1
:10183000086203EBC30104EB810148620133DBB2B0
:1018400020799842E9D816E002EBC20304EB830347
:10185000002183F8551283F8542283F85812C3F8F4
:101860005C12C3F8601202EBC20304EB8303C3F8FB
:1018700064120132D2B29042E6D8237C8DF8003057
:10188000231D0ECB206802F0CFFB054658B900237C
:101890006374012384F89534237B012B08D02068DE
:1018A00002F093FFA1E7022384F8953401259CE719
:1018B000204600F072FDF2E7012596E7036890F8F4
:1018C0009424012A1AD010B50446012280F89424E9
:1018D000DA6812F0400F02D0427B012A09D020685A
:1018E00002F046FB206802F062FF002084F89404B6
:1018F00010BD9A6B42F480329A63F0E70220704781
:1019000070B504460D460068066C00EB411303F504
:1019100030639A68A179012911D038498E4256D096
:101920003DB905EBC50304EB8303D3F86432002B08
:101930005ED0E9B2204605F00FF9002070BD12F02C
:10194000080F09D02E498E42F7D912F4004FF4D077
:101950004FF400429A60F0E712F0200F02D02022EC
:101960009A60EAE712F0280FE7D125498E4206D99E
:1019700012F4004F03D04FF400429A60DDE705EB0C
:10198000C50204EB8202D2F874121B69C3F312037E
:10199000CB1AC2F868327DB905EBC50204EB8202AE
:1019A000D2F864226AB105EBC50204EB8202D2F8D8
:1019B00060120B44C2F86032E9B2204605F0CCF860
:1019C000BBE704F29C42012102F084FFF4E712F429
:1019D000004F03D04FF400429A60AEE712F0200FA0
:1019E00001D020229A60E9B2204605F0B5F8A4E7BC
:1019F00004F29C42002102F06DFF9AE70A31544F35
:101A00000A30544F38B5044603681D6C03EB41138C
:101A1000D3F8081B0E4A954207D903F5306311F439
:101A2000004F02D04FF400429A60204605F08CF837
:101A3000074B9D4202D9A379012B01D0002038BD6C
:101A400004F29C420121206802F044FFF6E700BF47
:101A50000A30544F90F89434012B0CD010B5044642
:101A6000012380F894344174006802F090FE002055
:101A700084F8940410BD0220704738B505468C46A2
:101A800011F0800F29D101F00F0E0EEBCE04A4004F
:101A900004F514740444211D0EEBCE0E00EB8E0EE3
:101AA00000208EF855020CF00F0C81F800C08A60FF
:101AB0000B714A780AB1A1F81AC0022B1CD095F814
:101AC0009434012B1BD0012385F89434286802F04C
:101AD00082FB002085F8940438BD01F00F0000EB74
:101AE000C001890010312944043100EBC00005EB2E
:101AF000800001244475D6E700234B71DFE7022004
:101B0000EAE710B504460A4611F0800F20D101F033
:101B10000F0000EBC0039B0003F514732344191D51
:101B200000EBC00004EB8000002380F8553202F087
:101B30000F020A7094F89434012B18D0012384F812
:101B40009434206802F096FB002084F8940410BDC1
:101B500001F00F0000EBC0039B0010332344191D5C
:101B600000EBC00004EB800001234375DFE7022097
:101B7000EDE710B5144601F00F0C0CEBCC01890019
:101B800001F51471014404310CEBCC0E00EB8E0E08
:101B9000CEF86022CEF864320023CEF868328EF898
:101BA00055328EF854C28279012A04D0006802F0BE
:101BB00047FC002010BDCEF87042F7E701F00F019E
:101BC00001EBC10100EB8101D1F86802704710B54B
:101BD000144601F00F0C0CEBCC01890010310144CC
:101BE00004310CEBCC0E00EB8E0ECEF82020CEF89C
:101BF00024300023CEF8283001238EF815308EF8DB
:101C000014C082799A4204D0006802F019FC0020C6
:101C100010BDCEF83040F7E738B501F00F05027976
:101C2000AA4238D304460B4611F0800F1FD101EBB6
:101C3000C101890001F514710144043103EBC303B0
:101C400000EB8303002283F8552201238B700D7073
:101C500094F89434012B20D0012384F89434206824
:101C600002F03AFD85B1002084F8940438BD05EBFC
:101C7000C501890010310144043105EBC50300EBB7
:101C8000830301225A75E0E704F29C42A17920689F
:101C900002F020FEE7E70120E8E70220E6E701F096
:101CA0000F0302799A4230D310B5044611F0800F29
:101CB0001ED103EBC301890001F514710144043105
:101CC00003EBC30200EB8202002082F855020022DF
:101CD0008A700B7094F89434012B18D0012384F887
:101CE0009434206802F025FD002084F8940410BD8F
:101CF00003EBC301890010310144043103EBC3023B
:101D000000EB820201205075E1E7012070470220BC
:101D1000EDE708B511F0800F0CD101F00F0101EBD8
:101D2000C101890001F5147101440431006802F019
:101D300011FB08BD01F00F0101EBC1018900103159
:101D400001440431F2E72DE9F04F83B00446056801
:101D5000284602F079FD10B103B0BDE8F08F0646C9
:101D6000206802F040FD0028F6D005F50067BB684A
:101D7000C3F30D23C4F8D434206802F034FD10F00E
:101D8000020F04D02268536903F0020353612068F4
:101D900002F029FD10F0100F14D02268936923F08F
:101DA00010039361D5F8208008F00F09C8F343436E
:101DB000022B69D0062B00F08D802268936943F0D6
:101DC00010039361206802F00EFD10F4002F40F024
:101DD0009380206802F007FD10F4802F40F0FC8013
:101DE000206802F000FD0028C0F27D81206802F02A
:101DF000FAFC10F4006F09D0BB6813F0010F40F03B
:101E00008A812268536903F400635361206802F0F9
:101E1000EAFC10F0006F15D02268536903F00063EC
:101E2000536194F8CC34002B40F07981012184F87F
:101E3000CC1423685B6DC3F38303C4F8D03420460D
:101E400004F042FF206802F0CEFC10F4805F40F006
:101E50006A81206802F0C7FC10F4005F40F0B7818F
:101E6000206802F0C0FC10F0080F40F0C881206824
:101E700002F0B9FC10F0800F00F0DB81AB6923F0B9
:101E80008003AB610126C4E147F6F07318EA030F43
:101E900093D04FEA181B4FEAC903019309EBC90A13
:101EA00004EB8A0AC8F30A12DAF86012284602F034
:101EB000E9FBCBF30A0BDAF860325B44CAF8603214
:101EC000019B4B4404EB8303D3F868325B44CAF8AC
:101ED000683272E7082204F29C41284602F0D2FBE5
:101EE000C8F30A1809EBC90204EB8202D2F868327F
:101EF0004344C2F8683260E7206802F078FC80460C
:101F0000B14635E005EB49130122C3F8082B4946D9
:101F10002046FFF7F5FC3CE005EB49130822C3F827
:101F2000082B49462046FFF76DFD35E009EBC90354
:101F300004EB830393F85732012B41D005EB49138F
:101F40000222C3F8082B1AF0200F04D005EB491326
:101F50002022C3F8082B1AF4005F05D005EB4913C3
:101F60004FF40052C3F8082B09F101094FEA580851
:101F7000B8F1000F3FF42DAF18F0010FF4D05FFA65
:101F800089FB5946206802F042FC824610F0010F9E
:101F9000B8D11AF0080FBFD11AF0100F04D005EB1A
:101FA00049131022C3F8082B1AF0020FCBD06B692B
:101FB00013F0800FBAD07B6843F480637B60B5E791
:101FC00009EBC90304EB8303002283F85722594627
:101FD000204604F011FEB1E7206802F010FC8046B4
:101FE000B14625E05946204604F0C2FD1AF0080F1C
:101FF00004D005EB49130822C3F808291AF0100F82
:1020000004D005EB49131022C3F808291AF0400F39
:1020100004D005EB49134022C3F808291AF0020F37
:1020200040D11AF0800F59D109F101094FEA58083F
:10203000B8F1000F3FF4D4AE18F0010FF4D05FFAFE
:1020400089FB5946206802F0EBFB824610F0010F35
:10205000CCD009F00F03012101FA03F27B6B23EAD4
:1020600002037B6305EB4913C3F80819A3798B427C
:10207000B8D109EBC90304EB8303D9691A6A0A448E
:102080001A62B9F1000FADD109EBC90304EB830368
:102090005B6A002BA6D104F29C420121206802F069
:1020A00019FC9FE74946284601F06EFF09EBC9037A
:1020B00004EB8303DB7D012B05D005EB49130222E2
:1020C000C3F80829ADE709EBC90304EB8303002239
:1020D000DA755946204604F095FDEEE7494620465C
:1020E000FFF7FBFAA0E77B6823F001037B6094F81D
:1020F000CC34012B08D0204604F078FD22685369C7
:1021000003F00043536171E6002184F8CC142046AB
:1021100004F0DAFDF2E7204604F050FD71E62046B7
:1021200004F04CFD8EE67B6823F001037B601021F8
:10213000206801F029FF1AE005EB46134FF67F31C6
:10214000C3F80819D3F8002922F40012C3F80029B3
:10215000C3F8081BD3F8002B22F40012C3F8002B9D
:10216000D3F8002B42F00062C3F8002B013623792C
:10217000B342E1D8FB6943F00113FB61E37BDBB1C0
:10218000D7F8843043F00B03C7F884307B6C43F0FE
:102190000B037B64D5F8003823F4FE63C5F80038E0
:1021A00004F29C42A179206802F094FB22685369F2
:1021B00003F4805353614CE67B6943F4005343F0CE
:1021C0002B037B613B6943F00B033B61E2E7206833
:1021D00002F06FFB206801F0EDFFE071266800F06F
:1021E0009FF90146E279304601F050FE204604F0A6
:1021F000D0FC2268536903F40053536130E6204653
:1022000004F0C1FC2268536903F0080353612EE611
:1022100001362379B3420CD906EBC60304EB8303E2
:1022200093F85732012BF3D1F1B22046FFF771FD3D
:10223000EEE7206802F0D7FA10F4801F25D120685D
:1022400002F0D1FA10F4001F59D0012326E0013624
:102250002379B3421BD905EB4613D3F8002906EBCB
:10226000C60304EB83031B7E012BF0D1002AEEDAB8
:1022700006EBC60304EB83030122DA7566F07F01E7
:10228000C9B22046FFF745FDE1E70126E0E72268F5
:10229000536903F480135361D1E7013322799A42E1
:1022A00028D905EB4312D2F8001B03EBC30204EB61
:1022B000820292F85822012AEFD10029EDDA01F4C6
:1022C0008031D4F8D42402F001029142E5D103EB2D
:1022D000C30204EB8202012182F85712AA6942F07C
:1022E0008002AA616A6912F0800FD6D17B6843F43C
:1022F00000737B602268536903F400135361206804
:1023000002F071FA10F0804F10D1206802F06BFAE1
:1023100010F0040F3FF420AD23685D6815F0040F42
:102320000DD1226853682B43536015E5204604F015
:102330006FFC2268536903F080435361E5E7204650
:1023400004F06CFCEDE710B40468606A31B940EA4F
:102350000240A06200205DF8044B70478C46A36ADF
:1023600000EB1340002308E003F1400104EB81017E
:10237000496800EB11400133DBB20CF1FF318B42B5
:10238000F2D340EA02400CF13F0104EB81014860C6
:10239000E0E70368596200207047034602680121A4
:1023A000C0F8D814002083F8CC04936943F000638C
:1023B0009361536D43F0805343F0030353657047BB
:1023C000002800F09B8070B50D4604464F4B1B68FB
:1023D00003F00F038B4208D2CBB24C4A1370136840
:1023E00003F00F038B4240F08B80236813F0020F41
:1023F00017D013F0040F04D0454A936843F4E05318
:102400009360236813F0080F04D0414A936843F4A3
:10241000604393603E4A936823F0F003A1680B4346
:102420009360236813F0010F32D06368012B21D031
:102430009A1E012A25D9364A126812F0020F61D07D
:1024400033498A6822F0030213438B60FEF7BCFD18
:1024500006462F4B9B6803F00C036268B3EB820FB8
:1024600016D0FEF7B1FD801B41F288339842F0D9B7
:10247000032042E0264A126812F4003FE0D1012016
:102480003BE0234A126812F0007FD9D1012034E0EA
:102490001E4B1B6803F00F03AB4207D9EAB21B4B7C
:1024A0001A701B6803F00F03AB422DD1236813F0A1
:1024B000040F06D0164A936823F4E053E1680B43F7
:1024C0009360236813F0080F07D0114A936823F430
:1024D0006043216943EAC103936000F09FFA0C4B0B
:1024E0009B68C3F303130B4AD35CD8400A4B1860B4
:1024F0000A4B1868FEF782FB002070BD0120704770
:102500000120FAE70120F8E70120F6E7003C02404D
:1025100000380240F473000800000020080000208A
:10252000014B1868704700BF0000002008B5FFF796
:10253000F7FF044B9B68C3F38223034AD35CD84064
:1025400008BD00BF003802400474000808B5FFF75A
:10255000E7FF044B9B68C3F34233034AD35CD84084
:1025600008BD00BF00380240047400080F23036058
:102570000B4B9A6802F0030242609A6802F0F00284
:1025800082609A6802F4E052C2609B68DB0803F440
:10259000E0530361034B1B6803F00F030B607047AC
:1025A00000380240003C0240F0B583B004460668A3
:1025B00016F001060DD0964AD2F88C3023F0C06395
:1025C000816B0B43C2F88C30836B002B00F09B8037
:1025D0000026236813F0020F0BD08D4AD2F88C30FE
:1025E00023F0C053E16B0B43C2F88C30E36B03B9AB
:1025F0000126256815F004050FD0854AD2F88C30E5
:1026000023F44013216B0B43C2F88C30236BB3F5DA
:10261000801F7AD0002B7AD00025236813F0080F92
:102620000ED07B4AD2F88C3023F44003616B0B430D
:10263000C2F88C30636BB3F5800F6AD003B9012503
:10264000236813F0200F66D1236813F0100F04D015
:1026500094F858206F4BC3F8E021236813F0800FE3
:1026600008D06B4AD2F8943023F44003E16C0B435A
:10267000C2F89430236813F0400F08D0644AD2F8AF
:10268000943023F08063A16C0B43C2F8943023682C
:1026900013F4807F0DD05E4AD2F8943023F00063AB
:1026A000616D0B43C2F89430636DB3F1006F00F0BD
:1026B0009B80236813F4007F08D0554AD2F89430E9
:1026C00023F08053616C0B43C2F89430236813F4F9
:1026D000806F0CD04E4AD2F8943023F00053216D15
:1026E0000B43C2F89430236DB3F1005F7ED0002E0F
:1026F0007CD12368B3F5006F78D0012D00F02581DF
:10270000002003B0F0BD012663E7012682E7012522
:1027100083E7012692E7002301933D4B1A6C42F0B8
:1027200080521A641B6C03F080530193019B3A4A58
:10273000136843F480731360FEF746FC0746364B7C
:102740001B6813F4807F06D1FEF73EFCC01B0228F5
:10275000F5D90320D5E72E4B1B6F13F4407314D02B
:10276000226C02F440729A420FD0294B1A6F22F465
:1027700040722A490120C1F8400E0020C1F8400EE5
:102780001A671B6F13F0010F12D1236C03F4407210
:10279000B2F5407F1DD01E4A936823F4F81393606E
:1027A0001B490B6F226CC2F30B0213430B674BE701
:1027B000FEF70AFC0746164B1B6F13F0020FE4D11D
:1027C000FEF702FCC01B41F288339842F3D9032084
:1027D00097E70F498A6822F4F81223F0704323F434
:1027E000407313438B60DBE7012562E70B4B00224C
:1027F0009A66FEF7E9FB0646054B1B6813F0006F6F
:102800000ED0FEF7E1FB801B0228F5D9032078E704
:10281000003802400010474200700040000047426C
:10282000236813F0010F01D0A26B22B113F0020F45
:1028300015D0E36B9BB9774AD2F88400D2F88410A4
:102840006368A66843EA861300F44030034301F04E
:1028500070610B43616943EA0173C2F884302368F5
:1028600013F0040F03D0226BB2F5801F06D013F0D3
:10287000080F20D0636BB3F5800F1CD1654AD2F8E6
:102880008400D2F884106368A66843EA861300F4D3
:1028900040300343206943EA006301F0E0410B4309
:1028A000C2F88430D2F88C3023F01F03A16A0139BA
:1028B0000B43C2F88C30236813F4806F03D0236D70
:1028C000B3F1005F28D0236813F4006F11D0636860
:1028D000A26843EA8213E2685208013A43EA0243DB
:1028E000226943EA0263626943EA0273494AC2F811
:1028F0008430494B01229A66FEF766FB0646454B3B
:102900001B6813F0006F7FF4F8AEFEF75DFB801BD1
:102910000228F4D90320F4E63E48D0F88430C3F30B
:1029200001435A1CD0F884606368A16843EA8113AC
:10293000E1684908013943EA014343EA426306F08A
:10294000E0421343C0F88430BDE7334B00221A67DE
:10295000FEF73AFB05462F4B1B6813F0005F06D0CD
:10296000FEF732FB401B0228F5D90320C9E6236895
:1029700013F0040F01D0226B22B113F0080F1AD00C
:10298000636BC3B9234AD2F88810A369E06943EAAC
:10299000801301F440310B43616A43EA0163C2F8DA
:1029A0008830D2F88C3023F4F853E16A013943EAD5
:1029B0000123C2F88C30236813F4807F03D0636D49
:1029C000B3F1006F11D0144B01221A67FEF7FCFA25
:1029D0000446104B1B6813F0005F18D1FEF7F4FAA1
:1029E000001B0228F5D903208BE60A48D0F888108E
:1029F000A369E26943EA8213226A5208013A43EA70
:102A0000024301F070621343C0F88830DBE7002016
:102A100077E600BF003802400000474208B5444B4B
:102A20009B6803F00C03082B07D00C2B43D0042B1E
:102A300001D0404808BD4048FCE73D4B5A6802F0D1
:102A40003F025B6813F4800F12D0394B5968C1F311
:102A5000881139480023A1FB0001FDF7D9FB344B55
:102A60005B68C3F3014301335B00B0FBF3F0E1E7C4
:102A70002F4B5968C1F3881C4FEA4C11B1EB0C0085
:102A80006EEB0E0E4FEA8E1343EA90638101091A32
:102A900063EB0E03DB0043EA5173C90011EB0C0C2E
:102AA00043F10003990200234FEA8C2041EA9C5134
:102AB000FDF7AEFBD3E71E4B5A6802F03F025B689E
:102AC00013F4800F10D01A4B5968C1F388111A48BB
:102AD0000023A1FB0001FDF79BFB154B5B68C3F3D3
:102AE0000273B0FBF3F0A5E7114B5968C1F3881CE2
:102AF0004FEA4C11B1EB0C006EEB0E0E4FEA8E1349
:102B000043EA90638101091A63EB0E03DB0043EA99
:102B10005173C90011EB0C0C43F10003990200231F
:102B20004FEA8C2041EA9C51FDF772FBD5E700BFCC
:102B3000003802400024F400001BB700002800F019
:102B4000018270B582B00446036813F0010F41D0D2
:102B5000994B9B6803F00C03042B32D0964B9B6877
:102B600003F00C03082B27D0934B9B6803F00C0356
:102B70000C2B59D06368B3F5803F5BD0B3F5A02F21
:102B80005ED08D4B1A6822F480321A601A6822F4E3
:102B900080221A606368002B5CD0FEF715FA0546A8
:102BA000854B1B6813F4003F14D1FEF70DFA401B50
:102BB0006428F5D90320CCE17F4B5B6813F4800FC8
:102BC000D2D07D4B1B6813F4003F03D06368002B09
:102BD00000F0BA81236813F0020F60D0764B9B6837
:102BE00013F00C0F4AD0744B9B6803F00C03082BB6
:102BF0003FD0714B9B6803F00C030C2B69D0E3684A
:102C0000002B75D06D4B01221A60FEF7DDF90546E9
:102C1000694B1B6813F0020F61D1FEF7D5F9401B19
:102C20000228F5D9032094E1634B5B6813F4800F0D
:102C3000A0D0C6E7604A136843F480331360A9E765
:102C40005D4B1A6842F480221A601A6842F480329E
:102C50001A609FE7FEF7B8F90546574B1B6813F457
:102C6000003FB7D0FEF7B0F9401B6428F5D9032028
:102C70006FE1514B5B6813F4800FBAD14E4B1B6868
:102C800013F0020F03D0E368012B40F05F814A4A42
:102C9000136823F0F803216943EAC1031360236832
:102CA00013F0080F49D06369002B33D0434B012246
:102CB000C3F8802EFEF788F905463F4B5B6F13F093
:102CC000020F3AD1FEF780F9401B0228F5D9032004
:102CD0003FE1394B5B6813F4800F90D1CEE7364A61
:102CE000136823F0F803216943EAC1031360D6E7B0
:102CF000324B00221A60FEF767F905462E4B1B681F
:102D000013F0020FCBD0FEF75FF9401B0228F5D974
:102D100003201EE1294B0022C3F8802EFEF754F950
:102D20000546254B5B6F13F0020F06D0FEF74CF9FA
:102D3000401B0228F5D903200BE1236813F0040F90
:102D400076D01D4B1B6C13F0805F33D100230193B1
:102D5000194B1A6C42F080521A641B6C03F08053BA
:102D60000193019B0125164B1B6813F4807F29D02A
:102D7000A368012B3AD0052B3ED00F4B1A6F22F0DF
:102D800001021A671A6F22F004021A67A368002B67
:102D90003CD0FEF719F90646074B1B6F13F0020FE4
:102DA00045D1FEF711F9801B41F288339842F3D9DF
:102DB0000320CEE00025D6E700380240000047425D
:102DC000007000406B4A136843F480731360FEF791
:102DD000FBF80646674B1B6813F4807FC8D1FEF7EB
:102DE000F3F8801B0228F5D90320B2E0624A136F82
:102DF00043F001031367C9E75F4B1A6F42F0040207
:102E00001A671A6F42F001021A67BFE7FEF7DCF893
:102E10000646594B1B6F13F0020F08D0FEF7D4F88B
:102E2000801B41F288339842F3D9032091E0EDB939
:102E3000A369002B00F08C804F4A926802F00C02CC
:102E4000082A54D0022B17D04C4B00221A66FEF7EA
:102E5000BBF80446484B1B6813F0007F45D0FEF7D3
:102E6000B3F8001B0228F5D9032072E0424A136C24
:102E700023F080531364DBE7404B00221A66FEF711
:102E8000A3F805463C4B1B6813F0007F06D0FEF705
:102E90009BF8401B0228F5D903205AE0E369226A17
:102EA0001343626A43EA8213A26A5208013A43EA70
:102EB0000243E26A43EA0263226B43EA02732E4A48
:102EC00053602E4B01221A66FEF77EF804462A4B09
:102ED0001B6813F0007F06D1FEF776F8001B02286E
:102EE000F5D9032035E0002033E0002031E0012B4C
:102EF00031D0214B5B6803F48001E26991422CD10F
:102F000003F03F02216A8A4229D1616A47F6C07202
:102F10001A40B2EB811F24D103F44031A26A520857
:102F2000013AB1EB024F1ED103F07062E16AB2EBDD
:102F3000016F1AD103F0E043226BB3EB027F16D18D
:102F4000002006E001207047012002E0012000E09F
:102F5000002002B070BD0120FBE70120F9E701204D
:102F6000F7E70120F5E70120F3E70120F1E7012071
:102F7000EFE700BF00700040003802400000474209
:102F800000285AD010B50446436A33B94368B3F5F4
:102F9000827F05D00023C36102E000230361436107
:102FA0000023A36294F85130002B40D0022384F810
:102FB00051302268136823F040031360636803F400
:102FC0008273A26802F404421343E26802F40062CE
:102FD0001343226902F002021343626902F0010204
:102FE0001343A26902F400721343E26902F038024B
:102FF0001343226A02F080021343A26A02F40052D1
:10300000216813430B60638B03F00403626A02F0D0
:103010001002216813434B602268D36923F40063D4
:10302000D36100206065012384F8513010BD84F81D
:1030300050302046FDF764FDB8E7012070470000DE
:1030400030B4036A026A22F00102026242688469B3
:1030500024F073040D682C4323F0020C8B6843EAC0
:103060000C03104DA84203D005F58065A84205D198
:1030700023F00803CD682B4323F00403094DA84235
:1030800003D005F58065A84205D122F440724D6950
:103090002A438D692A43426084614A68426303621D
:1030A00030BC70470000014030B4036A026A22F469
:1030B000807202624268C46924F0730C0C6844EAAE
:1030C0000C0523F400738C6843EA0423114CA042DE
:1030D00003D004F58064A04206D123F40063CC68D9
:1030E00043EA042323F480630A4CA04203D004F58E
:1030F0008064A04207D122F440524C6942EA041293
:103100008C6942EA04124260C5614A68C263036284
:1031100030BC70470000014030B4036A026A22F4F8
:10312000805202624468C26922F4E6420D6842EAB3
:10313000052223F400538D6843EA0533094DA84264
:1031400003D005F58065A84204D124F480444D697C
:1031500044EA85144460C2614A680264036230BC78
:10316000704700BF000001407047000090F83D30FC
:10317000DBB2012B37D1022380F83D300268D368DF
:1031800043F00103D3600368194A934220D0B3F19E
:10319000804F1DD0A2F57C42934219D002F5806287
:1031A000934215D002F58062934211D002F5784225
:1031B00093420DD002F57052934209D0A2F5943299
:1031C000934205D01A6842F001021A60002070474D
:1031D0009A6802F00702062A07D01A6842F0010234
:1031E0001A6000207047012070470020704700BF20
:1031F00000000140704770477047704770B5044643
:103200000368DE681D6915F0020F10D016F0020F7A
:103210000DD06FF002021A610123037703689B69E6
:1032200013F0030F5ED0FFF7E6FF0023237715F0BE
:10323000040F12D016F0040F0FD023686FF00402B1
:103240001A610223237723689B6913F4407F4FD0D0
:103250002046FFF7D0FF0023237715F0080F12D088
:1032600016F0080F0FD023686FF008021A610423CC
:1032700023772368DB6913F0030F40D02046FFF764
:10328000BAFF0023237715F0100F12D016F0100F9D
:103290000FD023686FF010021A6108232377236888
:1032A000DB6913F4407F31D02046FFF7A4FF0023F1
:1032B000237715F0010F02D016F0010F2DD115F074
:1032C000800F02D016F0800F2FD115F0400F02D0E2
:1032D00016F0400F31D115F0200F02D016F0200F5C
:1032E00033D170BDFFF786FF2046FFF785FF9CE7CF
:1032F0002046FFF77FFF2046FFF77EFFABE7204623
:10330000FFF778FF2046FFF777FFBAE72046FFF781
:1033100071FF2046FFF770FFC9E723686FF00102D5
:103320001A612046FDF748FBC9E723686FF0800269
:103330001A61204600F055FAC7E723686FF0400293
:103340001A612046FFF759FFC5E723686FF0200296
:103350001A61204600F044FAC3E700000368344ACB
:10336000904212D0B0F1804F0FD0A2F57C42904233
:103370000BD002F58062904207D002F58062904245
:1033800003D002F57842904203D123F070034A68DB
:103390001343274A90422AD0B0F1804F27D0A2F59C
:1033A0007C42904223D002F5806290421FD002F509
:1033B000806290421BD002F57842904217D002F50D
:1033C0007052904213D002F5806290420FD002F505
:1033D000806290420BD0A2F59832904207D002F55D
:1033E0008062904203D002F58062904203D123F4C0
:1033F0004073CA68134323F080034A691343036090
:103400008B68C3620B688362094B984203D003F553
:103410008063984201D10B6903630123436103690F
:1034200013F0010F03D0036923F001030361704718
:103430000000014040B310B5044690F83D30F3B1B0
:10344000022384F83D30214651F8040BFFF786FF34
:10345000012384F8463084F83E3084F83F3084F805
:10346000403084F8413084F8423084F8433084F8A6
:10347000443084F8453084F83D30002010BD80F899
:103480003C30FFF771FEDBE70120704740B310B519
:10349000044690F83D30F3B1022384F83D302146D4
:1034A00051F8040BFFF75AFF012384F8463084F8E3
:1034B0003E3084F83F3084F8403084F8413084F85E
:1034C000423084F8433084F8443084F8453084F83E
:1034D0003D30002010BD80F83C30FDF72FFCDBE7CD
:1034E0000120704730B4036A026A22F010020262BF
:1034F0004468826922F4E6420D6842EA052223F01C
:1035000020038D6843EA0513114DA84203D005F549
:103510008065A84206D123F08003CD6843EA0513F5
:1035200023F040030A4DA84203D005F58065A84268
:1035300007D124F440644D6944EA85048D6944EA66
:103540008504446082614A688263036230BC7047CC
:103550000000014038B590F83C30012B66D004469D
:103560000D46012380F83C300C2A5AD8DFE802F0DF
:10357000075959591B59595930595959440000682C
:10358000FFF75EFD2268936943F0080393612268A8
:10359000936923F0040393612268936929690B43BB
:1035A000936100203EE00068FFF79CFF226893696A
:1035B00043F4006393612268936923F48063936109
:1035C00022689369296943EA01239361002029E075
:1035D0000068FFF769FD2268D36943F00803D361EF
:1035E0002268D36923F00403D3612268D36929696F
:1035F0000B43D361002015E00068FFF78DFD2268C2
:10360000D36943F40063D3612268D36923F48063F0
:10361000D3612268D369296943EA0123D361002079
:1036200000E00120002384F83C3038BD0220FCE794
:1036300001F01F01012303FA01FC036A23EA0C03D2
:103640000362036A02FA01F10B4303627047000050
:1036500010B504460846002942D194F83E30DBB24A
:10366000013B18BF0123002B6ED1002851D102234A
:1036700084F83E30012201462068FFF7D9FF236815
:10368000334A934203D002F58062934203D15A6CCD
:1036900042F400425A6423682D4A934249D0B3F160
:1036A000804F46D0A2F57C42934242D002F5806220
:1036B00093423ED002F5806293423AD002F57842BE
:1036C000934236D002F57052934232D0A2F5943232
:1036D00093422ED01A6842F001021A60002032E0B4
:1036E000042908D008290DD094F84130DBB2013B01
:1036F00018BF0123B7E794F83F30DBB2013B18BF96
:103700000123B0E794F84030DBB2013B18BF01233E
:10371000A9E7042805D0082807D0022384F84130FF
:10372000A8E7022384F83F30A4E7022384F840305E
:10373000A0E79A6802F00702062A07D01A6842F04A
:1037400001021A60002010BD0120FCE70020FAE70A
:103750000000014090F83C30012B3DD010B4012313
:1037600080F83C30022380F83D3003685A689C683A
:1037700022F0700C0A6842EA0C025A600368174A89
:1037800093421AD0B3F1804F17D0A2F57C429342F6
:1037900013D002F5806293420FD002F5806293420B
:1037A0000BD002F57842934207D002F57052934253
:1037B00003D0A2F59432934204D124F080044A68E5
:1037C00014439C60012380F83D30002380F83C3096
:1037D00018465DF8044B7047022070470000014016
:1037E00070477047026802F10C0353E8003F23F46E
:1037F00090730C3242E800310029F3D1026802F1E3
:10380000140353E8003F23F00103143242E800316F
:103810000029F3D1036B012B05D0202380F842301F
:10382000002303637047026802F10C0353E8003F72
:1038300023F010030C3242E800310029F3D1ECE709
:1038400090F84130DBB2212B01D002207047836811
:10385000B3F5805F17D0036A5A1C02621A780368B6
:103860005A60C38C9BB2013B9BB2C3844BB90268C4
:10387000D36823F08003D3600268D36843F0400329
:10388000D360002070470369002BE4D1036A1B88D2
:103890000268C3F308035360036A02330362E0E77C
:1038A00038B504460268136923F44053C1680B43DA
:1038B000136183680269134342691343C2691A435F
:1038C0000168CB6823F4164323F00C031343CB6049
:1038D0000268536923F4407381690B4353610368A1
:1038E000314A934206D002F58062934202D0FEF73D
:1038F0001DFE01E0FEF72AFEE369B3F5004F29D073
:103900000021031849411B1841F10001C90041EA97
:103910005371DB00181863684FEA83024FEA937310
:1039200041F10001FCF774FC204DA5FB0032510968
:10393000642303FB11031B013233A5FB03235B0943
:1039400003F0F00202EB011203F00F0321681344AD
:103950008B6038BD0023021843EB0301121841F1BC
:103960000001C90041EA5271D200101841F1000172
:10397000626892185B41FCF74BFC0C4DA5FB0032D2
:103980005109642303FB1103DB003233A5FB03233E
:103990005B095A0002F4F87202EB011203F007030C
:1039A000216813448B60D4E7001001401F85EB5160
:1039B00060B310B5044690F8413013B3242384F863
:1039C00041302268D36823F40053D3602046FFF7C8
:1039D00067FF2268136923F49043136122685369D7
:1039E00023F02A0353612268D36843F40053D36061
:1039F00000206064202384F8413084F84230606302
:103A000010BD80F84030FDF731FAD7E7012070474C
:103A1000704708B50168CA6822F04002CA602022D7
:103A200080F84120FFF7F4FF002008BD704708B57B
:103A3000806B0023C385C384FCF706FE08BD704776
:103A400090F84230DBB2222B69D18368B3F5805FF6
:103A50004FD0826AB3F5805F04D0002B56D1036942
:103A6000002B53D103685B681370836A0133836250
:103A7000C38D9BB2013B9BB2C385002B51D100B5D6
:103A800083B00268D36823F02003D3600268D36850
:103A900023F48073D3600268536923F001035361F8
:103AA000202380F8423000234363036B012B33D182
:103AB00000230363026802F10C0353E8003F23F084
:103AC00010030C3242E800310029F3D103681A6870
:103AD00012F0100F06D0002201921A6801925B6862
:103AE0000193019B818DFFF7AAFF002003B05DF8D1
:103AF00004FB0269002AACD1826A03685B68C3F3E5
:103B000008031380836A02338362B1E703685B684A
:103B100003F07F031370A8E7FFF788FFE5E70220B3
:103B2000704700207047000030B583B0044602683B
:103B30001368D068516913F00F0505D113F0200FF9
:103B400002D010F0200F19D12DB111F0010119D1BF
:103B500010F4907F16D1216B01297DD013F0800FD6
:103B600003D010F0800F40F0198113F0400F03D004
:103B700010F0400F40F0168103B030BD2046FFF733
:103B80005FFFF9E713F0010F06D010F4807F03D038
:103B9000626C42F00102626413F0040F04D019B1A8
:103BA000626C42F00202626413F0020F04D019B199
:103BB000626C42F00402626413F0080F07D010F048
:103BC000200F00D119B1626C42F008026264626C8D
:103BD000002AD1D013F0200F02D010F0200F29D1ED
:103BE00023685B6903F04003626C12F0080F00D198
:103BF00063B32046FFF7F6FD23685B6913F0400FBF
:103C000020D0226802F1140353E8003F23F0400360
:103C1000143242E800310029F3D1E36B73B1634AF7
:103C20001A65E06BFDF75CFB0028A5D0E06B036D27
:103C30009847A1E72046FFF703FFD1E72046FCF7AE
:103C400003FD99E72046FCF7FFFC95E72046FCF7CB
:103C5000FBFC002363648FE713F0100F3FF47EAF8B
:103C600010F0100F3FF47AAF002301931368019313
:103C700053680193019B536913F0400F52D0E26BDC
:103C800013685B689BB2002B3FF476AFA18D99421D
:103C90007FF672AFE385D369B3F5807F37D02268B2
:103CA00002F10C0353E8003F23F480730C3242E826
:103CB00000310029F3D1226802F1140353E8003FD8
:103CC00023F00103143242E800310029F3D12268C5
:103CD00002F1140353E8003F23F04003143242E89A
:103CE00000310029F3D1202384F8423000232363DC
:103CF000226802F10C0353E8003F23F010030C325A
:103D000042E800310029F3D1E06BFDF79FFA02236E
:103D10006363A18DE38D9BB2C91A89B22046FFF778
:103D20008EFE29E7A18DE38D9BB2C91A89B2E38D7E
:103D30009BB2002B3FF420AF00293FF41DAF226857
:103D400002F10C0353E8003F23F490730C3242E875
:103D500000300028F3D1226802F1140353E8003F39
:103D600023F00103143242E800300028F3D120236D
:103D700084F8423000232363226802F10C0353E8E5
:103D8000003F23F010030C3242E800300028F3D14A
:103D9000022363632046FFF752FEEDE62046FFF75D
:103DA0004FFDE9E62046FFF734FEE5E62F3A00082E
:103DB00082B000230193019B01330193019BB3F176
:103DC000706F15D80369002BF5DA0023019303699E
:103DD00043F001030361019B01330193019BB3F1A4
:103DE000706F08D8036913F0010FF4D1002000E0D0
:103DF000032002B070470320FBE784B010B50446EF
:103E000003A880E80E009DF81130012B21D1A36B8F
:103E100023F48033A363E36823F4840323F0400393
:103E2000E360E36823F44013E3609DF81830012B4E
:103E30000AD02046FFF7BCFF9DF80E30012B1CD0A6
:103E4000BDE8104004B07047E36843F48013E360BA
:103E5000EFE7E36843F04003E3602046FFF7A8FF85
:103E60009DF8153023B9A36B43F48033A363E3E7D4
:103E7000A36B23F48033A363DEE7A36843F0060358
:103E8000A360A36843F02003A360D9E7022A0AD005
:103E90000921C26822F47052C260C36843EA8123D8
:103EA000C36000207047234B0B44234A93422FD911
:103EB000224B0B44224A93422CD9A1F57403A3F55B
:103EC0001053204A934227D9A1F18373A3F5E74306
:103ED0001D4A934222D31D4B0B441D4A93421FD9C6
:103EE0001C4B0B441C4A93421CD31C4B0B441C4AD6
:103EF000934219D3A1F1B773A3F55853194A9342CA
:103F000014D3194B0B44194A934211D20721C0E72D
:103F10000F21BEE70E21BCE70D21BAE70C21B8E75F
:103F20000B21B6E70A21B4E70921B2E70821B0E77F
:103F30000621AEE7405327FFFF340C00401E1BFF55
:103F40003F420F007F4F120020D6130060B6E5FEFF
:103F50005FE3160000D3CEFE40771B00C05BB3FECC
:103F6000C091210020753800E05459FEE09C4100CA
:103F7000836843F00103836000207047836823F067
:103F8000010383600020704782B000230193019BEE
:103F900001330193019BB3F1706F15D80369002BB6
:103FA000F5DA00230193890141F020010161019BB1
:103FB00001330193019BB3F1706F08D8036913F0CB
:103FC000200FF4D1002000E0032002B0704703204E
:103FD000FBE782B000230193019B01330193019B16
:103FE000B3F1706F13D80369002BF5DA0023019346
:103FF00010230361019B01330193019BB3F1706FA7
:1040000008D8036913F0100FF4D1002000E003205A
:1040100002B070470320FBE7D0F800381943C0F81E
:10402000001800207047000084B0F8B5044607A8C7
:1040300080E80E00002306E003F1400204EB820258
:104040000021516001330E2BF6D99DF8266006BB86
:10405000D4F8043843F00203C4F80438A36B23F403
:104060000013A363236843F040032360236843F0F5
:10407000800323600023C4F8003E9DF82130012B0B
:1040800011D19DF81F304BB900212046FFF7C4FF26
:104090000DE0A36B43F40013A363EBE7012120467B
:1040A000FFF7BAFF03E003212046FFF7B5FF102119
:1040B0002046FFF769FF054600B101252046FFF7BE
:1040C00088FF00B1012504F5006C0023CCF8103006
:1040D000CCF81430CCF81C300AE0CBB94FF00060BB
:1040E000C2F8000900220A614FF67F328A6001336C
:1040F0009DF81C10994210D904EB431202F510618F
:10410000D2F800090028E8DB0020C2F80009E9E73E
:104110004FF09040C2F80009E4E700230AE0BBB189
:104120004FF09047C2F8007B002202614FF67F32C9
:1041300082600133994210D904EB431202F53060DA
:10414000D2F8007B002FEADB0027C2F8007BEBE708
:104150004FF00067C2F8007BE6E7DCF8103023F48C
:104160008073CCF810300023A3616FF0804363614B
:104170009DF81E301BB9A36943F01003A361A26927
:104180000B4B1343A3619DF822301BB1A36943F08D
:104190000803A361012E04D02846BDE8F84004B00E
:1041A0007047A36943F0804343F00403A361F3E73E
:1041B00000383C80D0F8083813F0060307D0022BF3
:1041C00007D0062B01D00F20704702207047002037
:1041D00070470220704710B591F800C04B78012B52
:1041E00023D000F5006ED0F81C380CF00F0401222B
:1041F000A24043EA0243C0F81C3800EB4C10D0F850
:10420000003B13F4004F0ED1D0F8003B8A68C2F394
:104210000A02097942EA8142134343F0805343F48E
:104220000043C0F8003B002010BDD0F81C280CF063
:104230000F0E03FA0EF39BB21343C0F81C3800EBC9
:104240004C10D0F8003913F4004FECD1D0F80039FD
:104250008A68C2F30A02097942EA814242EA8C5C26
:1042600043EA0C0343F0805343F40043C0F80039A1
:10427000D9E7000030B40B784A78012A26D000EB49
:104280004313D3F8002B002A52DBD0F83C480A78BD
:1042900002F00F024FF0010C0CFA02F224EA024283
:1042A000C0F83C28D0F81C28097801F00F010CFA5E
:1042B00001FC22EA0C42C0F81C28D3F8001B234A58
:1042C0000A40C3F8002B002030BC704700EB4313BA
:1042D000D3F80029002A1EDBD0F83C580A7802F0F7
:1042E0000F02012404FA02F292B225EA0202C0F897
:1042F0003C28D0F81C28097801F00F018C40A4B2AA
:1043000022EA0404C0F81C48D3F80019104A0A40F5
:10431000C3F80029D7E7D3F8002942F00062C3F8B8
:104320000029D3F8002942F08042C3F80029D3E7DE
:10433000D3F8002B42F00062C3F8002BD3F8002B17
:1043400042F08042C3F8002B9FE700BF0078F3EFF4
:10435000007833EC10B483B0024600230193487810
:1043600001280BD00B7802EB4313D3F8000B002885
:104370002DDB002003B05DF8044B70470B7802EB97
:104380004313D3F80049002C01DB0020F2E7D3F8F7
:10439000004944F00064C3F800490B7802EB431372
:1043A000D3F8004944F08044C3F80049019B01332D
:1043B0000193019C42F210739C42DBD80B7802EB14
:1043C0004313D3F80039002BF0DB0020D2E7D3F8F9
:1043D000000B40F00060C3F8000B0B7802EB4313B6
:1043E000D3F8000B40F08040C3F8000B019B013371
:1043F0000193019842F21073984208D80B7802EBAF
:104400004313D3F8003B002BF0DB0020B2E7012080
:10441000B0E710B59DF8084084B903334FEA930E16
:104420004FF0000C08E000EB023303F5805351F825
:10443000044B1C600CF1010CF445F4D3002010BDBA
:10444000F0B583B00C784B78012B2FD000EB441CD7
:104450000CF530631D69ED0CED041D611D6925F03F
:10446000FF5525F4C0151D61002C40F0CC800C696F
:104470000CB18C680C618C680C621D69C4F3120469
:104480002C431C611C6944F400241C61012A00F0C7
:10449000DD800B79012B00F0DF80DCF8003B43F07E
:1044A0000443CCF8003B002003B0F0BD0B6983BB94
:1044B00000EB4413D3F8105925F0FF5525F4C0152F
:1044C000C3F81059D3F8105945F40025C3F8105912
:1044D000D3F81059ED0CED04C3F81059012A50D04F
:1044E00000EB4414D4F8003943F00443C4F8003915
:1044F0000B79012B6ED00B69002BD4D0D0F8343857
:104500000A7802F00F0101228A401343C0F83438C0
:10451000C9E700EB441303F510631D69ED0CED04CE
:104520001D611D6925F0FF5525F4C0151D61DCB91D
:104530000E698D68AE4200D90D611D6945F40025F4
:104540001D611D690E69C6F3120C45EA0C051D615B
:104550000D79012DC2D11D6925F0C0451D611D6970
:1045600045F000551D61B9E71E690D698F683D442E
:10457000013DB5FBF7F5424F07EAC54535431D61DF
:10458000DFE7CB691BB100EB4412C2F814390B7999
:10459000012B08D000EB4410D0F8003943F004435D
:1045A000C0F800397FE7D0F8083813F4807F08D1CD
:1045B00000EB4412D2F8003943F00053C2F800393E
:1045C000E8E700EB4412D2F8003943F08053C2F818
:1045D0000039DFE7D0F8083813F4807F0CD1D4F825
:1045E000003943F00053C4F8003900920B8A0A786E
:1045F000C968FFF70EFF56E7D4F8003943F080533F
:10460000C4F80039F1E70C6954B91C698D68C5F329
:1046100012052C431C611C6944F400241C6135E71D
:104620008D682C44013CB4FBF5F4A4B204FB05F501
:104630000D621D69124E06EAC4442C431C611C69BC
:104640000D6AC5F312052C431C611FE7CA68002AD6
:104650003FF41FAF5A611CE7D0F8083813F4807F8D
:1046600006D1DCF8003B43F00053CCF8003B14E7E4
:10467000DCF8003B43F08053CCF8003B0DE700BF73
:104680000000F81F00B583B0844608464FEA920E3A
:1046900002F00302002305E00CF58051096840F8A0
:1046A000041B01337345F7D39AB10CF5805CDCF839
:1046B000003001934FF0000C5FFA8CF3D900019B9E
:1046C000CB4000F8013B0CF1010C013A92B2002AF8
:1046D000F2D103B05DF804FB0B784A78012A14D0BC
:1046E00000EB4310D0F8002B002A06DB2BB1D0F8EA
:1046F000003B23F08043C0F8003BD0F8003B43F47C
:104700000013C0F8003B0020704700EB4310D0F8C6
:104710000029002A06DB2BB1D0F8003923F08043B2
:10472000C0F80039D0F8003943F40013C0F800395C
:10473000E9E70B784A78012A0ED000EB4310D0F855
:10474000003B23F40013C0F8003B0B79023BDBB2C3
:10475000012B15D90020704700EB4310D0F8003929
:1047600023F40013C0F800390B79023BDBB2012BB4
:10477000F0D8D0F8003943F08053C0F80039E9E7A9
:10478000D0F8003B43F08053C0F8003BE2E7D0F89C
:10479000003823F4FE63C0F80038D0F8003809016F
:1047A00001F4FE611943C0F8001800207047D0F8EA
:1047B000003E23F00303C0F8003ED0F8043823F095
:1047C0000203C0F8043800207047D0F8003E23F000
:1047D0000303C0F8003ED0F8043843F00203C0F8E9
:1047E0000438002070474269806910407047D0F853
:1047F000183800F50060C0691840000C7047D0F808
:10480000183800F50060C069184080B2704700EBAE
:104810004111D1F8082B00F5006040691040704745
:1048200010B4D0F81048D0F8343801F00F02D3405B
:10483000DB01DBB2234300EB411000F51060806820
:1048400018405DF8044B7047406900F00100704764
:1048500038B50546C36823F0C043C360012913D0AF
:1048600019BBC36843F08043C36000240A20FCF7EF
:10487000B1FB0A342846FFF7E7FF08B1C72CF5D98A
:10488000C82C14D0002038BDC36843F00053C36067
:1048900000240A20FCF79EFB0A342846FFF7D4FFC9
:1048A0000128EDD0C72CF4D9EAE70120EBE701207D
:1048B000E9E7D0F8003923F4FF6323F00703C0F8D9
:1048C0000039D0F8043843F48073C0F8043800206D
:1048D0007047000010B4046C154B9C4203D9D0F80B
:1048E000003B002B16DB0024C0F8104BD0F8104B17
:1048F00044F40024C0F8104BD0F8104B44F01804D6
:10490000C0F8104BD0F8104B44F0C044C0F8104B26
:10491000012903D000205DF8044B7047C0F8142B28
:10492000D0F8003B43F08023C0F8003BF2E700BF23
:104930000A30544F10B5D0F8D43203F1B00250F819
:1049400022408CB100EB820043687BB194F80002F6
:10495000FF280DD09B6894F8012221469847FF2339
:1049600084F80032002010BD0320FCE70020FAE7A5
:104970000020F8E70A2303800048704788000020E1
:10498000F8B506460F4F8221384600F041FC054637
:104990000121384600F03CFC04468121384600F0F5
:1049A00037FC0DB11022AA711CB1402222710022E5
:1049B000627118B140220271002242714323338098
:1049C0000048F8BD44000020F8B506460F4F82218C
:1049D000384600F01DFC05460121384600F018FC61
:1049E00004468121384600F013FC0DB11022AA7153
:1049F0001CB1402222710022627118B14022027162
:104A000000224271432333800048F8BD4400002057
:104A1000F8B506460F4F8221384600F0F9FB0546EF
:104A20000121384600F0F4FB04468121384600F0AD
:104A3000EFFB0DB11022AA711CB1002222710222DB
:104A4000627118B100220271022242714323338045
:104A50000048F8BD4400002038B5D0F8D432B03357
:104A600050F8235095B1044602F028F9C5F80C021D
:104A7000D4F8D432B03304EB83046368DB6805F503
:104A80000371D5F804029847002038BD0320FCE7E5
:104A900038B5D0F8C852D0F8D432B03350F82340EB
:104AA00084B301F00F0303EB830200EB82029269EF
:104AB0004AB103EBC30C05EB8C05ED69B2FBF5FCC9
:104AC00005FB1C2292B10023C4F81432D0F8D43272
:104AD000B03300EB830043681B69ABB10A4604F5B1
:104AE0000471D4F808029847002038BD03EB830313
:104AF00000EB830300249C612346224602F058F910
:104B00002046F2E70320F0E70020EEE7F0B583B09F
:104B1000D0F8D43203F1B00250F8227000228DF8A0
:104B20000720ADF80420002F7BD004460D460978FD
:104B300011F0600634D0202E6CD1EA882AB311F02F
:104B4000800F07D16B7887F80032EA883F2A13D8A4
:104B5000D2B212E0B03300EB83035B689B68394646
:104B600068789847EA88072A28BF072239462046EE
:104B700000F010FF002651E0402287F8012239465C
:104B8000204600F01CFF002648E0B03300EB830411
:104B900063689B68002229466878984700263DE0B4
:104BA0006F780B2F31D8DFE807F00639303030301E
:104BB00030303030162690F89C32DBB2032B04D014
:104BC000294600F062FB032628E0022201A900F03A
:104BD000E1FE3E4622E090F89C32DBB2032B04D08B
:104BE000294600F052FB032618E001220DF10701CF
:104BF00000F0D0FE12E090F89C32DBB2032B0DD017
:104C0000294600F042FB032608E0294600F03DFB60
:104C1000032603E0294600F038FB0326304603B0A4
:104C2000F0BD0326FAE738B50446812102F0A0F86A
:104C3000002525870121204602F09AF8A4F8785132
:104C40008221204602F094F8A4F84C50A4F84E506B
:104C5000D4F8D43203F1B00254F822209AB1B03320
:104C600004EB83035B685B689847D4F8D432B033B5
:104C700054F8230002F05EF8D4F8D432B03344F88C
:104C80002350C4F8BC52002038BD70B504464FF420
:104C9000077002F04BF8002849D005464FF4077220
:104CA000002102F0BFF8D4F8D432B03344F82350D6
:104CB000C4F8BC52237C002B41D14FF40073022274
:104CC0008121204602F049F8012626874FF400731F
:104CD00002223146204602F040F8A4F87861102301
:104CE000A4F84E30082303228221204602F035F832
:104CF0000123A4F84C300026C5F80462D4F8D4325D
:104D0000B03304EB83035B681B689847C5F81462F3
:104D1000C5F81862D5F8042262B3257C1DBB4FF498
:104D200000730121204602F04BF8284670BDD4F8EC
:104D3000D432B033002244F823200225F5E7402383
:104D400002228121204602F008F80126268740230E
:104D500002223146204602F000F8A4F878611023C0
:104D6000A4F84E30BEE740230121204602F028F887
:104D70000025DAE70225D8E739B1D0F8D432B033CC
:104D800000EB830041600020704703207047D0F89B
:104D9000D432B03350F823302BB1C3F80812C3F823
:104DA00010220020704703207047D0F8D432B0336F
:104DB00050F823301BB1C3F80412002070470320C1
:104DC000704708B5D0F8D432B03350F823209AB1E8
:104DD000D2F814320BB1012008BD0123C2F81432FD
:104DE000D2F81032C362D2F81032D2F808228121F0
:104DF00001F0DEFF0020EFE70320EDE710B5D0F86B
:104E0000D432B03350F8232092B1047C44B94FF42B
:104E10000073D2F80422012101F0D2FF204610BD18
:104E20004023D2F80422012101F0CAFF0024F5E753
:104E30000324F3E798B108B503460020C3F8B8028D
:104E4000C3F8C402C3F8D00209B1C3F8B4120121F7
:104E500083F89C121A70184601F0E6FE08BD032084
:104E6000704710B582B00023ADF8063089B1044612
:104E7000C0F8B812CB6A23B10DF106009847C4F808
:104E8000D002D4F8D8320133C4F8D832002002B0AE
:104E900010BD0320FBE708B501F057FF08BD08B5BA
:104EA000D0F8B83213B11B68984708BD0020FCE762
:104EB00008B5D0F8B8325B68984700B908BD032040
:104EC000FCE738B5044600F2AA25284600F0C9F9E7
:104ED0000123C4F89432B4F8B032C4F8983294F88C
:104EE000AA1201F01F03012B0DD0022B10D02BB101
:104EF00001F08001204601F043FF03E029462046EF
:104F000000F096FB38BD2946204600F0CCFBF9E7BF
:104F10002946204600F009FCF4E7F8B504460123D1
:104F200080F89C320023C0F894324360C0F8A43269
:104F300080F8A032D0F8B832DBB15B68DBB1002179
:104F400098470746C8B9402300221146204601F081
:104F500004FF0126A4F864614025C4F860512B4683
:104F600000228021204601F0F8FEA6842562384602
:104F7000F8BD0027E7E70027E5E70327E3E701742B
:104F80000020704790F89C32DBB2042B04D090F8DC
:104F90009C32DBB280F89D32042380F89C320020E2
:104FA000704790F89C32DBB2042B01D00020704790
:104FB00090F89D32DBB280F89C32F7E708B590F8A4
:104FC0009C32DBB2032B01D0002008BDD0F8B832F0
:104FD000002BF9D0DB69002BF6D09847F4E708B531
:104FE000D0F8D432AE3350F823205AB190F89C3226
:104FF000DBB2032B01D0002008BD136A23B1984710
:105000000020F9E70320F7E70020F5E708B5D0F81E
:10501000D432AE3350F823205AB190F89C32DBB230
:10502000032B01D0002008BD536A23B1984700200C
:10503000F9E70320F7E70020F5E70020704708B5FF
:10504000012380F89C32D0F8B83223B15B68017933
:10505000984710B908BD0020FCE70320FAE70020BC
:1050600070470020704738B504460D46002943D1EB
:105070001346D0F89422032A01D0084638BDD0F850
:105080005C11D0F86021914212D890F8AA3203F056
:105090001F03012B17D0022B1CD0284694F89C32FA
:1050A000DBB2032B1BD0204600F0A0FC2846E5E72E
:1050B000891AC0F85C118A4228BF0A46194600F0D6
:1050C0008DFC2846DAE790F8AE12FFF7C8FF0028FB
:1050D000E9D1E3E790F8AE12FFF7C3FFF7E700F17D
:1050E000AE0354F823301A69002ADCD0C4F8D40285
:1050F0001B6920469847D6E701F07F01FFF7B1FF13
:1051000090B994F89C32DBB2032BB7D100F1AE0317
:1051100054F823309A69002AB0D0C4F8D4029B69AD
:10512000294620469847A9E70020A7E738B5044656
:105130000D4600294BD11346D0F89422022A07D0FD
:1051400094F8A00218B1002384F8A032284638BD94
:10515000C269016A8A420ED88A4218D094F89C32F9
:10516000DBB2032B27D08021204601F009FE204628
:1051700000F047FCE4E7521AC261194600F017FC40
:1051800000231A461946204601F01AFED8E7836923
:105190009942E3D8D0F898229342DFD200221146F8
:1051A00000F005FC0021C4F898120B460A46204680
:1051B00001F006FEC4E7D4F8B832DA68002AD2D08B
:1051C0000022C4F8D422DB6820469847CBE741F0A0
:1051D0008001FFF746FF90B994F89C32DBB2032BB5
:1051E000B5D100F1AE0354F823305A69002AAED08D
:1051F000C4F8D4025B69294620469847A7E70020F7
:10520000A5E703780A8813440B8003781844704795
:10521000428803789A4218D930B583B004460D46C7
:10522000ADF806306288BDF806309A420AD90DF111
:105230000601FFF7E6FF4378052BF3D18378AB42F5
:10524000F0D100E0002003B030BD002070470346DD
:10525000002002E00130C0B201331A78002AF9D1EF
:1052600070470B7803704B7843708B78CA7843EAA9
:10527000022343800B794A7943EA022383808B79A6
:10528000CA7943EA0223C380704710B504468021DF
:1052900001F076FD0021204601F072FD10BD30B511
:1052A00083B004460D460023ADF806304A88130A41
:1052B000013B0E2B00F2BC80DFE803F0153044BA4E
:1052C000BA9EABBABABABABABABA0800D0F8B4320F
:1052D000DB6923B10DF10601007C98470AE02946FD
:1052E000FFF7D3FF18E0D0F8B4321B680DF10601C8
:1052F000007C9847EA88002A00F0A380BDF80630B9
:10530000002B00F099809A4228BF1A46ADF806207B
:105310000146204600F03EFB03B030BD037C43B99C
:10532000D0F8B8329B6A0DF106009847022343700B
:10533000E0E7D0F8B832DB6A0DF1060098470223A7
:105340004370D7E7D2B2052A52D8DFE802F0031043
:105350001D2A3744D0F8B4325B6823B10DF1060141
:10536000007C9847C6E72946FFF78FFFD4E7D0F8BF
:10537000B4329B6823B10DF10601007C9847B9E770
:105380002946FFF782FFC7E7D0F8B432DB6823B1C4
:105390000DF10601007C9847ACE72946FFF775FF41
:1053A000BAE7D0F8B4321B6923B10DF10601007CD5
:1053B00098479FE72946FFF768FFADE7D0F8B4327A
:1053C0005B6923B10DF10601007C984792E72946FD
:1053D000FFF75BFFA0E7D0F8B4329B6923B10DF172
:1053E0000601007C984785E72946FFF74EFF93E7C3
:1053F0002946FFF74AFF8FE7037C33B9D0F8B8326C
:105400005B6B0DF10600984774E72946FFF73DFFF7
:1054100082E7037C43B9D0F8B8321B6B0DF106006C
:1054200098470723437065E72946FFF72EFF73E788
:105430002946FFF72AFF6FE729462046FFF725FF99
:105440006AE7204600F0D2FA66E738B504468B8852
:10545000FBB9CB88EBB94B887F2B1AD803F07F05BB
:1054600090F89C32DBB2032B0CD080F89E52294678
:1054700001F096FC204600F0B9FA35B1022384F819
:105480009C3209E0FFF701FF06E0012384F89C321B
:1054900002E02046FFF7F9FE38BD000070B5044673
:1054A0000E468D782F4B1D70012D10D890F89C3230
:1054B000DBB2022B0FD0032B26D0FFF7E6FE294BE1
:1054C00019782046FFF7F4FC0325284670BDFFF746
:1054D000DCFE0325F9E7A5B145602946FFF7DFFCAF
:1054E000054638B131462046FFF7CFFE022384F847
:1054F0009C32EAE7204600F079FA032384F89C32D4
:10550000E3E700F073FAE0E7CDB141688D4225D0C2
:10551000C9B2FFF7CDFC134B197861602046FFF745
:10552000BEFC0546B0B131462046FFF7AEFE2179FC
:105530002046FFF7BDFC022384F89C32C5E7022316
:1055400080F89C3245602946FFF7B2FC204600F007
:105550004DFABAE7204600F049FAB6E700F046FAFD
:105560000025B2E7E011002008B5CB88012B0BD154
:1055700090F89C32DBB2022B09D9032B09D101220E
:10558000011D00F007FA01E0FFF77FFE08BD5BB2E6
:1055900013B9FFF77AFEF9E70146002341F8083F07
:1055A000012200F0F7F9F1E708B590F89C32013BD1
:1055B000022B12D8CB88022B0CD10123C360D0F868
:1055C000A4320BB10323C360022200F10C0100F0EE
:1055D000E1F908BDFFF759FEFBE7FFF756FEF8E7D4
:1055E00008B54B88012B04D0022B07D0FFF74DFEE6
:1055F00008BDC0F8A43200F0F9F9F9E78B881B0A5E
:1056000080F8A03200F0F2F9F2E708B590F89C3289
:10561000013B022B09D84B88012B00D008BD002389
:10562000C0F8A43200F0E2F9F8E7FFF72EFEF5E744
:1056300038B50C7804F06004202C06D0402C04D03F
:105640006CB1FFF722FE002407E0D0F8D432AE336D
:1056500050F823309B6898470446204638BD4D7863
:10566000092D1DD8DFE805F012191C161C08051CB1
:105670000F0BFFF714FEF0E7FFF7E7FEEDE7FFF78C
:105680000DFF0446E9E7FFF76FFFE6E7FFF78CFF42
:105690002C46E2E7FFF7A4FFDFE7FFF7B6FFDCE702
:1056A000FFF7F3FDD9E770B505460C460B7803F01C
:1056B0006003202B07D0402B05D023B1FFF7E5FD79
:1056C0000026304670BD95F89C32013B022B26D84F
:1056D0002179012905D921462846FFF7D6FD002664
:1056E000EFE72846FFF7BBFC68B900F1AE0255F8BA
:1056F0002220916889B1C5F8D402936821462846D2
:105700009847064600E00326E388002BD9D1002EF7
:10571000D7D1284600F06AF9D3E70326F4E72146FB
:105720002846FFF7B2FD0026CBE72DE9F0410646FB
:105730000D468B88DFB20C7804F06004202C08D072
:10574000402C06D0DCB1FFF7A0FD00242046BDE8C8
:10575000F08139463046FFF784FC0446002840F0CB
:10576000F880C6F8D40200F1AE0356F823309B68E7
:10577000002BEBD02946304698470446E6E791F8DF
:105780000180B8F1010F31D0B8F1030F05D0B8F1A5
:10579000000F67D0FFF779FDD8E790F89C32DBB2B5
:1057A000022B04D0032B12D0FFF76FFDCEE70FB111
:1057B000802F04D129463046FFF767FDC6E73946FA
:1057C00001F0DEFA8021304601F0DAFABEE74B88BC
:1057D00023B91FB1802F01D0CB881BB1304600F018
:1057E00005F9B3E7394601F0CBFAF7E790F89C32B8
:1057F000DBB2022B04D0032B12D0FFF746FDA5E746
:105800000FB1802F04D129463046FFF73EFD9DE7BA
:10581000394601F0B5FA8021304601F0B1FA95E73A
:105820004B88002B92D117F07F0F17D1304600F034
:10583000DDF839463046FFF714FC002886D1C6F85B
:10584000D40200F1AE0256F822209268002A00F03D
:105850008280294630469047044677E7394601F072
:1058600097FAE3E790F89C22D2B2022A05D0032AE5
:1058700027D0FFF70AFD444668E70FB1802F13D108
:1058800013F0800F14D107F07F0707EB8707B900EB
:1058900001F5A8713144043100230B600222304627
:1058A00000F078F8444651E7FFF7EFFC44464DE737
:1058B00007F07F0707EB8707B90010313144043147
:1058C000EAE75BB2002B1FDB07F00F0202EB82025C
:1058D00000EB8202B2F864211AB3002B25DB07F03B
:1058E0007F0303EB83039C0004F5A8743444043461
:1058F0000FB1802F22D1002323600222214630469F
:1059000000F048F8444621E707F00F0202EB82025C
:1059100000EB8202928C002ADFD1FFF7B6FC4446EE
:1059200014E7FFF7B2FC444610E707F07F0303EBF0
:1059300083039C00103434440434D9E7394630469C
:1059400001F0A6F910B101232360D6E700232360FC
:10595000D3E70024FAE60446F8E6D0B170B50D4668
:1059600016460446FFF773FC431C5B009BB2338072
:105970002B7003236B70022307E0EA5401345A1C96
:10598000D2B20021A9540233DBB22278002AF4D12A
:1059900070BD704708B513460222C0F89422836197
:1059A000C3610A46002101F003FA002008BD08B5D2
:1059B00013460A46002101F0FBF9002008BD08B596
:1059C00013460322C0F89422C0F85831C0F85C3165
:1059D0000A46002101F0F4F9002008BD08B513467D
:1059E0000A46002101F0ECF9002008BD08B50422A8
:1059F000C0F8942200231A46194601F0D9F9002074
:105A000008BD08B50522C0F8942200231A4619469D
:105A100001F0D6F9002008BD842801D0033070477A
:105A20000020704708B500F069FD002008BD2DE991
:105A3000F04387B004460F464569BDB18669AEB1F3
:105A4000D0F80480D0F80090B0F90800FFF7E4FF28
:105A50000296019500903B4622694946404600F077
:105A6000DBFC0590059807B0BDE8F0836568266803
:105A7000D4F81080B4F90800FFF7CEFF05AB01930E
:105A800000903B461FFA88F23146284600F001FD9F
:105A90000128E7D00020E6E708B500B9012000F0B2
:105AA0007FFE002008BD00F1080343604FF0FF3285
:105AB0008260C360036100230360704700230361B9
:105AC000704743684B609A688A60516099600861CA
:105AD000036801330360704730B40D68B5F1FF3FD0
