:020000040800F2
:1000000000000220F949000831430008334300088A
:10001000354300083743000839430008000000005A
:10002000000000000000000000000000417800080F
:100030003B43000800000000E17800084579000813
:10004000494A0008494A0008494A0008494A000844
:10005000494A0008494A0008494A0008494A000834
:100060003D43000847430008494A0008514300083F
:1000700061430008494A00087143000881430008B1
:1000800091430008A1430008494A0008494A000872
:10009000B1430008494A0008494A0008494A000893
:1000A000494A0008C1430008494A0008494A000873
:1000B000494A0008494A0008494A0008494A0008D4
:1000C000494A0008494A0008494A0008494A0008C4
:1000D000494A0008494A0008D1430008F54300088E
:1000E000494A0008494A0008494A0008494A0008A4
:1000F000494A0008494A0008494A000819440008CA
:10010000494A0008494A0008494A0008494A000883
:10011000494A000829440008494A0008494A000899
:10012000494A0008494A0008494A0008494A000863
:10013000494A00080000000000000000494A000889
:10014000494A00084D440008494A0008494A000845
:10015000494A0008494A0008494A0008494A000833
:10016000494A0008494A0008494A0008494A000823
:10017000494A0008494A0008494A000800000000AE
:1001800000000000494A00080000000000000000D4
:10019000494A00080000000000000000494A000829
:1001A000000000000000000000000000494A0008B4
:1001B000494A0008494A0008494A0008494A0008D3
:0401C000494A0008A0
:1001D00010B5054C237833B9044B13B10448AFF381
:1001E00000800123237010BD600800200000000083
:1001F0001C9D000808B5034B1BB103490348AFF32E
:10020000008008BD00000000640800201C9D00085C
:1002100081F0004102E000BF83F0004330B54FEAB7
:1002200041044FEA430594EA050F08BF90EA020F24
:100230001FBF54EA000C55EA020C7FEA645C7FEAB7
:10024000655C00F0E2804FEA5454D4EB5555B8BFDA
:100250006D420CDD2C4480EA020281EA030382EA4B
:10026000000083EA010180EA020281EA0303362DDD
:1002700088BF30BD11F0004F4FEA01314FF4801CB0
:100280004CEA113102D0404261EB410113F0004FC2
:100290004FEA03334CEA133302D0524263EB430379
:1002A00094EA050F00F0A780A4F10104D5F1200E17
:1002B0000DDB02FA0EFC22FA05F2801841F1000172
:1002C00003FA0EF2801843FA05F359410EE0A5F146
:1002D00020050EF1200E012A03FA0EFC28BF4CF077
:1002E000020C43FA05F3C01851EBE37101F000452D
:1002F00007D54FF0000EDCF1000C7EEB00006EEB3A
:100300000101B1F5801F1BD3B1F5001F0CD34908C3
:100310005FEA30004FEA3C0C04F101044FEA44521A
:1003200012F5800F80F09A80BCF1004F08BF5FEAA1
:10033000500C50F1000041EB045141EA050130BD81
:100340005FEA4C0C404141EB0101013C28BFB1F593
:10035000801FE9D291F0000F04BF01460020B1FADE
:1003600081F308BF2033A3F10B03B3F120020CDAB1
:100370000C3208DD02F1140CC2F10C0201FA0CF08F
:1003800021FA02F10CE002F11402D8BFC2F1200CF4
:1003900001FA02F120FA0CFCDCBF41EA0C019040AA
:1003A000E41AA2BF01EB0451294330BD6FEA0404F3
:1003B0001F3C1CDA0C340EDC04F11404C4F12002DE
:1003C00020FA04F001FA02F340EA030021FA04F3F0
:1003D00045EA030130BDC4F10C04C4F1200220FA47
:1003E00002F001FA04F340EA0300294630BD21FA85
:1003F00004F0294630BD94F0000F83F4801306BF4B
:1004000081F480110134013D4EE77FEA645C18BF3E
:100410007FEA655C29D094EA050F08BF90EA020FD5
:1004200005D054EA000C04BF1946104630BD91EACD
:10043000030F1EBF0021002030BD5FEA545C05D1D0
:100440004000494128BF41F0004130BD14F580040F
:100450003CBF01F5801130BD01F0004545F0FE4183
:1004600041F470014FF0000030BD7FEA645C1ABFB8
:10047000194610467FEA655C1CBF0B46024650EAEF
:10048000013406BF52EA033591EA030F41F400211B
:1004900030BD00BF90F0000F04BF0021704730B5A1
:1004A0004FF4806404F132044FF000054FF0000176
:1004B00050E700BF90F0000F04BF0021704730B537
:1004C0004FF4806404F1320410F0004548BF40420C
:1004D0004FF000013EE700BF42004FEAE2014FEA61
:1004E00031014FEA02701FBF12F07F4393F07F4F3C
:1004F00081F06051704732F07F4208BF704793F03F
:100500007F4F04BF41F40021704730B54FF4607451
:1005100001F0004521F000411CE700BF50EA010254
:1005200008BF704730B54FF000050AE050EA0102FD
:1005300008BF704730B511F0004502D5404261EB6D
:1005400041014FF4806404F132045FEA915C3FF4AE
:10055000D8AE4FF003025FEADC0C18BF03325FEA4B
:10056000DC0C18BF033202EBDC02C2F1200300FAFC
:1005700003FC20FA02F001FA03FE40EA0E0021FA21
:1005800002F11444BDE600BF4FF0FF3C06E000BF9F
:100590004FF0010C02E000BF4FF0010C4DF804CD0C
:1005A0004FEA410C7FEA6C5C4FEA430C18BF7FEACC
:1005B0006C5C1BD001B050EA410C0CBF52EA430CFA
:1005C00091EA030F02BF90EA020F0020704710F17A
:1005D000000F91EA030F58BF994208BF90422CBF09
:1005E000D8176FEAE37040F0010070474FEA410C02
:1005F0007FEA6C5C02D150EA013C07D14FEA430C20
:100600007FEA6C5CD6D152EA033CD3D05DF8040B90
:10061000704700BF8446104662468C4619466346C2
:1006200000E000BF01B5FFF7B7FF002848BF10F199
:10063000000F01BD4DF808EDFFF7F4FF0CBF0120DE
:1006400000205DF808FB00BF4DF808EDFFF7EAFF5A
:1006500034BF012000205DF808FB00BF4DF808ED15
:10066000FFF7E0FF94BF012000205DF808FB00BF0A
:100670004DF808EDFFF7CEFF94BF012000205DF894
:1006800008FB00BF4DF808EDFFF7C4FF34BF0120A1
:1006900000205DF808FB00BF53B94AB9002908BF24
:1006A00000281CBF4FF0FF314FF0FF3000F074B94D
:1006B000ADF1080C6DE904CE00F006F8DDF804E0B9
:1006C000DDE9022304B070472DE9F047089D044698
:1006D0008E46002B4DD18A42944669D9B2FA82F2F5
:1006E00052B101FA02F3C2F1200120FA01F10CFA31
:1006F00002FC41EA030E94404FEA1C48210CBEFB69
:10070000F8F61FFA8CF708FB16E341EA034306FBF1
:1007100007F199420AD91CEB030306F1FF3080F080
:100720001F81994240F21C81023E63445B1AA4B2CD
:10073000B3FBF8F008FB103344EA034400FB07F76F
:10074000A7420AD91CEB040400F1FF3380F00A81B0
:10075000A74240F207816444023840EA0640E41BA5
:1007600000261DB1D4400023C5E900433146BDE851
:10077000F0878B4209D9002D00F0EF800026C5E9F3
:10078000000130463146BDE8F087B3FA83F6002E0B
:100790004AD18B4202D3824200F2F980841A61EB83
:1007A000030301209E46002DE0D0C5E9004EDDE7A1
:1007B00002B9FFDEB2FA82F2002A40F09280A1EB89
:1007C0000C014FEA1C471FFA8CFE0126200CB1FBDE
:1007D000F7F307FB131140EA01410EFB03F08842D7
:1007E00008D91CEB010103F1FF3802D2884200F264
:1007F000CB804346091AA4B2B1FBF7F007FB1011F6
:1008000044EA01440EFB00FEA64508D91CEB040493
:1008100000F1FF3102D2A64500F2BB800846A4EBEE
:100820000E0440EA03409CE7C6F12007B34022FAD9
:1008300007FC4CEA030C20FA07F401FA06F31C4308
:10084000F9404FEA1C4900FA06F3B1FBF9F8200C15
:100850001FFA8CFE09FB181140EA014108FB0EF05B
:10086000884202FA06F20BD91CEB010108F1FF3AAB
:1008700080F08880884240F28580A8F102086144B7
:10088000091AA4B2B1FBF9F009FB101144EA0141C5
:1008900000FB0EFE8E4508D91CEB010100F1FF3470
:1008A0006CD28E456AD90238614440EA0840A0FB08
:1008B0000294A1EB0E01A142C846A64656D353D0DE
:1008C0005DB1B3EB080261EB0E0101FA07F722FA02
:1008D00006F3F1401F43C5E9007100263146BDE82B
:1008E000F087C2F12003D8400CFA02FC21FA03F38E
:1008F000914001434FEA1C471FFA8CFEB3FBF7F00F
:1009000007FB10360B0C43EA064300FB0EF69E4233
:1009100004FA02F408D91CEB030300F1FF382FD2CC
:100920009E422DD9023863449B1B89B2B3FBF7F674
:1009300007FB163341EA034106FB0EF38B4208D94D
:100940001CEB010106F1FF3816D28B4214D9023E8E
:100950006144C91A46EA004638E72E46284605E7AC
:100960000646E3E61846F8E64B45A9D2B9EB02087D
:1009700064EB0C0E0138A3E74646EAE7204694E70D
:100980004046D1E7D0467BE7023B614432E7304640
:1009900009E76444023842E7704700BF844641EAF1
:1009A000000313F003036DD1403A41D351F8043BE7
:1009B00040F8043B51F8043B40F8043B51F8043B39
:1009C00040F8043B51F8043B40F8043B51F8043B29
:1009D00040F8043B51F8043B40F8043B51F8043B19
:1009E00040F8043B51F8043B40F8043B51F8043B09
:1009F00040F8043B51F8043B40F8043B51F8043BF9
:100A000040F8043B51F8043B40F8043B51F8043BE8
:100A100040F8043B51F8043B40F8043B51F8043BD8
:100A200040F8043B51F8043B40F8043B403ABDD247
:100A3000303211D351F8043B40F8043B51F8043BE9
:100A400040F8043B51F8043B40F8043B51F8043BA8
:100A500040F8043B103AEDD20C3205D351F8043B78
:100A600040F8043B043AF9D2043208D0D2071CBF44
:100A700011F8013B00F8013B01D30B88038060466D
:100A8000704700BF082A13D38B078DD010F00303E3
:100A90008AD0C3F10403D21ADB071CBF11F8013B53
:100AA00000F8013B80D331F8023B20F8023B7BE7A2
:100AB000043AD9D3013A11F8013B00F8013BF9D2CD
:100AC0000B7803704B7843708B7883706046704767
:100AD00031EE601A30EE600A01238340013B07EEDD
:100AE000903AF8EEE77A60EE277A87EE817AFDEEAB
:100AF000C77A17EE900A704707EE900A70EEC00AA8
:100B0000F8EEE77A67EEA00A01238B40013B07EE7F
:100B1000903AF8EEE77A80EEA77A37EE000A70474F
:100B2000F8B504460D460B7803F00F0303700B78FD
:100B30001B0943704B78887840EA03206060CB78CB
:100B40000F793F0947EA0317A7600E79360206F4CA
:100B500070664B791E43E6601021F2EE090ABAEE88
:100B6000090AFFF7C9FF84ED040A0C21F3EE0E0A0F
:100B7000BBEE0E0A3846FFF7BFFF84ED050A0C21D5
:100B8000F2EE080ABAEE080A3046FFF7B5FF84ED28
:100B9000060AAB7907EE903AF8EE677AC4ED077A69
:100BA000EB7907EE903AF8EE677AC4ED087AF8BD73
:100BB000431EDBB2012B00D9704730B595B0044617
:100BC0000122089200230693079200930193029357
:100BD0000393059304930E230993154D6946284604
:100BE00004F01AF8284604F0B3F80221284604F06D
:100BF00007FA022C01D015B030BD01221292002359
:100C0000109311920A930B930C930D930E230F9351
:100C10000E921393074C0AA9204603F0FDFF2046CD
:100C200004F096F81021204604F0EAF9E3E700BF4B
:100C3000641000208C10002000B58BB001AB03AA1B
:100C4000002104F028F9039B13B10BB05DF804FBFD
:100C50009DF8043003F00F03054A1370013B03EBCA
:100C6000C3039A0001A903481044FFF759FFECE7BA
:100C70009C0900207C08002000B58BB001AB03AAC2
:100C8000012104F008F90BB05DF804FB2DE9F04FE9
:100C90002DED048B8BB081468B46F0EE609AB0EE62
:100CA000419AF0EE618AB0EE428A1020B2EE091A43
:100CB000FAEE090AFFF70CFF80461FFA80FA0C20B3
:100CC000B3EE0E1AFBEE0E0AB0EE690AFFF700FF54
:100CD00087B2DFED269A0C209FED251AF0EE690A07
:100CE000B0EE490AFFF7F4FE064684B20C20B1EEDE
:100CF000041AF0EE690AB0EE680AFFF7E9FE85B261
:100D00000C20B2EE081AFAEE080AB0EE480AFFF715
:100D1000DFFECDF810B00023069307930823089355
:100D20002AFA03FA8DF808A08DF809803B098DF89E
:100D30000A30240A44EA07148DF80B408DF80C6041
:100D40002B098DF80D30C0F3072343EA05158DF804
:100D50000E508DF80F0001AB02AA04A9484604F01A
:100D600025F80BB0BDEC048BBDE8F08F000000004F
:100D70000000FA4300F0070000EBC000014B03EB5A
:100D8000800070477C08002000B58BB004910023E0
:100D90000693079308230893FF238DF808308DF8F6
:100DA00009308DF80A308DF80B308DF80C308DF845
:100DB0000D308DF80E30FC238DF80F3001AB02AAF8
:100DC00004A903F0F3FF0BB05DF804FB08B500F0D5
:100DD000F1FB08BD08B502F053FD08BD08B501F0F0
:100DE0003FFC08BD10B50468E36843F01003E360FE
:100DF00006F02CFC10BD0000F0B583B015461E4671
:100E000003681A6812F0100F01D103B0F0BD044658
:100E10000F46002201921A6801925B680193019BC0
:100E200006F0FCF83B685F68FFB2F71BFFB2114B9E
:100E30009C4210D0104B9C4212D0104B9C4214D0BC
:100E40003A460021284607F07DFB324629462046D7
:100E500006F0FCFBD9E739462846FFF7B7FFEFE776
:100E600039462846FFF7B6FFEAE739462846FFF736
:100E7000B5FFE5E7241B00206C1B0020B41B0020FD
:100E8000002380F8403003681A6812F0080F09D078
:100E90006FF008021A6003681A685A68DA6842F04C
:100EA0001002DA607047000000B52DED108B87B09E
:100EB000F0EE408AB0EE608A8DED041ACDED051A91
:100EC00007F0E2FDB0EE40CAB0EE680A07F014FE8B
:100ED000B0EE409ADFED918A6CEE28FAB0EE480A47
:100EE00007F0D2FDB0EE40BADFED8D9A79EEEF9AC1
:100EF00060EE287A79EEA79A29EE28FAB0EE480A31
:100F000007F0FAFDB0EE408A60EE288A7FEE688A2C
:100F1000DFED847A6CEE27EA6EEEA8EA29EE277AF6
:100F200067EE294ACDED004A2BEE277A67EE282A94
:100F3000CDED012A60EE277A67EEA9DA28EEA80A3D
:100F400069EEA97A70EE27AA9FED777A7AEE87AAE2
:100F50007AEEC7AA9FED75EA29EE8EDA3DEE2ADA1F
:100F60009FED737A20EE070A6AEEAA6A30EE660AEF
:100F700067EE877A30EE270A07F026FEF0EE40BAD9
:100F800068EE8ECA70EE6CCAF0EE4D0AB0EE6C0AD6
:100F900007F018FE70EE007ACDED027AB0EE670A27
:100FA00007F072FD8DED030ADFED626A20EE26AADE
:100FB000DFED617A3AEE67AA3AEE2FAA9DED020ABA
:100FC00007F09AFDDFED5B6A60EE267A77EE8F7AA6
:100FD0006DEE0D5A7BEEABBADFED586A2CEE267A39
:100FE00027EE287ADDED004A3EEEA46A36EE066A68
:100FF00026EE2A6A37EE467A29EE266A26EE296A16
:1010000037EE067A87EE2B6A9FED4D5A2CEE05CA15
:1010100036EE4CCA8CEE0D6A29EE059A79EE2EEA70
:101020007EEEA4EA6EEEACEA8EEEA57A36EE476A64
:101030006CEEAC4A84EEA57AB7EE004A37EE047A3D
:101040006AEE0A4ADDED033A63EE8E3A20EE0EEACE
:101050002BEE263A63EE288ADDED012A32EEAD3A18
:1010600033EE033A63EE2AAA78EEEA8A68EE266A3D
:1010700066EEA99A78EEA99A89EEAB0A2BEE05BA2C
:1010800030EE4BBACBEE0D6A28EE058A38EE228A96
:1010900038EE2D8A68EE2CCA8CEEA55A76EEC55A2B
:1010A00027EEA75AC5EE246A36EE844A26EE235A66
:1010B000C5EE076A76EEAFFA8FEE8A1A26EE0E6A52
:1010C000C6EE076A36EE8FFA2FEE27FACFEE246AC5
:1010D00031EE261ADDED046A21EE261A81EE040AAD
:1010E00063EEA53A2AEE07AAC3EE8A1A67EE8E7A55
:1010F00067EEA57A27EE247AC7EE876A71EEA61A04
:10110000DDED057A61EEA71AC1EE847A30EE670A4A
:1011100007B0BDEC108B5DF804FB00BF8FC2F53D3E
:10112000A913D03D8FC2753E0AD7233DCDCCCC3E0E
:101130000AD7233ECDCC4C3EA913503D52491D3D0C
:10114000A69B443D10B52DED068B044690ED038A19
:10115000B0EE480A07F0D0FCDFED6C8A20EE289A4A
:1011600084ED089A94ED02AAB0EE4A0A07F0C4FC96
:1011700060EE289AC4ED099AB0EE480A07F084FCA4
:1011800020EE288A9FED620A38EE008A84ED0A8AF2
:10119000B0EE4A0A07F078FC20EE280A84ED0B0A2C
:1011A00038EE408A28EE088A39EE699A29EE099AC3
:1011B00038EE090A07F008FD84ED0C0A94ED0A7A6E
:1011C000D4ED0B7A37EE677ADFED527A27EE277A85
:1011D00084ED0D7A94ED088AD4ED096A38EE668ABA
:1011E00028EE278A84ED0E8A20EE000ADFED4A6A97
:1011F00070EE267A77EEE67AC4ED0F7A27EE077A5C
:1012000028EE080A37EE000A67EEA77A30EE670A82
:1012100007F0DAFCD4ED0D0AD4ED0F7A70EEA70AD0
:1012200038EE000A07F0CEFC30EE008A84ED108A1A
:1012300094ED09AAD4ED087A3AEE67AAB0EE480A0E
:1012400007F05AFC9FED359A60EE099AD4ED0BAA8F
:10125000D4ED0A7A7AEEE7AAB0EE480A07F014FC59
:1012600060EE090A7AEEA00A3AEE290A07F0AAFC13
:1012700084ED110A94ED02AAB0EE4A0A07F004FCCC
:1012800020EE288AD4ED109AB0EE690A07F0FCFB34
:1012900020EE090A38EE008A84ED128AB0EE4A0A7E
:1012A00007F02AFC60EE288AB0EE690A07F024FCF9
:1012B00020EE090A38EE800A84ED130ADFED188A61
:1012C00038EE688A28EE088A20EE000A38EE000A16
:1012D00007F07AFC84ED140AD4ED120A70EEE80AE5
:1012E00094ED130A07F06EFC84ED150AD4ED051A8F
:1012F00094ED041AD4ED030A94ED020AFFF7D4FD2D
:1013000084ED1C0ABDEC068B10BD00BF8FC2F53DFD
:10131000A913D03DCDCCCC3E0BD7233DCDCC4C3EFC
:10132000A913503D08B5F1B9026892ED047ADFEDDA
:10133000167A77EEC77AC0ED027A4368D3ED047A65
:10134000F1EE677AC0ED037AD2ED057AF1EE677AB5
:10135000C0ED047AD3ED057AF1EE677AC0ED057A37
:10136000FFF7F0FE08BD0268D2ED047A9FED067A21
:1013700077EE877AC0ED027A43681969C1605269D5
:1013800002615B694361EBE7DB0F494090ED167A40
:10139000D0ED067A27EE277A90ED176AD0ED076A2E
:1013A00026EE266A37EE067A80ED1A7A90ED187AE4
:1013B00067EE877A90ED197A66EE876A77EEA67AFD
:1013C000C0ED1B7A7047000010B52DED0C8B044664
:1013D000B0EE40AAB0EE609AD0ED15BAD0ED119AF9
:1013E0007BEEE9CAB0EE6C0A07F086FB9FED35CACA
:1013F00020EE0CBA94ED020A94ED10DA30EE4D0AAC
:1014000007F07AFBF0EE408A2BEE00BA39EECD0AF7
:1014100007F072FBB0EE408ACBEE00AAC4ED16AA2C
:10142000B0EE6C0A07F030FB60EE0C7A68EEA77A3B
:10143000D4ED14CAC7EEAC8A68EE288AC4ED178AC8
:101440007BEECDBAB0EE6B0A07F056FB20EE0CBA7D
:1014500094ED030A39EEC00A07F04EFBF0EE409A15
:101460002BEE000A80EE08BA84ED18BAB0EE6B0AD3
:1014700007F00AFB20EE0CCA69EE8C9A89EEAC0AE2
:1014800028EE008A84ED198ACBEE2A0A60EE8A0AD9
:1014900039EE609A2AEE899A2AEE888A28EE8BBA6B
:1014A00038EE4B8A89EE080A84ED1E0A68EE808ABF
:1014B0007AEE688AC8EEAA7AC4ED1D7ABDEC0C8B70
:1014C00010BD00BF8FC2F53D38B52DED028B04462F
:1014D0000D46C9BB0020FFF74DFC20600120FFF73F
:1014E00049FC6060236893ED047ADFED237A77EEA0
:1014F000C77AC4ED027AD0ED047AF1EE677AC4EDD2
:10150000037AD3ED057AF1EE677AC4ED047AD0ED73
:10151000057AF1EE677AC4ED057A29462046FFF791
:1015200001FF9FED168AF0EE480AB0EE480A204609
:10153000FFF74AFF84ED068A84ED078A2046FFF70D
:1015400025FFBDEC028B38BD0320FFF713FC2060A4
:101550000220FFF70FFC60602368D3ED047A9FED53
:10156000067A77EE877AC4ED027A0269E2605B69F7
:10157000236143696361D0E7DB0F4940000000004D
:10158000024600200B460139C9B28BB112F8013B6B
:101590005840002302E040080133DBB2072BF1D8AA
:1015A00010F0010FF7D0400880F08C00C0B2F3E7D4
:1015B000704700000A2940F09F8038B50446457AFC
:1015C0000921FFF7DDFF85424AD194F800C00CF1F4
:1015D000FF3C6278494B03EB4C135A70A178E278D8
:1015E00042EA012212B29A802179607940EA012010
:1015F00000B2D880B3F808E0A3F80AE0A579E17951
:1016000041EA05211981247A9C7007EE902AF8EEB0
:10161000E77AB2EE007A67EE877ADFED396A87EE15
:10162000A67AF6EE087A67EE277AC3ED047A07EE1B
:10163000901AF8EE677A9FED337A67EE877A87EE35
:10164000A67A83ED037A1B7D5BB92C4B03EB4C1C14
:101650000023CCF81C30ACF80A1001238CF81430AD
:1016600038BD002825DDA1EB0E03B3F5804F3ADB32
:10167000C1F5FF417F318E44204B03EB4C139A6937
:10168000A2EB0E029A611D4B03EB4C1CDCED067ABB
:10169000B8EEE77ADFED1A6AC7EE267A9FED1A7A7E
:1016A00067EE877A9FED197A67EE877ACCED077A35
:1016B000D6E7AEEB0103B3F5804F0BDBCEF5FF4E63
:1016C0000EF17F0E8E440D4B03EB4C139A6972445E
:1016D0009A61D8E7A1EB0E01084B03EB4C139A6912
:1016E00011449961CFE7AEEB0101044B03EB4C13BE
:1016F0009A69511A9961C6E7704700BF3C0A0020F9
:1017000000FEFF460000B443DB0F494060E5D03DDA
:1017100010B5F1EE007AB4EEE70AF1EE10FA09DC4A
:10172000F9EE007AB4EEE70AF1EE10FA04D5B9EE5C
:10173000000A01E0B1EE000AB6EE087AC0EE077AC0
:10174000B4EE007A67EE877A9FED127A67EE877AB9
:10175000FDEEE77A17EE903A0F4C2170642262702A
:1017600043F30722A270E370002323716371A37116
:10177000E371237209212046FFF702FF6072012204
:101780000821064804F028F90A222146044805F0F9
:1017900003FC10BD00FEFF467C0A0020000402404E
:1017A000241B002010B50C4C2170A0236370002373
:1017B000A370E37023716371A371E371237262728A
:1017C00001220821054804F007F90A2221460448AD
:1017D00005F0E2FB10BD00BF7C0A002000040240BF
:1017E000241B002000F00300014B03EB4010704766
:1017F0003C0A002008B5054B834200D008BD0022FA
:101800000821034804F0E8F8F8E700BF241B002093
:101810000004024080ED000A002343608360C3603F
:10182000C0ED040A80ED051A7047D0ED007A90ED06
:10183000047A77EE877AC0ED017A90ED057A37EE7B
:10184000877AC7EE876AC0ED036A90ED027A30EEC0
:10185000470A26EE800A37EE000A80ED020AB7EE4C
:10186000007A37EE667A67EE877AC0ED007A7047C5
:10187000D0B52DED028B0446B0EE408A10EE100A72
:10188000FEF72AFE06460F465BA3D3E90023FEF7C8
:10189000DBFE002834D15AA3D3E900233046394671
:1018A000FEF7F0FE60BB94ED547AF2EE0E7AB4EEE1
:1018B000E77AF1EE10FA26DB3B4BC4F80C313B4BD8
:1018C000C4F810313A4BC4F814313A4BC4F818310B
:1018D000394BC4F81C31394BC4F82031384BC4F8AB
:1018E0002431384BC4F82831374BC4F82C31374BEE
:1018F000C4F83031364BC4F83431364BC4F8383183
:10190000BDEC028BD0BD0023C4F80C31C4F81031FB
:10191000C4F81431C4F81831C4F81C31C4F82031AB
:10192000DFED2D7A68EE277A67EE887A67EE887A9F
:101930009FED2A7A28EE077A27EE087A77EEC77AA3
:101940009FED277A28EE077A77EE877A9FED257A42
:1019500077EE877AC4ED497ADFED237A68EE277A4D
:1019600067EE887A67EE887A9FED200A28EE000AF3
:1019700020EE080A77EEC07A9FED1D0A28EE000AD5
:1019800037EE800ADFED1B7A30EE270A84ED4A0A33
:10199000C4F82C31C4F83031C4F83431C4F83831CB
:1019A000AEE700BFAFF30080EA04ACC035EFD8BEAD
:1019B000C28657BF0C02B3BF39453B407C61B23E83
:1019C000EA045C40DDB5A43E3A238A3F6ABCDC3FB2
:1019D000CDCC2A4129CB103F60E56642BE1F0342B1
:1019E000F8C2243FB7D160404F40134121B0E840D6
:1019F00070CEE03FFCA9713E9A9999999999B93FA7
:101A0000333333333333D33F38B52DED068B0446B0
:101A100090ED048AB0EE480A07F06EF8F0EE409AB6
:101A2000B0EE480A07F030F8B0EE409AD4ED278ABD
:101A300068EE808AD4ED287A67EEA97AD4ED3F6A01
:101A400087EEA67A78EE878AA56895ED0A8AD4EDA6
:101A500008AAB1EE6A0A07F04FF828EE008A95ED61
:101A60000BAAB0EE6A0A07F00FF86AEE007A78EE79
:101A7000277A9FED208A77EEC87A94ED407AD4EDEC
:101A8000416A77EE666ADFED1C5A86EEA58A28EE7B
:101A9000098A77EEC87A37EE077AD4ED056A27EE21
:101AA000267A27EE297A77EE877A94ED1E6A94EDEE
:101AB000427A36EEC77A26EE077A87EE250A60EE7E
:101AC000299A77EEA97A26EE866A66EE866A66EE2F
:101AD000896A77EEA67A9FED097A78EE878A9FED7C
:101AE000087A67EE877A78EEA77AC4ED547ABDEC6F
:101AF000068B38BDCDCC1C416F12833B48E1FA40C8
:101B0000CDCC4C3F2DE9F0412DED028B8AB005463E
:101B10000C46174600F0B0FEA86000F0ADFEA060D5
:101B20000020FFF75FFEE8600120FFF75BFEE0604A
:101B30003D4E0DF11C0896E8070088E807009FED70
:101B40003B8ADFED3B8AF0EE480AB0EE680A424677
:101B5000002105F1A40000F0A3FBF0EE480AB0EE6E
:101B6000680A4246002104F1A40000F099FB0DF13F
:101B7000100806F10C0393E8070088E80700F0EE70
:101B8000480AB7EE000A42460021384600F088FBBA
:101B9000F0EE480AB7EE000A42460021384600F04F
:101BA0007FFB0DF10408183696E8070088E8070067
:101BB0004837F0EE480AB7EE000A424600213846A0
:101BC00000F06EFBF0EE480AB7EE000A4246002134
:101BD000384600F065FB4FF07E5300939FED158A69
:101BE0006946B0EE480A05F1EC0000F01FFC6946BA
:101BF000B0EE480A04F1EC0000F018FC002105F1F9
:101C00002800FFF761FC012104F12800FFF75CFCCC
:101C1000AB6FC5F8F030A36FC4F8F0300AB0BDEC7C
:101C2000028BBDE8F08100BF349D00080000000079
:101C30000000C8426F12833B2DE9F0412DED068B69
:101C400005460C4616468368D3ED117A9FED869AB9
:101C500067EEC97ADFED856A87EEA67A80ED087AAD
:101C6000834BD3ED067AF1EE677AC0ED097A8B6883
:101C700093ED117A27EE497A87EE266A81ED086A9C
:101C8000C1ED097A00F1280800214046FFF74AFB20
:101C900004F1280701213846FFF744FBAB6A93EDB6
:101CA000060AEB6AD3ED060AF1EE600AB1EE400ACD
:101CB0004046FFF789FBA36AE26AD2ED060A93ED7C
:101CC000060A3846FFF780FBE368D3ED077AEB6836
:101CD00093ED077A77EEC77AC5ED067AE268D2ED22
:101CE000077A93ED077A77EEC77AC4ED067A95ED19
:101CF0001F7ADFED607A37EEC77AD5ED086A37EEE6
:101D0000667A85ED047A95ED267AB1EE477AD5EDBF
:101D1000096A37EE667A85ED057A94ED1F7A77EEDB
:101D2000C77A94ED087A77EEC77AC4ED047AD4EDD9
:101D3000267AF1EE677A94ED097A77EEC77AC4EDE8
:101D4000057AD5ED1E7A95ED3F7A77EEC77A9FED4D
:101D50004A7AC7EE876AC5ED406AD4ED1E7AD4EDA3
:101D60003F6A77EEE67AC7EE876AC4ED406AEB68B1
:101D7000B3F9063007EE903AF8EEE77A67EE897A23
:101D80009FED3EAA67EE8A7ADFED3D9A87EEA98A3B
:101D9000D5ED1E8AD5ED057A68EEA78AD5ED04AAA1
:101DA000B0EE6A0A06F070FE68EE808A38EE288A85
:101DB000D5ED408AB0EE6A0A06F09EFE68EE808A93
:101DC00038EE288A85ED078AE368B3F9063007EE16
:101DD000903AF8EEE77A67EEC97A67EE8A7A87EE8C
:101DE000A98AD4ED1E8AD4ED057A68EEA78A94ED0F
:101DF000049AB0EE490A06F047FE68EE808A38EE93
:101E0000288AD4ED408AB0EE490A06F075FE68EEE5
:101E1000808A38EE288A84ED078A2846FFF7F4FD89
:101E20002046FFF7F1FDD5ED047A94ED047A77EEC4
:101E3000C77AC6ED247AAB6FC5F8FC30A36FC4F83F
:101E4000FC30D5F80031C5F80431D4F80031C4F8BD
:101E500004316B69C5F808316369C4F80831BDEC19
:101E6000068BBDE8F08100BFDB0F49400000344322
:101E7000D40E0020DB0FC93F6F12833B60E5D03DDD
:101E800000007042F8B52DED028B05460C46164653
:101E9000FFF7D2FEA44FD7ED000AC5ED010AC4ED4D
:101EA000010A95ED3F0A05F1A40000F013FAD4ED04
:101EB000010A94ED3F0A04F1A40000F00BFA9FED33
:101EC0009B8AF0EE480A96ED240A304600F002FAAA
:101ED000F0EE480A964B93ED080A06F1480000F030
:101EE000F9F995ED317AF3EE026A37EE267A85ED4F
:101EF000107AD4ED317A77EEA67AC4ED107A97EDA8
:101F0000000A2846FFF7B4FC97ED000A2046FFF7C9
:101F1000AFFCD5ED437A95ED047A67EE877A95EDBF
:101F2000447AD5ED056A27EE267A77EE877A95ED25
:101F3000457AD5ED066A27EE267A77EE877A95ED13
:101F4000467AD5ED076A27EE267A77EE877A95ED01
:101F5000477AD5ED086A27EE267A77EE877A95EDEF
:101F6000487AD5ED096A27EE267A77EE877AC5EDAD
:101F7000507AD4ED437A94ED047A67EE877A94ED43
:101F8000447AD4ED056A27EE267A77EE877A94EDC7
:101F9000457AD4ED066A27EE267A77EE877A94EDB5
:101FA000467AD4ED076A27EE267A77EE877A94EDA3
:101FB000477AD4ED086A27EE267A77EE877A94ED91
:101FC000487AD4ED096A27EE267A77EE877AC4ED4F
:101FD000507AD5ED497A95ED047A67EE877A95EDDA
:101FE0004A7AD5ED056A27EE267A77EE877A95ED5F
:101FF0004B7AD5ED066A27EE267A77EE877A95ED4D
:102000004C7AD5ED076A27EE267A77EE877A95ED3A
:102010004D7AD5ED086A27EE267A77EE877A95ED28
:102020004E7AD5ED096A27EE267A77EE877AC5EDE6
:102030004F7AD4ED497A94ED047A67EE877A94ED7D
:102040004A7AD4ED056A27EE267A77EE877A94ED00
:102050004B7AD4ED066A27EE267A77EE877A94EDEE
:102060004C7AD4ED076A27EE267A77EE877A94EDDC
:102070004D7AD4ED086A27EE267A77EE877A94EDCA
:102080004E7AD4ED096A27EE267A77EE877AC4ED88
:102090004F7A284B1B89B3F5FA7F22D885ED118A38
:1020A00084ED118A85ED538A84ED538A05F1280069
:1020B000FFF76CF904F12800FFF768F9D5F89030C4
:1020C000C5F84431D5F89430C5F84831D4F890308B
:1020D000C4F84431D4F89430C4F84831BDEC028BD4
:1020E000F8BDD5ED4F7A96ED087A77EEC77AC5ED53
:1020F000117AD4ED4F7A96ED087A77EE877AC4EDAF
:10210000117AD5ED507A96ED1A7A77EE877AF1EE5C
:10211000677AC5ED537AD4ED507A96ED1A7A77EE58
:10212000C77AC4ED537AC1E7D80D00200000000043
:10213000D40E00204010002008B50C4B0C4A1A6049
:102140000AE00C4A0C490D48FFF7DCFC0C4B01225D
:102150001A70042005F0CDFA094B1B78002BF0D043
:10216000044A05490548FFF78DFEF2E7D80D002027
:10217000CDCCCC3D340D0020DC0B0020880A0020A3
:10218000300D002070B50E46154648B1114B93FB3B
:10219000F0F3114A12689BB2013B9362002409E0FC
:1021A0000D4B1B6800229A62F8E75A2002F07AFC75
:1021B0000134E4B2B442F8D3074B1B6800249C629C
:1021C00004E05A2002F06EFC0134E4B2AC42F8D3D1
:1021D00070BD00BF80B92A00B418002010B52F4C84
:1021E0000C21204604F0E8FC236814221A64012222
:1021F000042140F21640FFF7C5FF012204214FF4ED
:102200006970FFF7BFFF0022012140F21640FFF77F
:10221000B9FF0022022140F2DD40FFF7B3FF0022A8
:10222000032140F27550FFF7ADFF012211464FF434
:10223000B960FFF7A7FF012211460020FFF7A2FFB8
:10224000012211464FF4C460FFF79CFF01221146A2
:102250004FF4C460FFF796FF012211464FF4C460AB
:10226000FFF790FF012211464FF4F760FFF78AFF56
:10227000012211464FF4F760FFF784FF0122114657
:102280004FF4F760FFF77EFF012211464FF4F7602D
:10229000FFF778FF236800221A6410BDB4180020ED
:1022A000B0B1AAB101701168416051688160926853
:1022B000C26080ED040AC0ED050A00228263426319
:1022C00002630262C2628262426242640264C26368
:1022D000704700000346002800F0A380D0ED107A7C
:1022E000C0ED117AD0ED0F6AC0ED106AC0ED060A9C
:1022F00080ED070A70EEC00AC0ED0F0A0278002ACE
:102300004CD190ED017A20EE877A80ED097AD0EDFC
:10231000027A60EEA77A90ED0A6A77EE867AC0EDCF
:102320000A7A426B8263026B426370EEE60AC0ED8A
:102330000C0AD0ED036A60EEA60AC0ED0B0AD0EDE0
:10234000056AF4EEE67AF1EE10FA13DDC0ED0A6AE2
:10235000D3ED0A7A37EE277A70EE870AC3ED080AC2
:10236000D3ED047AF4EEE70AF1EE10FA0CDDC3EDDA
:10237000087A15E0F1EE666AF4EEE67AF1EE10FA0C
:10238000E6D5C0ED0A6AE3E7F1EE677AF4EEE70A14
:10239000F1EE10FA04D5C3ED087A01E0012A02D06B
:1023A00093ED080A704790ED017A30EEE66A27EE69
:1023B000067A80ED097A90ED026A20EE866A80ED59
:1023C0000A6A426B8263026B426376EEA66A70EE23
:1023D000E60A77EEA00AC0ED0C0AD0ED037A60EEB3
:1023E000A77AC0ED0B7A37EE067A77EE877A90ED12
:1023F000087A77EE877AC0ED087A90ED047AF4EEE9
:10240000C77AF1EE10FA02DD80ED087AC8E7B1EE86
:10241000477AF4EEC77AF1EE10FAC1D580ED087A6A
:10242000BEE79FED010A70470000000080ED030A3F
:102430000B688360002303604360704738B505462E
:102440000B4C50220B492046FEF7A8FA002384F8D3
:10245000503084F85130802384F852307F2384F840
:10246000533054222146284604F096FD38BD00BF63
:10247000300E0020840E002008B532223F4940482B
:10248000FEF7B0FC32223F493F48FEF7ABFC322258
:102490003E493F48FEF7A6FC3E4A138807EE903AB5
:1024A0003D4BF8EE677AC3ED007A518807EE901A3B
:1024B000F8EE677AC3ED017A918807EE901AF8EE8C
:1024C000677AC3ED027AD18807EE901AF8EE677A40
:1024D000C3ED037A118907EE901AF8EE677AC3ED1F
:1024E000047A518907EE901AF8EE677AC3ED057AFF
:1024F000918907EE901AF8EE677AC3ED067AD189D2
:1025000007EE901AF8EE677AC3ED077A118A07EEA4
:10251000901AF8EE677AC3ED087A528A07EE902A8D
:10252000F8EE677AC3ED097A1C49D1F850219A6216
:102530001B4AD2F85001D862D1F83C111963126AD3
:102540005A63184A517807EE901AF8EE677AC3ED8D
:102550000E7A927807EE902AF8EE677AC3ED0F7A3A
:10256000114A516A1964916A5964D26A9A64084896
:10257000FFF764FF052005F0BCF88DE7A0090020F7
:10258000241B0020D40900206C1B0020080A002016
:10259000B41B002040100020840E0020880A002078
:1025A000DC0B00203C0A0020D40E002082B0002367
:1025B0000AE0D91C094A0A44117903F108026A4465
:1025C00002F8041C0133DBB2032BF2D9012801D03D
:1025D00002B07047019A024B1A60F9E7180E00200A
:1025E000D80D002082B000230AE0D91C094A0A4411
:1025F000117903F108026A4402F8041C0133DBB2CA
:10260000032BF2D9012801D002B07047019A024B86
:102610005A60F9E7180E0020D80D002084B008B5E4
:102620000DF1080C8CE80F000C4B1B79FE2B03D02E
:10263000BDE8084004B07047084B5B79EF2BF7D139
:10264000064B9B7903F00F001B0904D0022BEFD13E
:10265000FFF7C8FFECE7FFF7A9FFE9E7180E002036
:10266000F0B583B006460D46002407E01E4B1A78ED
:102670005A709B78142B21D80134E4B2AC4230D28A
:10268000315D194B19709A78501C98701A44117169
:102690003222DA705B78ED2BE8D1DE29E6D1124FD9
:1026A00007F1100393E803008DE8030097E80F009B
:1026B000FFF7B4FF00237B70BB70D7E70A4B002203
:1026C0009A7005E0084AD118002008710133937010
:1026D000054B9B78132BF5D9034B00225A709A7047
:1026E000CAE703B0F0BD00BF180E002010B52DEDF5
:1026F000028B044600F0A8FB9FED0C8AF0EE482AFE
:10270000B0EE482AF0EE481A94ED021AD4ED010A10
:1027100094ED000A00F0EAFB054B83ED138A83ED8C
:10272000148A83ED158ABDEC028B10BD00000000F9
:10273000D40E002010B59FED283AB0EE434AF0EEDB
:10274000433AD1ED022A91ED012AD1ED001A90ED24
:10275000021AD0ED010A90ED000A00F0E7FD00F04A
:10276000C7FF01F047F81D4C84ED0D0A01F02CF86D
:1027700084ED0E0A01F054F884ED0F0AD4ED157AB9
:102780009FED177A77EE877AC4ED157A636B236431
:10279000A36B636430EE670A84ED120ADFED117AF1
:1027A000B4EEE70AF1EE10FA06D5DFED0F7A30EE5F
:1027B000270A84ED120A10BDDFED0C7AB4EEE70AA9
:1027C000F1EE10FAF7DDDFED087A30EE670A034B21
:1027D00083ED120AEFE700BF00000000D40E0020D6
:1027E00049926938000034C30000B4430000344308
:1027F00000B585B004210A4804F0DEF9094A01ABAE
:1028000007CA83E80700DFED080A9FED080A1A46A9
:1028100001210748FFF744FD05B05DF804FB00BF48
:10282000FC180020589D00080000484400389C45D2
:102830002C0F002010B5F0EE400A0D4C94ED0C0A60
:1028400004F15800FFF746FDD4ED1E7AF5EEC07A8C
:10285000F1EE10FA09D4064BD3ED1E7A054B1B6836
:10286000FCEEE77AC3ED0E7A10BD0022A267F2E714
:10287000D40E0020FC18002000487047D40E002021
:10288000F8B52DED048B00F013FA0028FBD10746B4
:10289000394800F1300200F10C0100F017FA3C4613
:1028A00022E09FED369ADFED368A9FED368A324E72
:1028B000650004EB4400C000A030B0EE491AF0EE11
:1028C000680AB0EE480A3044FEF7A4FF2819C00099
:1028D000E830B0EE491AF0EE680AB0EE480A30442B
:1028E000FEF798FF0134E4B2022CDAD926489FEDB6
:1028F000270AFFF7FBFEFFF77BFF33E01E4D05EBDA
:102900008403660004EB4400C000A03093ED000A8D
:102910002844FEF78AFFA31D05EB830383ED000A1D
:10292000A31C05EB83033019C000E83093ED010AC6
:102930002844FEF77AFF04F1080305EB830585EDD3
:10294000010A0134E4B2022CD8D90B4800F1240169
:102950001830FFF7EFFE9FED0E0AFFF76BFF022026
:1029600004F0C7FE044800F1300200F10C0100F051
:10297000ADF93C46E7E700BFD40E0020CDCCCC3DFE
:102980006F12833A0AD7233CEC0E00200000FA4372
:10299000000020427047704710B44FF0E0235C699C
:1029A0004FF0A80C0CFB00FC9B69002104E0E01A2E
:1029B00002441144614509D21A464FF0E0239B6955
:1029C0009A42FAD0F3D9D21A1144F3E75DF8044BD6
:1029D000704710B504E04FF47A70FFF7DDFF204632
:1029E000431E9CB20028F6D110BD000008B500229D
:1029F0000221024802F0F0FF08BD00BF00040240BF
:102A000008B501220221024802F0E6FF08BD00BF1E
:102A10000004024008B500220121024802F0DCFF58
:102A200008BD00BF0004024008B50122114602485B
:102A300002F0D2FF08BD00BF0004024000B587B01D
:102A40008DF80F004FF47A73009301230DF11702F4
:102A50000DF10F01034803F084FC9DF8170007B047
:102A60005DF804FB1018002010B50C46FFF7E6FFD8
:102A70002046FFF7E3FF10BD10B50C4640F0800084
:102A8000FFF7DCFF5520FFF7D9FF207010BD38B5E8
:102A90000D46144640F08000FFF7D0FF06E05520B9
:102AA000FFF7CCFF05F8010B013CE4B2002CF6D196
:102AB00038BD0000F8B5FFF799FF8020FFF7BEFF93
:102AC0005520FFF7BBFF5520FFF7B8FFFFF798FF32
:102AD0009620FFF761FFFFF789FF8020FFF7AEFF29
:102AE0005520FFF7ABFF5520FFF7A8FFFFF788FF42
:102AF0009620FFF751FFFFF779FFB6217E20FFF701
:102B0000B3FFFFF77DFF5020FFF763FFFFF76EFF76
:102B10008020FFF793FF5520FFF790FF5520FFF728
:102B20008DFFFFF76DFF9620FFF736FFFFF75EFF83
:102B30008020FFF783FF5520FFF780FF5520FFF728
:102B40007DFF0446FFF75CFF9620FFF725FF1E2C54
:102B500032D10024052C2DD8FFF748FF174A04EB8B
:102B60004403D1184E78D55C31462846FFF77CFFE8
:102B7000FFF746FF9620FFF70FFFFFF737FF45F0FF
:102B80008000FFF75BFF5520FFF758FF5520FFF748
:102B900055FF0546FFF734FF9620FFF7FDFEAE42D6
:102BA00002D10134E4B2D5E704EB4407034B1F44E0
:102BB000B87800E00020F8BDFF20FCE7F89D000891
:102BC000F0B583B000248DF80740FFF723FF0DF127
:102BD00007012046FFF750FFFFF726FF9620FFF77B
:102BE000DBFEFFF717FF0DF107012046FFF744FF5B
:102BF000FFF71AFF9620FFF7CFFEFFF70BFFB62176
:102C00001420FFF731FFFFF70FFF5020FFF7E1FE21
:102C1000FFF700FF0DF107012046FFF72DFFFFF73B
:102C200003FF9620FFF7B8FEFFF7F4FE0DF1070152
:102C30002046FFF721FFFFF7F7FE9620FFF7ACFED7
:102C40009DF807300F2B2ED1052C29D8FFF7E2FE77
:102C5000164A04EB4403D1184D78D65C2946304619
:102C6000FFF702FFFFF7E0FE9620FFF795FEFFF764
:102C7000D1FE0DF107013046FFF7FEFEFFF7D4FE4F
:102C80009620FFF789FE9DF807309D4202D101345E
:102C9000E4B2D9E704EB4407044B1F44B87800E0E2
:102CA000002003B0F0BDFF20FBE700BF0C9E000832
:102CB00010B5FFF76FFEFFF76EFEFFF7FBFE044651
:102CC000FFF77EFF2043C0B210BD0000F0B583B017
:102CD00006460D461446594B93E803000090ADF8A4
:102CE0000410090C8DF8061000278DF80770FFF707
:102CF0007DFE9220FFF7A2FE062269461220FFF712
:102D0000C6FEFFF77DFE9DF801301B021BB29DF849
:102D10000020134307EE903AF8EEE77A484A92ED26
:102D2000007A67EE877AC5ED007A9DF803301B02C2
:102D30001BB29DF802100B4307EE103AD2ED006A69
:102D4000B8EEC77A27EE267A85ED017A9DF8053030
:102D50001B021BB29DF80420134307EE903AF8EED5
:102D6000E77A67EEA67AC5ED027AFFF753FE0822EE
:102D700069463846FFF78BFEFFF756FE9DF8003098
:102D80000F2B27D0FFF732FEA220FFF757FE0222BB
:102D900069462220FFF77BFEFFF732FE9DF80020F8
:102DA0009DF801305B0943EAC203B3F5806F01DB94
:102DB000A3F5006307EE903AF8EEE77AB4EE007AF6
:102DC00067EE877AB3EE077A77EE877AC4ED007AFA
:102DD00003B0F0BD9DF803301B021BB29DF802202A
:102DE000134307EE903AF8EEE77A164A92ED007A2E
:102DF00067EE877AC6ED007A9DF805301B021BB29C
:102E00009DF804100B4307EE103AD2ED006AB8EEBD
:102E1000C77A27EE267A86ED017A9DF807301B02E5
:102E20001BB29DF80620134307EE903AF8EEE77ABE
:102E300067EEA67AC6ED027AA4E700BF649D00089B
:102E4000000000200400002000230E4A1360F7EE6B
:102E5000007A0D4AC2ED007A0C4A13600C4A1360E6
:102E60000C4A13600C4A13600C4A13600C4A13603E
:102E70000C4B00221A7087EE807A0B4B83ED007AA0
:102E8000704700BF301000201C10002020100020D0
:102E90002410002028100020081000200C10002012
:102EA000101000200410002014100020B6EE007A4C
:102EB00020EE077A10EE102A0B4BA3EB620307EE0D
:102EC000903A27EE870A27EE800AF7EE086A36EE78
:102ED000C00A67EE807A27EE877A27EE877A36EE89
:102EE000C70A27EE800A7047DF59375FF8B52DED26
:102EF0000A8BB0EE409AF0EE608AB0EE418AB0EEF6
:102F000061BAB0EE42AAB0EE62CA60EE007A20EE7C
:102F1000A00A77EE807A21EE010A37EE800AFFF7E9
:102F2000C5FF29EE009A68EE808A28EE008A6BEED3
:102F30000B7A2AEE0A0A77EE807A2CEE0C0A37EE2C
:102F4000800AFFF7B3FF2BEE00BA6AEE00AA2CEE60
:102F500000CAF0EE480AB1EE490A05F033FEF0EE81
:102F600040BAF0EE480AB0EE680A05F02BFEB0EE6B
:102F700040AA05F0C1FDF0EE409AB0EE4A0A05F015
:102F800083FDB0EE408AB0EE6B0A05F07DFDF0EEF9
:102F9000408AB0EE6B0A05F0AFFDF0EE407A6BEEC2
:102FA000280A2AEE800A20EE290A70EE800A6CEECA
:102FB000277A67EE887A2AEE887A6CEE299A37EEBD
:102FC000697A70EEA70AB1EE470A05F0FBFDB0EE94
:102FD000409AF6EE008A2AEE28AAB0EE4A0A05F0D8
:102FE00053FDB0EE40CA6BEEA8BAB0EE6B0A05F026
:102FF0004BFDF0EE40AA29EE289AB0EE490A05F002
:1030000043FDB0EE40BAB0EE4A0A05F075FDB0EEF1
:1030100040AAB0EE6B0A05F06FFDB0EE408AB0EE4C
:10302000490A05F069FD6CEE2A7A67EE8B9A6AEE22
:10303000086A26EE807A79EE879A224FC7ED009AC9
:103040002AEE8A7A27EE0B9A2CEE088A28EE006A7E
:1030500039EE469A1C4E86ED009A28EE0B8A27EE32
:10306000007A38EE078A194D85ED008A67EE807A7E
:1030700066EE8B8A77EEE88A154CC4ED008A69EE1D
:10308000A97A29EE090A77EE807A28EE080A77EE07
:10309000807A28EEA80A37EE800AFFF707FF69EE6C
:1030A000807AC7ED007A69EE007AC6ED007A28EEE4
:1030B000008A85ED008A68EE808AC4ED008ABDEC46
:1030C0000A8BF8BD1C1000202010002024100020C6
:1030D00028100020F8B52DED068BB0EE408AF0EEFA
:1030E000608AB0EE41AAB0EE619AF0EE42AAF0EE2C
:1030F000629AF5EE401AF1EE10FA09D1B5EE402AC7
:10310000F1EE10FA04D1F5EE402AF1EE10FA7ED07D
:1031100069EE097A2AEEAA0A77EE807A29EEA90AE0
:1031200037EE800AFFF7C2FE29EE009A6AEE80AA07
:1031300069EE809A744BD3ED001A744B93ED007ACC
:1031400021EE872A724BD3ED007A724BD3ED006AE1
:1031500027EEA66A32EE462A61EEA71A67EE266AC5
:1031600071EEA61A67EEA77AF6EE006A77EEE67AB7
:1031700027EE077A77EE877A6AEEA76A29EEA17AB8
:1031800076EEC76A69EE829A69EE277A79EEE79A57
:1031900029EE219A6AEE82AA39EE6A9A5E4B93ED85
:1031A000007AB5EEC07AF1EE10FA40F3A48067EE33
:1031B000265A5A4BD3ED007A65EEA75A584B93ED39
:1031C000006A75EE865AC3ED005A27EE296A27EE8B
:1031D000866A544B93ED005A36EE056A83ED006A19
:1031E00027EE097A67EE877A4F4B93ED007A77EEF8
:1031F000877AC3ED007A38EE258A78EE868A3AEE31
:1032000027AA38EE268A78EEA98A3AEE09AA434B15
:10321000D3ED007AB6EE001A67EE817A27EE888A3F
:1032200067EEA88A27EE8A1A394F97ED007A364E54
:10323000D6ED000A374D95ED000A20EEC8AA68EEDB
:10324000807A3AEE67AA314CD4ED007A67EE816A53
:103250003AEE66AA3AEE07AA87ED00AA68EE079A48
:1032600061EE006A79EEA69A67EEA86A79EEE69AB0
:1032700079EEA09AC6ED009A28EE879A61EE206A50
:1032800039EE669A67EE886A39EE269A39EE009A28
:1032900085ED009A21EE071A68EEA08A31EE281A11
:1032A00028EE008A31EE481A37EE818A84ED008AD2
:1032B0006AEE0A7A29EEA90A77EE807A29EE090ADF
:1032C00077EE807A28EE080A37EE800AFFF7EEFDE7
:1032D0002AEE00AA87ED00AA69EE809AC6ED009A50
:1032E00029EE009A85ED009A28EE001A84ED001A66
:1032F000BDEC068BF8BD0023094A1360094A136030
:10330000094A13607DE700BF20100020281000202C
:103310001C10002024100020301000201410002069
:10332000081000200C10002010100020F0B52DED2A
:10333000108B87B0F0EE409AB0EE60AAB0EE41DAA2
:10334000B0EE618AF0EE42AAF0EE62BAF0EE438A85
:10335000B0EE63BAB0EE449AB5EE403AF1EE10FA30
:103360000AD1F5EE403AF1EE10FA05D1B5EE404A39
:10337000F1EE10FA00F09D81B5EE408AF1EE10FA00
:103380000AD1F5EE40AAF1EE10FA05D1F5EE40BAF9
:10339000F1EE10FA00F0158168EE087A2AEEAA0A1A
:1033A00077EE807A2BEEAB0A37EE800AFFF77EFDD0
:1033B00068EE006ACDED026A6AEE805ACDED035ADE
:1033C0002BEE805A8DED045A68EEA87A2BEE0B0A8C
:1033D00077EE807A29EE090A37EE800AFFF766FD5C
:1033E00068EE808A2BEE00BA29EE009AB64BD3ED38
:1033F000007A27EEA77A8DED057AB44BD3ED00AABB
:1034000027EEAAFAB24B93ED008A67EE88FAB14B29
:10341000D3ED00CA67EEAC7A2AEEAACA2AEE887A01
:103420006AEEACAA68EE08EA28EE2C8A6CEEACCA0A
:10343000B6EE00EA7EEE6EBA7BEEECBA2BEEA80A90
:1034400077EE67DA6DEE8B6A30EE260A3FEEAA6AF7
:103450008DED016A66EE096A30EE260A30EE000A4A
:1034600077EE877A67EEA87A3EEE4CCA3CEE6C7A2D
:1034700027EE0B7A77EE877A38EE4F7A27EE097AC5
:1034800077EE877A77EEA77A20EE000A67EEA77AC2
:1034900030EE270A05F098FB7AEEEFAA6AEEA87ADA
:1034A0003FEE088A28EE0B7A77EE877A3CEE6ECAFA
:1034B0006CEE09EA77EEAE7A77EEA77A9DED057AA3
:1034C00037EE4EEA7EEE2CCA6BEE80BA2AEEA77A71
:1034D0007BEE87BA6DEE80DA28EE277A7DEE87DA0A
:1034E0009DED016A26EE000A6CEE277A70EE277ACF
:1034F000DDED035A25EEAC7A9DED045A68EE056ABF
:1035000077EE666A2BEE277A29EE2D6A37EE467A39
:1035100036EE877A6AEE852ADDED026A66EEACCA7F
:1035200072EEECCA29EE2B9A68EEA77A39EE679A0A
:103530003CEE899A28EE268A6AEEA5AA38EE6A8AB7
:1035400068EEAD8A2BEE2BBA78EECB8A38EE288A5D
:10355000614BD3ED006AF5EEC06AF1EE10FA40F36C
:10356000AB8066EE875A5D4BD3ED007A65EEA75AC5
:103570005B4B93ED006A75EE865AC3ED005A26EE5A
:10358000896A27EE866A574B93ED005A36EE056A34
:1035900083ED006A66EE886A67EEA67A524BD3ED39
:1035A000006A77EEA67AC3ED007A79EEA59A3AEE34
:1035B00006AA3DEE27DA79EE879A3AEE09AA3DEEA1
:1035C00008DA464B93ED001AF6EE007A21EE271A40
:1035D00061EE299A21EE0AAA21EE0DDA3A4F97ED13
:1035E000001A3A4ED6ED000A394D95ED000A20EE4C
:1035F000E99A6AEE007A39EE679A364CD4ED007A91
:1036000027EE8D7A39EE479A39EE019A87ED009AC6
:1036100069EE818A2DEE007A78EE878A27EE8A7A23
:1036200078EEC78A78EEA08AC6ED008A2AEE018A73
:103630002DEE207A38EE478A27EEA97A38EE078AEF
:1036400038EE008A85ED008A2DEE01DA2AEE20AAF6
:103650003DEE0ADA69EE809A3DEE69DA37EE8DDAF0
:1036600084ED00DA69EE097A28EEA80A77EE807A0E
:1036700028EE080A77EE807A2DEE0D0A37EE800AE2
:10368000FFF714FC29EE009A87ED009A68EE808A15
:10369000C6ED008A28EE008A85ED008A2DEE00DA5C
:1036A00084ED00DA114B00221A7007B0BDEC108BCC
:1036B000F0BDFFF70FFDF8E70023094A1360094A40
:1036C0001360094A136076E71C10002020100020C8
:1036D000241000202810002030100020141000209A
:1036E000081000200C1000201010002004100020F2
:1036F000F8B52DED028B2C4ED6ED000A2B4C94ED37
:10370000000A20EE800A2A4FD7ED007A294D95ED68
:10371000007A27EE877A60EEA00AB6EE008A78EE8D
:10372000600A67EEA77A70EEE70A30EE070A05F046
:1037300049FA214B83ED000AD6ED007A95ED000A97
:1037400067EE807A94ED000A97ED007A20EE070A82
:1037500077EEC07AB8EE000A27EE800A05F006FA86
:10376000164B83ED000AD7ED000A96ED000A20EE15
:10377000800AD5ED007A94ED007A27EE877A60EE24
:10378000A00A78EE600A67EEA77A70EEE70A30EEDC
:10379000070A05F017FA0A4B83ED000A094B0122CC
:1037A0001A70BDEC028BF8BD201000201C10002008
:1037B00024100020281000202C10002018100020B9
:1037C000341000200410002008B5074B1B783BB1D3
:1037D000064B93ED000ADFED067A20EE270A08BDBE
:1037E000FFF786FFF4E700BF041000202C10002034
:1037F000E12E654208B5074B1B783BB1064B93EDB4
:10380000000ADFED067A20EE270A08BDFFF770FFF9
:10381000F4E700BF0410002018100020E12E6542DC
:1038200008B5074B1B783BB1064B93ED000ADFED63
:10383000067A20EE270A08BDFFF75AFFF4E700BF1B
:103840000410002034100020E12E6542074B1B6855
:10385000074AA2FB0312920C06490A70064AA2FB11
:1038600003239B09054A1360704700BF080000202E
:1038700083DE1B433C100020D34D62103810002023
:1038800003780F2B40F08D80037E002B40F0898061
:10389000192940F086804178827841EA0221C1F3FB
:1038A0000A01404B1980C178D20842EA4112C2F3A2
:1038B0000A025A80C2780179920942EA810241796A
:1038C00042EA8122C2F30A029A804279817952083F
:1038D00042EAC112C2F30A02DA808279C17912097E
:1038E00042EA0112C2F30A021A81C279017AD209AC
:1038F00042EA4102417A42EA4122C2F30A025A8173
:10390000427A817A920842EA8112C2F30A029A81CB
:10391000827AC17A520942EAC102DA81027B417B92
:1039200042EA0122C2F30A021A82427B817BD20858
:1039300042EA4112C2F30A025A82827BC17B920997
:1039400042EA8102017C42EA8122C2F30A029A829F
:10395000027C417C520842EAC112C2F30A02DA82B6
:10396000427C817C120942EA0112C2F30A021A83E4
:10397000827CC17CD20942EA4102017D42EA4122B5
:10398000C2F30A025A83027D417D920842EA811203
:10399000C2F30A029A83427D817D520942EAC10242
:1039A000DA8370474010002008B50D480D4B0360C6
:1039B0000323436000238360C3604FF4302202611D
:1039C00043610376012242768376C3760377437799
:1039D00001F07CF800B908BD00F02EFBFBE700BF4A
:1039E000641000200064004008B50D480D4B0360D2
:1039F0000323436000238360C3604FF430220261DD
:103A000043610376012242768376C3760377437758
:103A100001F05CF800B908BD00F00EFBFBE700BF49
:103A20008C1000200068004010B58AB00023059378
:103A3000069307930893099303683F4A934204D07F
:103A40003E4A934236D00AB010BD3D4A1368013356
:103A50001360012B21D0002401943A4B1A6B42F0E1
:103A600002021A631B6B03F002030193019B4FF4E4
:103A700040730593022306930323089309230993B4
:103A800005A9314801F0BCFE22460521142001F0B1
:103A90000BFC142001F040FCD5E700230093294BD8
:103AA0001A6C42F000721A641B6C03F000730093EE
:103AB000009BD0E700230293224B1A6C42F08062F5
:103AC0001A641B6C03F080630293029B1C4A136808
:103AD00001331360012B21D000240494194B1A6B7D
:103AE00042F002021A631B6B03F002030493049B6F
:103AF0004FF44053059302230693032308930923AD
:103B0000099305A9104801F07BFE224605214120BA
:103B100001F0CAFB412001F0FFFB94E7002303936F
:103B2000084B1A6C42F000721A641B6C03F00073AD
:103B30000393039BD0E700BF00640040006800408F
:103B400060100020003802400004024010B582B02E
:103B500000240194214B1A6B42F400121A631B6B70
:103B600003F400130193019B224605210B2001F071
:103B70009BFB0B2001F0D0FB224605210C2001F01D
:103B800093FB0C2001F0C8FB224605210E2001F01A
:103B90008BFB0E2001F0C0FB224605210F2001F017
:103BA00083FB0F2001F0B8FB22460521102001F015
:103BB0007BFB102001F0B0FB22460521112001F013
:103BC00073FB112001F0A8FB224605212F2001F0F4
:103BD0006BFB2F2001F0A0FB02B010BD00380240AB
:103BE00008B5012003F085FDFBE7000070B52DED61
:103BF000028BFFF72BFE0220FCF7DAFF01221146B1
:103C00007F4801F0E9FEFEF7E9FA1FE0611C7D48FC
:103C1000FDF7BAF8022003F06CFD0134E4B2032C86
:103C2000F4D9794C012211462046FDF7BBFD052051
:103C300003F05FFD012202212046FDF7B3FD0520C0
:103C400003F057FD714B1B78012B05D0704B1B788F
:103C5000012B18D00024E2E76C4B93F82430022BA0
:103C6000F4D16A4B93F84830032BEFD1674B93F8AC
:103C70006C30042BEAD10121654B19700022604899
:103C800001F0AAFEE2E7634BDA8940F2DB539A4285
:103C90005DD9614D95ED512A9FED608A594CB1EE89
:103CA000422AF0EE481AB0EE481AF0EE480AB0EE9A
:103CB000480A01212046FCF7E9FF012003F019FD25
:103CC00095ED522AB1EE422AF0EE481AB0EE481AAB
:103CD000F0EE480AB0EE480A02212046FCF7D6FF73
:103CE000012003F006FD484E95ED530A01213046B0
:103CF000FDF70EFD012003F0FCFC494D95ED522A25
:103D0000F0EE481AB0EE481AF0EE480AB0EE480A53
:103D100003212046FCF7BAFF012003F0EAFC95EDF1
:103D2000512AF0EE481AB0EE481AF0EE480AB0EE0A
:103D3000480A04212046FCF7A9FF012003F0D9FC22
:103D400095ED530A02213046FDF7E2FC7EE79FED38
:103D5000338A2C4CB0EE482AF0EE481AB0EE481ADE
:103D6000F0EE480AB0EE480A01212046FCF78EFF2B
:103D7000012003F0BEFCB0EE482AF0EE481AB0EE87
:103D8000481AF0EE480AB0EE480A02212046FCF735
:103D90007DFF012003F0ADFC1B4DB0EE480A012170
:103DA0002846FDF7B5FC012003F0A3FCB0EE482A3D
:103DB000F0EE481AB0EE481AF0EE480AB0EE480AA3
:103DC00003212046FCF762FF012003F092FCB0EED5
:103DD000482AF0EE481AB0EE481AF0EE480AB0EE63
:103DE000480A04212046FCF751FF012003F081FC22
:103DF000B0EE480A02212846FDF78AFC26E700BFFC
:103E00000008024064100020241B00207C080020D1
:103E1000B410002040100020880A0020000000009C
:103E2000DC0B0020034B0360034B0B60802313600B
:103E3000704700BFD0120020CC10002010B5A4B0F5
:103E40002D4C0DF1740CA646BEE80F00ACE80F0037
:103E50009EE807008CE8070000211DA803F014FC71
:103E6000264B18600DF1580C04F11C0EBEE80F0033
:103E7000ACE80F009EE807008CE80700002116A8B8
:103E800003F002FC1E4B18600DF13C0C04F1380EDF
:103E9000BEE80F00ACE80F009EE807008CE80700C2
:103EA00000210FA803F0F0FB164B18600DF1200C59
:103EB00004F1540EBEE80F00ACE80F009EE80700C6
:103EC0008CE80700002108A803F0DEFB0E4B186009
:103ED0000DF1040E04F1700CBCE80F00AEE80F0009
:103EE0009CE807008EE80700002101A803F0CCFB46
:103EF000064B186024B010BD6C9D0008B81000205F
:103F0000C0100020C8100020BC100020C4100020E9
:103F1000F0B58BB000240594069407940894099496
:103F200000943C4B1A6B42F004021A631A6B02F0C5
:103F300004020092009A01941A6B42F080021A6304
:103F40001A6B02F080020192019A02941A6B42F0FD
:103F500001021A631A6B02F001020292029A0394A0
:103F60001A6B42F002021A631A6B02F00202039209
:103F7000039A04941A6B42F008021A631B6B03F055
:103F800008030493049B244E224648F20101304664
:103F900001F022FD214F22460B21384601F01CFD85
:103FA00048F201030593012506950794089405A995
:103FB000304601F025FC0C2305934FF404130693BF
:103FC000079505A9304601F01BFC032305930695D0
:103FD0000794089405A9384601F012FC08260596B6
:103FE000069502230793089405A9384601F008FCBA
:103FF00022460521304601F057F9304601F08CF990
:1040000022460521092001F04FF9092001F084F929
:104010000BB0F0BD0038024000080240000402402E
:1040200008B50268034B9A4200D008BD00F028FD95
:10403000FBE700BF0000014072B6FEE700B595B097
:104040003422002107A804F07DFA00230293039391
:104050000493059306930093214A116C41F080511B
:104060001164126C02F080520092009A01931D4B71
:104070001A6842F440421A601B6803F440430193FB
:10408000019B012307934FF48033089302230D9380
:104090004FF480020E9206220F92A82210921193E2
:1040A00007221292139307A801F030FE98B90F234C
:1040B000029302230393002304934FF4A053059328
:1040C0004FF480530693052102A801F09BFC20B910
:1040D00015B05DF804FBFFF7AFFFFFF7ADFF00BFC2
:1040E000003802400070004008B500F0AFFCFFF758
:1040F000A5FFFFF70DFFFFF729FD00F04BFA00F0D9
:1041000011F800F085FAFFF74FFCFFF76DFC00F0A7
:10411000C1FA00F0D9FA00F0F1FAFFF78FFE03F0D0
:10412000AEFAFEE708B50F480F4B03604FF48273F9
:10413000436000238360C360022202610122426166
:104140004FF4007282613022C26103624362836273
:104150000A23C36202F0A6F800B908BDFFF76CFF9E
:10416000FBE700BF101800200038004030B589B0D0
:1041700000230393049305930693079302682F4B40
:104180009A4201D009B030BD04460025019503F5DF
:1041900000331A6C42F480421A641A6C02F48042B2
:1041A0000192019A02951A6B42F002021A631B6B8C
:1041B00003F002030293029B4FF444430393022350
:1041C0000493032306930523079303A91C4801F0D6
:1041D00017FB1C481C4B036045608560C5604FF4AD
:1041E0008063036145618561C5614FF440330362BB
:1041F000456201F01FF9D8B9124BE3649C63134880
:10420000134B03600023436040228260C3604FF47D
:104210008062026143618361C3614FF400320262D4
:10422000436201F007F930B9084BA3649C63A9E726
:10423000FFF702FFE0E7FFF7FFFEF5E70038004079
:10424000000402405017002058600240B0170020C0
:104250007060024000B583B0002200920D4B596C93
:1042600041F480415964596C01F4804100910099F6
:104270000192196C41F0805119641B6C03F080535A
:104280000193019B0F216FF0010001F00DF803B0C5
:104290005DF804FB0038024030B589B005460024C3
:1042A00001941E4B5A6C42F001025A645B6C03F09D
:1042B00001030193019B02A903A801F079FC01F01D
:1042C00067FC43001648A0FB03239B0C013B1548E9
:1042D000154A026040F2E732C260436004618460C4
:1042E000846102F05BFB044610B1204609B030BD8A
:1042F0000C4802F0EFF904460028F6D1192001F02D
:104300000BF80F2D01D90124EFE7002229461920CF
:1043100000F0CAFF054B1D60E7E700BF0038024010
:1043200083DE1B43681800200000014010000020BD
:10433000FEE7FEE7FEE7FEE7FEE7704708B504206C
:1043400001F052FB08BD08B5082001F04DFB08BD87
:1043500008B5024801F066F908BD00BF4419002005
:1043600008B5024801F05EF908BD00BFC41A00207C
:1043700008B5024801F056F908BD00BF50170020EB
:1043800008B5024801F04EF908BD00BFB017002083
:1043900008B5024801F046F908BD00BF041A002024
:1043A00008B5024801F03EF908BD00BF641A0020BC
:1043B00008B5024800F041FE08BD00BF64100020AF
:1043C00008B5024802F0CEF908BD00BF6818002009
:1043D00010B5054C204602F047FF3223034A04493A
:1043E0002046FCF709FD10BD241B0020A009002079
:1043F000041A002010B5054C204602F035FF322388
:10440000034A04492046FCF7F7FC10BD6C1B002052
:10441000D4090020C41A002008B5024801F002F9AE
:1044200008BD00BFA419002010B5054C204602F0BD
:104430001BFF3223034A04492046FCF7DDFC10BD74
:10444000B41B0020080A00204419002008B50248C7
:1044500000F0F3FD08BD00BF8C10002010B503462E
:104460000C4A0D490D48006840B10C4800680344EF
:10447000521A934206D8094A136010BD0748084CE7
:104480000460F2E704F034F80C2303604FF0FF30CF
:10449000F3E700BF0000022000040000B018002075
:1044A00090590020034AD2F8883043F47003C2F8D0
:1044B0008830704700ED00E082B00368B3F1804FB0
:1044C00004D00F4A93420ED002B0704700230093ED
:1044D0000C4B1A6C42F001021A641B6C03F00103CE
:1044E0000093009BF0E700230193064B1A6C42F007
:1044F00002021A641B6C03F002030193019BE3E7C1
:10450000000400400038024000B589B00023039346
:1045100004930593069307930368B3F1804F05D086
:10452000194A934219D009B05DF804FB00230193A6
:10453000164B1A6B42F002021A631B6B03F0020364
:104540000193019B04230393022304930123079304
:1045500003A90F4801F054F9E5E7002302930B4B40
:104560001A6B42F002021A631B6B03F00203029300
:10457000029B2023039302230493079303A9044877
:1045800001F03EF9CFE700BF0004004000380240D0
:104590000004024000B58BB00023089309930193F7
:1045A00002930393049305930693079317484FF0E0
:1045B00080420260436083601D22C26003618361A8
:1045C00002F018FAC8B900230893099308A90F4804
:1045D00002F074FBA0B960230193002302930393BC
:1045E00005930C2201A9094802F068FA58B9074856
:1045F000FFF78AFF0BB05DF804FBFFF71DFDE2E754
:10460000FFF71AFDE7E7FFF717FDF0E7B418002002
:1046100000B58BB000230893099301930293039391
:1046200004930593069307931848194A0260436060
:10463000836041F28732C2600361836102F0DAF97C
:10464000D0B900230893099308A9104802F036FB5B
:10465000A8B96023019300230293039305930422D6
:104660000DEB0201094802F029FA58B90748FFF793
:104670004BFF0BB05DF804FBFFF7DEFCE1E7FFF753
:10468000DBFCE6E7FFF7D8FCF0E700BFFC180020F2
:104690000004004008B50A480A4B03604FF4E133B8
:1046A000436000238360C36003610C224261836125
:1046B000C36102F041FC00B908BDFFF7BDFCFBE798
:1046C000B41B00200050004008B50A480A4B0360A4
:1046D0004FF4E133436000238360C36003610C2225
:1046E00042618361C36102F027FC00B908BDFFF796
:1046F000A3FCFBE7241B00200044004008B50B4846
:104700000B4B03600B4B43604FF4805383600023DB
:10471000C3600361042242618361C36102F00CFC47
:1047200000B908BDFFF788FCFBE700BF6C1B002049
:1047300000480040A08601002DE9F0418CB00446FD
:1047400000230793089309930A930B930368994AEC
:1047500093420AD0984A934200F08280974A93424B
:1047600000F0E1800CB0BDE8F08100250095944B8D
:104770001A6C42F480121A641A6C02F480120092CD
:10478000009A01951A6B42F004021A631A6B02F048
:1047900004020192019A02951A6B42F008021A6310
:1047A0001B6B03F008030293029B4FF480530793A3
:1047B0004FF00208CDF8208003270A9708260B96B1
:1047C00007A9804801F01CF804230793CDF8208046
:1047D00009950A970B9607A97B4801F011F87B48C9
:1047E0007B4B03604FF0006343608560C5604FF40E
:1047F0008063036145618561C5614FF48033036265
:10480000456200F017FE28BB704BE3639C63714860
:10481000714B03604FF000634360402383600023CB
:10482000C3604FF48062026143618361C3614FF4EE
:1048300080320262436200F0FDFD70B9654BA363F4
:104840009C6300220521352000F02EFD352000F06C
:1048500063FD87E7FFF7F0FBD6E7FFF7EDFBEDE73A
:1048600000250395564B1A6C42F400321A641A6CF8
:1048700002F400320392039A04951A6B42F001028B
:104880001A631B6B03F001030493049B0C2307932F
:104890000223089303230A9307230B9307A94F4886
:1048A00000F0AEFF4E484F4B03604FF00063436093
:1048B0008560C5604FF48063036145618561C561B2
:1048C0004FF400330362456200F0B4FD28BB444B53
:1048D000E3639C634448454B03604FF000634360CF
:1048E000402383600023C3604FF480620261436110
:1048F0008361C3614FF400320262436200F09AFDAB
:1049000070B9394BA3639C6300220521262000F077
:10491000CBFC262000F000FD24E7FFF78DFBD6E757
:10492000FFF78AFBEDE700250595254B1A6C42F44D
:1049300080221A641A6C02F480220592059A069568
:104940001A6B42F004021A631B6B03F00403069314
:10495000069B4FF4846307930223089303230A936F
:1049600007230B9307A9174800F04AFF2048214B63
:1049700003604FF0006343608560C5604FF480635F
:10498000036145618561C5614FF48033036245620F
:1049900000F050FD58B9164BE3639C6300220521DB
:1049A000272000F081FC272000F0B6FCDAE6FFF7B4
:1049B00043FBF0E700500040004400400048004046
:1049C0000038024000080240000C02404419002058
:1049D00010600240A4190020B860024000000240AC
:1049E000041A002088600240641A0020A06002407F
:1049F000C41A002028600240DFF834D0FFF752FDCF
:104A00000C480D490D4A002302E0D458C450043329
:104A1000C4188C42F9D30A4A0A4C002301E01360FF
:104A20000432A242FBD303F069FDFFF75DFB704740
:104A300000000220000000205C0800209CA200086A
:104A4000600800208C590020FEE7000008B50B4BE1
:104A50001A6842F400721A601A6842F480621A609E
:104A60001A6842F480721A60032000F00BFC0F20D9
:104A7000FFF712FCFFF7EEFB002008BD003C0240F0
:104A8000034A1168034B1B780B441360704700BF47
:104A9000FC1B00200C000020014B1868704700BF71
:104AA000FC1B002038B50446FFF7F6FF0546B4F1BD
:104AB000FF3F02D0044B1B781C44FFF7EDFF401B67
:104AC000A042FAD338BD00BF0C000020002800F03F
:104AD000A18038B5044690F82030D3B1226813681D
:104AE00043F001031360FFF7D7FF054623685A68B8
:104AF00012F0010F10D1FFF7CFFF401B0A28F5D9A4
:104B0000636A43F400336362052384F82030012094
:104B100038BDFEF789FFE1E71A6822F002021A6049
:104B2000FFF7BAFF054623685A6812F0020F0DD04E
:104B3000FFF7B2FF401B0A28F5D9636A43F400333C
:104B40006362052384F820300120E1E7227E012AF8
:104B50003DD01A6822F080021A60637E012B3BD0A0
:104B60002268136823F040031360A37E012B39D021
:104B70002268136823F020031360E37E012B37D0F3
:104B80002268136843F010031360237F012B35D094
:104B90002268136823F008031360637F012B33D06E
:104BA0002268136823F004031360A368E2681343C8
:104BB00022691343626913436268013A216813430F
:104BC000CB6100206062012384F82030A0E71A68DE
:104BD00042F080021A60C0E72268136843F0400385
:104BE0001360C2E72268136843F020031360C4E730
:104BF0002268136823F010031360C6E72268136865
:104C000043F008031360C8E72268136843F0040305
:104C10001360CAE70120704790F82030013BDBB2F7
:104C2000012B05D9436A43F4802343620120704776
:104C300030B5464BD3F8002242F00102C3F80022FF
:104C4000D3F8002222F47C52C3F80022D3F80022C9
:104C5000486A42EA0022C3F800224A6902F01F02B1
:104C6000012000FA02F2D3F81C026FEA020C20EADB
:104C70000200C3F81C02CB69C3B9344BD3F80C0251
:104C80000CEA0000C3F80C028C884869CD6844EA3D
:104C90000544483043F830408C68088840EA0440B6
:104CA0004C6904F1480E03EBCE035860CB69012B2D
:104CB0001ED08B69002B33D12448D0F804320CEA83
:104CC0000303C0F804320B698BBB2048D0F81432C0
:104CD0000CEA0303C0F814320B6A012B2ED01B4AD6
:104CE000D2F8003223F00103C2F80032002030BDB8
:104CF000164BD3F80C021043C3F80C028C88486999
:104D00000D6844EA0544483043F8304088894C69CE
:104D10008D6840EA0540483403EBC4035860C8E797
:104D20000A48D0F804321343C0F80432CBE70748EE
:104D3000D0F814321343C0F81432CDE70349D1F848
:104D40001C321A43C1F81C22C9E700BF00640040AE
:104D500070B5044690F82050EDB2012D06D0436A9C
:104D600043F4002343620125284670BD022380F8E6
:104D700020300268136823F001031360FFF78CFEF4
:104D8000064623685B6813F0010F0CD0FFF784FE22
:104D9000831B0A2BF5D9636A43F40033636205234E
:104DA00084F82030E0E700256562DDE730B590F853
:104DB00020C00468A4680CF1FF3C5FFA8CFCBCF1D5
:104DC000010F62D814F0E05F59D0C4F3016C0124E4
:104DD00004FA0CF41C608B68002B3DD10D68CB6885
:104DE000046843EA45550CF118031B01E5500368BC
:104DF0000C690CF1180E03EB0E135C600B7D012B9C
:104E000035D0D17993791B0443EA0163517943EAA0
:104E1000012314790168234301EB0C11C1F88C3193
:104E2000D17893781B0443EA0163517843EA012364
:104E3000117802680B4302EB0C12C2F88831026849
:104E40000CF1180C4FEA0C1C52F80C3043F0010323
:104E500042F80C3000201DE04C6843EAC403CC68E3
:104E600023430CF11804240105682B51BFE70368A4
:104E700003EB0E13596841F480715960C1E7436A2E
:104E800043F400134362012004E0436A43F48023A7
:104E90004362012030BD90F820C00CF1FF3C5FFA66
:104EA0008CFCBCF1010F00F2A58030B451B904684C
:104EB000E46814F0030F10D1436A43F40013436213
:104EC00001207EE00468246914F0030F05D1436AD1
:104ED00043F400134362012073E0056801F11B04F1
:104EE00024012C5904F004049460002C6BD1056853
:104EF00001F11B0424012C59640D1460046801F1B4
:104F00001B0C4FEA0C1C54F80C4004F00204D46053
:104F10000468A444DCF8045015F0080F5BD00824A2
:104F20001461056801F11B0C05EB0C156D68C5F3E8
:104F300007259561046804EB0C146468240C546123
:104F4000026802EB0112D2F8B8211A70026802EB73
:104F50000112D2F8B821C2F307225A70026802EB9C
:104F60000112D2F8B821C2F307429A70026802EB2C
:104F70000112D2F8B821120EDA70026802EB0112A7
:104F8000D2F8BC211A71026802EB0112D2F8BC21DE
:104F9000C2F307225A71026802EB0112D2F8BC2157
:104FA000C2F307429A71026802EB0112D2F8BC21E7
:104FB000120EDA71C1B90268D36843F02003D360DE
:104FC000002030BC7047056801F11B0424012C59F6
:104FD000E408546092E701F11B0504EB05146468D2
:104FE00004F00F0414619CE70268136943F0200386
:104FF0001361E5E7436A43F480234362012070476D
:1050000090F82030013BDBB2012B05D9436A43F411
:10501000802343620120704702685369194351613C
:10502000002070477047704770477047704770475F
:10503000704770477047704770472DE9F84F054635
:1050400003685C69D3F804809F68D3F80CB0D3F888
:1050500010A0D3F8189014F001063BD017F0010609
:1050600016D001229A6017F0020F08D117F0040F32
:105070000CD117F0080606D04FF4805608E0FFF771
:10508000D1FF002604E0FFF7D0FF01E04FF40066F7
:1050900017F4807F0DD02B684FF480729A6017F45C
:1050A000007F40F0868017F4806F00F0868046F421
:1050B000005617F4803F0DD02B684FF480329A6071
:1050C00017F4003F40F0838017F4802F00F08380B6
:1050D00046F4004614F0080F07D01BF0100F04D060
:1050E00046F400762B681022DA6014F0040F02D028
:1050F0001BF0080F79D114F0020F04D02B68DB6885
:1051000013F0030F78D114F0400F07D01AF0100FEE
:1051100004D046F480662B6810221A6114F0200F28
:1051200002D01AF0080F6BD114F0100F04D02B68C6
:105130001B6913F0030F6AD114F4003F02D018F07A
:10514000100F68D114F4803F02D018F0080F69D115
:1051500014F4004F7AD018F0040F74D014F4807F48
:1051600004D019F0010F01D046F0010614F4007FBD
:1051700004D019F0020F01D046F0020614F4806F3B
:1051800004D019F0040F01D046F0040614F4006FA7
:1051900059D019F0700956D0B9F1400F65D058D8E0
:1051A000B9F1200F5ED0B9F1300F42D146F02006A0
:1051B00044E02846FFF737FF7BE717F4006F02D083
:1051C00046F4804675E72846FFF730FF71E728462A
:1051D000FFF72AFF7EE717F4002F02D046F480364F
:1051E00078E72846FFF723FF74E72B680822DA6088
:1051F0002846FFF71DFF7EE72846FBF71DFD82E7E7
:105200002B6808221A612846FFF713FF8CE728460F
:10521000FBF732FD90E72B6810225A602846FFF713
:1052200009FF8FE72B6808225A602846FFF703FF23
:105230008EE7B9F1100F01D146F008062A6893698C
:1052400023F0700393612B6804225A609EB9BDE875
:10525000F88FB9F1500F0BD0B9F1600FEED146F4D1
:105260008076EBE746F01006E8E746F04006E5E713
:1052700046F08006E2E76B6A1E436E622846FFF73F
:10528000DBFEE4E7074AD36823F4E0631B041B0C4E
:10529000000200F4E060034343F0BF6343F40033D3
:1052A000D360704700ED00E000B5194BDB68C3F335
:1052B0000223C3F1070CBCF1040F28BF4FF0040C0C
:1052C00003F1040EBEF1060F18D9033B4FF0FF3E69
:1052D0000EFA0CFC21EA0C0199400EFA03F322EAC3
:1052E0000303194300280BDB0901C9B200F1604038
:1052F00000F5614080F800135DF804FB0023E5E74A
:1053000000F00F000901C9B2024B1954F4E700BFC5
:1053100000ED00E014ED00E0002807DB00F01F02C4
:10532000400901239340024A42F82030704700BFF1
:1053300000E100E030B405682C6824F480242C607F
:10534000046863608368402B05D003689960036834
:10535000DA6030BC704703689A600368D960F8E788
:1053600010B40368D9B210390C4AA2FB01421209E9
:105370000B4CA25CC2655F2909D923F47F7323F02B
:10538000030304338365806D5DF8044B704723F499
:105390007F7323F003038365F5E700BFABAAAAAAD6
:1053A0006C9E0008836A826992B9012B0AD0022B95
:1053B00002D00BB100207047C36A13F0807F28D160
:1053C00000207047C36AB3F1C07F24D0002070472B
:1053D000B2F5005F09D0022B25D9032B25D1C36A72
:1053E00013F0807F23D100207047032B03D8DFE820
:1053F00003F01404140A00207047C36A13F0807F7E
:105400000DD100207047C36AB3F1C07F09D00020DE
:10541000704701207047012070470120704701202C
:10542000704701207047012070470020704701201D
:105430007047000070B50446FFF72EFB002C5BD0D0
:105440000546022384F83530002384F8343022687E
:10545000136823F00103136023681A6812F0010F28
:105460000AD0FFF719FB431B052BF5D920236365F1
:10547000032084F8350070BD1A6820481040616828
:10548000A2680A43E1680A4321690A4361690A4341
:10549000A1690A43E1690A43216A0A430243616A36
:1054A00004291ED01A602668756925F00705636A0D
:1054B0001D43042B07D1A36A1D43E36A1BB1204699
:1054C000FFF770FF90B975612046FFF749FFE26D65
:1054D0003F239340836000206065012384F83530CA
:1054E000C9E7E16A206B01430A43DBE740236365B8
:1054F000012084F83500BEE70120BCE73F8010F0B2
:1055000038B50446856D90F8340001282BD0012071
:1055100084F8340094F83500C0B2012804D0002388
:1055200084F83430022038BD022084F83500002091
:1055300060652046FFF7FEFEE26D3F239340AB60BF
:105540002268136843F016031360236C23B12268AA
:10555000136843F0080313602268136843F00103E3
:1055600013600020DFE70220DDE770B50446866D9A
:10557000FFF792FA94F83530DBB2022B06D0802385
:105580006365002384F83430012070BD054622682D
:10559000136823F0160313602268536923F0800315
:1055A0005361236CE3B12268136823F0080313608E
:1055B0002268136823F00103136023681B6813F04B
:1055C000010F11D0FFF768FA431B052BF5D92023F3
:1055D0006365032084F83500002384F83430D4E771
:1055E000A36C002BDFD1E3E7E26D3F239340B36070
:1055F000012384F83530002084F83400C5E790F8A2
:105600003530DBB2022B03D0802343650120704785
:10561000052380F835300268136823F00103136016
:1056200000207047F0B583B0044600230193724B0D
:105630001D68724BA3FB0535AD0A876D3E68C26DD0
:1056400008239340334210D003681A6812F0040F05
:105650000BD01A6822F004021A60C26D082393402E
:10566000BB60436D43F001034365E26D012393404A
:10567000334209D02268526912F0800F04D0BB6017
:10568000636D43F002036365E26D0423934033428C
:1056900009D02268126812F0020F04D0BB60636D5B
:1056A00043F004036365E26D10239340334224D03A
:1056B0002268126812F0080F1FD0BB6023681A68B6
:1056C00012F4802F0DD01B6813F4002F04D1236C2B
:1056D0009BB12046984710E0A36C73B120469847D1
:1056E0000BE01A6812F4807F03D11A6822F00802D6
:1056F0001A60236C0BB120469847E26D202393403B
:10570000334255D02268126812F0100F50D0BB609F
:1057100094F83530DBB2052B0ED023681A6812F4EA
:10572000802F33D01B6813F4002F2AD1636C002B19
:105730003ED0204698473BE02268136823F01603CA
:1057400013602268536923F080035361236CA3B173
:105750002268136823F008031360E26D3F2393402F
:10576000BB60012384F83530002384F83430236D86
:10577000002B3FD0204698473CE0A36C002BE7D19C
:10578000EBE7E36BA3B12046984711E01A6812F4E7
:10579000807F09D11A6822F010021A60012384F870
:1057A0003530002384F83430E36B0BB12046984742
:1057B000636DFBB1636D13F0010F17D0052384F8FF
:1057C00035302268136823F001031360019B013315
:1057D0000193AB4204D823681B6813F0010FF5D185
:1057E000012384F83530002384F83430E36C0BB1A6
:1057F0002046984703B0F0BD08000020B5814E1B3D
:1058000000230F2B00F2DE8070B582B060E0856867
:105810005E000324B44025EA0405CC68B4402C4360
:105820008460456825EA02054C68C4F300129A407A
:105830002A4342605AE0DC08083450F8246003F040
:10584000070295000F22AA4026EA020E0A69AA4022
:1058500042EA0E0240F824205CE0062200E000222A
:1058600002FA0EF22A430234574D45F82420574AD3
:1058700094686FEA0C0224EA0C054E6816F4801F47
:1058800001D04CEA0405514CA560E46802EA040525
:105890004E6816F4001F01D04CEA04054B4CE5603D
:1058A000646802EA04054E6816F4003F01D04CEA31
:1058B0000405464C6560246822404D6815F4803F1D
:1058C00001D04CEA0402414C226001330F2B77D8FF
:1058D00001229A400C6804EA020C32EA0404F4D172
:1058E0004C6804F00304013C012C90D94A6802F092
:1058F0000302032A09D0C4685D000322AA4024EAF7
:1059000002048A68AA402243C2604A6802F0030285
:10591000022A90D004684FEA430E032202FA0EF2E4
:1059200024EA02044A6802F0030202FA0EF2224359
:1059300002604A6812F4403FC7D000220192244A14
:10594000546C44F480445464526C02F480420192DA
:10595000019A9C08A51C1C4A52F8255003F003022A
:105960004FEA820E0F2202FA0EF225EA0205194AC8
:1059700090423FF474AF02F58062904216D002F577
:105980008062904214D002F58062904212D002F5FB
:105990008062904210D002F5806290420ED002F5F3
:1059A000806290423FF459AF072259E7012257E73E
:1059B000022255E7032253E7042251E705224FE76D
:1059C00002B070BD704700BF00380140003C01408C
:1059D00000380240000002400AB1816170470904AA
:1059E000816170477047000008B5054B5B69034251
:1059F00000D108BD024B5861FFF7F4FFF9E700BF83
:105A0000003C0140002800F09B8070B50D46044624
:105A10004F4B1B6803F00F038B4208D2CBB24C4AAA
:105A20001370136803F00F038B4240F08B802368E0
:105A300013F0020F17D013F0040F04D0454A9368F7
:105A400043F4E0539360236813F0080F04D0414AF5
:105A5000936843F4604393603E4A936823F0F003F5
:105A6000A1680B439360236813F0010F32D0636881
:105A7000012B21D09A1E012A25D9364A126812F02C
:105A8000020F61D033498A6822F0030213438B600E
:105A9000FFF702F806462F4B9B6803F00C03626881
:105AA000B3EB820F16D0FEF7F7FF801B41F288336D
:105AB0009842F0D9032042E0264A126812F4003FCF
:105AC000E0D101203BE0234A126812F0007FD9D1D7
:105AD000012034E01E4B1B6803F00F03AB4207D9D3
