:020000040800F2
:100000000000022095450008ED3E0008EF3E000884
:10001000F13E0008F33E0008F53E00080000000035
:100020000000000000000000000000004175000812
:10003000F73E000800000000E17500084576000862
:10004000E5450008E5450008E5450008E5450008E8
:10005000E5450008E5450008E5450008E5450008D8
:10006000F93E0008033F0008E54500080D3F000881
:10007000E54500081D3F00082D3F00083D3F0008F2
:100080004D3F00085D3F0008E5450008E5450008D4
:100090006D3F0008E5450008E5450008E545000816
:1000A000E54500087D3F0008E5450008E5450008F6
:1000B000E5450008E5450008E5450008E545000878
:1000C000E5450008E5450008E5450008E545000868
:1000D000E5450008E54500088D3F0008E5450008B6
:1000E000E5450008E5450008E5450008E545000848
:1000F000E5450008E5450008E5450008B13F000872
:10010000E5450008E5450008E5450008E545000827
:10011000C13F0008D13F0008E5450008E54500085B
:10012000E5450008E5450008E5450008E545000807
:10013000E54500080000000000000000E54500085B
:10014000E5450008F53F0008E5450008E5450008DD
:10015000E5450008E5450008E5450008E5450008D7
:10016000E5450008E5450008E5450008E5450008C7
:10017000E5450008E5450008E545000800000000E9
:1001800000000000E545000800000000000000003D
:10019000E54500080000000000000000E5450008FB
:1001A000000000000000000000000000E54500081D
:1001B000E5450008E5450008E5450008E545000877
:0401C000E545000809
:1001D00010B5054C237833B9044B13B10448AFF381
:1001E00000800123237010BD600800200000000083
:1001F0001C9A000808B5034B1BB103490348AFF331
:10020000008008BD00000000640800201C9A00085F
:1002100081F0004102E000BF83F0004330B54FEAB7
:1002200041044FEA430594EA050F08BF90EA020F24
:100230001FBF54EA000C55EA020C7FEA645C7FEAB7
:10024000655C00F0E2804FEA5454D4EB5555B8BFDA
:100250006D420CDD2C4480EA020281EA030382EA4B
:10026000000083EA010180EA020281EA0303362DDD
:1002700088BF30BD11F0004F4FEA01314FF4801CB0
:100280004CEA113102D0404261EB410113F0004FC2
:100290004FEA03334CEA133302D0524263EB430379
:1002A00094EA050F00F0A780A4F10104D5F1200E17
:1002B0000DDB02FA0EFC22FA05F2801841F1000172
:1002C00003FA0EF2801843FA05F359410EE0A5F146
:1002D00020050EF1200E012A03FA0EFC28BF4CF077
:1002E000020C43FA05F3C01851EBE37101F000452D
:1002F00007D54FF0000EDCF1000C7EEB00006EEB3A
:100300000101B1F5801F1BD3B1F5001F0CD34908C3
:100310005FEA30004FEA3C0C04F101044FEA44521A
:1003200012F5800F80F09A80BCF1004F08BF5FEAA1
:10033000500C50F1000041EB045141EA050130BD81
:100340005FEA4C0C404141EB0101013C28BFB1F593
:10035000801FE9D291F0000F04BF01460020B1FADE
:1003600081F308BF2033A3F10B03B3F120020CDAB1
:100370000C3208DD02F1140CC2F10C0201FA0CF08F
:1003800021FA02F10CE002F11402D8BFC2F1200CF4
:1003900001FA02F120FA0CFCDCBF41EA0C019040AA
:1003A000E41AA2BF01EB0451294330BD6FEA0404F3
:1003B0001F3C1CDA0C340EDC04F11404C4F12002DE
:1003C00020FA04F001FA02F340EA030021FA04F3F0
:1003D00045EA030130BDC4F10C04C4F1200220FA47
:1003E00002F001FA04F340EA0300294630BD21FA85
:1003F00004F0294630BD94F0000F83F4801306BF4B
:1004000081F480110134013D4EE77FEA645C18BF3E
:100410007FEA655C29D094EA050F08BF90EA020FD5
:1004200005D054EA000C04BF1946104630BD91EACD
:10043000030F1EBF0021002030BD5FEA545C05D1D0
:100440004000494128BF41F0004130BD14F580040F
:100450003CBF01F5801130BD01F0004545F0FE4183
:1004600041F470014FF0000030BD7FEA645C1ABFB8
:10047000194610467FEA655C1CBF0B46024650EAEF
:10048000013406BF52EA033591EA030F41F400211B
:1004900030BD00BF90F0000F04BF0021704730B5A1
:1004A0004FF4806404F132044FF000054FF0000176
:1004B00050E700BF90F0000F04BF0021704730B537
:1004C0004FF4806404F1320410F0004548BF40420C
:1004D0004FF000013EE700BF42004FEAE2014FEA61
:1004E00031014FEA02701FBF12F07F4393F07F4F3C
:1004F00081F06051704732F07F4208BF704793F03F
:100500007F4F04BF41F40021704730B54FF4607451
:1005100001F0004521F000411CE700BF50EA010254
:1005200008BF704730B54FF000050AE050EA0102FD
:1005300008BF704730B511F0004502D5404261EB6D
:1005400041014FF4806404F132045FEA915C3FF4AE
:10055000D8AE4FF003025FEADC0C18BF03325FEA4B
:10056000DC0C18BF033202EBDC02C2F1200300FAFC
:1005700003FC20FA02F001FA03FE40EA0E0021FA21
:1005800002F11444BDE600BF4FF0FF3C06E000BF9F
:100590004FF0010C02E000BF4FF0010C4DF804CD0C
:1005A0004FEA410C7FEA6C5C4FEA430C18BF7FEACC
:1005B0006C5C1BD001B050EA410C0CBF52EA430CFA
:1005C00091EA030F02BF90EA020F0020704710F17A
:1005D000000F91EA030F58BF994208BF90422CBF09
:1005E000D8176FEAE37040F0010070474FEA410C02
:1005F0007FEA6C5C02D150EA013C07D14FEA430C20
:100600007FEA6C5CD6D152EA033CD3D05DF8040B90
:10061000704700BF8446104662468C4619466346C2
:1006200000E000BF01B5FFF7B7FF002848BF10F199
:10063000000F01BD4DF808EDFFF7F4FF0CBF0120DE
:1006400000205DF808FB00BF4DF808EDFFF7EAFF5A
:1006500034BF012000205DF808FB00BF4DF808ED15
:10066000FFF7E0FF94BF012000205DF808FB00BF0A
:100670004DF808EDFFF7CEFF94BF012000205DF894
:1006800008FB00BF4DF808EDFFF7C4FF34BF0120A1
:1006900000205DF808FB00BF4FEA4102B2F1E043E1
:1006A00024BFB3F5001CDCF1FE5C0DD901F0004C59
:1006B0004FEAC0024CEA5070B2F1004F40EB8300A9
:1006C00008BF20F00100704711F0804F21D113F1D5
:1006D0003872BCBF01F00040704741F480114FEA0E
:1006E0005252C2F11802C2F1200C10FA0CF320FA97
:1006F00002F018BF40F001004FEAC1234FEAD323B4
:1007000003FA0CFC40EA0C0023FA02F34FEA43031D
:10071000CCE77FEA625307D150EA01331EBF4FF0A6
:10072000FE4040F44000704701F0004040F0FE40C1
:1007300040F40000704700BF53B94AB9002908BF10
:1007400000281CBF4FF0FF314FF0FF3000F074B9AC
:10075000ADF1080C6DE904CE00F006F8DDF804E018
:10076000DDE9022304B070472DE9F047089D0446F7
:100770008E46002B4DD18A42944669D9B2FA82F254
:1007800052B101FA02F3C2F1200120FA01F10CFA90
:1007900002FC41EA030E94404FEA1C48210CBEFBC8
:1007A000F8F61FFA8CF708FB16E341EA034306FB51
:1007B00007F199420AD91CEB030306F1FF3080F0E0
:1007C0001F81994240F21C81023E63445B1AA4B22D
:1007D000B3FBF8F008FB103344EA034400FB07F7CF
:1007E000A7420AD91CEB040400F1FF3380F00A8110
:1007F000A74240F207816444023840EA0640E41B05
:1008000000261DB1D4400023C5E900433146BDE8B0
:10081000F0878B4209D9002D00F0EF800026C5E952
:10082000000130463146BDE8F087B3FA83F6002E6A
:100830004AD18B4202D3824200F2F980841A61EBE2
:10084000030301209E46002DE0D0C5E9004EDDE700
:1008500002B9FFDEB2FA82F2002A40F09280A1EBE8
:100860000C014FEA1C471FFA8CFE0126200CB1FB3D
:10087000F7F307FB131140EA01410EFB03F0884236
:1008800008D91CEB010103F1FF3802D2884200F2C3
:10089000CB804346091AA4B2B1FBF7F007FB101155
:1008A00044EA01440EFB00FEA64508D91CEB0404F3
:1008B00000F1FF3102D2A64500F2BB800846A4EB4E
:1008C0000E0440EA03409CE7C6F12007B34022FA39
:1008D00007FC4CEA030C20FA07F401FA06F31C4368
:1008E000F9404FEA1C4900FA06F3B1FBF9F8200C75
:1008F0001FFA8CFE09FB181140EA014108FB0EF0BB
:10090000884202FA06F20BD91CEB010108F1FF3A0A
:1009100080F08880884240F28580A8F10208614416
:10092000091AA4B2B1FBF9F009FB101144EA014124
:1009300000FB0EFE8E4508D91CEB010100F1FF34CF
:100940006CD28E456AD90238614440EA0840A0FB67
:100950000294A1EB0E01A142C846A64656D353D03D
:100960005DB1B3EB080261EB0E0101FA07F722FA61
:1009700006F3F1401F43C5E9007100263146BDE88A
:10098000F087C2F12003D8400CFA02FC21FA03F3ED
:10099000914001434FEA1C471FFA8CFEB3FBF7F06E
:1009A00007FB10360B0C43EA064300FB0EF69E4293
:1009B00004FA02F408D91CEB030300F1FF382FD22C
:1009C0009E422DD9023863449B1B89B2B3FBF7F6D4
:1009D00007FB163341EA034106FB0EF38B4208D9AD
:1009E0001CEB010106F1FF3816D28B4214D9023EEE
:1009F0006144C91A46EA004638E72E46284605E70C
:100A00000646E3E61846F8E64B45A9D2B9EB0208DC
:100A100064EB0C0E0138A3E74646EAE7204694E76C
:100A20004046D1E7D0467BE7023B614432E730469F
:100A300009E76444023842E7704700BF844641EA50
:100A4000000313F003036DD1403A41D351F8043B46
:100A500040F8043B51F8043B40F8043B51F8043B98
:100A600040F8043B51F8043B40F8043B51F8043B88
:100A700040F8043B51F8043B40F8043B51F8043B78
:100A800040F8043B51F8043B40F8043B51F8043B68
:100A900040F8043B51F8043B40F8043B51F8043B58
:100AA00040F8043B51F8043B40F8043B51F8043B48
:100AB00040F8043B51F8043B40F8043B51F8043B38
:100AC00040F8043B51F8043B40F8043B403ABDD2A7
:100AD000303211D351F8043B40F8043B51F8043B49
:100AE00040F8043B51F8043B40F8043B51F8043B08
:100AF00040F8043B103AEDD20C3205D351F8043BD8
:100B000040F8043B043AF9D2043208D0D2071CBFA3
:100B100011F8013B00F8013B01D30B8803806046CC
:100B2000704700BF082A13D38B078DD010F0030342
:100B30008AD0C3F10403D21ADB071CBF11F8013BB2
:100B400000F8013B80D331F8023B20F8023B7BE701
:100B5000043AD9D3013A11F8013B00F8013BF9D22C
:100B60000B7803704B7843708B78837060467047C6
:100B700031EE601A30EE600A01238340013B07EE3C
:100B8000903AF8EEE77A60EE277A87EE817AFDEE0A
:100B9000C77A17EE900A704707EE900A70EEC00A07
:100BA000F8EEE77A67EEA00A01238B40013B07EEDF
:100BB000903AF8EEE77A80EEA77A37EE000A7047AF
:100BC000F8B504460D460B7803F00F0303700B785D
:100BD0001B0943704B78887840EA03206060CB782B
:100BE0000F793F0947EA0317A7600E79360206F42A
:100BF00070664B791E43E6601021F2EE090ABAEEE8
:100C0000090AFFF7C9FF84ED040A0C21F3EE0E0A6E
:100C1000BBEE0E0A3846FFF7BFFF84ED050A0C2134
:100C2000F2EE080ABAEE080A3046FFF7B5FF84ED87
:100C3000060AAB7907EE903AF8EE677AC4ED077AC8
:100C4000EB7907EE903AF8EE677AC4ED087AF8BDD2
:100C5000431EDBB2012B00D9704730B595B0044676
:100C600001220892002306930792009301930293B6
:100C70000393059304930E230993154D6946284663
:100C800003F098FD284603F031FE0221284603F0C8
:100C900085FF022C01D015B030BD01221292002335
:100CA000109311920A930B930C930D930E230F93B1
:100CB0000E921393074C0AA9204603F07BFD2046B1
:100CC00003F014FE1021204603F068FFE3E700BFA5
:100CD000F80E0020200F002000B58BB001AB03AA56
:100CE000002103F0A6FE039B13B10BB05DF804FBDB
:100CF0009DF8043003F00F03054A1370013B03EB2A
:100D0000C3039A0001A903481044FFF759FFECE719
:100D10009C0900207C08002000B58BB001AB03AA21
:100D2000012103F086FE0BB05DF804FB2DE9F04FC6
:100D30002DED048B8BB081468B46F0EE609AB0EEC1
:100D4000419AF0EE618AB0EE428A1020B2EE091AA2
:100D5000FAEE090AFFF70CFF80461FFA80FA0C2012
:100D6000B3EE0E1AFBEE0E0AB0EE690AFFF700FFB3
:100D700087B2DFED269A0C209FED251AF0EE690A66
:100D8000B0EE490AFFF7F4FE064684B20C20B1EE3D
:100D9000041AF0EE690AB0EE680AFFF7E9FE85B2C0
:100DA0000C20B2EE081AFAEE080AB0EE480AFFF775
:100DB000DFFECDF810B000230693079308230893B5
:100DC0002AFA03FA8DF808A08DF809803B098DF8FE
:100DD0000A30240A44EA07148DF80B408DF80C60A1
:100DE0002B098DF80D30C0F3072343EA05158DF864
:100DF0000E508DF80F0001AB02AA04A9484603F07B
:100E0000A3FD0BB0BDEC048BBDE8F08F000000002B
:100E10000000FA4300F0070000EBC000014B03EBB9
:100E2000800070477C08002000B58BB0049100233F
:100E30000693079308230893FF238DF808308DF855
:100E400009308DF80A308DF80B308DF80C308DF8A4
:100E50000D308DF80E30FC238DF80F3001AB02AA57
:100E600004A903F071FD0BB05DF804FB08B500F0B8
:100E7000BFFB08BD08B50A46FF230146014805F03F
:100E8000A6FE08BDFC19002008B501F04BFA08BD0C
:100E900010B50468E36843F01003E36006F058FA05
:100EA00010BD0000F0B583B015461E4603681A68F1
:100EB00012F0100F01D103B0F0BD04460F4600221E
:100EC00001921A6801925B680193019B05F028FF6B
:100ED0003B685F68FFB2F71BFFB2114B9C4210D01A
:100EE000104B9C4212D0104B9C4214D03A46002129
:100EF000284607F0A7F932462946204606F028FA88
:100F0000D9E739462846FFF7B1FFEFE739462846CB
:100F1000FFF7B0FFEAE739462846FFF7B5FFE5E7F8
:100F2000B4190020FC190020441A0020002380F886
:100F3000403003681A6812F0080F09D06FF00802F9
:100F40001A6003681A685A68DA6842F01002DA60B8
:100F50007047000010B52DED0A8B0446D0ED15AAA0
:100F600090ED11AA7AEECABAB0EE6B0A07F044FC13
:100F70009FED32BA60EE0B9A94ED020A94ED10CA1E
:100F800030EE4C0A07F038FCF0EE408A69EE809AA9
:100F90003AEE4C0A07F030FCB0EE408A89EE809AB7
:100FA00084ED169AB0EE6B0A07F0EEFB20EE0B0A0A
:100FB00068EE808AD4ED14BAC8EEAB9A68EE299A2E
:100FC000C4ED179A7AEECCAAB0EE6A0A07F014FCC8
:100FD00060EE0B8A94ED030A3AEE400A07F00CFC2F
:100FE000B0EE40AA28EE800AC0EE088AC4ED188A46
:100FF000B0EE6A0A07F0C8FB20EE0BBA2AEE0BAA85
:101000008AEE2B0A28EE008A84ED198AD4ED067A3E
:1010100029EE279A94ED070A69EE809A39EE299A0B
:1010200084ED1A9A68EEA78A28EE008A38EE888A3C
:1010300084ED1B8ABDEC0A8B10BD00BF8FC2F53D4D
:1010400000B52DED108B87B0F0EE408AB0EE608ACF
:101050008DED041ACDED051A07F096FBB0EE40CAEF
:10106000B0EE680A07F0C8FBB0EE409ADFED918A57
:101070006CEE28FAB0EE480A07F086FBB0EE40BAF4
:10108000DFED8D9A79EEEF9A60EE287A79EEA79AE5
:1010900029EE28FAB0EE480A07F0AEFBB0EE408A1F
:1010A00060EE288A7FEE688ADFED847A6CEE27EAAC
:1010B0006EEEA8EA29EE277A67EE294ACDED004ABE
:1010C0002BEE277A67EE282ACDED012A60EE277AEB
:1010D00067EEA9DA28EEA80A69EEA97A70EE27AAC7
:1010E0009FED777A7AEE87AA7AEEC7AA9FED75EA26
:1010F00029EE8EDA3DEE2ADA9FED737A20EE070AAA
:101100006AEEAA6A30EE660A67EE877A30EE270A40
:1011100007F0DAFBF0EE40BA68EE8ECA70EE6CCAE9
:10112000F0EE4D0AB0EE6C0A07F0CCFB70EE007AE0
:10113000CDED027AB0EE670A07F026FB8DED030ACB
:10114000DFED626A20EE26AADFED617A3AEE67AA49
:101150003AEE2FAA9DED020A07F04EFBDFED5B6A27
:1011600060EE267A77EE8F7A6DEE0D5A7BEEABBA93
:10117000DFED586A2CEE267A27EE287ADDED004A5C
:101180003EEEA46A36EE066A26EE2A6A37EE467A04
:1011900029EE266A26EE296A37EE067A87EE2B6A52
:1011A0009FED4D5A2CEE05CA36EE4CCA8CEE0D6AF8
:1011B00029EE059A79EE2EEA7EEEA4EA6EEEACEA0E
:1011C0008EEEA57A36EE476A6CEEAC4A84EEA57ACE
:1011D000B7EE004A37EE047A6AEE0A4ADDED033ACA
:1011E00063EE8E3A20EE0EEA2BEE263A63EE288A64
:1011F000DDED012A32EEAD3A33EE033A63EE2AAA70
:1012000078EEEA8A68EE266A66EEA99A78EEA99ADE
:1012100089EEAB0A2BEE05BA30EE4BBACBEE0D6A77
:1012200028EE058A38EE228A38EE2D8A68EE2CCA1E
:101230008CEEA55A76EEC55A27EEA75AC5EE246A5B
:1012400036EE844A26EE235AC5EE076A76EEAFFAEA
:101250008FEE8A1A26EE0E6AC6EE076A36EE8FFA0F
:101260002FEE27FACFEE246A31EE261ADDED046A5E
:1012700021EE261A81EE040A63EEA53A2AEE07AAA9
:10128000C3EE8A1A67EE8E7A67EEA57A27EE247A85
:10129000C7EE876A71EEA61ADDED057A61EEA71A30
:1012A000C1EE847A30EE670A07B0BDEC108B5DF8B2
:1012B00004FB00BF8FC2F53DA913D03D8FC2753E20
:1012C0000AD7233DCDCCCC3E0AD7233ECDCC4C3ED5
:1012D000A913503D52491D3DA69B443D10B52DED2F
:1012E000068B044690ED038AB0EE480A07F084FAB4
:1012F000DFED6C8A20EE289A84ED089A94ED02AA1C
:10130000B0EE4A0A07F078FA60EE289AC4ED099A1E
:10131000B0EE480A07F038FA20EE288A9FED620AFC
:1013200038EE008A84ED0A8AB0EE4A0A07F02CFAF9
:1013300020EE280A84ED0B0A38EE408A28EE088A4F
:1013400039EE699A29EE099A38EE090A07F0BCFAD3
:1013500084ED0C0A94ED0A7AD4ED0B7A37EE677AB5
:10136000DFED527A27EE277A84ED0D7A94ED088A24
:10137000D4ED096A38EE668A28EE278A84ED0E8A53
:1013800020EE000ADFED4A6A70EE267A77EEE67A02
:10139000C4ED0F7A27EE077A28EE080A37EE000A26
:1013A00067EEA77A30EE670A07F08EFAD4ED0D0AE1
:1013B000D4ED0F7A70EEA70A38EE000A07F082FA31
:1013C00030EE008A84ED108A94ED09AAD4ED087AF3
:1013D0003AEE67AAB0EE480A07F00EFA9FED359A8A
:1013E00060EE099AD4ED0BAAD4ED0A7A7AEEE7AA58
:1013F000B0EE480A07F0C8F960EE090A7AEEA00AD2
:101400003AEE290A07F05EFA84ED110A94ED02AA79
:10141000B0EE4A0A07F0B8F920EE288AD4ED109A07
:10142000B0EE690A07F0B0F920EE090A38EE008A3A
:1014300084ED128AB0EE4A0A07F0DEF960EE288ADF
:10144000B0EE690A07F0D8F920EE090A38EE800AF2
:1014500084ED130ADFED188A38EE688A28EE088AD0
:1014600020EE000A38EE000A07F02EFA84ED140A86
:10147000D4ED120A70EEE80A94ED130A07F022FA8E
:1014800084ED150AD4ED051A94ED041AD4ED030A7F
:1014900094ED020AFFF7D4FD84ED1C0ABDEC068B27
:1014A00010BD00BF8FC2F53DA913D03DCDCCCC3EC1
:1014B0000BD7233DCDCC4C3EA913503D08B5F1B917
:1014C000026892ED047ADFED167A77EEC77AC0ED06
:1014D000027A4368D3ED047AF1EE677AC0ED037ABD
:1014E000D2ED057AF1EE677AC0ED047AD3ED057A94
:1014F000F1EE677AC0ED057AFFF7F0FE08BD0268ED
:10150000D2ED047A9FED067A77EE877AC0ED027A03
:1015100043681969C160526902615B694361EBE725
:10152000DB0F494038B504460D4669BB0020FFF784
:1015300071FC20600120FFF76DFC6060236893ED73
:10154000047ADFED1D7A77EEC77AC4ED027AD0ED2A
:10155000047AF1EE677AC4ED037AD3ED057AF1EE01
:10156000677AC4ED047AD0ED057AF1EE677AC4EDBE
:10157000057A29462046FFF7A1FF0023A361E36116
:101580002046FFF7E7FC38BD0320FFF743FC20604F
:101590000220FFF73FFC60602368D3ED047A9FEDE3
:1015A000067A77EE877AC4ED027A0269E2605B69B7
:1015B000236143696361DCE7DB0F49400246002099
:1015C0000B460139C9B28BB112F8013B58400023D8
:1015D00002E040080133DBB2072BF1D810F0010F15
:1015E000F7D0400880F08C00C0B2F3E770470000ED
:1015F0000A2943D138B50446457A0921FFF7DEFFB1
:1016000085423AD12278013A63781D4D02EB82007F
:1016100005EB80004370A178E37843EA01231BB215
:10162000838094F804C0617941EA0C21C18094F868
:1016300006C0E17941EA0C210181247A847007EE29
:10164000903AF8EEE77AB2EE007A67EE877ADFED4D
:101650000D6A87EEA67AF6EE087A67EE277AC0ED75
:10166000047A07EE901AF8EE677A9FED077A67EE34
:10167000877A87EEA67A80ED037A38BD704700BF7F
:10168000080A002000FEFF460000B44310B5B6EE85
:10169000087AC0EE077A9FED157A67EE877AB4EE86
:1016A000007A67EE877AFDEEE77A17EE903A104CF3
:1016B00021706422627043F30722A270E37000235A
:1016C00023716371A371E371237209212046FFF72F
:1016D00075FF607201220821064803F04BFF0A22C1
:1016E0002146054805F0DAFA10BD00BF00FEFF46AE
:1016F000300A002000040240B419002008B5054B50
:10170000834200D008BD00220821034803F032FFC5
:10171000F8E700BFB41900200004024080ED000A81
:10172000002343608360C360C0ED040A80ED051AA6
:101730007047D0ED007A90ED047A77EE877AC0EDAD
:10174000017A90ED057A37EE877AC7EE876AC0EDA9
:10175000036A90ED027A30EE470A26EE800A37EEF1
:10176000000A80ED020AB7EE007A37EE667A67EE7D
:10177000877AC0ED007A704770B52DED028B84B08A
:1017800005460C4600F0DAFEA86000F0D7FEA06027
:10179000154B01AE93E8070086E80700DFED138ADA
:1017A0009FED138AF0EE680AB0EE480A3246002137
:1017B00005F1980000F01CFCF0EE680AB0EE480A53
:1017C0003246002104F1980000F012FC002105F1DE
:1017D0002400FFF7A7FE012104F12400FFF7A2FE79
:1017E00004B0BDEC028B70BD349A0008000000000C
:1017F0000000164300000000F8B505460C4683685B
:10180000D3ED077AF1EE677AC0ED087A93ED117A9D
:101810009FED3B6A27EE467ADFED3A6AC7EE267AFD
:10182000C0ED077A8B6893ED077AB1EE477A81EDC8
:10183000087AD3ED117A67EEC67A87EEA67A81ED43
:10184000077A002343614B6183618B61806FFEF7F0
:1018500043FE02460B4628A1D1E90001FEF7DCFC5D
:1018600006460F46E869FEF737FE02460B4630464D
:101870003946FEF7D1FCFEF70FFFE860D5ED257A7B
:10188000F1EE677A95ED087A77EEC77AC5ED047ABE
:10189000A06FFEF721FE02460B4617A1D1E9000119
:1018A000FEF7BAFC06460F46E069FEF715FE024653
:1018B0000B4630463946FEF7AFFCFEF7EDFEE06022
:1018C000D4ED257AF1EE677A94ED087A77EEC77A4F
:1018D000C4ED047A002105F12400FFF7EFFD01219A
:1018E00004F12400FFF7EAFD6B6FC5F8E430636F85
:1018F000C4F8E430F8BD00BF182D4454FB21F93F73
:10190000DB0F494000003443D0B52DED028B044677
:10191000B0EE408A10EE100AFEF7DEFD06460F46D6
:10192000D2A3D3E90023FEF78FFE002840F03E81CA
:10193000D0A3D3E9002330463946FEF7A3FE0028A2
:1019400040F03481DFED9C7A68EE277A67EE887A82
:101950009FED9A7A28EE077A77EEC77A9FED987A0C
:1019600077EEC77AC4ED3A7ADFED967A68EE277A99
:101970009FED957A77EE877AC4ED3B7ADFED937A27
:1019800068EE277A67EE887A67EE887A9FED907A1C
:1019900028EE077A27EE087A77EE877A9FED8D7A20
:1019A00028EE077A77EEC77A9FED8B7A77EEC77AC3
:1019B000C4ED3C7ADFED897A68EE277A67EE887AA3
:1019C00067EE887A9FED867A28EE077A27EE087A06
:1019D00077EE877A9FED837A28EE077A77EEC77ADB
:1019E0009FED817A77EEC77AC4ED3D7ADFED7F7A9D
:1019F00068EE277A67EE887A67EE887A9FED7C7AC0
:101A000028EE077A27EE087A77EE877A9FED797AC3
:101A100028EE077A77EEC77A9FED777A77EE877AA6
:101A2000C4ED3E7ADFED757A68EE277A67EE887A44
:101A300067EE887A9FED727A28EE077A27EE087AA9
:101A400077EE877A9FED6F7A28EE077A77EEC77A7E
:101A50009FED6D7A77EE877AC4ED3F7ADFED6B7A92
:101A600068EE277A67EE887A67EE887A9FED687A63
:101A700028EE077A27EE087A77EEC77A9FED657A27
:101A800028EE077A77EE877A9FED637A77EE877A8A
:101A9000C4ED407ADFED617A68EE277A67EE887AE6
:101AA00067EE887A9FED5E7A28EE077A27EE087A4D
:101AB00077EEC77A9FED5B7A28EE077A77EE877A22
:101AC0009FED597A77EE877AC4ED417ADFED577A48
:101AD00068EE277A67EE887A67EE887A9FED547A07
:101AE00028EE077A27EE087A77EE877A9FED517A0B
:101AF00028EE077A77EEC77A9FED4F7A77EE877AEE
:101B0000C4ED427ADFED4D7A68EE277A67EE887A87
:101B100067EE887A9FED4A7A28EE077A27EE087AF0
:101B200077EE877A9FED477A28EE077A77EEC77AC5
:101B30009FED457A77EE877AC4ED437ADFED437AFD
:101B400068EE277A67EE887A67EE887A9FED407AAA
:101B500028EE077A27EE087A77EEC77A9FED3D7A6E
:101B600028EE077A77EE877A9FED3B7A77EE877AD1
:101B7000C4ED447ADFED397A68EE277A67EE887A29
:101B800067EE887A9FED367A28EE077A27EE087A94
:101B900077EEC77A9FED330A28EE008A37EE888AFF
:101BA000DFED317A38EE278A84ED458ABDEC028B71
:101BB000D0BD00BFAFF30080DD24434248613D4209
:101BC000DD24363FC3D3B3C04772F93D89415CC2BF
:101BD00068912B4273683741508D8F3F5C8F3CC2B8
:101BE00089C114423D0A33417B83973FCD8C34C376
:101BF000CD0C1F436ABC5442B81E024194F600C18A
:101C000027C20541925C5E403480473F60E56642F2
:101C1000BE1F0342F8C2243FB7D160404F4013417A
:101C200021B0E84070CEE03FFCA9713E6666E5C297
:101C30005C8FC842022B0442D3BC99404861EBC27E
:101C4000C3F5C9429C440242A1F89540B89EBD43E9
:101C50008FC2924302EB9D42B98DD440CFF7F7413A
:101C6000A245C841FA7EE64033C4B13D9A9999999C
:101C70009999B93F333333333333D33F38B50546BE
:101C80000C46FFF7B9FD864BD3ED000AC5ED010AFE
:101C9000C4ED010A95ED390A05F1980000F0C2F98A
:101CA000D4ED010A94ED390A04F1980000F0BAF974
:101CB00095ED2E7AF2EE046A37EE267A85ED0F7AEC
:101CC000D4ED2E7A77EEA67AC4ED0F7A95ED390A27
:101CD0002846FFF719FE94ED390A2046FFF714FE57
:101CE000D5ED3A7A95ED037A67EE877A95ED3B7AF2
:101CF000D5ED046A27EE267A77EE877A95ED3C7A61
:101D0000D5ED056A27EE267A77EE877A95ED3D7A4E
:101D1000D5ED066A27EE267A77EE877A95ED3E7A3C
:101D2000D5ED076A27EE267A77EE877A95ED3F7A2A
:101D3000D5ED086A27EE267A77EE877AC5ED477AE1
:101D4000D4ED3A7A94ED037A67EE877A94ED3B7A94
:101D5000D4ED046A27EE267A77EE877A94ED3C7A02
:101D6000D4ED056A27EE267A77EE877A94ED3D7AF0
:101D7000D4ED066A27EE267A77EE877A94ED3E7ADE
:101D8000D4ED076A27EE267A77EE877A94ED3F7ACC
:101D9000D4ED086A27EE267A77EE877AC4ED477A83
:101DA000D5ED407A95ED037A67EE877A95ED417A25
:101DB000D5ED046A27EE267A77EE877A95ED427A9A
:101DC000D5ED056A27EE267A77EE877A95ED437A88
:101DD000D5ED066A27EE267A77EE877A95ED447A76
:101DE000D5ED076A27EE267A77EE877A95ED457A64
:101DF000D5ED086A27EE267A77EE877AC5ED467A22
:101E0000D4ED407A94ED037A67EE877A94ED417AC7
:101E1000D4ED046A27EE267A77EE877A94ED427A3B
:101E2000D4ED056A27EE267A77EE877A94ED437A29
:101E3000D4ED066A27EE267A77EE877A94ED447A17
:101E4000D4ED076A27EE267A77EE877A94ED457A05
:101E5000D4ED086A27EE267A77EE877AC4ED467AC3
:101E6000D5F818312B64D4F81831236405F1240017
:101E7000FFF770F804F12400FFF76CF8D5F88C3008
:101E8000C5F82031D5F89030C5F82431D4F88C301D
:101E9000C4F82031D4F89030C4F8243138BD00BFE4
:101EA0008C0C002008B5074B074A1A600749084800
:101EB000FFF762FC05490648FFF7E0FE0A2005F03F
:101EC0009AFAF7E78C0C0020CDCCCC3D640B0020B7
:101ED0003C0A002070B50E46154648B1114B93FBE5
:101EE000F0F3114A12689BB2013B9362002409E0AF
:101EF0000D4B1B6800229A62F8E75A2002F0A0FB03
:101F00000134E4B2B442F8D3074B1B6800249C624E
:101F100004E05A2002F094FB0134E4B2AC42F8D35E
:101F200070BD00BF80B92A004417002010B52F4CA7
:101F30000C21204604F016FC236814221A640122A6
:101F4000042140F21640FFF7C5FF012204214FF49F
:101F50006970FFF7BFFF0022012140F21640FFF732
:101F6000B9FF0022022140F2DD40FFF7B3FF00225B
:101F7000032140F27550FFF7ADFF012211464FF4E7
:101F8000B960FFF7A7FF012211460020FFF7A2FF6B
:101F9000012211464FF4C460FFF79CFF0122114655
:101FA0004FF4C460FFF796FF012211464FF4C4605E
:101FB000FFF790FF012211464FF4F760FFF78AFF09
:101FC000012211464FF4F760FFF784FF012211460A
:101FD0004FF4F760FFF77EFF012211464FF4F760E0
:101FE000FFF778FF236800221A6410BD4417002011
:101FF000B0B1AAB101701168416051688160926806
:10200000C26080ED040AC0ED050A002282634263CB
:1020100002630262C2628262426242640264C2631A
:10202000704700000346002800F0A380D0ED107A2E
:10203000C0ED117AD0ED0F6AC0ED106AC0ED060A4E
:1020400080ED070A70EEC00AC0ED0F0A0278002A80
:102050004CD190ED017A20EE877A80ED097AD0EDAF
:10206000027A60EEA77A90ED0A6A77EE867AC0ED82
:102070000A7A426B8263026B426370EEE60AC0ED3D
:102080000C0AD0ED036A60EEA60AC0ED0B0AD0ED93
:10209000056AF4EEE67AF1EE10FA13DDC0ED0A6A95
:1020A000D3ED0A7A37EE277A70EE870AC3ED080A75
:1020B000D3ED047AF4EEE70AF1EE10FA0CDDC3ED8D
:1020C000087A15E0F1EE666AF4EEE67AF1EE10FABF
:1020D000E6D5C0ED0A6AE3E7F1EE677AF4EEE70AC7
:1020E000F1EE10FA04D5C3ED087A01E0012A02D01E
:1020F00093ED080A704790ED017A30EEE66A27EE1C
:10210000067A80ED097A90ED026A20EE866A80ED0B
:102110000A6A426B8263026B426376EEA66A70EED5
:10212000E60A77EEA00AC0ED0C0AD0ED037A60EE65
:10213000A77AC0ED0B7A37EE067A77EE877A90EDC4
:10214000087A77EE877AC0ED087A90ED047AF4EE9B
:10215000C77AF1EE10FA02DD80ED087AC8E7B1EE39
:10216000477AF4EEC77AF1EE10FAC1D580ED087A1D
:10217000BEE79FED010A70470000000038B5054634
:102180000B4C50220B492046FEF758FC002384F8E4
:10219000503084F85130802384F852307F2384F803
:1021A000533054222146284604F078FD38BD00BF44
:1021B000E40C0020380D002008B5322222492348C3
:1021C000FEF766FE322222492248FEF761FE224ACD
:1021D000116C224B1960516C5960926C9A60204AC4
:1021E000D16AD960116B19611E49C86A5861096BBF
:1021F0009961D2F8B810D961D2F8C0101962D2F83A
:10220000C4105962526F9A62174AB2F9041007EE6D
:10221000901AF8EEE77AC3ED0F7AB2F9061007EEDE
:10222000901AF8EEE77AC3ED107A11695964D26812
:102230009A640E4A5268DA640648FFF79FFF052049
:1022400005F0D9F8C3E700BFA0090020B4190020A9
:10225000D4090020441A0020880D0020380D0020E9
:102260003C0A0020640B0020080A00208C0C00208F
:1022700082B000230AE0D91C094A0A44117903F10B
:1022800008026A4402F8041C0133DBB2032BF2D9C2
:10229000012801D002B07047019A024B1A60F9E799
:1022A000CC0C00208C0C002082B000230AE0D91C4A
:1022B000094A0A44117903F108026A4402F8041C2D
:1022C0000133DBB2032BF2D9012801D002B07047F1
:1022D000019A024B5A60F9E7CC0C00208C0C0020CC
:1022E00084B008B50DF1080C8CE80F000C4B1B797D
:1022F000FE2B03D0BDE8084004B07047084B5B7963
:10230000EF2BF7D1064B9B7903F00F001B0904D08C
:10231000022BEFD1FFF7C8FFECE7FFF7A9FFE9E7D2
:10232000CC0C0020F0B583B006460D46002407E033
:102330001E4B1A785A709B78142B21D80134E4B2C2
:10234000AC4230D2315D194B19709A78501C98709C
:102350001A4411713222DA705B78ED2BE8D1DE2954
:10236000E6D1124F07F1100393E803008DE8030054
:1023700097E80F00FFF7B4FF00237B70BB70D7E72F
:102380000A4B00229A7005E0084AD1180020087113
:1023900001339370054B9B78132BF5D9034B002227
:1023A0005A709A70CAE703B0F0BD00BFCC0C002091
:1023B00010B52DED028B044600F0ACFB9FED0C8AAE
:1023C000F0EE482AB0EE482AF0EE481A94ED021AD0
:1023D000D4ED010A94ED000A00F0EEFB054B83ED0D
:1023E000138A83ED148A83ED158ABDEC028B10BD30
:1023F00000000000880D002010B59FED283AB0EED7
:10240000434AF0EE433AD1ED022A91ED012AD1ED93
:10241000001A90ED021AD0ED010A90ED000A00F0CA
:10242000EBFD00F0CBFF01F04BF81D4C84ED0D0AE5
:1024300001F030F884ED0E0A01F058F884ED0F0A2F
:10244000D4ED157A9FED177A77EE877AC4ED157A79
:10245000636B2364A36B636430EE670A84ED120A36
:10246000DFED117AB4EEE70AF1EE10FA06D5DFEDF2
:102470000F7A30EE270A84ED120A10BDDFED0C7AD8
:10248000B4EEE70AF1EE10FAF7DDDFED087A30EE90
:10249000670A034B83ED120AEFE700BF000000005C
:1024A000880D002049926938000034C30000B4430D
:1024B0000000344300B585B004210A4804F052F905
:1024C000094A01AB07CA83E80700DFED080A9FED60
:1024D000080A1A4601210748FFF78AFD05B05DF892
:1024E00004FB00BF8C170020409A000800004844FD
:1024F00000389C45E00D002010B5F0EE400A0D4C70
:1025000094ED0C0A04F15800FFF78CFDD4ED1E7A0F
:10251000F5EEC07AF1EE10FA09D4064BD3ED1E7A2F
:10252000054B1B68FCEEE77AC3ED0E7A10BD002266
:10253000A267F2E7880D00208C1700200048704742
:10254000880D0020F8B52DED048B00F017FA002857
:10255000FBD107463B4800F1300200F10C0100F0CE
:102560001BFA3C4622E09FED389ADFED388A9FED5A
:10257000388A344E650004EB4400C000A030B0EE51
:10258000491AF0EE680AB0EE480A3044FFF7C6F880
:102590002819C000E830B0EE491AF0EE680AB0EE33
:1025A000480A3044FFF7BAF80134E4B2022CDAD911
:1025B00028489FED290AFFF7FBFEFFF77BFF37E076
:1025C000204D05EB8403660004EB4400C000A030FE
:1025D00093ED000A2844FFF7ACF8A31D05EB830335
:1025E00083ED000AA31C05EB83033019C000E8301B
:1025F00093ED010A2844FFF79CF804F1080305EB6A
:10260000830585ED010A0134E4B2022CD8D90D48C6
:1026100000F124011830FFF7EFFE9FED100AFFF7DD
:102620006BFF4FF47A7000F091FF012004F0E3FE9D
:10263000044800F1300200F10C0100F0ADF93C4615
:10264000E3E700BF880D0020CDCCCC3D6F12833A6C
:102650000AD7233CA00D00200000FA4300002042CE
:102660007047704710B44FF0E0235C694FF0A80C3E
:102670000CFB00FC9B69002104E0E01A02441144B9
:10268000614509D21A464FF0E0239B699A42FAD07D
:10269000F3D9D21A1144F3E75DF8044B704710B533
:1026A00004E04FF47A70FFF7DDFF2046431E9CB232
:1026B0000028F6D110BD000008B500220221024812
:1026C00002F058FF08BD00BF0004024008B5012217
:1026D0000221024802F04EFF08BD00BF0004024084
:1026E00008B500220121024802F044FF08BD00BFE6
:1026F0000004024008B501221146024802F03AFFE8
:1027000008BD00BF0004024000B587B08DF80F007F
:102710004FF47A73009301230DF117020DF10F01AD
:10272000034803F0F4FB9DF8170007B05DF804FBC5
:10273000A016002010B50C46FFF7E6FF2046FFF775
:10274000E3FF10BD10B50C4640F08000FFF7DCFF42
:102750005520FFF7D9FF207010BD38B50D4614463F
:1027600040F08000FFF7D0FF06E05520FFF7CCFFD8
:1027700005F8010B013CE4B2002CF6D138BD000095
:10278000F8B5FFF799FF8020FFF7BEFF5520FFF750
:10279000BBFF5520FFF7B8FFFFF798FF9620FFF724
:1027A00061FFFFF789FF8020FFF7AEFF5520FFF79D
:1027B000ABFF5520FFF7A8FFFFF788FF9620FFF734
:1027C00051FFFFF779FFB6217E20FFF7B3FFFFF738
:1027D0007DFF5020FFF763FFFFF76EFF8020FFF7BC
:1027E00093FF5520FFF790FF5520FFF78DFFFFF770
:1027F0006DFF9620FFF736FFFFF75EFF8020FFF7A3
:1028000083FF5520FFF780FF5520FFF77DFF04462B
:10281000FFF75CFF9620FFF725FF1E2C32D1002426
:10282000052C2DD8FFF748FF174A04EB4403D118B5
:102830004E78D55C31462846FFF77CFFFFF746FF10
:102840009620FFF70FFFFFF737FF45F08000FFF7F7
:102850005BFF5520FFF758FF5520FFF755FF054652
:10286000FFF734FF9620FFF7FDFEAE4202D10134A0
:10287000E4B2D5E704EB4407034B1F44B87800E00B
:102880000020F8BDFF20FCE7E09A0008F0B583B017
:1028900000248DF80740FFF723FF0DF107012046C4
:1028A000FFF750FFFFF726FF9620FFF7DBFEFFF74D
:1028B00017FF0DF107012046FFF744FFFFF71AFF4E
:1028C0009620FFF7CFFEFFF70BFFB6211420FFF78E
:1028D00031FFFFF70FFF5020FFF7E1FEFFF700FF8A
:1028E0000DF107012046FFF72DFFFFF703FF9620AC
:1028F000FFF7B8FEFFF7F4FE0DF107012046FFF7E2
:1029000021FFFFF7F7FE9620FFF7ACFE9DF807309A
:102910000F2B2ED1052C29D8FFF7E2FE164A04EB27
:102920004403D1184D78D65C29463046FFF702FFA4
:10293000FFF7E0FE9620FFF795FEFFF7D1FE0DF1C1
:1029400007013046FFF7FEFEFFF7D4FE9620FFF7A3
:1029500089FE9DF807309D4202D10134E4B2D9E7E7
:1029600004EB4407044B1F44B87800E0002003B098
:10297000F0BDFF20FBE700BFF49A000810B5FFF799
:102980006FFEFFF76EFEFFF7FBFE0446FFF77EFFCC
:102990002043C0B210BD0000F0B583B006460D461E
:1029A0001446594B93E803000090ADF80410090C4D
:1029B0008DF8061000278DF80770FFF77DFE922036
:1029C000FFF7A2FE062269461220FFF7C6FEFFF7B8
:1029D0007DFE9DF801301B021BB29DF800201343C1
:1029E00007EE903AF8EEE77A484A92ED007A67EE01
:1029F000877AC5ED007A9DF803301B021BB29DF863
:102A000002100B4307EE103AD2ED006AB8EEC77A17
:102A100027EE267A85ED017A9DF805301B021BB260
:102A20009DF80420134307EE903AF8EEE77A67EE3C
:102A3000A67AC5ED027AFFF753FE082269463846AA
:102A4000FFF78BFEFFF756FE9DF800300F2B27D0C7
:102A5000FFF732FEA220FFF757FE0222694622202E
:102A6000FFF77BFEFFF732FE9DF800209DF8013056
:102A70005B0943EAC203B3F5806F01DBA3F5006392
:102A800007EE903AF8EEE77AB4EE007A67EE877ACE
:102A9000B3EE077A77EE877AC4ED007A03B0F0BD23
:102AA0009DF803301B021BB29DF80220134307EE72
:102AB000903AF8EEE77A164A92ED007A67EE877A56
:102AC000C6ED007A9DF805301B021BB29DF804107C
:102AD0000B4307EE103AD2ED006AB8EEC77A27EE44
:102AE000267A86ED017A9DF807301B021BB29DF80D
:102AF0000620134307EE903AF8EEE77A67EEA67ADF
:102B0000C6ED027AA4E700BF4C9A0008000000203E
:102B10000400002000230E4A1360F7EE007A0D4AED
:102B2000C2ED007A0C4A13600C4A13600C4A136021
:102B30000C4A13600C4A13600C4A13600C4B0022C1
:102B40001A7087EE807A0B4B83ED007A704700BFD6
:102B5000E40E0020D00E0020D40E0020D80E00205D
:102B6000DC0E0020BC0E0020C00E0020C40E002091
:102B7000B80E0020C80E0020B6EE007A20EE077ACC
:102B800010EE102A0B4BA3EB620307EE903A27EEF0
:102B9000870A27EE800AF7EE086A36EEC00A67EE6B
:102BA000807A27EE877A27EE877A36EEC70A27EEF5
:102BB000800A7047DF59375FF8B52DED0A8BB0EE0C
:102BC000409AF0EE608AB0EE418AB0EE61BAB0EEA3
:102BD00042AAB0EE62CA60EE007A20EEA00A77EE5A
:102BE000807A21EE010A37EE800AFFF7C5FF29EE51
:102BF000009A68EE808A28EE008A6BEE0B7A2AEE45
:102C00000A0A77EE807A2CEE0C0A37EE800AFFF77C
:102C1000B3FF2BEE00BA6AEE00AA2CEE00CAF0EE6B
:102C2000480AB1EE490A05F04DFEF0EE40BAF0EE6A
:102C3000480AB0EE680A05F045FEB0EE40AA05F07D
:102C4000DBFDF0EE409AB0EE4A0A05F09DFDB0EED5
:102C5000408AB0EE6B0A05F097FDF0EE408AB0EEC8
:102C60006B0A05F0C9FDF0EE407A6BEE280A2AEEF9
:102C7000800A20EE290A70EE800A6CEE277A67EE51
:102C8000887A2AEE887A6CEE299A37EE697A70EEA5
:102C9000A70AB1EE470A05F015FEB0EE409AF6EE2F
:102CA000008A2AEE28AAB0EE4A0A05F06DFDB0EEC1
:102CB00040CA6BEEA8BAB0EE6B0A05F065FDF0EE07
:102CC00040AA29EE289AB0EE490A05F05DFDB0EE63
:102CD00040BAB0EE4A0A05F08FFDB0EE40AAB0EE61
:102CE0006B0A05F089FDB0EE408AB0EE490A05F0A6
:102CF00083FD6CEE2A7A67EE8B9A6AEE086A26EEFE
:102D0000807A79EE879A224FC7ED009A2AEE8A7A66
:102D100027EE0B9A2CEE088A28EE006A39EE469AC6
:102D20001C4E86ED009A28EE0B8A27EE007A38EECC
:102D3000078A194D85ED008A67EE807A66EE8B8AE8
:102D400077EEE88A154CC4ED008A69EEA97A29EE7F
:102D5000090A77EE807A28EE080A77EE807A28EE64
:102D6000A80A37EE800AFFF707FF69EE807AC7ED01
:102D7000007A69EE007AC6ED007A28EE008A85EDC9
:102D8000008A68EE808AC4ED008ABDEC0A8BF8BD2B
:102D9000D00E0020D40E0020D80E0020DC0E002023
:102DA000F8B52DED068BB0EE408AF0EE608AB0EEFD
:102DB00041AAB0EE619AF0EE42AAF0EE629AF5EE08
:102DC000401AF1EE10FA09D1B5EE402AF1EE10FAF0
:102DD00004D1F5EE402AF1EE10FA7ED069EE097AC0
:102DE0002AEEAA0A77EE807A29EEA90A37EE800A3F
:102DF000FFF7C2FE29EE009A6AEE80AA69EE809A79
:102E0000744BD3ED001A744B93ED007A21EE872AB0
:102E1000724BD3ED007A724BD3ED006A27EEA66AAF
:102E200032EE462A61EEA71A67EE266A71EEA61AFE
:102E300067EEA77AF6EE006A77EEE67A27EE077A73
:102E400077EE877A6AEEA76A29EEA17A76EEC76AEC
:102E500069EE829A69EE277A79EEE79A29EE219A4D
:102E60006AEE82AA39EE6A9A5E4B93ED007AB5EE6D
:102E7000C07AF1EE10FA40F3A48067EE265A5A4B5E
:102E8000D3ED007A65EEA75A584B93ED006A75EEC4
:102E9000865AC3ED005A27EE296A27EE866A544BFC
:102EA00093ED005A36EE056A83ED006A27EE097A43
:102EB00067EE877A4F4B93ED007A77EE877AC3ED12
:102EC000007A38EE258A78EE868A3AEE27AA38EE1E
:102ED000268A78EEA98A3AEE09AA434BD3ED007A06
:102EE000B6EE001A67EE817A27EE888A67EEA88A26
:102EF00027EE8A1A394F97ED007A364ED6ED000A42
:102F0000374D95ED000A20EEC8AA68EE807A3AEEB9
:102F100067AA314CD4ED007A67EE816A3AEE66AA70
:102F20003AEE07AA87ED00AA68EE079A61EE006AFA
:102F300079EEA69A67EEA86A79EEE69A79EEA09AFB
:102F4000C6ED009A28EE879A61EE206A39EE669AFD
:102F500067EE886A39EE269A39EE009A85ED009A76
:102F600021EE071A68EEA08A31EE281A28EE008AB0
:102F700031EE481A37EE818A84ED008A6AEE0A7AC9
:102F800029EEA90A77EE807A29EE090A77EE807A8F
:102F900028EE080A37EE800AFFF7EEFD2AEE00AAB7
:102FA00087ED00AA69EE809AC6ED009A29EE009A94
:102FB00085ED009A28EE001A84ED001ABDEC068B10
:102FC000F8BD0023094A1360094A1360094A1360D7
:102FD0007DE700BFD40E0020DC0E0020D00E0020C4
:102FE000D80E0020E40E0020C80E0020BC0E0020E9
:102FF000C00E0020C40E0020F0B52DED108B87B060
:10300000F0EE409AB0EE60AAB0EE41DAB0EE618A1E
:10301000F0EE42AAF0EE62BAF0EE438AB0EE63BA86
:10302000B0EE449AB5EE403AF1EE10FA0AD1F5EE60
:10303000403AF1EE10FA05D1B5EE404AF1EE10FA41
:1030400000F09D81B5EE408AF1EE10FA0AD1F5EE5E
:1030500040AAF1EE10FA05D1F5EE40BAF1EE10FA01
:1030600000F0158168EE087A2AEEAA0A77EE807AD7
:103070002BEEAB0A37EE800AFFF77EFD68EE006AA2
:10308000CDED026A6AEE805ACDED035A2BEE805ADE
:103090008DED045A68EEA87A2BEE0B0A77EE807A53
:1030A00029EE090A37EE800AFFF766FD68EE808A8E
:1030B0002BEE00BA29EE009AB64BD3ED007A27EE3C
:1030C000A77A8DED057AB44BD3ED00AA27EEAAFAC4
:1030D000B24B93ED008A67EE88FAB14BD3ED00CA8C
:1030E00067EEAC7A2AEEAACA2AEE887A6AEEACAA11
:1030F00068EE08EA28EE2C8A6CEEACCAB6EE00EA5E
:103100007EEE6EBA7BEEECBA2BEEA80A77EE67DAAB
:103110006DEE8B6A30EE260A3FEEAA6A8DED016AEB
:1031200066EE096A30EE260A30EE000A77EE877AFC
:1031300067EEA87A3EEE4CCA3CEE6C7A27EE0B7A2C
:1031400077EE877A38EE4F7A27EE097A77EE877A2C
:1031500077EEA77A20EE000A67EEA77A30EE270A0C
:1031600005F0B2FB7AEEEFAA6AEEA87A3FEE088A83
:1031700028EE0B7A77EE877A3CEE6ECA6CEE09EA9F
:1031800077EEAE7A77EEA77A9DED057A37EE4EEAC6
:103190007EEE2CCA6BEE80BA2AEEA77A7BEE87BA57
:1031A0006DEE80DA28EE277A7DEE87DA9DED016AF2
:1031B00026EE000A6CEE277A70EE277ADDED035AD0
:1031C00025EEAC7A9DED045A68EE056A77EE666AE4
:1031D0002BEE277A29EE2D6A37EE467A36EE877A7D
:1031E0006AEE852ADDED026A66EEACCA72EEECCAC2
:1031F00029EE2B9A68EEA77A39EE679A3CEE899A07
:1032000028EE268A6AEEA5AA38EE6A8A68EEAD8AAA
:103210002BEE2BBA78EECB8A38EE288A614BD3EDB1
:10322000006AF5EEC06AF1EE10FA40F3AB8066EE8C
:10323000875A5D4BD3ED007A65EEA75A5B4B93ED51
:10324000006A75EE865AC3ED005A26EE896A27EEAB
:10325000866A574B93ED005A36EE056A83ED006A95
:1032600066EE886A67EEA67A524BD3ED006A77EE77
:10327000A67AC3ED007A79EEA59A3AEE06AA3DEE5B
:1032800027DA79EE879A3AEE09AA3DEE08DA464B3C
:1032900093ED001AF6EE007A21EE271A61EE299AD4
:1032A00021EE0AAA21EE0DDA3A4F97ED001A3A4EB6
:1032B000D6ED000A394D95ED000A20EEE99A6AEE46
:1032C000007A39EE679A364CD4ED007A27EE8D7A83
:1032D00039EE479A39EE019A87ED009A69EE818AB4
:1032E0002DEE007A78EE878A27EE8A7A78EEC78A02
:1032F00078EEA08AC6ED008A2AEE018A2DEE207AA9
:1033000038EE478A27EEA97A38EE078A38EE008A27
:1033100085ED008A2DEE01DA2AEE20AA3DEE0ADACA
:1033200069EE809A3DEE69DA37EE8DDA84ED00DAE7
:1033300069EE097A28EEA80A77EE807A28EE080A64
:1033400077EE807A2DEE0D0A37EE800AFFF714FC37
:1033500029EE009A87ED009A68EE808AC6ED008A11
:1033600028EE008A85ED008A2DEE00DA84ED00DA81
:10337000114B00221A7007B0BDEC108BF0BDFFF7A7
:103380000FFDF8E70023094A1360094A1360094A50
:10339000136076E7D00E0020D40E0020D80E002057
:1033A000DC0E0020E40E0020C80E0020BC0E002021
:1033B000C00E0020C40E0020B80E0020F8B52DED80
:1033C000028B2C4ED6ED000A2B4C94ED000A20EE19
:1033D000800A2A4FD7ED007A294D95ED007A27EE25
:1033E000877A60EEA00AB6EE008A78EE600A67EE91
:1033F000A77A70EEE70A30EE070A05F063FA214B70
:1034000083ED000AD6ED007A95ED000A67EE807A2A
:1034100094ED000A97ED007A20EE070A77EEC07A65
:10342000B8EE000A27EE800A05F020FA164B83ED6D
:10343000000AD7ED000A96ED000A20EE800AD5EDCD
:10344000007A94ED007A27EE877A60EEA00A78EE93
:10345000600A67EEA77A70EEE70A30EE070A05F019
:1034600031FA0A4B83ED000A094B01221A70BDECB8
:10347000028BF8BDD40E0020D00E0020D80E002004
:10348000DC0E0020E00E0020CC0E0020E80E002014
:10349000B80E002008B5074B1B783BB1064B93EDE7
:1034A000000ADFED067A20EE270A08BDFFF786FF47
:1034B000F4E700BFB80E0020E00E0020E12E6542C8
:1034C00008B5074B1B783BB1064B93ED000ADFEDC7
:1034D000067A20EE270A08BDFFF770FFF4E700BF69
:1034E000B80E0020CC0E0020E12E654208B5074B37
:1034F0001B783BB1064B93ED000ADFED067A20EE18
:10350000270A08BDFFF75AFFF4E700BFB80E0020F6
:10351000E80E0020E12E6542074B1B68074AA2FB1C
:103520000312920C06490A70064AA2FB03239B0968
:10353000054A1360704700BF0800002083DE1B436C
:10354000F00E0020D34D6210EC0E002010B44FF0AE
:10355000E0235C690C4A92F800C000FB0CFC9B69FC
:10356000002104E0E01A02441144614509D21A46E0
:103570004FF0E0239B699A42FAD0F3D9D21A114452
:10358000F3E75DF8044B7047F00E002008B50D48D6
:103590000D4B03600323436000238360C3604FF43B
:1035A0003022026143610376012242768376C3763C
:1035B0000377437701F058F800B908BD00F01AFB13
:1035C000FBE700BFF80E00200064004008B50D487E
:1035D0000D4B03600323436000238360C3604FF4FB
:1035E0003022026143610376012242768376C376FC
:1035F0000377437701F038F800B908BD00F0FAFA14
:10360000FBE700BF200F00200068004010B58AB023
:1036100000230593069307930893099303683F4A91
:10362000934204D03E4A934236D00AB010BD3D4A80
:10363000136801331360012B21D0002401943A4B0D
:103640001A6B42F002021A631B6B03F00203019330
:10365000019B4FF4407305930223069303230893C1
:103660000923099305A9314801F098FE2246052156
:10367000142001F0E7FB142001F01CFCD5E7002327
:103680000093294B1A6C42F000721A641B6C03F011
:1036900000730093009BD0E700230293224B1A6C27
:1036A00042F080621A641B6C03F080630293029BF9
:1036B0001C4A136801331360012B21D000240494A9
:1036C000194B1A6B42F002021A631B6B03F00203E0
:1036D0000493049B4FF44053059302230693032362
:1036E00008930923099305A9104801F057FE2246C3
:1036F0000521412001F0A6FB412001F0DBFB94E70E
:1037000000230393084B1A6C42F000721A641B6C7E
:1037100003F000730393039BD0E700BF00640040F5
:1037200000680040F40E002000380240000402400F
:1037300010B582B000240194214B1A6B42F40012A0
:103740001A631B6B03F400130193019B22460521AE
:103750000B2001F077FB0B2001F0ACFB224605218A
:103760000D2001F06FFB0D2001F0A4FB2246052186
:103770000E2001F067FB0E2001F09CFB2246052184
:103780000F2001F05FFB0F2001F094FB2246052182
:10379000102001F057FB102001F08CFB2246052180
:1037A000112001F04FFB112001F084FB224605217E
:1037B0002F2001F047FB2F2001F07CFB02B010BD51
:1037C0000038024008B5012003F015FEFBE70000B9
:1037D00070B52DED028BFFF79FFE0220FDF738FA42
:1037E000002417E0611C6E48FDF71EFB022003F069
:1037F00002FE04EBC4039A006A4B1344D3ED087A2B
:10380000F5EE407AF1EE10FAECD0022003F0F3FD71
:103810000134E4B2032CECD9634B01221A70FEF799
:1038200085FB59E0614D95ED482A9FED618A5C4C1E
:10383000B1EE422AF0EE481AB0EE481AF0EE480A0D
:10384000B0EE480A01212046FDF770FA012003F08E
:10385000D2FD95ED492AB1EE422AF0EE481AB0EEBB
:10386000481AF0EE480AB0EE480A02212046FDF759
:103870005DFA012003F0BFFD4E4DB0EE480A012174
:103880002846FDF703FF4C4E96ED492AF0EE481A04
:10389000B0EE481AF0EE480AB0EE480A032120467E
:1038A000FDF744FA012003F0A6FD96ED482AF0EE5C
:1038B000481AB0EE481AF0EE480AB0EE480A042161
:1038C0002046FDF733FA012003F095FDB0EE480ADB
:1038D00002212846FDF7DAFE0121384801F050FEAA
:1038E000374B93ED017AF7EE007AB4EE677AF1EE9A
:1038F00010FA97D09FED2E8A294CB0EE482AF0EEB0
:10390000481AB0EE481AF0EE480AB0EE480A012113
:103910002046FDF70BFA012003F06DFDB0EE482ABA
:10392000F0EE481AB0EE481AF0EE480AB0EE480A37
:1039300002212046FDF7FAF9012003F05CFD1D4D40
:10394000B0EE480A01212846FDF7A0FEB0EE482A55
:10395000F0EE481AB0EE481AF0EE480AB0EE480A07
:1039600003212046FDF7E2F9012003F044FDB0EE0B
:10397000482AF0EE481AB0EE481AF0EE480AB0EEC7
:10398000480A04212046FDF7D1F9012003F033FD58
:10399000B0EE480A02212846FDF778FE9CE700BFFA
:1039A000F80E00207C080020480F00203C0A002070
:1039B00000000000B4190020640B00200008024041
:1039C0008C0C0020034B0360034B0B6080231360BF
:1039D000704700BF60110020600F002010B5A4B038
:1039E0002D4C0DF1740CA646BEE80F00ACE80F009C
:1039F0009EE807008CE8070000211DA803F0C6FC24
:103A0000264B18600DF1580C04F11C0EBEE80F0097
:103A1000ACE80F009EE807008CE80700002116A81C
:103A200003F0B4FC1E4B18600DF13C0C04F1380E91
:103A3000BEE80F00ACE80F009EE807008CE8070026
:103A400000210FA803F0A2FC164B18600DF1200C0A
:103A500004F1540EBEE80F00ACE80F009EE807002A
:103A60008CE80700002108A803F090FC0E4B1860BA
:103A70000DF1040E04F1700CBCE80F00AEE80F006D
:103A80009CE807008EE80700002101A803F07EFCF7
:103A9000064B186024B010BD549A00084C0F00204B
:103AA000540F00205C0F0020500F0020580F002002
:103AB0002DE9F0418AB000240594069407940894F7
:103AC00009940094424B1A6B42F004021A631A6B79
:103AD00002F004020092009A01941A6B42F08002F4
:103AE0001A631A6B02F080020192019A02941A6B17
:103AF00042F001021A631A6B02F001020292029A6A
:103B000003941A6B42F002021A631A6B02F002026B
:103B10000392039A04941A6B42F008021A631B6B17
:103B200003F008030493049B2A4E224648F2010145
:103B3000304601F01FFD284F22460B21384601F088
:103B400019FD4FF400430593012506954FF0020837
:103B5000CDF81C80089405A9304601F01FFC05959E
:103B600006950794089405A9304601F017FC0C232C
:103B700005934FF404130693079505A9304601F009
:103B80000DFC0323059306950794089405A9384670
:103B900001F004FC082605960695CDF81C800894D3
:103BA00005A9384601F0FAFB22460521304601F00E
:103BB00049F9304601F07EF922460521092001F03D
:103BC00041F9092001F076F90AB0BDE8F08100BFA3
:103BD00000380240000802400004024008B50268B4
:103BE000034B9A4200D008BD00F018FDFBE700BF70
:103BF0000000014072B6FEE700B595B03422002106
:103C000007A804F01FFB002302930393049305937A
:103C100006930093214A116C41F080511164126C9B
:103C200002F080520092009A01931D4B1A6842F4F0
:103C300040421A601B6803F440430193019B012337
:103C400007934FF48033089302230D934FF48002BF
:103C50000E9206220F92A82210921193072212921E
:103C6000139307A801F028FE98B90F2302930223AB
:103C70000393002304934FF4A05305934FF4805310
:103C80000693052102A801F093FC20B915B05DF858
:103C900004FBFFF7AFFFFFF7ADFF00BF00380240A6
:103CA0000070004008B500F09FFCFFF7A5FFFFF78C
:103CB000FFFEFFF73DFD00F041FA00F0BFFA00F013
:103CC0000FF800F079FAFFF761FCFFF77FFC00F0D6
:103CD000CFFA00F0E7FAFFF781FE03F052FBFEE7B0
:103CE00008B50F480F4B03604FF482734360002305
:103CF0008360C36002220261012242614FF40072BC
:103D000082613022C2610362436283620A23C3621A
:103D100002F09EF800B908BDFFF76CFFFBE700BF9B
:103D2000A01600200038004030B589B0002303936E
:103D3000049305930693079302682F4B9A4201D090
:103D400009B030BD04460025019503F500331A6C17
:103D500042F480421A641A6C02F480420192019A81
:103D600002951A6B42F002021A631B6B03F0020306
:103D70000293029B4FF444430393022304930323CF
:103D800006930523079303A91C4801F007FB1C4871
:103D90001C4B036045608560C5604FF48063036120
:103DA00045618561C5614FF440330362456201F0AE
:103DB0000FF9D8B9124BE3649C631348134B0360AB
:103DC0000023436040228260C3604FF4806202613E
:103DD00043618361C3614FF400320262436201F0C8
:103DE000F7F830B9084BA3649C63A9E7FFF702FF1B
:103DF000E0E7FFF7FFFEF5E700380040000402406F
:103E0000E01500205860024040160020706002401B
:103E100000B583B0002200920D4B596C41F48041F3
:103E20005964596C01F48041009100990192196C18
:103E300041F0805119641B6C03F080530193019B86
:103E40000F216FF0010000F0FDFF03B05DF804FBEF
:103E50000038024030B589B00546002401941E4B5D
:103E60005A6C42F001025A645B6C03F00103019347
:103E7000019B02A903A801F071FC01F05FFC430063
:103E80001648A0FB03239B0C013B1548154A026012
:103E900040F2E732C260436004618460846102F0F2
:103EA00053FB044610B1204609B030BD0C4802F067
:103EB000E7F904460028F6D1192000F0FBFF0F2D8A
:103EC00001D90124EFE700222946192000F0BAFFAA
:103ED000054B1D60E7E700BF0038024083DE1B434F
:103EE000F81600200000014010000020FEE7FEE769
:103EF000FEE7FEE7FEE7704708B5042001F04AFB45
:103F000008BD08B5082001F045FB08BD08B502480A
:103F100001F056F908BD00BF3418002008B502486A
:103F200001F04EF908BD00BFD417002008B50248C3
:103F300001F046F908BD00BFE015002008B50248B1
:103F400001F03EF908BD00BF4016002008B5024848
:103F500001F036F908BD00BFF418002008B502488A
:103F600001F02EF908BD00BF5419002008B5024821
:103F700000F031FE08BD00BFF80E002008B5024871
:103F800002F0C6F908BD00BFF816002010B5054CB8
:103F9000204602F0EBFF3223034A04492046FCF797
:103FA00081FF10BDB4190020A0090020F4180020E2
:103FB00008B5024801F004F908BD00BF94180020BC
:103FC00008B5024802F0D2FF08BD00BFFC1900206E
:103FD00010B5054C204602F0C9FF3223034A0449BC
:103FE0002046FCF75FFF10BD441A0020D4090020D2
:103FF0003418002008B5024800F0EDFD08BD00BFF0
:10400000200F002010B503460C4A0D490D480068EA
:1040100040B10C4800680344521A934206D8094A3A
:10402000136010BD0748084C0460F2E704F0E0F8A4
:104030000C2303604FF0FF30F3E700BF00000220C5
:10404000000400004017002020580020034AD2F846
:10405000883043F47003C2F88830704700ED00E008
:1040600082B00368B3F1804F04D00F4A93420ED060
:1040700002B07047002300930C4B1A6C42F001020F
:104080001A641B6C03F001030093009BF0E700230C
:104090000193064B1A6C42F002021A641B6C03F087
:1040A00002030193019BE3E7000400400038024053
:1040B00000B589B0002303930493059306930793F7
:1040C0000368B3F1804F05D0194A934219D009B063
:1040D0005DF804FB00230193164B1A6B42F00202B9
:1040E0001A631B6B03F002030193019B04230393E8
:1040F000022304930123079303A90F4801F04EF90B
:10410000E5E7002302930B4B1A6B42F002021A639D
:104110001B6B03F002030293029B202303930223F1
:104120000493079303A9044801F038F9CFE700BFCF
:1041300000040040003802400004024000B58BB08B
:104140000023089309930193029303930493059327
:104150000693079317484FF08042026043608360E4
:104160001D22C2600361836102F01AFAC8B90023FC
:104170000893099308A90F4802F076FBA0B96023C1
:10418000019300230293039305930C2201A909488C
:1041900002F06AFA58B90748FFF78AFF0BB05DF8DA
:1041A00004FBFFF727FDE2E7FFF724FDE7E7FFF752
:1041B00021FDF0E74417002000B58BB000230893E1
:1041C0000993019302930393049305930693079332
:1041D0001848194A02604360836041F28732C26026
:1041E0000361836102F0DCF9D0B9002308930993DD
:1041F00008A9104802F038FBA8B9602301930023F6
:1042000002930393059304220DEB0201094802F087
:104210002BFA58B90748FFF74BFF0BB05DF804FBCA
:10422000FFF7E8FCE1E7FFF7E5FCE6E7FFF7E2FC74
:10423000F0E700BF8C1700200004004008B50A48D2
:104240000A4B03604FF4E133436000238360C36093
:1042500003610C2242618361C36102F088FC00B9F2
:1042600008BDFFF7C7FCFBE7FC190020004C00402D
:1042700008B50A480A4B03604FF4E133436000235A
:104280008360C36003610C2242618361C36102F0F9
:104290006EFC00B908BDFFF7ADFCFBE7441A002037
:1042A0000050004008B50A480A4B03604FF4E13360
:1042B000436000238360C36003610C224261836119
:1042C000C36102F054FC00B908BDFFF793FCFBE7A3
:1042D000B4190020004400402DE9F0418CB00446A0
:1042E00000230793089309930A930B930368984A52
:1042F000934209D0974A93424BD0974A934200F099
:10430000C3800CB0BDE8F08100250095934B1A6C7A
:1043100042F400221A641A6C02F400220092009AFD
:1043200001951A6B42F004021A631B6B03F004033D
:104330000193019B4FF440630793022308930323E7
:104340000A9308230B9307A9854801F027F88548AD
:10435000854B03604FF0006343608560C5604FF498
:104360008063036145618561C5610562456200F056
:104370002FFE58B97B4BE3639C6300220521342058
:1043800000F060FD342000F095FDBAE7FFF732FC45
:10439000F0E700250295714B1A6C42F480121A6402
:1043A0001A6C02F480120292029A03951A6B42F080
:1043B00004021A631A6B02F004020392039A049532
:1043C0001A6B42F008021A631B6B03F00803049394
:1043D000049B4FF4805307934FF00208CDF82080E0
:1043E00003270A9708260B9607A95D4800F0D6FF19
:1043F00004230793CDF8208009950A970B9607A907
:104400005A4800F0CBFF5A485A4B03604FF0006304
:1044100043608560C5604FF48063036145618561D9
:10442000C5614FF480330362456200F0D1FD28BBC3
:104430004F4BE3639C635048504B03604FF0006365
:104440004360402383600023C3604FF480620261B5
:1044500043618361C3614FF480320262436200F0C2
:10446000B7FD70B9444BA3639C630022052135203E
:1044700000F0E8FC352000F01DFD42E7FFF7BAFB35
:10448000D6E7FFF7B7FBEDE700250595334B1A6C30
:1044900042F400321A641A6C02F400320592059A52
:1044A00006951A6B42F001021A631B6B03F00103BD
:1044B0000693069B0C2307930223089303230A9376
:1044C00007230B9307A92E4800F068FF2D482E4BB9
:1044D00003604FF0006343608560C5604FF4806304
:1044E000036145618561C5614FF400330362456234
:1044F00000F06EFD28BB234BE3639C632348244BF1
:1045000003604FF000634360402383600023C36077
:104510004FF48062026143618361C3614FF40032F2
:104520000262436200F054FD70B9184BA3639C63B0
:1045300000220521262000F085FC262000F0BAFC90
:10454000DFE6FFF757FBD6E7FFF754FBEDE700BFC9
:10455000004C004000500040004400400038024041
:1045600000080240D417002040600240000C0240C6
:10457000341800201060024094180020B8600240F7
:1045800000000240F4180020886002405419002006
:10459000A0600240DFF834D0FFF758FD0C480D4909
:1045A0000D4A002302E0D458C4500433C4188C428E
:1045B000F9D30A4A0A4C002301E013600432A242F4
:1045C000FBD303F01BFEFFF76DFB704700000220DA
:1045D000000000205C080020849F00086008002084
:1045E0001C580020FEE7000008B50B4B1A6842F487
:1045F00000721A601A6842F480621A601A6842F403
:1046000080721A60032000F00BFC0F20FFF722FCE1
:10461000FFF7FEFB002008BD003C0240034A116882
:10462000034B1B780B441360704700BF8C1A0020AB
:104630000C000020014B1868704700BF8C1A002046
:1046400038B50446FFF7F6FF0546B4F1FF3F02D048
:10465000044B1B781C44FFF7EDFF401BA042FAD32C
:1046600038BD00BF0C000020002800F0A18038B544
:10467000044690F82030D3B12268136843F0010358
:104680001360FFF7D7FF054623685A6812F0010F41
:1046900010D1FFF7CFFF401B0A28F5D9636A43F416
:1046A00000336362052384F82030012038BDFEF713
:1046B000ADFFE1E71A6822F002021A60FFF7BAFFC5
:1046C000054623685A6812F0020F0DD0FFF7B2FFBB
:1046D000401B0A28F5D9636A43F40033636205235B
:1046E00084F820300120E1E7227E012A3DD01A68BB
:1046F00022F080021A60637E012B3BD0226813688F
:1047000023F040031360A37E012B39D02268136885
:1047100023F020031360E37E012B37D02268136857
:1047200043F010031360237F012B35D022681368F8
:1047300023F008031360637F012B33D022681368D2
:1047400023F004031360A368E26813432269134350
:10475000626913436268013A21681343CB61002008
:104760006062012384F82030A0E71A6842F08002DA
:104770001A60C0E72268136843F040031360C2E781
:104780002268136843F020031360C4E722681368AB
:1047900023F010031360C6E72268136843F0080390
:1047A0001360C8E72268136843F004031360CAE784
:1047B0000120704790F82030013BDBB2012B05D976
:1047C000436A43F4802343620120704730B5464B6F
:1047D000D3F8002242F00102C3F80022D3F80022ED
:1047E00022F47C52C3F80022D3F80022486A42EA3D
:1047F0000022C3F800224A6902F01F02012000FAD9
:1048000002F2D3F81C026FEA020C20EA0200C3F89D
:104810001C02CB69C3B9344BD3F80C020CEA00007C
:10482000C3F80C028C884869CD6844EA05444830D6
:1048300043F830408C68088840EA04404C6904F131
:10484000480E03EBCE035860CB69012B1ED08B6959
:10485000002B33D12448D0F804320CEA0303C0F80B
:1048600004320B698BBB2048D0F814320CEA0303E6
:10487000C0F814320B6A012B2ED01B4AD2F800323A
:1048800023F00103C2F80032002030BD164BD3F8EC
:104890000C021043C3F80C028C8848690D6844EA86
:1048A0000544483043F8304088894C698D6840EAB7
:1048B0000540483403EBC4035860C8E70A48D0F801
:1048C00004321343C0F80432CBE70748D0F814325F
:1048D0001343C0F81432CDE70349D1F81C321A4310
:1048E000C1F81C22C9E700BF0064004070B504464F
:1048F00090F82050EDB2012D06D0436A43F4002316
:1049000043620125284670BD022380F820300268EA
:10491000136823F001031360FFF78CFE064623683B
:104920005B6813F0010F0CD0FFF784FE831B0A2B8A
:10493000F5D9636A43F400336362052384F82030B9
:10494000E0E700256562DDE730B590F820C0046837
:10495000A4680CF1FF3C5FFA8CFCBCF1010F62D83B
:1049600014F0E05F59D0C4F3016C012404FA0CF494
:104970001C608B68002B3DD10D68CB68046843EA4E
:1049800045550CF118031B01E55003680C690CF147
:10499000180E03EB0E135C600B7D012B35D0D17923
:1049A00093791B0443EA0163517943EA01231479A3
:1049B0000168234301EB0C11C1F88C31D178937855
:1049C0001B0443EA0163517843EA0123117802682A
:1049D0000B4302EB0C12C2F8883102680CF1180C80
:1049E0004FEA0C1C52F80C3043F0010342F80C3033
:1049F00000201DE04C6843EAC403CC6823430CF15B
:104A00001804240105682B51BFE7036803EB0E135C
:104A1000596841F480715960C1E7436A43F4001357
:104A20004362012004E0436A43F48023436201208F
:104A300030BD90F820C00CF1FF3C5FFA8CFCBCF15B
:104A4000010F00F2A58030B451B90468E46814F095
:104A5000030F10D1436A43F40013436201207EE048
:104A60000468246914F0030F05D1436A43F400136A
:104A70004362012073E0056801F11B0424012C59F5
:104A800004F004049460002C6BD1056801F11B0450
:104A900024012C59640D1460046801F11B0C4FEAC9
:104AA0000C1C54F80C4004F00204D4600468A444C4
:104AB000DCF8045015F0080F5BD008241461056879
:104AC00001F11B0C05EB0C156D68C5F3072595610D
:104AD000046804EB0C146468240C5461026802EB53
:104AE0000112D2F8B8211A70026802EB0112D2F852
:104AF000B821C2F307225A70026802EB0112D2F801
:104B0000B821C2F307429A70026802EB0112D2F890
:104B1000B821120EDA70026802EB0112D2F8BC2141
:104B20001A71026802EB0112D2F8BC21C2F307220B
:104B30005A71026802EB0112D2F8BC21C2F307429B
:104B40009A71026802EB0112D2F8BC21120EDA71DE
:104B5000C1B90268D36843F02003D360002030BCA1
:104B60007047056801F11B0424012C59E4085460C6
:104B700092E701F11B0504EB0514646804F00F04CF
:104B800014619CE70268136943F020031361E5E7B1
:104B9000436A43F4802343620120704790F8203039
:104BA000013BDBB2012B05D9436A43F48023436206
:104BB0000120704702685369194351610020704712
:104BC000704770477047704770477047704770472D
:104BD0007047704770472DE9F84F054603685C69D8
:104BE000D3F804809F68D3F80CB0D3F810A0D3F8A2
:104BF000189014F001063BD017F0010616D00122E0
:104C00009A6017F0020F08D117F0040F0CD117F0BB
:104C1000080606D04FF4805608E0FFF7D1FF0026C3
:104C200004E0FFF7D0FF01E04FF4006617F4807F47
:104C30000DD02B684FF480729A6017F4007F40F01B
:104C4000868017F4806F00F0868046F4005617F4D3
:104C5000803F0DD02B684FF480329A6017F4003FEC
:104C600040F0838017F4802F00F0838046F40046E4
:104C700014F0080F07D01BF0100F04D046F4007694
:104C80002B681022DA6014F0040F02D01BF0080F1A
:104C900079D114F0020F04D02B68DB6813F0030FF6
:104CA00078D114F0400F07D01AF0100F04D046F45A
:104CB00080662B6810221A6114F0200F02D01AF0BF
:104CC000080F6BD114F0100F04D02B681B6913F080
:104CD000030F6AD114F4003F02D018F0100F68D10E
:104CE00014F4803F02D018F0080F69D114F4004F7B
:104CF0007AD018F0040F74D014F4807F04D019F027
:104D0000010F01D046F0010614F4007F04D019F021
:104D1000020F01D046F0020614F4806F04D019F09F
:104D2000040F01D046F0040614F4006F59D019F0B6
:104D3000700956D0B9F1400F65D058D8B9F1200F9D
:104D40005ED0B9F1300F42D146F0200644E028464B
:104D5000FFF737FF7BE717F4006F02D046F4804679
:104D600075E72846FFF730FF71E72846FFF72AFF6F
:104D70007EE717F4002F02D046F4803678E7284605
:104D8000FFF723FF74E72B680822DA602846FFF755
:104D90001DFF7EE72846FBF79FFF82E72B6808226E
:104DA0001A612846FFF713FF8CE72846FBF7B4FF8C
:104DB00090E72B6810225A602846FFF709FF8FE71B
:104DC0002B6808225A602846FFF703FF8EE7B9F1E7
:104DD000100F01D146F008062A68936923F070038A
:104DE00093612B6804225A609EB9BDE8F88FB9F12F
:104DF000500F0BD0B9F1600FEED146F48076EBE79F
:104E000046F01006E8E746F04006E5E746F0800683
:104E1000E2E76B6A1E436E622846FFF7DBFEE4E7BB
:104E2000074AD36823F4E0631B041B0C000200F460
:104E3000E060034343F0BF6343F40033D360704743
:104E400000ED00E000B5194BDB68C3F30223C3F1AA
:104E5000070CBCF1040F28BF4FF0040C03F1040E43
:104E6000BEF1060F18D9033B4FF0FF3E0EFA0CFCC3
:104E700021EA0C0199400EFA03F322EA03031943D5
:104E800000280BDB0901C9B200F1604000F5614068
:104E900080F800135DF804FB0023E5E700F00F0045
:104EA0000901C9B2024B1954F4E700BF00ED00E05C
:104EB00014ED00E0002807DB00F01F024009012389
:104EC0009340024A42F82030704700BF00E100E002
:104ED00030B405682C6824F480242C600468636076
:104EE0008368402B05D0036899600368DA6030BCA2
:104EF000704703689A600368D960F8E710B40368E4
:104F0000D9B210390C4AA2FB014212090B4CA25C27
:104F1000C2655F2909D923F47F7323F003030433A7
:104F20008365806D5DF8044B704723F47F7323F035
:104F300003038365F5E700BFABAAAAAA549B000848
:104F4000836A826992B9012B0AD0022B02D00BB17D
:104F500000207047C36A13F0807F28D1002070477B
:104F6000C36AB3F1C07F24D000207047B2F5005F60
:104F700009D0022B25D9032B25D1C36A13F0807FDA
:104F800023D100207047032B03D8DFE803F014047B
:104F9000140A00207047C36A13F0807F0DD10020EF
:104FA0007047C36AB3F1C07F09D000207047012069
:104FB0007047012070470120704701207047012091
:104FC00070470120704700207047012070470000A3
:104FD00070B50446FFF72EFB002C5BD0054602237C
:104FE00084F83530002384F834302268136823F0C5
:104FF0000103136023681A6812F0010F0AD0FFF74B
:1050000019FB431B052BF5D920236365032084F886
:10501000350070BD1A68204810406168A2680A43D4
:10502000E1680A4321690A4361690A43A1690A43A5
:10503000E1690A43216A0A430243616A04291ED0D6
:105040001A602668756925F00705636A1D43042BFD
:1050500007D1A36A1D43E36A1BB12046FFF770FF27
:1050600090B975612046FFF749FFE26D3F239340F9
:10507000836000206065012384F83530C9E7E16A68
:10508000206B01430A43DBE740236365012084F87A
:105090003500BEE70120BCE73F8010F038B504467C
:1050A000856D90F8340001282BD0012084F834005D
:1050B00094F83500C0B2012804D0002384F83430BD
:1050C000022038BD022084F83500002060652046AB
:1050D000FFF7FEFEE26D3F239340AB60226813684A
:1050E00043F016031360236C23B12268136843F066
:1050F000080313602268136843F001031360002063
:10510000DFE70220DDE770B50446866DFFF792FA0F
:1051100094F83530DBB2022B06D080236365002380
:1051200084F83430012070BD05462268136823F0EE
:10513000160313602268536923F080035361236CC4
:10514000E3B12268136823F0080313602268136830
:1051500023F00103136023681B6813F0010F11D0C3
:10516000FFF768FA431B052BF5D92023636503205D
:1051700084F83500002384F83430D4E7A36C002B86
:10518000DFD1E3E7E26D3F239340B360012384F86E
:105190003530002084F83400C5E790F83530DBB2B4
:1051A000022B03D08023436501207047052380F83C
:1051B00035300268136823F0010313600020704744
:1051C000F0B583B0044600230193724B1D68724B07
:1051D000A3FB0535AD0A876D3E68C26D0823934079
:1051E000334210D003681A6812F0040F0BD01A680B
:1051F00022F004021A60C26D08239340BB60436D25
:1052000043F001034365E26D01239340334209D02B
:105210002268526912F0800F04D0BB60636D43F0C6
:1052200002036365E26D04239340334209D0226890
:10523000126812F0020F04D0BB60636D43F00403E8
:105240006365E26D10239340334224D022681268D4
:1052500012F0080F1FD0BB6023681A6812F4802F69
:105260000DD01B6813F4002F04D1236C9BB1204692
:10527000984710E0A36C73B1204698470BE01A687A
:1052800012F4807F03D11A6822F008021A60236C9E
:105290000BB120469847E26D20239340334255D00E
:1052A0002268126812F0100F50D0BB6094F83530AD
:1052B000DBB2052B0ED023681A6812F4802F33D08E
:1052C0001B6813F4002F2AD1636C002B3ED02046BC
:1052D00098473BE02268136823F0160313602268A6
:1052E000536923F080035361236CA3B122681368D0
:1052F00023F008031360E26D3F239340BB6001235A
:1053000084F83530002384F83430236D002B3FD0EF
:10531000204698473CE0A36C002BE7D1EBE7E36B1A
:10532000A3B12046984711E01A6812F4807F09D192
:105330001A6822F010021A60012384F83530002325
:1053400084F83430E36B0BB120469847636DFBB1B2
:10535000636D13F0010F17D0052384F835302268F0
:10536000136823F001031360019B01330193AB42E7
:1053700004D823681B6813F0010FF5D1012384F8CA
:105380003530002384F83430E36C0BB12046984765
:1053900003B0F0BD08000020B5814E1B00230F2B89
:1053A00000F2DE8070B582B060E085685E000324A4
:1053B000B44025EA0405CC68B4402C4384604568B9
:1053C00025EA02054C68C4F300129A402A43426061
:1053D0005AE0DC08083450F8246003F00702950016
:1053E0000F22AA4026EA020E0A69AA4042EA0E02E9
:1053F00040F824205CE0062200E0002202FA0EF2CF
:105400002A430234574D45F82420574A94686FEADE
:105410000C0224EA0C054E6816F4801F01D04CEAF9
:105420000405514CA560E46802EA04054E6816F4D0
:10543000001F01D04CEA04054B4CE560646802EAA9
:1054400004054E6816F4003F01D04CEA0405464CB2
:105450006560246822404D6815F4803F01D04CEA15
:105460000402414C226001330F2B77D801229A406D
:105470000C6804EA020C32EA0404F4D14C6804F02B
:105480000304013C012C90D94A6802F00302032A6C
:1054900009D0C4685D000322AA4024EA02048A6895
:1054A000AA402243C2604A6802F00302022A90D056
:1054B00004684FEA430E032202FA0EF224EA0204C1
:1054C0004A6802F0030202FA0EF2224302604A68BE
:1054D00012F4403FC7D000220192244A546C44F495
:1054E00080445464526C02F480420192019A9C08F8
:1054F000A51C1C4A52F8255003F003024FEA820E05
:105500000F2202FA0EF225EA0205194A90423FF4F0
:1055100074AF02F58062904216D002F5806290422C
:1055200014D002F58062904212D002F5806290425F
:1055300010D002F5806290420ED002F58062904257
:105540003FF459AF072259E7012257E7022255E7F6
:10555000032253E7042251E705224FE702B070BD52
:10556000704700BF00380140003C01400038024055
:10557000000002400AB181617047090481617047EF
:10558000436901EA030221EA030141EA0241816120
:105590007047704708B5054B5B69034200D108BDF1
:1055A000024B5861FFF7F5FFF9E700BF003C0140EF
:1055B000002800F09B8070B50D4604464F4B1B68D9
:1055C00003F00F038B4208D2CBB24C4A137013681E
:1055D00003F00F038B4240F08B80236813F0020F1F
:1055E00017D013F0040F04D0454A936843F4E053F6
:1055F0009360236813F0080F04D0414A936843F482
:10560000604393603E4A936823F0F003A1680B4324
:105610009360236813F0010F32D06368012B21D00F
:105620009A1E012A25D9364A126812F0020F61D05B
:1056300033498A6822F0030213438B60FEF7FAFFB6
:1056400006462F4B9B6803F00C036268B3EB820F96
:1056500016D0FEF7EFFF801B41F288339842F0D955
:10566000032042E0264A126812F4003FE0D10120F4
:105670003BE0234A126812F0007FD9D1012034E0C8
:105680001E4B1B6803F00F03AB4207D9EAB21B4B5A
:105690001A701B6803F00F03AB422DD1236813F07F
:1056A000040F06D0164A936823F4E053E1680B43D5
:1056B0009360236813F0080F07D0114A936823F40E
:1056C0006043216943EAC103936000F065F80C4B25
:1056D0009B68C3F303130B4AD35CD8400A4B186092
:1056E0000A4B1868FEF7B6FB002070BD012070471A
:1056F0000120FAE70120F8E70120F6E7003C02402C
:10570000003802403C9B00080800002010000020E8
:10571000014B1868704700BF0800002008B5FFF76C
:10572000F7FF044B9B68C3F38223034AD35CD84042
:1057300008BD00BF003802404C9B000808B5FFF7C9
:10574000E7FF044B9B68C3F34233034AD35CD84062
:1057500008BD00BF003802404C9B00080F230360C7
:105760000B4B9A6802F0030242609A6802F0F00262
:1057700082609A6802F4E052C2609B68DB0803F41E
:10578000E0530361034B1B6803F00F030B6070478A
:1057900000380240003C024008B5444B9B6803F0CF
:1057A0000C03082B07D00C2B43D0042B01D040480E
:1057B00008BD4048FCE73D4B5A6802F03F025B6879
:1057C00013F4800F12D0394B5968C1F3881139484E
:1057D0000023A1FB0001FAF7AFFF344B5B68C3F372
:1057E000014301335B00B0FBF3F0E1E72F4B596855
:1057F000C1F3881C4FEA4C11B1EB0C006EEB0E0E9E
:105800004FEA8E1343EA90638101091A63EB0E039A
:10581000DB0043EA5173C90011EB0C0C43F10003A8
:10582000990200234FEA8C2041EA9C51FAF784FF49
:10583000D3E71E4B5A6802F03F025B6813F4800FF7
:1058400010D01A4B5968C1F388111A480023A1FBE4
:105850000001FAF771FF154B5B68C3F30273B0FBED
:10586000F3F0A5E7114B5968C1F3881C4FEA4C11BE
:10587000B1EB0C006EEB0E0E4FEA8E1343EA906311
:105880008101091A63EB0E03DB0043EA5173C9007F
:1058900011EB0C0C43F10003990200234FEA8C201A
:1058A00041EA9C51FAF748FFD5E700BF00380240B3
:1058B0000024F400001BB700002800F0018270B53E
:1058C00082B00446036813F0010F41D0994B9B68E6
:1058D00003F00C03042B32D0964B9B6803F00C03AF
:1058E000082B27D0934B9B6803F00C030C2B59D04B
:1058F0006368B3F5803F5BD0B3F5A02F5ED08D4BCE
:105900001A6822F480321A601A6822F480221A601F
:105910006368002B5CD0FEF78DFE0546854B1B6847
:1059200013F4003F14D1FEF785FE401B6428F5D91F
:105930000320CCE17F4B5B6813F4800FD2D07D4B0A
:105940001B6813F4003F03D06368002B00F0BA819A
:10595000236813F0020F60D0764B9B6813F00C0F96
:105960004AD0744B9B6803F00C03082B3FD0714B5B
:105970009B6803F00C030C2B69D0E368002B75D0F7
:105980006D4B01221A60FEF755FE0546694B1B68F8
:1059900013F0020F61D1FEF74DFE401B0228F5D92E
:1059A000032094E1634B5B6813F4800FA0D0C6E73B
:1059B000604A136843F480331360A9E75D4B1A68AB
:1059C00042F480221A601A6842F480321A609FE71B
:1059D000FEF730FE0546574B1B6813F4003FB7D067
:1059E000FEF728FE401B6428F5D903206FE1514BD8
:1059F0005B6813F4800FBAD14E4B1B6813F0020F93
:105A000003D0E368012B40F05F814A4A136823F01A
:105A1000F803216943EAC1031360236813F0080FF8
:105A200049D06369002B33D0434B0122C3F8802E49
:105A3000FEF700FE05463F4B5B6F13F0020F3AD1B5
:105A4000FEF7F8FD401B0228F5D903203FE1394B52
:105A50005B6813F4800F90D1CEE7364A136823F0C9
:105A6000F803216943EAC1031360D6E7324B0022F1
:105A70001A60FEF7DFFD05462E4B1B6813F0020F80
:105A8000CBD0FEF7D7FD401B0228F5D903201EE13D
:105A9000294B0022C3F8802EFEF7CCFD0546254B8E
:105AA0005B6F13F0020F06D0FEF7C4FD401B022807
:105AB000F5D903200BE1236813F0040F76D01D4BBA
:105AC0001B6C13F0805F33D100230193194B1A6CC8
:105AD00042F080521A641B6C03F080530193019BC7
