:020000040800F2
:1000000000000220414A0008954600089746000873
:10001000994600089B4600089D4600080000000025
:10002000000000000000000000000000B19A00087D
:100030009F46000800000000519B0008B59B000887
:10004000914A0008914A0008914A0008914A000824
:10005000914A0008914A0008914A0008914A000814
:10006000A1460008AB460008914A0008914A0008E2
:10007000914A0008B5460008C5460008D946000860
:10008000914A0008914A0008914A0008914A0008E4
:10009000914A0008914A0008914A0008914A0008D4
:1000A000914A0008E9460008914A0008914A000870
:1000B000914A0008914A0008914A0008914A0008B4
:1000C000914A0008914A0008914A0008914A0008A4
:1000D000914A0008914A0008914A0008914A000894
:1000E000914A0008914A0008914A0008914A000884
:1000F000914A0008914A0008914A0008914A000874
:10010000914A0008914A0008914A0008914A000863
:10011000F9460008914A0008914A0008914A0008EF
:10012000914A0008914A0008914A0008914A000843
:10013000914A00080000000000000000914A0008F9
:10014000914A0008914A0008914A000809470008AE
:10015000914A0008914A0008914A0008914A000813
:10016000914A0008914A0008914A0008914A000803
:10017000914A0008914A0008914A000800000000D6
:1001800000000000914A000800000000000000008C
:10019000914A00080000000000000000914A000899
:1001A000000000000000000000000000914A00086C
:1001B000914A0008914A0008914A0008914A0008B3
:0401C000914A000858
:1001D00010B5054C237833B9044B13B10448AFF381
:1001E00000800123237010BD700900200000000072
:1001F000CCC4000808B5034B1BB103490348AFF357
:10020000008008BD0000000074090020CCC4000874
:1002100053B94AB9002908BF00281CBF4FF0FF316D
:100220004FF0FF3000F074B9ADF1080C6DE904CE69
:1002300000F006F8DDF804E0DDE9022304B07047C1
:100240002DE9F047089D04468E46002B4DD18A4289
:10025000944669D9B2FA82F252B101FA02F3C2F1BC
:10026000200120FA01F10CFA02FC41EA030E94404D
:100270004FEA1C48210CBEFBF8F61FFA8CF708FB6E
:1002800016E341EA034306FB07F199420AD91CEB46
:10029000030306F1FF3080F01F81994240F21C8178
:1002A000023E63445B1AA4B2B3FBF8F008FB1033C0
:1002B00044EA034400FB07F7A7420AD91CEB0404F5
:1002C00000F1FF3380F00A81A74240F207816444C5
:1002D000023840EA0640E41B00261DB1D44000234A
:1002E000C5E900433146BDE8F0878B4209D9002DAE
:1002F00000F0EF800026C5E9000130463146BDE838
:10030000F087B3FA83F6002E4AD18B4202D38242A1
:1003100000F2F980841A61EB030301209E46002D50
:10032000E0D0C5E9004EDDE702B9FFDEB2FA82F2A5
:10033000002A40F09280A1EB0C014FEA1C471FFA03
:100340008CFE0126200CB1FBF7F307FB131140EAEA
:1003500001410EFB03F0884208D91CEB010103F1B7
:10036000FF3802D2884200F2CB804346091AA4B279
:10037000B1FBF7F007FB101144EA01440EFB00FE4D
:10038000A64508D91CEB040400F1FF3102D2A645B2
:1003900000F2BB800846A4EB0E0440EA03409CE751
:1003A000C6F12007B34022FA07FC4CEA030C20FAFE
:1003B00007F401FA06F31C43F9404FEA1C4900FA1E
:1003C00006F3B1FBF9F8200C1FFA8CFE09FB18119B
:1003D00040EA014108FB0EF0884202FA06F20BD90E
:1003E0001CEB010108F1FF3A80F08880884240F25E
:1003F0008580A8F102086144091AA4B2B1FBF9F0A2
:1004000009FB101144EA014100FB0EFE8E4508D99C
:100410001CEB010100F1FF346CD28E456AD9023821
:10042000614440EA0840A0FB0294A1EB0E01A14206
:10043000C846A64656D353D05DB1B3EB080261EB74
:100440000E0101FA07F722FA06F3F1401F43C5E94E
:10045000007100263146BDE8F087C2F12003D84084
:100460000CFA02FC21FA03F3914001434FEA1C47C6
:100470001FFA8CFEB3FBF7F007FB10360B0C43EAB8
:10048000064300FB0EF69E4204FA02F408D91CEB68
:10049000030300F1FF382FD29E422DD90238634466
:1004A0009B1B89B2B3FBF7F607FB163341EA034106
:1004B00006FB0EF38B4208D91CEB010106F1FF3855
:1004C00016D28B4214D9023E6144C91A46EA00464C
:1004D00038E72E46284605E70646E3E61846F8E6DE
:1004E0004B45A9D2B9EB020864EB0C0E0138A3E727
:1004F0004646EAE7204694E74046D1E7D0467BE708
:10050000023B614432E7304609E76444023842E77F
:10051000704700BF844641EA000313F003036DD126
:10052000403A41D351F8043B40F8043B51F8043BB6
:1005300040F8043B51F8043B40F8043B51F8043BBD
:1005400040F8043B51F8043B40F8043B51F8043BAD
:1005500040F8043B51F8043B40F8043B51F8043B9D
:1005600040F8043B51F8043B40F8043B51F8043B8D
:1005700040F8043B51F8043B40F8043B51F8043B7D
:1005800040F8043B51F8043B40F8043B51F8043B6D
:1005900040F8043B51F8043B40F8043B51F8043B5D
:1005A00040F8043B403ABDD2303211D351F8043BFD
:1005B00040F8043B51F8043B40F8043B51F8043B3D
:1005C00040F8043B51F8043B40F8043B103AEDD2AC
:1005D0000C3205D351F8043B40F8043B043AF9D2FD
:1005E000043208D0D2071CBF11F8013B00F8013BD0
:1005F00001D30B8803806046704700BF082A13D3DD
:100600008B078DD010F003038AD0C3F10403D21AF4
:10061000DB071CBF11F8013B00F8013B80D331F828
:10062000023B20F8023B7BE7043AD9D3013A11F8A8
:10063000013B00F8013BF9D20B7803704B78437013
:100640008B78837060467047002380F840300368E1
:100650001A6812F0080F09D06FF008021A600368D8
:100660001A685A68DA6842F01002DA6070470000CF
:1006700070B50E46154648B1114B93FBF0F3114A85
:1006800012689BB2013B9362002409E00D4B1B688A
:1006900000229A62F8E75A2004F028FA0134E4B202
:1006A000B442F8D3074B1B6800249C6204E05A2034
:1006B00004F01CFA0134E4B2AC42F8D370BD00BFC0
:1006C00080B92A00CC12002010B52F4C0C212046F6
:1006D00006F026FF236814221A640122042140F246
:1006E0001640FFF7C5FF012204214FF46970FFF7A0
:1006F000BFFF0022012140F21640FFF7B9FF0022A0
:10070000022140F2DD40FFF7B3FF0022032140F257
:100710007550FFF7ADFF012211464FF4B960FFF7A6
:10072000A7FF012211460020FFF7A2FF0122114678
:100730004FF4C460FFF79CFF012211464FF4C460E0
:10074000FFF796FF012211464FF4C460FFF790FFB8
:10075000012211464FF4F760FFF78AFF012211468C
:100760004FF4F760FFF784FF012211464FF4F76062
:10077000FFF77EFF012211464FF4F760FFF778FF85
:10078000236800221A6410BDCC120020B0B1AAB1B7
:10079000017011684160516881609268C26080EDAB
:1007A000040AC0ED050A002282634263026302620A
:1007B000C2628262426242640264C26370470000A5
:1007C00010B596B04C1CA4002246104901A8FFF7B2
:1007D000A1FE04F154036B44002203F8542C04F1ED
:1007E00055036B4403F8542C04F156036B448022E8
:1007F00003F8542C04F157036B447F2203F8542C64
:10080000214601A809F0FEFF16B010BD8C0900209A
:1008100008B50E4AD1690E4B1960116A5960526AC7
:100820009A600C4A1169D9600B481861D961516806
:10083000196291685962D2689A6214210748FFF7D9
:10084000BFFF022009F090F8E3E700BF200A002074
:100850008C090020F009002000002042BC13002079
:1008600008B54A4B1B7813F0010F17D0484B9B6C0F
:100870001B681B6813F0010F10D1454BDB6C1B6824
:100880001B6813F0010F09D1424B1B7813F0020FC4
:1008900004D1414B1B7813F0020F3AD03D4B1B782B
:1008A00013F0010F17D03A4B9B6C1B681B6813F0B9
:1008B000010F10D1364BDB6C1B681B6813F0010F66
:1008C00009D1324B1B7813F0020F04D1324B1B7845
:1008D00013F0020F31D0304B1B7813F0010F17D0FB
:1008E0002B4B9B6C1B681B6813F0010F10D1284B1E
:1008F000DB6C1B681B6813F0010F09D1234B1B78BD
:1009000013F0020F04D1234B1B7813F0020F28D0F1
:1009100008BD1E4B1A7802F0FE021A701A7842F0D7
:1009200002021A70002201211C4804F053FC082224
:100930001B491C4801F048FDEAE7164B1A7802F003
:10094000FE021A701A7842F002021A700022022186
:10095000124804F03FFC09221349144801F034FD09
:10096000D6E70D4B1A7802F0FE021A701A7842F0A0
:1009700002021A7000220221084804F02BFC042213
:100980000B490C4801F020FDC2E700BF1C0A002003
:1009900028120020ED090020EC090020000402408C
:1009A000140A002010000020DC09002000000020B4
:1009B000E80900200C00002010B5044600F066FF96
:1009C000DFED071AF0EE612AB0EE612A94ED021A0B
:1009D000D4ED010A94ED000A00F0AAFF10BD00BF9B
:1009E0000000000010B59FED283AB0EE434AF0EE4B
:1009F000433AD1ED022A91ED012AD1ED001A90ED92
:100A0000021AD0ED010A90ED000A01F0B1F901F0EF
:100A100091FB01F011FC1D4C84ED070A01F0F6FB7F
:100A200084ED080A01F01EFC84ED090AD4ED0F7A6A
:100A30009FED177A77EE877AC4ED0F7AE369A362A8
:100A4000236AE36230EE670A84ED0C0ADFED117A67
:100A5000B4EEE70AF1EE10FA06D5DFED0F7A30EECC
:100A6000270A84ED0C0A10BDDFED0C7AB4EEE70A1C
:100A7000F1EE10FAF7DDDFED087A30EE670A034B8E
:100A800083ED0C0AEFE700BF00000000200A002001
:100A900049926938000034C30000B4430000344375
:100AA00000B585B004210A4806F03AFD094A01ABB9
:100AB00007CA83E80700DFED080A9FED080A1A4617
:100AC00001210748FFF762FE05B05DF804FB00BF97
:100AD00014130020E4C400080000484400389C457A
:100AE000600A002008B500F071FD0028FBD12C48F9
:100AF00000F110042246011D143000F075FD20465F
:100B00009FED280AFFF758FFFFF7CAFF264810237A
:100B1000C36106F07BF840B908222449244801F05B
:100B2000C9FB244B01221A702AE003F03FFCF3E7D3
:100B3000214A137803F0F70313702049204800F08E
:100B400073FE22E01F4A137803F0FB03137014496D
:100B500001F1200204311C4800F01EFE1AE01B4A7D
:100B6000137803F0FB03137019491A4800F0FAFDDB
:100B70000B48011D1430FFF735FF022008F0F4FE8A
:100B80000D4B1B7813F0080FD2D10E4B1B7813F0CE
:100B9000040FD7D10D4B1B7813F0040FDFD1E7E71B
:100BA000F00900200000FA4328120020140A002057
:100BB00010000020A80A00201C0A0020040A0020BF
:100BC000150A0020ED090020DE090020EC090020B4
:100BD000000A0020EA09002008B5AD4BDB6C1B6859
:100BE000AC4A934240F29D80583A5268AA498B42DF
:100BF00031D001F580618B4278D0A1F568718B42CC
:100C000076D001F580618B4274D0A1F589618B4269
:100C100072D001F580618B4271D0A1F568718B4271
:100C200070D001F580618B426FD0A1F589618B4254
:100C30006ED001F580618B426DD0A1F568718B4259
:100C40006CD001F580618B4202D04FF0006103E06F
:100C50004FF4001100E020210A4214BF01220022BB
:100C6000002A00F091818B4A934240F2A981A2F5BB
:100C70008962934200F0718102F58062934200F034
:100C80008481A2F56872934200F0818102F580624E
:100C9000934200F07E81A2F58962934200F07B814D
:100CA00002F58062934200F07981A2F56872934266
:100CB00000F0778102F58062934200F07581A2F521
:100CC0008962934200F0738102F58062934200F0E2
:100CD0007181A2F56872934200F06F8102F5806223
:100CE000934200F037814FF0006237E12021B3E7F3
:100CF0002021B1E72021AFE74FF40061ACE74FF4CA
:100D00000061A9E74FF40061A6E74FF40061A3E793
:100D10004FF40011A0E74FF400119DE74FF40011CC
:100D20009AE75E4A934258D902F5527212685A49BC
:100D30008B4231D001F580618B4233D0A1F56871CF
:100D40008B4231D001F580618B422FD0A1F58961B2
:100D50008B422DD001F580618B422CD0A1F56871BA
:100D60008B422BD001F580618B422AD0A1F589619D
:100D70008B4229D001F580618B4228D0A1F56871A2
:100D80008B4227D001F580618B4202D04FF0006189
:100D900003E04FF4001100E020210A4214BF0122B9
:100DA00000225DE72021F8E72021F6E72021F4E783
:100DB0004FF40061F1E74FF40061EEE74FF400619A
:100DC000EBE74FF40061E8E74FF40011E5E74FF47B
:100DD0000011E2E74FF40011DFE7314A934261D995
:100DE000583A52682C498B4231D001F580618B42D0
:100DF00033D0A1F568718B4231D001F580618B420F
:100E00002FD0A1F589618B422DD001F580618B42F5
:100E10002CD0A1F568718B422BD001F580618B42FB
:100E20002AD0A1F589618B4229D001F580618B42DE
:100E300028D0A1F568718B4227D001F580618B42E3
:100E400002D04FF0006103E04FF4001100E02021D8
:100E50000A4214BF0122002202E72021F8E72021E4
:100E6000F6E72021F4E74FF40061F1E74FF4006169
:100E7000EEE74FF40061EBE74FF40061E8E74FF471
:100E80000011E5E74FF40011E2E74FF40011DFE74E
:100E9000281200205864024010600240B8600240EE
:100EA000586002409D4A12689D498B4231D001F53D
:100EB00080618B4233D0A1F568718B4231D001F54E
:100EC00080618B422FD0A1F589618B422DD001F535
:100ED00080618B422CD0A1F568718B422BD001F53B
:100EE00080618B422AD0A1F589618B4229D001F51E
:100EF00080618B4228D0A1F568718B4227D001F523
:100F000080618B4202D04FF0006103E04FF400118A
:100F100000E020210A4214BF01220022A0E6202185
:100F2000F8E72021F6E72021F4E74FF40061F1E72C
:100F30004FF40061EEE74FF40061EBE74FF400611E
:100F4000E8E74FF40011E5E74FF40011E2E74FF452
:100F50000011DFE74FF4001200E02022714BDA604D
:100F6000714B1B7813F0020F40F03C816F4B1B78E4
:100F700013F0020F40F045816D4B1B7813F0020F08
:100F800040F04E81FFF76CFC08BD2022E6E72022EE
:100F9000E4E72022E2E74FF40062DFE74FF400626B
:100FA000DCE74FF40062D9E74FF40062D6E74FF474
:100FB0000012D3E74FF40012D0E74FF40012CDE750
:100FC0005C4A934253D9A83A934231D002F58062E9
:100FD000934231D0A2F5687293422FD002F580621D
:100FE00093422DD0A2F5896293422BD002F5806204
:100FF00093422AD0A2F56872934229D002F580620A
:10100000934228D0A2F58962934227D002F58062EC
:10101000934226D0A2F56872934225D002F58062F1
:10102000934202D04FF0006203E04FF4001200E060
:1010300020223C4B9A6093E72022FAE72022F8E72F
:101040002022F6E74FF40062F3E74FF40062F0E786
:101050004FF40062EDE74FF40062EAE74FF400124C
:10106000E7E74FF40012E4E74FF40012E1E7324AF9
:10107000934263D9483A934231D002F58062934259
:1010800031D0A2F5687293422FD002F5806293426C
:101090002DD0A2F5896293422BD002F58062934253
:1010A0002AD0A2F56872934229D002F58062934259
:1010B00028D0A2F58962934227D002F5806293423C
:1010C00026D0A2F56872934225D002F58062934241
:1010D00002D04FF0006203E04FF4001200E0202243
:1010E0000E4BDA603CE72022FAE72022F8E72022C4
:1010F000F6E74FF40062F3E74FF40062F0E74FF4D5
:101100000062EDE74FF40062EAE74FF40012E7E710
:101110004FF40012E4E74FF40012E1E700600240F0
:1011200010600240006402401C0A0020ED0900200B
:10113000EC090020B860024058600240404A9342E7
:1011400031D002F58062934231D0A2F568729342A9
:101150002FD002F5806293422DD0A2F5896293428E
:101160002BD002F5806293422AD0A2F56872934296
:1011700029D002F58062934228D0A2F58962934279
:1011800027D002F58062934226D0A2F5687293427E
:1011900025D002F58062934202D04FF0006203E056
:1011A0004FF4001200E02022264B9A60D8E620225D
:1011B000FAE72022F8E72022F6E74FF40062F3E78F
:1011C0004FF40062F0E74FF40062EDE74FF4006285
:1011D000EAE74FF40012E7E74FF40012E4E74FF4B8
:1011E0000012E1E7184B1A7802F0FD021A701A7823
:1011F00042F004021A7001221146144803F0EAFF7B
:10120000B4E6134B1A7802F0FD021A701A7842F015
:1012100004021A70012202210C4803F0DBFFABE646
:101220000C4B1A7802F0FD021A701A7842F0040290
:101230001A7001220221054803F0CCFFA2E600BF8C
:1012400010600240006002401C0A002000040240BE
:10125000ED090020EC09002008B5042802D0082878
:1012600011D008BD0E4A137843F0010313700D4AE4
:10127000137843F0010313700B4B1B78002BF0D055
:10128000FFF7EEFAEDE7094A137843F00103137014
:10129000054B1B78002BE4D0FFF7E2FAE1E700BF33
:1012A000ED090020EC090020A80A00201C0A0020FB
:1012B0007047704710B44FF0E0235C694FF0A80C02
:1012C0000CFB00FC9B69002104E0E01A024411447D
:1012D000614509D21A464FF0E0239B699A42FAD041
:1012E000F3D9D21A1144F3E75DF8044B704710B5F7
:1012F00004E04FF47A70FFF7DDFF2046431E9CB2F6
:101300000028F6D110BD000008B5002202210248D5
:1013100003F060FF08BD00BF0004024008B50122D1
:101320000221024803F056FF08BD00BF000402403E
:1013300008B500220121024803F04CFF08BD00BFA0
:101340000004024008B501221146024803F042FFA2
:1013500008BD00BF0004024000B587B08DF80F0043
:101360004FF47A73009301230DF117020DF10F0171
:10137000034805F0AAFC9DF8170007B05DF804FBD0
:101380002812002010B50C46FFF7E6FF2046FFF7B5
:10139000E3FF10BD10B50C4640F08000FFF7DCFF06
:1013A0005520FFF7D9FF207010BD38B50D46144603
:1013B00040F08000FFF7D0FF06E05520FFF7CCFF9C
:1013C00005F8010B013CE4B2002CF6D138BD000059
:1013D000F8B5FFF799FF8020FFF7BEFF5520FFF714
:1013E000BBFF5520FFF7B8FFFFF798FF9620FFF7E8
:1013F00061FFFFF789FF8020FFF7AEFF5520FFF761
:10140000ABFF5520FFF7A8FFFFF788FF9620FFF7F7
:1014100051FFFFF779FFB6217E20FFF7B3FFFFF7FB
:101420007DFF5020FFF763FFFFF76EFF8020FFF77F
:1014300093FF5520FFF790FF5520FFF78DFFFFF733
:101440006DFF9620FFF736FFFFF75EFF8020FFF766
:1014500083FF5520FFF780FF5520FFF77DFF0446EF
:10146000FFF75CFF9620FFF725FF1E2C32D10024EA
:10147000052C2DD8FFF748FF174A04EB4403D11879
:101480004E78D55C31462846FFF77CFFFFF746FFD4
:101490009620FFF70FFFFFF737FF45F08000FFF7BB
:1014A0005BFF5520FFF758FF5520FFF755FF054616
:1014B000FFF734FF9620FFF7FDFEAE4202D1013464
:1014C000E4B2D5E704EB4407034B1F44B87800E0CF
:1014D0000020F8BDFF20FCE768C50008F0B583B028
:1014E00000248DF80740FFF723FF0DF10701204688
:1014F000FFF750FFFFF726FF9620FFF7DBFEFFF711
:1015000017FF0DF107012046FFF744FFFFF71AFF11
:101510009620FFF7CFFEFFF70BFFB6211420FFF751
:1015200031FFFFF70FFF5020FFF7E1FEFFF700FF4D
:101530000DF107012046FFF72DFFFFF703FF96206F
:10154000FFF7B8FEFFF7F4FE0DF107012046FFF7A5
:1015500021FFFFF7F7FE9620FFF7ACFE9DF807305E
:101560000F2B2ED1052C29D8FFF7E2FE164A04EBEB
:101570004403D1184D78D65C29463046FFF702FF68
:10158000FFF7E0FE9620FFF795FEFFF7D1FE0DF185
:1015900007013046FFF7FEFEFFF7D4FE9620FFF767
:1015A00089FE9DF807309D4202D10134E4B2D9E7AB
:1015B00004EB4407044B1F44B87800E0002003B05C
:1015C000F0BDFF20FBE700BF7CC5000810B5FFF7AA
:1015D0006FFEFFF76EFEFFF7FBFE0446FFF77EFF90
:1015E0002043C0B210BD0000F0B583B006460D46E2
:1015F0001446594B93E803000090ADF80410090C11
:101600008DF8061000278DF80770FFF77DFE9220F9
:10161000FFF7A2FE062269461220FFF7C6FEFFF77B
:101620007DFE9DF801301B021BB29DF80020134384
:1016300007EE903AF8EEE77A484A92ED007A67EEC4
:10164000877AC5ED007A9DF803301B021BB29DF826
:1016500002100B4307EE103AD2ED006AB8EEC77ADB
:1016600027EE267A85ED017A9DF805301B021BB224
:101670009DF80420134307EE903AF8EEE77A67EE00
:10168000A67AC5ED027AFFF753FE0822694638466E
:10169000FFF78BFEFFF756FE9DF800300F2B27D08B
:1016A000FFF732FEA220FFF757FE022269462220F2
:1016B000FFF77BFEFFF732FE9DF800209DF801301A
:1016C0005B0943EAC203B3F5806F01DBA3F5006356
:1016D00007EE903AF8EEE77AB4EE007A67EE877A92
:1016E000B3EE077A77EE877AC4ED007A03B0F0BDE7
:1016F0009DF803301B021BB29DF80220134307EE36
:10170000903AF8EEE77A164A92ED007A67EE877A19
:10171000C6ED007A9DF805301B021BB29DF804103F
:101720000B4307EE103AD2ED006AB8EEC77A27EE07
:10173000267A86ED017A9DF807301B021BB29DF8D0
:101740000620134307EE903AF8EEE77A67EEA67AA2
:10175000C6ED027AA4E700BFF0C40008180000201C
:101760001C000020027843785B0943EAC203B3F50A
:10177000806F01DBA3F5006307EE903AF8EEE77A9D
:10178000B4EE007A67EE877AB3EE077A77EE877A5F
:10179000C1ED007A7047000010B443781B021BB201
:1017A0000478234307EE903AF8EEE77A1C4C94ED68
:1017B000007A67EE877AC1ED007AC3781B021BB20C
:1017C00090F802C043EA0C0307EE103AD4ED006A29
:1017D000B8EEC77A27EE267A81ED017A43791B02AB
:1017E0001BB20479234307EE903AF8EEE77A67EEEE
:1017F000A67AC1ED027A017AC3791B0243EA01435A
:1018000081790B4307EE903AF8EE677A9FED057AFF
:1018100067EE877AC2ED007A5DF8044B704700BF2F
:101820001800002000401C4243781B021BB20278C3
:10183000134307EE903AF8EEE77A134A92ED007AF6
:1018400067EE877AC1ED007AC3781B021BB290F86D
:1018500002C043EA0C0307EE103AD2ED006AB8EE7C
:10186000C77A27EE267A81ED017A43791B021BB2F3
:101870000279134307EE903AF8EEE77A67EEA67A1C
:10188000C1ED027A704700BF1C00002000230E4A01
:101890001360F7EE007A0D4AC2ED007A0C4A13602D
:1018A0000C4A13600C4A13600C4A13600C4A136014
:1018B0000C4A13600C4B00221A7087EE807A0B4B97
:1018C00083ED007A704700BFD40A0020C00A0020D0
:1018D000C40A0020C80A0020CC0A0020AC0A00205C
:1018E000B00A0020B40A0020A90A0020B80A00208B
:1018F000B6EE007A20EE077A10EE102A0B4BA3EB1F
:10190000620307EE903A27EE870A27EE800AF7EE89
:10191000086A36EEC00A67EE807A27EE877A27EEED
:10192000877A36EEC70A27EE800A7047DF59375F9D
:10193000F8B52DED0A8BB0EE409AF0EE608AB0EE6D
:10194000418AB0EE61BAB0EE42AAB0EE62CA60EE71
:10195000007A20EEA00A77EE807A21EE010A37EEB7
:10196000800AFFF7C5FF29EE009A68EE808A28EE0C
:10197000008A6BEE0B7A2AEE0A0A77EE807A2CEE5A
:101980000C0A37EE800AFFF7B3FF2BEE00BA6AEEBF
:1019900000AA2CEE00CAF0EE480AB1EE490A09F09E
:1019A000E9FCF0EE40BAF0EE480AB0EE680A09F041
:1019B000E1FCB0EE40AA09F077FCF0EE409AB0EE00
:1019C0004A0A09F039FCB0EE408AB0EE6B0A09F021
:1019D00033FCF0EE408AB0EE6B0A09F065FCF0EEE5
:1019E000407A6BEE280A2AEE800A20EE290A70EE71
:1019F000800A6CEE277A67EE887A2AEE887A6CEE97
:101A0000299A37EE697A70EEA70AB1EE470A09F013
:101A1000B1FCB0EE409AF6EE008A2AEE28AAB0EEAB
:101A20004A0A09F009FCB0EE40CA6BEEA8BAB0EE63
:101A30006B0A09F001FCF0EE40AA29EE289AB0EEFC
:101A4000490A09F0F9FBB0EE40BAB0EE4A0A09F0D3
:101A50002BFCB0EE40AAB0EE6B0A09F025FCB0EE0C
:101A6000408AB0EE490A09F01FFC6CEE2A7A67EE54
:101A70008B9A6AEE086A26EE807A79EE879A224F70
:101A8000C7ED009A2AEE8A7A27EE0B9A2CEE088A86
:101A900028EE006A39EE469A1C4E86ED009A28EE32
:101AA0000B8A27EE007A38EE078A194D85ED008AF9
:101AB00067EE807A66EE8B8A77EEE88A154CC4ED85
:101AC000008A69EEA97A29EE090A77EE807A28EE73
:101AD000080A77EE807A28EEA80A37EE800AFFF728
:101AE00007FF69EE807AC7ED007A69EE007AC6EDED
:101AF000007A28EE008A85ED008A68EE808AC4EDBF
:101B0000008ABDEC0A8BF8BDC00A0020C40A002080
:101B1000C80A0020CC0A0020F8B52DED068BB0EEE7
:101B2000408AF0EE608AB0EE41AAB0EE619AF0EE23
:101B300042AAF0EE629AF5EE401AF1EE10FA09D1DF
:101B4000B5EE402AF1EE10FA04D1F5EE402AF1EE9E
:101B500010FA7ED069EE097A2AEEAA0A77EE807A28
:101B600029EEA90A37EE800AFFF7C2FE29EE009A95
:101B70006AEE80AA69EE809A744BD3ED001A744B1A
:101B800093ED007A21EE872A724BD3ED007A724BE7
:101B9000D3ED006A27EEA66A32EE462A61EEA71A56
:101BA00067EE266A71EEA61A67EEA77AF6EE006A6D
:101BB00077EEE67A27EE077A77EE877A6AEEA76AFB
:101BC00029EEA17A76EEC76A69EE829A69EE277AE3
:101BD00079EEE79A29EE219A6AEE82AA39EE6A9A9C
:101BE0005E4B93ED007AB5EEC07AF1EE10FA40F359
:101BF000A48067EE265A5A4BD3ED007A65EEA75AB9
:101C0000584B93ED006A75EE865AC3ED005A27EEE5
:101C1000296A27EE866A544B93ED005A36EE056A20
:101C200083ED006A27EE097A67EE877A4F4B93EDD2
:101C3000007A77EE877AC3ED007A38EE258A78EE5F
:101C4000868A3AEE27AA38EE268A78EEA98A3AEEF4
:101C500009AA434BD3ED007AB6EE001A67EE817AFB
:101C600027EE888A67EEA88A27EE8A1A394F97ED01
:101C7000007A364ED6ED000A374D95ED000A20EE7B
:101C8000C8AA68EE807A3AEE67AA314CD4ED007AA1
:101C900067EE816A3AEE66AA3AEE07AA87ED00AAD5
:101CA00068EE079A61EE006A79EEA69A67EEA86A76
:101CB00079EEE69A79EEA09AC6ED009A28EE879A18
:101CC00061EE206A39EE669A67EE886A39EE269AE6
:101CD00039EE009A85ED009A21EE071A68EEA08A87
:101CE00031EE281A28EE008A31EE481A37EE818A42
:101CF00084ED008A6AEE0A7A29EEA90A77EE807AE4
:101D000029EE090A77EE807A28EE080A37EE800A73
:101D1000FFF7EEFD2AEE00AA87ED00AA69EE809A91
:101D2000C6ED009A29EE009A85ED009A28EE001A79
:101D300084ED001ABDEC068BF8BD0023094A136040
:101D4000094A1360094A13607DE700BFC40A0020F6
:101D5000CC0A0020C00A0020C80A0020D40A0020B3
:101D6000B80A0020AC0A0020B00A0020B40A002003
:101D7000F0B52DED108B87B0F0EE409AB0EE60AA72
:101D8000B0EE41DAB0EE618AF0EE42AAF0EE62BA4D
:101D9000F0EE438AB0EE63BAB0EE449AB5EE403A44
:101DA000F1EE10FA0AD1F5EE403AF1EE10FA05D153
:101DB000B5EE404AF1EE10FA00F09D81B5EE408A92
:101DC000F1EE10FA0AD1F5EE40AAF1EE10FA05D1C3
:101DD000F5EE40BAF1EE10FA00F0158168EE087ADF
:101DE0002AEEAA0A77EE807A2BEEAB0A37EE800A4B
:101DF000FFF77EFD68EE006ACDED026A6AEE805A5A
:101E0000CDED035A2BEE805A8DED045A68EEA87A78
:101E10002BEE0B0A77EE807A29EE090A37EE800A5C
:101E2000FFF766FD68EE808A2BEE00BA29EE009A75
:101E3000B64BD3ED007A27EEA77A8DED057AB44B39
:101E4000D3ED00AA27EEAAFAB24B93ED008A67EE13
:101E500088FAB14BD3ED00CA67EEAC7A2AEEAACA73
:101E60002AEE887A6AEEACAA68EE08EA28EE2C8A96
:101E70006CEEACCAB6EE00EA7EEE6EBA7BEEECBA61
:101E80002BEEA80A77EE67DA6DEE8B6A30EE260A43
:101E90003FEEAA6A8DED016A66EE096A30EE260A07
:101EA00030EE000A77EE877A67EEA87A3EEE4CCAEB
:101EB0003CEE6C7A27EE0B7A77EE877A38EE4F7A23
:101EC00027EE097A77EE877A77EEA77A20EE000A76
:101ED00067EEA77A30EE270A09F04EFA7AEEEFAAFB
:101EE0006AEEA87A3FEE088A28EE0B7A77EE877AB8
:101EF0003CEE6ECA6CEE09EA77EEAE7A77EEA77A20
:101F00009DED057A37EE4EEA7EEE2CCA6BEE80BA76
:101F10002AEEA77A7BEE87BA6DEE80DA28EE277A72
:101F20007DEE87DA9DED016A26EE000A6CEE277AD7
:101F300070EE277ADDED035A25EEAC7A9DED045A5A
:101F400068EE056A77EE666A2BEE277A29EE2D6A2F
:101F500037EE467A36EE877A6AEE852ADDED026A3A
:101F600066EEACCA72EEECCA29EE2B9A68EEA77A3E
:101F700039EE679A3CEE899A28EE268A6AEEA5AA7F
:101F800038EE6A8A68EEAD8A2BEE2BBA78EECB8AF1
:101F900038EE288A614BD3ED006AF5EEC06AF1EEA7
:101FA00010FA40F3AB8066EE875A5D4BD3ED007AB2
:101FB00065EEA75A5B4B93ED006A75EE865AC3ED4A
:101FC000005A26EE896A27EE866A574B93ED005A2F
:101FD00036EE056A83ED006A66EE886A67EEA67AD9
:101FE000524BD3ED006A77EEA67AC3ED007A79EE14
:101FF000A59A3AEE06AA3DEE27DA79EE879A3AEEEE
:1020000009AA3DEE08DA464B93ED001AF6EE007A87
:1020100021EE271A61EE299A21EE0AAA21EE0DDAA5
:102020003A4F97ED001A3A4ED6ED000A394D95ED2C
:10203000000A20EEE99A6AEE007A39EE679A364C89
:10204000D4ED007A27EE8D7A39EE479A39EE019A6F
:1020500087ED009A69EE818A2DEE007A78EE878A04
:1020600027EE8A7A78EEC78A78EEA08AC6ED008AD3
:102070002AEE018A2DEE207A38EE478A27EEA97AD9
:1020800038EE078A38EE008A85ED008A2DEE01DAF7
:102090002AEE20AA3DEE0ADA69EE809A3DEE69DA70
:1020A00037EE8DDA84ED00DA69EE097A28EEA80AB7
:1020B00077EE807A28EE080A77EE807A2DEE0D0A08
:1020C00037EE800AFFF714FC29EE009A87ED009A9C
:1020D00068EE808AC6ED008A28EE008A85ED008AC7
:1020E0002DEE00DA84ED00DA114B00221A7007B0F1
:1020F000BDEC108BF0BDFFF70FFDF8E70023094A98
:102100001360094A1360094A136076E7C00A002089
:10211000C40A0020C80A0020CC0A0020D40A0020EB
:10212000B80A0020AC0A0020B00A0020B40A00203F
:10213000A90A0020F8B52DED028B2C4ED6ED000A31
:102140002B4C94ED000A20EE800A2A4FD7ED007A3E
:10215000294D95ED007A27EE877A60EEA00AB6EE5B
:10216000008A78EE600A67EEA77A70EEE70A30EE32
:10217000070A09F0FFF8214B83ED000AD6ED007A3B
:1021800095ED000A67EE807A94ED000A97ED007AEB
:1021900020EE070A77EEC07AB8EE000A27EE800A32
:1021A00009F0BCF8164B83ED000AD7ED000A96ED56
:1021B000000A20EE800AD5ED007A94ED007A27EE31
:1021C000877A60EEA00A78EE600A67EEA77A70EE72
:1021D000E70A30EE070A09F0CDF80A4B83ED000A52
:1021E000094B01221A70BDEC028BF8BDC40A002015
:1021F000C00A0020C80A0020CC0A0020D00A002013
:10220000BC0A0020D80A0020A90A002008B5074B04
:102210001B783BB1064B93ED000ADFED067A20EE0A
:10222000270A08BDFFF786FFF4E700BFA90A0020D0
:10223000D00A0020E12E654208B5074B1B783BB160
:10224000064B93ED000ADFED067A20EE270A08BD63
:10225000FFF770FFF4E700BFA90A0020BC0A0020C6
:10226000E12E654208B5074B1B783BB1064B93ED59
:10227000000ADFED067A20EE270A08BDFFF75AFFB5
:10228000F4E700BFA90A0020D80A0020E12E654229
:102290004FF0E022D2F8FC3D43F08073C2F8FC3DE1
:1022A000034B00225A601A6842F001021A6070471C
:1022B000001000E030B43C4B1B685C6844F0020442
:1022C0005C605C6844F001045C601C6844F040049D
:1022D0001C60364B1C68236823F00103236003E075
:1022E0001C6824F001041C60304B1B681C6814F04F
:1022F000010FF5D12E4CA34212D9583C4FF40015D2
:10230000E5602C4C9C60D9605A60196841F010015E
:102310001960294B19680B6823F001030B6019E061
:10232000264CA34205D904F552744FF40015A5605C
:10233000E7E7234CA34204D9583C4FF40015E5606D
:10234000DFE7204C4FF40015A560DAE7196821F0AB
:1023500001011960184B1B68196811F0010FF5D1C4
:1023600013498B4209D958394FF00064CC601149A8
:102370009960D8605A6030BC704710498B4205D9CB
:1023800001F552714FF000648C60F0E70C498B420C
:1023900004D958394FF00064CC60E8E709494FF0A0
:1023A00000648C60E3E700BF281200206811002061
:1023B000586402400C380040C8110020B860024048
:1023C000586002400060024030B4AD4B1C68236886
:1023D00023F001032360AB4B1C68236823F0010347
:1023E000236003E01C6824F001041C60A44B1B68FC
:1023F0001C6814F0010FF5D103E01C6824F00104FF
:102400001C60A04B1B681C6814F0010FF5D19E4C9A
:10241000E46C24689D4DAC4240F29A80A5F5896534
:10242000AC4231D005F58065AC4276D0A5F5687533
:10243000AC4274D005F58065AC4272D0A5F58965D3
:10244000AC4270D005F58065AC426FD0A5F56875DB
:10245000AC426ED005F58065AC426DD0A5F58965BE
:10246000AC426CD005F58065AC426BD0A5F56875C3
:10247000AC426AD005F58065AC4202D04FF00065F1
:1024800003E04FF4001500E02025814CE5607E4C10
:10249000E46C24687D4DAC4240F2D481A5F5896599
:1024A000AC4200F06B8105F58065AC4200F0AF8175
:1024B000A5F56875AC4200F0AC8105F58065AC42CD
:1024C00000F0A981A5F58965AC4200F0A68105F56B
:1024D0008065AC4200F0A481A5F56875AC4200F0BF
:1024E000A28105F58065AC4200F0A081A5F5896563
:1024F000AC4200F09E8105F58065AC4200F09C8105
:10250000A5F56875AC4200F09A8105F58065AC428E
:1025100000F031814FF0806531E12025B5E72025BD
:10252000B3E72025B1E74FF40065AEE74FF400654F
:10253000ABE74FF40065A8E74FF40065A5E74FF45B
:102540000015A2E74FF400159FE74FF400159CE734
:10255000504DAC4253D9A83DAC4231D005F5806511
:10256000AC4231D0A5F56875AC422FD005F5806539
:10257000AC422DD0A5F58965AC422BD005F5806520
:10258000AC422AD0A5F56875AC4229D005F5806526
:10259000AC4228D0A5F58965AC4227D005F5806509
:1025A000AC4226D0A5F56875AC4225D005F580650E
:1025B000AC4202D04FF0006403E04FF4001400E09E
:1025C0002024334DAC6062E72024FAE72024F8E7AA
:1025D0002024F6E74FF40064F3E74FF40064F0E7DB
:1025E0004FF40064EDE74FF40064EAE74FF40014A1
:1025F000E7E74FF40014E4E74FF40014E1E7264D59
:10260000AC4264D9483DAC4231D005F58065AC425E
:1026100031D0A5F56875AC422FD005F58065AC4288
:102620003ED0A5F58965AC423CD005F58065AC424D
:102630003BD0A5F56875AC423AD005F58065AC4253
:1026400039D0A5F58965AC4238D005F58065AC4236
:1026500037D0A5F56875AC4236D005F58065AC423B
:1026600002D04FF0006403E04FF4001400E0202497
:102670000A4DEC600BE72024FAE72024F8E700BFBE
:1026800068110020C8110020281200205864024060
:1026900000640240B860024058600240006002409E
:1026A0002024E5E74FF40064E2E74FF40064DFE73D
:1026B0004FF40064DCE74FF40064D9E74FF40014F2
:1026C000D6E74FF40014D3E74FF40014D0E7B14D30
:1026D000AC4231D005F58065AC4231D0A5F56875C6
:1026E000AC422FD005F58065AC422DD0A5F58965AB
:1026F000AC422BD005F58065AC422AD0A5F56875B3
:10270000AC4229D005F58065AC4228D0A5F5896595
:10271000AC4227D005F58065AC4226D0A5F568759A
:10272000AC4225D005F58065AC4202D04FF0006484
:1027300003E04FF4001400E02024974DAC60A6E6BF
:102740002024FAE72024F8E72024F6E74FF4006479
:10275000F3E74FF40064F0E74FF40064EDE74FF463
:102760000064EAE74FF40014E7E74FF40014E4E7ED
:102770004FF40014E1E74FF4801500E01025874C7A
:10278000E560874CE46C2468864DAC4240F2D18110
:10279000A5F58965AC4200F0688105F58065AC421D
:1027A00000F0AC81A5F56875AC4200F0A98105F593
:1027B0008065AC4200F0A681A5F58965AC4200F0C9
:1027C000A38105F58065AC4200F0A181A5F568758F
:1027D000AC4200F09F8105F58065AC4200F09D8120
:1027E000A5F58965AC4200F09B8105F58065AC429A
:1027F00000F09981A5F56875AC4200F0978105F568
:102800008065AC4200F02E814FF000752EE110255E
:10281000B5E71025B3E71025B1E74FF48065AEE7C3
:102820004FF48065ABE74FF48065A8E74FF480650F
:10283000A5E74FF48015A2E74FF480159FE74FF40A
:1028400080159CE7584DAC4253D9A83DAC4231D0DD
:1028500005F58065AC4231D0A5F56875AC422FD046
:1028600005F58065AC422DD0A5F58965AC422BD02D
:1028700005F58065AC422AD0A5F56875AC4229D033
:1028800005F58065AC4228D0A5F58965AC4227D016
:1028900005F58065AC4226D0A5F56875AC4225D01B
:1028A00005F58065AC4202D04FF0806403E04FF440
:1028B000801400E01024394DAC6062E71024FAE780
:1028C0001024F8E71024F6E74FF48064F3E74FF4A0
:1028D0008064F0E74FF48064EDE74FF48064EAE74A
:1028E0004FF48014E7E74FF48014E4E74FF48014CA
:1028F000E1E72E4DAC4261D9483DAC4231D005F5FF
:102900008065AC4231D0A5F56875AC422FD005F595
:102910008065AC422DD0A5F58965AC422BD005F57C
:102920008065AC422AD0A5F56875AC4229D005F582
:102930008065AC4228D0A5F58965AC4227D005F565
:102940008065AC4234D0A5F56875AC4233D005F54E
:102950008065AC4202D04FF0806403E04FF48014F5
:1029600000E010240C4DEC600BE71024FAE7102473
:10297000F8E71024F6E74FF48064F3E74FF480643F
:10298000F0E74FF48064EDE74FF48064EAE74FF43A
:102990008014E7E7106002400060024000640240DB
:1029A0002812002058640240B8600240586002407B
:1029B0004FF48014D6E74FF48014D3E7B14DAC4206
:1029C00031D005F58065AC4231D0A5F56875AC42D3
:1029D0002FD005F58065AC422DD0A5F58965AC42B8
:1029E0002BD005F58065AC422AD0A5F56875AC42C0
:1029F00029D005F58065AC4228D0A5F58965AC42A3
:102A000027D005F58065AC4226D0A5F56875AC42A7
:102A100025D005F58065AC4202D04FF0806403E01C
:102A20004FF4801400E01024974DAC60A9E6102408
:102A3000FAE71024F8E71024F6E74FF48064F3E790
:102A40004FF48064F0E74FF48064EDE74FF4806466
:102A5000EAE74FF48014E7E74FF48014E4E74FF41B
:102A60008014E1E74FF4002500E00825874CE5607D
:102A7000874CE46C2468874DAC4240F2D281A5F5C6
:102A80008965AC4200F0698105F58065AC4200F0D3
:102A9000AD81A5F56875AC4200F0AA8105F58065A9
:102AA000AC4200F0A781A5F58965AC4200F0A48195
:102AB00005F58065AC4200F0A281A5F56875AC42D1
:102AC00000F0A08105F58065AC4200F09E81A5F57F
:102AD0008965AC4200F09C8105F58065AC4200F050
:102AE0009A81A5F56875AC4200F0988105F580657E
:102AF000AC4200F02F814FF080752FE10825B5E73B
:102B00000825B3E70825B1E74FF40075AEE74FF4A9
:102B10000075ABE74FF40075A8E74FF40075A5E723
:102B20004FF40025A2E74FF400259FE74FF400255E
:102B30009CE7594DAC4253D9A83DAC4231D005F584
:102B40008065AC4231D0A5F56875AC422FD005F553
:102B50008065AC422DD0A5F58965AC422BD005F53A
:102B60008065AC422AD0A5F56875AC4229D005F540
:102B70008065AC4228D0A5F58965AC4227D005F523
:102B80008065AC4226D0A5F56875AC4225D005F528
:102B90008065AC4202D04FF0007403E04FF4002493
:102BA00000E00824394DAC6062E70824FAE7082405
:102BB000F8E70824F6E74FF40074F3E74FF40074E5
:102BC000F0E74FF40074EDE74FF40074EAE74FF4D8
:102BD0000024E7E74FF40024E4E74FF40024E1E7A2
:102BE0002E4DAC4262D9483DAC4231D005F58065EE
:102BF000AC4231D0A5F56875AC422FD005F58065A3
:102C0000AC422DD0A5F58965AC422BD005F5806589
:102C1000AC422AD0A5F56875AC4229D005F580658F
:102C2000AC4228D0A5F58965AC4227D005F5806572
:102C3000AC4235D0A5F56875AC4234D005F5806559
:102C4000AC4202D04FF0007403E04FF4002400E0E7
:102C500008240D4DEC600BE70824FAE70824F8E798
:102C60000824F6E74FF40074F3E74FF40074F0E73C
:102C70004FF40074EDE74FF40074EAE74FF40024DA
:102C8000E7E700BF106002400060024000640240BD
:102C90002812002058640240B86002405860024088
:102CA0004FF40024D5E74FF40024D2E7B14DAC42F5
:102CB00031D005F58065AC4231D0A5F56875AC42E0
:102CC0002FD005F58065AC422DD0A5F58965AC42C5
:102CD0002BD005F58065AC422AD0A5F56875AC42CD
:102CE00029D005F58065AC4228D0A5F58965AC42B0
:102CF00027D005F58065AC4226D0A5F56875AC42B5
:102D000025D005F58065AC4202D04FF0007403E099
:102D10004FF4002400E00824974DAC60A8E6082496
:102D2000FAE70824F8E70824F6E74FF40074F3E71D
:102D30004FF40074F0E74FF40074EDE74FF40074C3
:102D4000EAE74FF40024E7E74FF40024E4E74FF408
:102D50000024E1E74FF4802500E00425874CE5607E
:102D6000874CE46C2468874DAC4240F2CE81A5F5D7
:102D70008965AC4200F0698105F58065AC4200F0E0
:102D8000AD81A5F56875AC4200F0AA8105F58065B6
:102D9000AC4200F0A781A5F58965AC4200F0A481A2
:102DA00005F58065AC4200F0A181A5F56875AC42DF
:102DB00000F09E8105F58065AC4200F09B81A5F591
:102DC0008965AC4200F0988105F58065AC4200F061
:102DD0009681A5F56875AC4200F0948105F5806593
:102DE000AC4200F02F814FF480052FE10425B5E7B8
:102DF0000425B3E70425B1E74FF48075AEE74FF43F
:102E00008075ABE74FF48075A8E74FF48075A5E7B0
:102E10004FF48025A2E74FF480259FE74FF48025EB
:102E20009CE7594DAC4253D9A83DAC4231D005F591
:102E30008065AC4231D0A5F56875AC422FD005F560
:102E40008065AC422DD0A5F58965AC422BD005F547
:102E50008065AC422AD0A5F56875AC4229D005F54D
:102E60008065AC4228D0A5F58965AC4227D005F530
:102E70008065AC4226D0A5F56875AC4225D005F535
:102E80008065AC4202D04FF0807403E04FF48024A0
:102E900000E00424394DAC6062E70424FAE704241E
:102EA000F8E70424F6E74FF48074F3E74FF48074F6
:102EB000F0E74FF48074EDE74FF48074EAE74FF4E5
:102EC0008024E7E74FF48024E4E74FF48024E1E72F
:102ED0002E4DAC4262D9483DAC4231D005F58065FB
:102EE000AC4231D0A5F56875AC422FD005F58065B0
:102EF000AC422DD0A5F58965AC422BD005F5806597
:102F0000AC422AD0A5F56875AC4229D005F580659C
:102F1000AC4228D0A5F58965AC4227D005F580657F
:102F2000AC4235D0A5F56875AC4234D005F5806566
:102F3000AC4202D04FF0807403E04FF4802400E0F4
:102F400004240D4DEC600BE70424FAE70424F8E7B1
:102F50000424F6E74FF48074F3E74FF48074F0E74D
:102F60004FF48074EDE74FF48074EAE74FF4802467
:102F7000E7E700BF106002400060024000640240CA
:102F80002812002058640240B86002405860024095
:102F90004FF48024D5E74FF48024D2E7AE4DAC4205
:102FA00031D005F58065AC4231D0A5F56875AC42ED
:102FB0002FD005F58065AC422DD0A5F58965AC42D2
:102FC0002BD005F58065AC422AD0A5F56875AC42DA
:102FD00029D005F58065AC4228D0A5F58965AC42BD
:102FE00027D005F58065AC4226D0A5F56875AC42C2
:102FF00025D005F58065AC4202D04FF0807403E027
:103000004FF4802400E00424944DAC60A8E604242E
:10301000FAE70424F8E70424F6E74FF48074F3E7B2
:103020004FF48074F0E74FF48074EDE74FF4807450
:10303000EAE74FF48024E7E74FF48024E4E74FF415
:103040008024E1E74FF4803500E00125844CE56001
:10305000844CA46C2468844DAC4240F2C281A5F536
:103060008965AC4200F0598105F58065AC4200F0FD
:103070009D81A5F56875AC4200F09A8105F58065E3
:10308000AC4200F09781A5F58965AC4200F09481CF
:1030900005F58065AC4200F09281A5F56875AC42FB
:1030A00000F0908105F58065AC4200F08E81A5F5B9
:1030B0008965AC4200F08C8105F58065AC4200F07A
:1030C0008A81A5F56875AC4200F0888105F58065B8
:1030D000AC4200F01F814FF000651FE10125B5E70C
:1030E0000125B3E70125B1E74025AFE74025ADE76E
:1030F0004025ABE74025A9E74FF48035A6E74FF41C
:103100008035A3E74FF48035A0E7584DAC424FD946
:10311000A83DAC4231D005F58065AC4231D0A5F573
:103120006875AC422FD005F58065AC422DD0A5F571
:103130008965AC422BD005F58065AC4229D0A5F558
:103140006875AC4227D005F58065AC4225D0A5F561
:103150008965AC4223D005F58065AC4222D0A5F547
:103160006875AC4221D005F58065AC4202D04FF4C1
:10317000800403E04FF4803400E00124384DAC605B
:1031800066E70124FAE70124F8E70124F6E7402482
:10319000F4E74024F2E74024F0E74024EEE74FF460
:1031A0008034EBE74FF48034E8E74FF48034E5E710
:1031B0002F4DAC425ED9483DAC4231D005F580651B
:1031C000AC4231D0A5F56875AC422FD005F58065CD
:1031D000AC422DD0A5F58965AC422BD005F58065B4
:1031E000AC4229D0A5F56875AC4227D005F58065BD
:1031F000AC4225D0A5F58965AC4223D005F58065A4
:10320000AC4222D0A5F56875AC4221D005F58065A9
:10321000AC4202D04FF4800403E04FF4803400E06D
:1032200001240E4DEC6013E70124FAE70124F8E7CE
:103230000124F6E74024F4E74024F2E74024F0E7D5
:103240004024EEE74FF48034EBE74FF48034E8E7B6
:103250004FF48034E5E700BF106002400060024098
:10326000006402402812002058640240B860024006
:1032700058600240B04DAC4231D005F58065AC429B
:1032800031D0A5F56875AC422FD005F58065AC420C
:103290002DD0A5F58965AC422BD005F58065AC42F3
:1032A00029D0A5F56875AC4227D005F58065AC42FC
:1032B00025D0A5F58965AC4223D005F58065AC42E3
:1032C00022D0A5F56875AC4221D005F58065AC42E9
:1032D00002D04FF4800403E04FF4803400E0012476
:1032E000964DAC60B4E60124FAE70124F8E7012426
:1032F000F6E74024F4E74024F2E74024F0E74024D6
:10330000EEE74FF48034EBE74FF48034E8E74FF416
:103310008034E5E74FF4001500E02025884CE56097
:10332000884CA46C2468884DAC4240F2D181A5F54C
:103330008965AC4200F0688105F58065AC4200F01B
:10334000AC81A5F56875AC4200F0A98105F58065F2
:10335000AC4200F0A681A5F58965AC4200F0A381DE
:1033600005F58065AC4200F0A181A5F56875AC4219
:1033700000F09F8105F58065AC4200F09D81A5F5C8
:103380008965AC4200F09B8105F58065AC4200F098
:103390009981A5F56875AC4200F0978105F58065C7
:1033A000AC4200F02E814FF080652EE12025B5E77C
:1033B0002025B3E72025B1E74FF40065AEE74FF4D1
:1033C0000065ABE74FF40065A8E74FF40065A5E79B
:1033D0004FF40015A2E74FF400159FE74FF40015D6
:1033E0009CE75A4DAC4253D9A83DAC4231D005F5CB
:1033F0008065AC4231D0A5F56875AC422FD005F59B
:103400008065AC422DD0A5F58965AC422BD005F581
:103410008065AC422AD0A5F56875AC4229D005F587
:103420008065AC4228D0A5F58965AC4227D005F56A
:103430008065AC4226D0A5F56875AC4225D005F56F
:103440008065AC4202D04FF0006403E04FF40014FA
:1034500000E020243A4DAC6062E72024FAE7202403
:10346000F8E72024F6E74FF40064F3E74FF4006434
:10347000F0E74FF40064EDE74FF40064EAE74FF43F
:103480000014E7E74FF40014E4E74FF40014E1E719
:103490002F4DAC4261D9483DAC4231D005F5806535
:1034A000AC4231D0A5F56875AC422FD005F58065EA
:1034B000AC422DD0A5F58965AC422BD005F58065D1
:1034C000AC422AD0A5F56875AC4229D005F58065D7
:1034D000AC4228D0A5F58965AC4227D005F58065BA
:1034E000AC4226D0A5F56875AC4233D005F58065B1
:1034F000AC4202D04FF0006403E04FF4001400E04F
:1035000020240E4DEC600BE72024FAE72024F8E796
:103510002024F6E74FF40064F3E74FF40064F0E78B
:103520004FF40064EDE74FF40064EAE74FF4001451
:10353000E7E74FF40014E4E7106002400060024047
:10354000006402402812002058640240B860024023
:10355000586002404FF40014D3E7B14DAC4231D073
:1035600005F58065AC4231D0A5F56875AC422FD029
:1035700005F58065AC422DD0A5F58965AC422BD010
:1035800005F58065AC422AD0A5F56875AC4229D016
:1035900005F58065AC4228D0A5F58965AC4227D0F9
:1035A00005F58065AC4226D0A5F56875AC4225D0FE
:1035B00005F58065AC4202D04FF0006403E04FF4A3
:1035C000001400E02024974DAC60A9E62024FAE71F
:1035D0002024F8E72024F6E74FF40064F3E74FF4E3
:1035E0000064F0E74FF40064EDE74FF40064EAE7AD
:1035F0004FF40014E7E74FF40014E4E74FF400142D
:10360000E1E74FF4801500E01025874CE560874C1A
:10361000A46C2468864DAC4240F2D181A5F5896541
:10362000AC4200F0688105F58065AC4200F0AC81E9
:10363000A5F56875AC4200F0A98105F58065AC423E
:1036400000F0A681A5F58965AC4200F0A38105F5DF
:103650008065AC4200F0A181A5F56875AC4200F030
:103660009F8105F58065AC4200F09D81A5F58965D7
:10367000AC4200F09B8105F58065AC4200F0998179
:10368000A5F56875AC4200F0978105F58065AC4200
:1036900000F02E814FF000752EE11025B5E71025C2
:1036A000B3E71025B1E74FF48065AEE74FF48065CE
:1036B000ABE74FF48065A8E74FF48065A5E74FF4CA
:1036C0008015A2E74FF480159FE74FF480159CE723
:1036D000584DAC4253D9A83DAC4231D005F5806578
:1036E000AC4231D0A5F56875AC422FD005F58065A8
:1036F000AC422DD0A5F58965AC422BD005F580658F
:10370000AC422AD0A5F56875AC4229D005F5806594
:10371000AC4228D0A5F58965AC4227D005F5806577
:10372000AC4226D0A5F56875AC4225D005F580657C
:10373000AC4202D04FF0806403E04FF4801400E00C
:103740001024394DAC6062E71024FAE71024F8E742
:103750001024F6E74FF48064F3E74FF48064F0E759
:103760004FF48064EDE74FF48064EAE74FF480148F
:10377000E7E74FF48014E4E74FF48014E1E72E4DBF
:10378000AC4261D9483DAC4231D005F58065AC42D0
:1037900031D0A5F56875AC422FD005F58065AC42F7
:1037A0002DD0A5F58965AC422BD005F58065AC42DE
:1037B0002AD0A5F56875AC4229D005F58065AC42E4
:1037C00028D0A5F58965AC4227D005F58065AC42C7
:1037D00034D0A5F56875AC4233D005F58065AC42B0
:1037E00002D04FF0806403E04FF4801400E0102416
:1037F0000C4DEC600BE71024FAE71024F8E71024D6
:10380000F6E74FF48064F3E74FF48064F0E74FF499
:103810008064EDE74FF48064EAE74FF48014E7E753
:103820001060024000600240006402402812002044
:1038300058640240B8600240586002404FF480145F
:10384000D6E74FF48014D3E7B14DAC4231D005F543
:103850008065AC4231D0A5F56875AC422FD005F536
:103860008065AC422DD0A5F58965AC422BD005F51D
:103870008065AC422AD0A5F56875AC4229D005F523
:103880008065AC4228D0A5F58965AC4227D005F506
:103890008065AC4226D0A5F56875AC4225D005F50B
:1038A0008065AC4202D04FF0806403E04FF4801496
:1038B00000E01024974DAC60A9E61024FAE710242C
:1038C000F8E71024F6E74FF48064F3E74FF48064E0
:1038D000F0E74FF48064EDE74FF48064EAE74FF4DB
:1038E0008014E7E74FF48014E4E74FF48014E1E735
:1038F0004FF4002500E00825874CE560874CA46C58
:103900002468874DAC4240F2D281A5F58965AC426E
:1039100000F0698105F58065AC4200F0AD81A5F548
:103920006875AC4200F0AA8105F58065AC4200F0F4
:10393000A781A5F58965AC4200F0A48105F58065F5
:10394000AC4200F0A281A5F56875AC4200F0A08100
:1039500005F58065AC4200F09E81A5F58965AC4215
:1039600000F09C8105F58065AC4200F09A81A5F5D8
:103970006875AC4200F0988105F58065AC4200F0B6
:103980002F814FF080752FE10825B5E70825B3E7B3
:103990000825B1E74FF40075AEE74FF40075ABE7CB
:1039A0004FF40075A8E74FF40075A5E74FF4002524
:1039B000A2E74FF400259FE74FF400259CE7594DFF
:1039C000AC4253D9A83DAC4231D005F58065AC423C
:1039D00031D0A5F56875AC422FD005F58065AC42B5
:1039E0002DD0A5F58965AC422BD005F58065AC429C
:1039F0002AD0A5F56875AC4229D005F58065AC42A2
:103A000028D0A5F58965AC4227D005F58065AC4284
:103A100026D0A5F56875AC4225D005F58065AC4289
:103A200002D04FF0007403E04FF4002400E00824BB
:103A3000394DAC6062E70824FAE70824F8E7082467
:103A4000F6E74FF40074F3E74FF40074F0E74FF437
:103A50000074EDE74FF40074EAE74FF40024E7E761
:103A60004FF40024E4E74FF40024E1E72E4DAC428C
:103A700062D9483DAC4231D005F58065AC4231D0C9
:103A8000A5F56875AC422FD005F58065AC422DD008
:103A9000A5F58965AC422BD005F58065AC422AD0EE
:103AA000A5F56875AC4229D005F58065AC4228D0F3
:103AB000A5F58965AC4227D005F58065AC4235D0C7
:103AC000A5F56875AC4234D005F58065AC4202D0EE
:103AD0004FF0007403E04FF4002400E008240D4D83
:103AE000EC600BE70824FAE70824F8E70824F6E777
:103AF0004FF40074F3E74FF40074F0E74FF40074F0
:103B0000EDE74FF40074EAE74FF40024E7E700BF65
:103B10001060024000600240006402402812002051
:103B200058640240B8600240586002404FF40024DC
:103B3000D5E74FF40024D2E7B14DAC4231D005F5C2
:103B40008065AC4231D0A5F56875AC422FD005F543
:103B50008065AC422DD0A5F58965AC422BD005F52A
:103B60008065AC422AD0A5F56875AC4229D005F530
:103B70008065AC4228D0A5F58965AC4227D005F513
:103B80008065AC4226D0A5F56875AC4225D005F518
:103B90008065AC4202D04FF0007403E04FF4002483
:103BA00000E00824974DAC60A8E60824FAE7082452
:103BB000F8E70824F6E74FF40074F3E74FF40074D5
:103BC000F0E74FF40074EDE74FF40074EAE74FF4C8
:103BD0000024E7E74FF40024E4E74FF40024E1E792
:103BE0004FF4802500E00425874CE560874CA46CE9
:103BF0002468874DAC4240F29A81A5F58965AC42B4
:103C000000F0698105F58065AC4200F07981A5F589
:103C10006875AC4200F0768105F58065AC4200F035
:103C20007381A5F58965AC4200F0708105F580656A
:103C3000AC4200F06D81A5F56875AC4200F06A8178
:103C400005F58065AC4200F06781A5F58965AC4259
:103C500000F0648105F58065AC4200F06281A5F555
:103C60006875AC4200F0608105F58065AC4200F0FB
:103C70002F814FF480052FE10425B5E70425B3E734
:103C80000425B1E74FF48075AEE74FF48075ABE7DC
:103C90004FF48075A8E74FF48075A5E74FF48025B1
:103CA000A2E74FF480259FE74FF480259CE7594D0C
:103CB000AC4253D9A83DAC4231D005F58065AC4249
:103CC00031D0A5F56875AC422FD005F58065AC42C2
:103CD0002DD0A5F58965AC422BD005F58065AC42A9
:103CE0002AD0A5F56875AC4229D005F58065AC42AF
:103CF00028D0A5F58965AC4227D005F58065AC4292
:103D000026D0A5F56875AC4225D005F58065AC4296
:103D100002D04FF0807403E04FF4802400E00424CC
:103D2000394DAC6062E70424FAE70424F8E7042480
:103D3000F6E74FF48074F3E74FF48074F0E74FF444
:103D40008074EDE74FF48074EAE74FF48024E7E7EE
:103D50004FF48024E4E74FF48024E1E72E4DAC4299
:103D600062D9483DAC4231D005F58065AC4231D0D6
:103D7000A5F56875AC422FD005F58065AC422DD015
:103D8000A5F58965AC422BD005F58065AC422AD0FB
:103D9000A5F56875AC4229D005F58065AC4228D000
:103DA000A5F58965AC4227D005F58065AC4235D0D4
:103DB000A5F56875AC4234D005F58065AC4202D0FB
:103DC0004FF0807403E04FF4802400E004240D4D94
:103DD000EC600BE70424FAE70424F8E70424F6E790
:103DE0004FF48074F3E74FF48074F0E74FF480747D
:103DF000EDE74FF48074EAE74FF48024E7E700BF73
:103E0000106002400060024000640240281200205E
:103E100058640240B8600240586002404FF4802469
:103E2000D5E74FF48024D2E7944DAC4231D005F56C
:103E30008065AC4231D0A5F56875AC422FD005F550
:103E40008065AC422DD0A5F58965AC422BD005F537
:103E50008065AC422AD0A5F56875AC4229D005F53D
:103E60008065AC4228D0A5F58965AC4227D005F520
:103E70008065AC4226D0A5F56875AC4225D005F525
:103E80008065AC4202D04FF0807403E04FF4802490
:103E900000E004247A4DAC60A8E60424FAE7042488
:103EA000F8E70424F6E74FF48074F3E74FF48074E6
:103EB000F0E74FF48074EDE74FF48074EAE74FF4D5
:103EC0008024E7E74FF48024E4E74FF48024E1E71F
:103ED0004FF4803500E001256A4CE5606A4C2468A7
:103EE000E160D86062605A60236843F00103236098
:103EF000664B1A68136843F00103136030BC7047C7
:103F00000125E9E70125E7E70125E5E74025E3E7A6
:103F10004025E1E74025DFE74025DDE74FF4803528
:103F2000DAE74FF48035D7E74FF48035D4E7584DC2
:103F3000AC424FD9A83DAC4231D005F58065AC42CA
:103F400031D0A5F56875AC422FD005F58065AC423F
:103F50002DD0A5F58965AC422BD005F58065AC4226
:103F600029D0A5F56875AC4227D005F58065AC422F
:103F700025D0A5F58965AC4223D005F58065AC4216
:103F800022D0A5F56875AC4221D005F58065AC421C
:103F900002D04FF4800403E04FF4803400E00124A9
:103FA000384DAC609AE70124FAE70124F8E70124D0
:103FB000F6E74024F4E74024F2E74024F0E7402409
:103FC000EEE74FF48034EBE74FF48034E8E74FF44A
:103FD0008034E5E72F4DAC425ED9483DAC4231D04C
:103FE00005F58065AC4231D0A5F56875AC422FD09F
:103FF00005F58065AC422DD0A5F58965AC422BD086
:1040000005F58065AC4229D0A5F56875AC4227D08E
:1040100005F58065AC4225D0A5F58965AC4223D075
:1040200005F58065AC4222D0A5F56875AC4221D07B
:1040300005F58065AC4202D04FF4800403E04FF4F4
:10404000803400E001240E4DEC6047E70124FAE7DC
:104050000124F8E70124F6E74024F4E74024F2E7DE
:104060004024F0E74024EEE74FF48034EBE74FF4D0
:104070008034E8E74FF48034E5E700BF1060024089
:10408000006002400064024068110020C811002056
:10409000B860024058600240274DAC4231D005F56F
:1040A0008065AC4231D0A5F56875AC422FD005F5DE
:1040B0008065AC422DD0A5F58965AC422BD005F5C5
:1040C0008065AC4229D0A5F56875AC4227D005F5CE
:1040D0008065AC4225D0A5F58965AC4223D005F5B5
:1040E0008065AC4222D0A5F56875AC4221D005F5BB
:1040F0008065AC4202D04FF4800403E04FF480347A
:1041000000E001240D4DAC60E8E60124FAE701244B
:10411000F8E70124F6E74024F4E74024F2E74024DE
:10412000F0E74024EEE74FF48034EBE74FF48034BF
:10413000E8E74FF48034E5E7106002400060024099
:1041400010B582B000240194114B1A6B42F4001296
:104150001A631B6B03F400130193019B2246052194
:104160000D2000F0E9FC0D2000F01EFD2246052187
:104170000E2000F0E1FC0E2000F016FD2246052185
:104180000F2000F0D9FC0F2000F00EFD02B010BD92
:104190000038024010B506F0E3FA0EE04EF660205B
:1041A00005F0E2FBA11D0A4B1A6B0A4B03EB8103DE
:1041B0001A600134E4B20C2CF0D94FF47A7005F097
:1041C000D3FB034B1A6B034B5A610024F3E700BF88
:1041D000200A00208C09002008B5FEF759F8FCF7EA
:1041E00073FA0121034800F0FBFF4FF47A7005F0E9
:1041F000BBFBF6E700080240034B0360034B0B6078
:1042000080231360704700BFE80C0020E40A002000
:1042100030B59DB0234C0DF1540CA646BEE80F00FE
:10422000ACE80F009EE807008CE80700002115A805
:1042300005F065FB1C4B18600DF1380C04F11C0EE9
:10424000BEE80F00ACE80F009EE807008CE807000E
:1042500000210EA805F053FB144D28600DF11C0C35
:1042600004F1380EBEE80F00ACE80F009EE807002E
:104270008CE80700002107A805F041FB2860EE4606
:1042800004F1540CBCE80F00AEE80F009CE80700F6
:104290008EE807000021684605F031FB28601DB05C
:1042A00030BD00BFF8C40008DC0A0020E00A00208E
:1042B000F0B58BB0002405940694079408940994F3
:1042C0000194314B1A6B42F080021A631A6B02F0B0
:1042D00080020192019A02941A6B42F004021A635E
:1042E0001A6B02F004020292029A03941A6B42F0D3
:1042F00002021A631A6B02F002020392039A0494F8
:104300001A6B42F001021A631B6B03F00103049362
:10431000049B1E4E22460121304600F05BFF1C4FDD
:1043200022460321384600F055FF012505950695E4
:104330000794089405A9304600F060FE0C2305930D
:104340004FF404130693079505A9304600F056FE76
:104350000323059306950794089405A9384600F0B1
:104360004DFE22460521082000F0E6FB082000F063
:104370001BFC22460521092000F0DEFB092000F08D
:1043800013FC0BB0F0BD00BF003802400008024033
:104390000004024008B50268034B9A4200D008BDF1
:1043A00000F092FBFBE700BF0000014072B6FEE7A1
:1043B00000B595B03422002107A806F09BFC00232D
:1043C000029303930493059306930093214A116C7F
:1043D00041F080511164126C02F080520092009AF8
:1043E00001931D4B1A6842F440421A601B6803F4A3
:1043F00040430193019B012307934FF480330893BB
:1044000002230D934FF480020E9206220F92A822EF
:104410001092119307221292139307A802F02AF91F
:1044200098B90F23029302230393002304934FF4BC
:10443000A05305934FF480530693052102A801F081
:104440005BFD20B915B05DF804FBFFF7AFFFFFF788
:10445000ADFF00BF003802400070004008B500F01A
:1044600019FBFFF7A5FFFFF723FFFFF769FE00F039
:10447000EFF900F06DFA00F007F800F027FAFFF707
:10448000C7FE05F037FAFEE708B50F480F4B03608B
:104490004FF48273436000238360C3600222026191
:1044A000012242614FF4007282613022C2610362D4
:1044B000436283620A23C36202F0A8FB00B908BD0D
:1044C000FFF774FFFBE700BF281200200038004010
:1044D00030B589B0002303930493059306930793A3
:1044E00002682F4B9A4201D009B030BD0446002526
:1044F000019503F500331A6C42F480421A641A6C79
:1045000002F480420192019A02951A6B42F0020273
:104510001A631B6B03F002030293029B4FF44443A4
:10452000039302230493032306930523079303A90C
:104530001C4800F063FD1C481C4B0360456085600F
:10454000C5604FF48063036145618561C5614FF4C7
:1045500040330362456200F09FFBD8B9124BE3641D
:104560009C631348134B0360002343604022826026
:10457000C3604FF48062026143618361C3614FF4A1
:1045800000320262436200F087FB30B9084BA3643B
:104590009C63A9E7FFF70AFFE0E7FFF707FFF5E7EE
:1045A00000380040000402406811002058600240BA
:1045B000C81100207060024000B583B00022009254
:1045C0000D4B596C41F480415964596C01F48041A0
:1045D000009100990192196C41F0805119641B6C93
:1045E00003F080530193019B0F216FF0010000F055
:1045F000A3FA03B05DF804FB0038024030B589B07F
:104600000546002401941E4B5A6C42F001025A6484
:104610005B6C03F001030193019B02A903A801F065
:1046200041FD01F02FFD43001648A0FB03239B0C26
:10463000013B1548154A026040F2E732C260436010
:1046400004618460846102F05DFE044610B120467E
:1046500009B030BD0C4802F0F1FC04460028F6D148
:10466000192000F0A1FA0F2D01D90124EFE7002253
:104670002946192000F060FA054B1D60E7E700BFEE
:104680000038024083DE1B438012002000000140FE
:1046900028000020FEE7FEE7FEE7FEE7FEE77047A2
:1046A00008B5042000F0A6FD08BD08B5082000F0FC
:1046B000A1FD08BD08B5024800F0B2FB08BD00BF6F
:1046C0005C13002008B5FCF787FA024800F0A8FB4D
:1046D00008BD00BF6811002008B5024800F0A0FB2B
:1046E00008BD00BFC811002008B5024802F0EEFC6A
:1046F00008BD00BF8012002008B5024803F07CF915
:1047000008BD00BFBC13002008B5024801F0B7F88F
:1047100008BD00BF3866002010B503460C4A0D499D
:104720000D48006840B10C4800680344521A934297
:1047300006D8094A136010BD0748084C0460F2E728
:1047400006F0AEFA0C2303604FF0FF30F3E700BF32
:104750000000022000040000C8120020786D002034
:10476000034AD2F8883043F47003C2F888307047A7
:1047700000ED00E082B00368B3F1804F04D00F4A2F
:1047800093420ED002B07047002300930C4B1A6C7A
:1047900042F001021A641B6C03F001030093009BBA
:1047A000F0E700230193064B1A6C42F002021A64F0
:1047B0001B6C03F002030193019BE3E7000400403C
:1047C0000038024000B589B0002303930493059399
:1047D000069307930368B3F1804F05D0194A9342BB
:1047E00019D009B05DF804FB00230193164B1A6B36
:1047F00042F002021A631B6B03F002030193019B58
:1048000004230393022304930123079303A90F486E
:1048100000F0F4FBE5E7002302930B4B1A6B42F028
:1048200002021A631B6B03F002030293029B202314
:10483000039302230493079303A9044800F0DEFBCB
:10484000CFE700BF000400400038024000040240EF
:1048500000B58BB00023089309930193029303934F
:10486000049305930693079317484FF08042026024
:10487000436083601D22C2600361836102F06EFDAC
:10488000C8B900230893099308A90F4802F0CAFE8B
:10489000A0B96023019300230293039305930C2294
:1048A00001A9094802F0BEFD58B90748FFF78AFF81
:1048B0000BB05DF804FBFFF779FDE2E7FFF776FD4B
:1048C000E7E7FFF773FDF0E7CC12002000B58BB0EF
:1048D0000023089309930193029303930493059390
:1048E000069307931848194A02604360836041F2B7
:1048F0008732C2600361836102F030FDD0B90023CA
:104900000893099308A9104802F08CFEA8B9602307
:104910000193002302930393059304220DEB0201FC
:10492000094802F07FFD58B90748FFF74BFF0BB06D
:104930005DF804FBFFF73AFDE1E7FFF737FDE6E737
:10494000FFF734FDF0E700BF14130020000400401F
:1049500008B50A480A4B03604FF4E1334360002373
:104960008360C36003610C2242618361C36102F012
:1049700087FF00B908BDFFF719FDFBE7BC13002056
:10498000004C004030B589B0002303930493059395
:10499000069307930268264B9A4201D009B030BDB6
:1049A00004460025019503F5F6331A6C42F4002203
:1049B0001A641A6C02F400220192019A02951A6B91
:1049C00042F004021A631B6B03F004030293029B80
:1049D0004FF44063039302230493032306930823B5
:1049E000079303A9134800F009FB1348134B036016
:1049F0004FF0006343608560C5604FF480630361DE
:104A000045618561C5610562456200F045F958B9A7
:104A1000094BE3639C6300220521342000F08CF8ED
:104A2000342000F0C1F8B9E7FFF7C0FCF0E700BFA1
:104A3000004C0040000802405C130020406002402F
:104A4000DFF834D0FFF78CFE0C480D490D4A0023E7
:104A500002E0D458C4500433C4188C42F9D30A4A33
:104A60000A4C002301E013600432A242FBD306F09B
:104A70001DF9FFF7F3FC7047000002200000002042
:104A80006C0900204CCA000870090020746D0020D9
:104A9000FEE7000008B50B4B1A6842F400721A607A
:104AA0001A6842F480621A601A6842F480721A60CE
:104AB000032000F02FF80F20FFF7A0FDFFF77CFD8B
:104AC000002008BD003C0240034A1168034B1B78DC
:104AD0000B441360704700BF041400202400002022
:104AE000014B1868704700BF0414002038B5044615
:104AF000FFF7F6FF0546B4F1FF3F02D0044B1B78E9
:104B00001C44FFF7EDFF401BA042FAD338BD00BFA5
:104B100024000020074AD36823F4E0631B041B0C25
:104B2000000200F4E060034343F0BF6343F400334A
:104B3000D360704700ED00E000B5194BDB68C3F3AC
:104B40000223C3F1070CBCF1040F28BF4FF0040C83
:104B500003F1040EBEF1060F18D9033B4FF0FF3EE0
:104B60000EFA0CFC21EA0C0199400EFA03F322EA3A
:104B70000303194300280BDB0901C9B200F16040AF
:104B800000F5614080F800135DF804FB0023E5E7C1
:104B900000F00F000901C9B2024B1954F4E700BF3D
:104BA00000ED00E014ED00E0002807DB00F01F023C
:104BB000400901239340024A42F82030704700BF69
:104BC00000E100E010B40368D9B210390C4AA2FB2E
:104BD000014212090B4CA25CC2655F2909D923F47A
:104BE0007F7323F0030304338365806D5DF8044B0A
:104BF000704723F47F7323F003038365F5E700BF59
:104C0000ABAAAAAAD4C50008836A826992B9012B0B
:104C10000AD0022B02D00BB100207047C36A13F0F8
:104C2000807F28D100207047C36AB3F1C07F24D0B1
:104C300000207047B2F5005F09D0022B25D9032B65
:104C400025D1C36A13F0807F23D100207047032B46
:104C500003D8DFE803F01404140A00207047C36A85
:104C600013F0807F0DD100207047C36AB3F1C07F7D
:104C700009D00020704701207047012070470120B3
:104C800070470120704701207047012070470020C5
:104C9000704701207047000070B50446FFF720FF01
:104CA000002C5BD00546022384F83530002384F8BD
:104CB00034302268136823F00103136023681A68F4
:104CC00012F0010F0AD0FFF70BFF431B052BF5D99C
:104CD00020236365032084F8350070BD1A682048DE
:104CE00010406168A2680A43E1680A4321690A43E7
:104CF00061690A43A1690A43E1690A43216A0A43D7
:104D00000243616A04291ED01A602668756925F07D
:104D10000705636A1D43042B07D1A36A1D43E36A99
:104D20001BB12046FFF770FF90B975612046FFF771
:104D300049FFE26D3F2393408360002060650123BB
:104D400084F83530C9E7E16A206B01430A43DBE7A9
:104D500040236365012084F83500BEE70120BCE7ED
:104D60003F8010F070B50446866DFFF7B9FE94F8E9
:104D70003530DBB2022B06D080236365002384F834
:104D80003430012070BD05462268136823F01603F5
:104D900013602268536923F080035361236CE3B1ED
:104DA0002268136823F0080313602268136823F055
:104DB0000103136023681B6813F0010F11D0FFF784
:104DC0008FFE431B052BF5D920236365032084F850
:104DD0003500002384F83430D4E7A36C002BDFD1F6
:104DE000E3E7E26D3F239340B360012384F835305D
:104DF000002084F83400C5E790F83530DBB2022B90
:104E000003D08023436501207047052380F83530A7
:104E10000268136823F0010313600020704700004C
:104E2000F0B583B0044600230193724B1D68724BAA
:104E3000A3FB0535AD0A876D3E68C26D082393401C
:104E4000334210D003681A6812F0040F0BD01A68AE
:104E500022F004021A60C26D08239340BB60436DC8
:104E600043F001034365E26D01239340334209D0CF
:104E70002268526912F0800F04D0BB60636D43F06A
:104E800002036365E26D04239340334209D0226834
:104E9000126812F0020F04D0BB60636D43F004038C
:104EA0006365E26D10239340334224D02268126878
:104EB00012F0080F1FD0BB6023681A6812F4802F0D
:104EC0000DD01B6813F4002F04D1236C9BB1204636
:104ED000984710E0A36C73B1204698470BE01A681E
:104EE00012F4807F03D11A6822F008021A60236C42
:104EF0000BB120469847E26D20239340334255D0B2
:104F00002268126812F0100F50D0BB6094F8353050
:104F1000DBB2052B0ED023681A6812F4802F33D031
:104F20001B6813F4002F2AD1636C002B3ED020465F
:104F300098473BE02268136823F016031360226849
:104F4000536923F080035361236CA3B12268136873
:104F500023F008031360E26D3F239340BB600123FD
:104F600084F83530002384F83430236D002B3FD093
:104F7000204698473CE0A36C002BE7D1EBE7E36BBE
:104F8000A3B12046984711E01A6812F4807F09D136
:104F90001A6822F010021A60012384F835300023C9
:104FA00084F83430E36B0BB120469847636DFBB156
:104FB000636D13F0010F17D0052384F83530226894
:104FC000136823F001031360019B01330193AB428B
:104FD00004D823681B6813F0010FF5D1012384F86E
:104FE0003530002384F83430E36C0BB12046984709
:104FF00003B0F0BD20000020B5814E1B00230F2B15
:1050000000F2DE8070B582B060E085685E00032447
:10501000B44025EA0405CC68B4402C43846045685C
:1050200025EA02054C68C4F300129A402A43426004
:105030005AE0DC08083450F8246003F007029500B9
:105040000F22AA4026EA020E0A69AA4042EA0E028C
:1050500040F824205CE0062200E0002202FA0EF272
:105060002A430234574D45F82420574A94686FEA82
:105070000C0224EA0C054E6816F4801F01D04CEA9D
:105080000405514CA560E46802EA04054E6816F474
:10509000001F01D04CEA04054B4CE560646802EA4D
:1050A00004054E6816F4003F01D04CEA0405464C56
:1050B0006560246822404D6815F4803F01D04CEAB9
:1050C0000402414C226001330F2B77D801229A4011
:1050D0000C6804EA020C32EA0404F4D14C6804F0CF
:1050E0000304013C012C90D94A6802F00302032A10
:1050F00009D0C4685D000322AA4024EA02048A6839
:10510000AA402243C2604A6802F00302022A90D0F9
:1051100004684FEA430E032202FA0EF224EA020464
:105120004A6802F0030202FA0EF2224302604A6861
:1051300012F4403FC7D000220192244A546C44F438
:1051400080445464526C02F480420192019A9C089B
:10515000A51C1C4A52F8255003F003024FEA820EA8
:105160000F2202FA0EF225EA0205194A90423FF494
:1051700074AF02F58062904216D002F580629042D0
:1051800014D002F58062904212D002F58062904203
:1051900010D002F5806290420ED002F580629042FB
:1051A0003FF459AF072259E7012257E7022255E79A
:1051B000032253E7042251E705224FE702B070BDF6
:1051C000704700BF00380140003C014000380240F9
:1051D000000002400AB18161704709048161704793
:1051E000436901EA030221EA030141EA02418161C4
:1051F0007047000008B5054B5B69034200D108BD4C
:10520000024B5861FCF728F8F9E700BF003C014069
:105210002DE9F04383B0D0F8008001EBC10300EB2F
:1052200083039A6A5B6A9A4254D807460C469B1AD3
:1052300001EBC10200EB8202D2699A4200D31A4606
:1052400002F103094FEA990915E006F103094FEA53
:105250009909BB7904EBC40507EB8505296A00931E
:10526000B3B2E2B2404603F03CF82B6A33442B62FF
:10527000AB6A3344AB6208EB441303F510639B69DC
:105280009BB24B4512D304EBC40207EB8202916A36
:10529000536A99420AD24BB15B1A04EBC40207EB82
:1052A0008202D6699E42D0D31E46CEE704EBC400EC
:1052B00007EB80077A6ABB6A9A420FD804F00F04A2
:1052C0000123A340D8F8344824EA0304C8F834483A
:1052D000002000E0012003B0BDE8F0830020FAE7E1
:1052E00030B583B0002800F082800446056890F84D
:1052F0009534C3B1032384F89534B5F1A04F17D08A
:10530000206802F0A3FD237C8DF80030231D0ECB16
:10531000206802F0DAFC70B1022384F8953401258C
:10532000284603B030BD80F8943405F021FBE1E756
:105330000023A371E4E70021206803F0F1F902469D
:1053400008B9034617E0022384F895340125E7E7FE
:1053500003EBC30104EB8101012048750B75CB857C
:1053600000200876C861086203EBC30104EB8101E9
:1053700048620133DBB220799842E9D816E002EBAB
:10538000C20304EB8303002183F8551283F85422EF
:1053900083F85812C3F85C12C3F8601202EBC20320
:1053A00004EB8303C3F864120132D2B29042E6D810
:1053B000237C8DF80030231D0ECB206802F09CFD6D
:1053C000054658B900236374012384F89534237B80
:1053D000012B08D0206803F060F9A1E7022384F8CC
:1053E000953401259CE7204600F073FDF2E7012586
:1053F00096E7036890F89424012A1AD010B5044661
:10540000012280F89424DA6812F0400F02D0427B27
:10541000012A09D0206802F013FD206803F02FF95B
:10542000002084F8940410BD9A6B42F480329A6391
:10543000F0E702207047000070B504460D46006892
:10544000066C00EB411303F530639A68A1790129DA
:1054500011D038498E4256D03DB905EBC50304EB57
:105460008303D3F86432002B5ED0E9B2204605F006
:10547000DBFA002070BD12F0080F09D02E498E42D1
:10548000F7D912F4004FF4D04FF400429A60F0E7DD
:1054900012F0200F02D020229A60EAE712F0280FC3
:1054A000E7D125498E4206D912F4004F03D04FF4BC
:1054B00000429A60DDE705EBC50204EB8202D2F8F8
:1054C00074121B69C3F31203CB1AC2F868327DB998
:1054D00005EBC50204EB8202D2F864226AB105EB47
:1054E000C50204EB8202D2F860120B44C2F86032AB
:1054F000E9B2204605F098FABBE704F29C4201218C
:1055000003F050F9F4E712F4004F03D04FF40042D7
:105510009A60AEE712F0200F01D020229A60E9B223
:10552000204605F081FAA4E704F29C42002103F032
:1055300039F99AE70A31544F0A30544F38B50446C6
:1055400003681D6C03EB4113D3F8081B0E4A954208
:1055500007D903F5306311F4004F02D04FF4004235
:105560009A60204605F058FA074B9D4202D9A3796C
:10557000012B01D0002038BD04F29C42012120689B
:1055800003F010F9F6E700BF0A30544F90F8943456
:10559000012B0CD010B50446012380F894344174DB
:1055A000006803F05CF8002084F8940410BD022029
:1055B000704738B505468C4611F0800F29D101F0AF
:1055C0000F0E0EEBCE04A40004F514740444211D48
:1055D0000EEBCE0E00EB8E0E00208EF855020CF076
:1055E0000F0C81F800C08A600B714A780AB1A1F8EB
:1055F0001AC0022B1CD095F89434012B1BD0012328
:1056000085F89434286802F04EFD002085F8940453
:1056100038BD01F00F0000EBC001890010312944B2
:10562000043100EBC00005EB800001244475D6E78F
:1056300000234B71DFE70220EAE710B504460A4673
:1056400011F0800F20D101F00F0000EBC0039B0090
:1056500003F514732344191D00EBC00004EB800014
:10566000002380F8553202F00F020A7094F8943447
:10567000012B18D0012384F89434206802F062FDD5
:10568000002084F8940410BD01F00F0000EBC0036B
:105690009B0010332344191D00EBC00004EB800075
:1056A00001234375DFE70220EDE710B5144601F052
:1056B0000F0C0CEBCC01890001F51471014404318D
:1056C0000CEBCC0E00EB8E0ECEF86022CEF86432DE
:1056D0000023CEF868328EF855328EF854C28279A3
:1056E000012A04D0006802F013FE002010BDCEF89D
:1056F0007042F7E701F00F0101EBC10100EB8101FE
:10570000D1F86802704710B5144601F00F0C0CEB8D
:10571000CC0189001031014404310CEBCC0E00EBBC
:105720008E0ECEF82020CEF824300023CEF828307C
:1057300001238EF815308EF814C082799A4204D075
:10574000006802F0E5FD002010BDCEF83040F7E71C
:1057500038B501F00F050279AA4238D304460B464A
:1057600011F0800F1FD101EBC101890001F5147107
:105770000144043103EBC30300EB8303002283F8ED
:10578000552201238B700D7094F89434012B20D096
:10579000012384F89434206802F006FF85B10020CC
:1057A00084F8940438BD05EBC5018900103101442B
:1057B000043105EBC50300EB830301225A75E0E7D2
:1057C00004F29C42A179206802F0ECFFE7E7012097
:1057D000E8E70220E6E701F00F0302799A4230D3AE
:1057E00010B5044611F0800F1ED103EBC3018900F0
:1057F00001F514710144043103EBC30200EB820292
:10580000002082F8550200228A700B7094F89434BC
:10581000012B18D0012384F89434206802F0F1FEA3
:10582000002084F8940410BD03EBC30189001031FB
:105830000144043103EBC30200EB820201205075E6
:10584000E1E7012070470220EDE708B511F0800F75
:105850000CD101F00F0101EBC101890001F51471B8
:1058600001440431006802F0DDFC08BD01F00F01C5
:1058700001EBC1018900103101440431F2E72DE947
:10588000F04F83B004460568284602F045FF10B18A
:1058900003B0BDE8F08F0646206802F00CFF002838
:1058A000F6D005F50067BB68C3F30D23C4F8D43404
:1058B000206802F000FF10F0020F04D02268536944
:1058C00003F002035361206802F0F5FE10F0100FA0
:1058D00014D02268936923F010039361D5F82080D7
:1058E00008F00F09C8F34343022B69D0062B00F0E0
:1058F0008D802268936943F010039361206802F061
:10590000DAFE10F4002F40F09380206802F0D3FEFE
:1059100010F4802F40F0FC80206802F0CCFE0028BC
:10592000C0F27D81206802F0C6FE10F4006F09D03D
:10593000BB6813F0010F40F08A812268536903F4B9
:1059400000635361206802F0B6FE10F0006F15D0BE
:105950002268536903F00063536194F8CC34002B40
:1059600040F07981012184F8CC1423685B6DC3F386
:105970008303C4F8D034204605F00EF9206802F005
:105980009AFE10F4805F40F06A81206802F093FE76
:1059900010F4005F40F0B781206802F08CFE10F038
:1059A000080F40F0C881206802F085FE10F0800FDB
:1059B00000F0DB81AB6923F08003AB610126C4E119
:1059C00047F6F07318EA030F93D04FEA181B4FEA1B
:1059D000C903019309EBC90A04EB8A0AC8F30A1246
:1059E000DAF86012284602F0B5FDCBF30A0BDAF8BC
:1059F00060325B44CAF86032019B4B4404EB830382
:105A0000D3F868325B44CAF8683272E7082204F2BD
:105A10009C41284602F09EFDC8F30A1809EBC90212
:105A200004EB8202D2F868324344C2F8683260E77D
:105A3000206802F044FE8046B14635E005EB49138C
:105A40000122C3F8082B49462046FFF7F5FC3CE04D
:105A500005EB49130822C3F8082B49462046FFF7F7
:105A60006DFD35E009EBC90304EB830393F857326E
:105A7000012B41D005EB49130222C3F8082B1AF081
:105A8000200F04D005EB49132022C3F8082B1AF489
:105A9000005F05D005EB49134FF40052C3F8082B03
:105AA00009F101094FEA5808B8F1000F3FF42DAF92
:105AB00018F0010FF4D05FFA89FB5946206802F014
:105AC0000EFE824610F0010FB8D11AF0080FBFD1B8
:105AD0001AF0100F04D005EB49131022C3F8082B5D
